{
  "address": "0x61eF55fF50f0Bc0141E477745fF0c0Ce1Ae664aF",
  "abi": [
    {
      "inputs": [
        {
          "internalType": "address",
          "name": "_WETH",
          "type": "address"
        }
      ],
      "stateMutability": "nonpayable",
      "type": "constructor"
    },
    {
      "anonymous": false,
      "inputs": [
        {
          "indexed": true,
          "internalType": "address",
          "name": "previousOwner",
          "type": "address"
        },
        {
          "indexed": true,
          "internalType": "address",
          "name": "newOwner",
          "type": "address"
        }
      ],
      "name": "OwnershipTransferred",
      "type": "event"
    },
    {
      "inputs": [],
      "name": "WETH",
      "outputs": [
        {
          "internalType": "address",
          "name": "",
          "type": "address"
        }
      ],
      "stateMutability": "view",
      "type": "function"
    },
    {
      "inputs": [],
      "name": "owner",
      "outputs": [
        {
          "internalType": "address",
          "name": "",
          "type": "address"
        }
      ],
      "stateMutability": "view",
      "type": "function"
    },
    {
      "inputs": [],
      "name": "renounceOwnership",
      "outputs": [],
      "stateMutability": "nonpayable",
      "type": "function"
    },
    {
      "inputs": [
        {
          "internalType": "address",
          "name": "newOwner",
          "type": "address"
        }
      ],
      "name": "transferOwnership",
      "outputs": [],
      "stateMutability": "nonpayable",
      "type": "function"
    },
    {
      "inputs": [],
      "name": "unwrapWETH",
      "outputs": [],
      "stateMutability": "nonpayable",
      "type": "function"
    },
    {
      "inputs": [
        {
          "internalType": "address",
          "name": "token",
          "type": "address"
        },
        {
          "internalType": "address",
          "name": "to",
          "type": "address"
        },
        {
          "internalType": "uint256",
          "name": "amount",
          "type": "uint256"
        }
      ],
      "name": "withdrawERC20Token",
      "outputs": [],
      "stateMutability": "nonpayable",
      "type": "function"
    },
    {
      "inputs": [
        {
          "internalType": "address payable",
          "name": "to",
          "type": "address"
        },
        {
          "internalType": "uint256",
          "name": "amount",
          "type": "uint256"
        }
      ],
      "name": "withdrawETH",
      "outputs": [],
      "stateMutability": "nonpayable",
      "type": "function"
    },
    {
      "stateMutability": "payable",
      "type": "receive"
    }
  ],
  "transactionHash": "0x007d9003273a6a9a337ce5384b73c67033ccd08e9b276c8eb4f0789a25175791",
  "args": [
    "0x0d500b1d8e8ef31e21c99d1db9a6444d3adf1270"
  ],
  "solcInputHash": "a3069635db967a81a0e388a0c643eac6",
  "bytecode": "0x608060405234801561001057600080fd5b506040516107633803806107638339818101604052602081101561003357600080fd5b505160006100486001600160e01b036100b716565b600080546001600160a01b0319166001600160a01b0383169081178255604051929350917f8be0079c531659141344cd1fd0a4f28419497f9722a3daafe3b4186f6b6457e0908290a350600180546001600160a01b0319166001600160a01b03929092169190911790556100bb565b3390565b610699806100ca6000396000f3fe6080604052600436106100645760003560e01c8063385ad0a4146100705780634782f7791461008757806357d1b31b146100c0578063715018a6146101035780638da5cb5b14610118578063ad5c464814610149578063f2fde38b1461015e5761006b565b3661006b57005b600080fd5b34801561007c57600080fd5b50610085610191565b005b34801561009357600080fd5b50610085600480360360408110156100aa57600080fd5b506001600160a01b0381351690602001356102c4565b3480156100cc57600080fd5b50610085600480360360608110156100e357600080fd5b506001600160a01b03813581169160208101359091169060400135610361565b34801561010f57600080fd5b5061008561044d565b34801561012457600080fd5b5061012d6104f9565b604080516001600160a01b039092168252519081900360200190f35b34801561015557600080fd5b5061012d610508565b34801561016a57600080fd5b506100856004803603602081101561018157600080fd5b50356001600160a01b0316610517565b600154604080516370a0823160e01b815230600482015290516000926001600160a01b0316916370a08231916024808301926020929190829003018186803b1580156101dc57600080fd5b505afa1580156101f0573d6000803e3d6000fd5b505050506040513d602081101561020657600080fd5b505190508061025c576040805162461bcd60e51b815260206004820152601e60248201527f46656552656365697665723a204e6f7468696e6720746f20756e777261700000604482015290519081900360640190fd5b60015460408051632e1a7d4d60e01b81526004810184905290516001600160a01b0390921691632e1a7d4d9160248082019260009290919082900301818387803b1580156102a957600080fd5b505af11580156102bd573d6000803e3d6000fd5b5050505050565b6102cc610619565b6001600160a01b03166102dd6104f9565b6001600160a01b031614610326576040805162461bcd60e51b81526020600482018190526024820152600080516020610644833981519152604482015290519081900360640190fd5b6040516001600160a01b0383169082156108fc029083906000818181858888f1935050505015801561035c573d6000803e3d6000fd5b505050565b610369610619565b6001600160a01b031661037a6104f9565b6001600160a01b0316146103c3576040805162461bcd60e51b81526020600482018190526024820152600080516020610644833981519152604482015290519081900360640190fd5b826001600160a01b031663a9059cbb83836040518363ffffffff1660e01b815260040180836001600160a01b03166001600160a01b0316815260200182815260200192505050602060405180830381600087803b15801561042357600080fd5b505af1158015610437573d6000803e3d6000fd5b505050506040513d60208110156102bd57600080fd5b610455610619565b6001600160a01b03166104666104f9565b6001600160a01b0316146104af576040805162461bcd60e51b81526020600482018190526024820152600080516020610644833981519152604482015290519081900360640190fd5b600080546040516001600160a01b03909116907f8be0079c531659141344cd1fd0a4f28419497f9722a3daafe3b4186f6b6457e0908390a3600080546001600160a01b0319169055565b6000546001600160a01b031690565b6001546001600160a01b031681565b61051f610619565b6001600160a01b03166105306104f9565b6001600160a01b031614610579576040805162461bcd60e51b81526020600482018190526024820152600080516020610644833981519152604482015290519081900360640190fd5b6001600160a01b0381166105be5760405162461bcd60e51b815260040180806020018281038252602681526020018061061e6026913960400191505060405180910390fd5b600080546040516001600160a01b03808516939216917f8be0079c531659141344cd1fd0a4f28419497f9722a3daafe3b4186f6b6457e091a3600080546001600160a01b0319166001600160a01b0392909216919091179055565b339056fe4f776e61626c653a206e6577206f776e657220697320746865207a65726f20616464726573734f776e61626c653a2063616c6c6572206973206e6f7420746865206f776e6572a2646970667358221220746c7b0c52c073e651fefbfc0370d1c17ec4b6f682a6d6fd1635167e22e5713264736f6c63430006060033",
  "devdoc": {
    "methods": {
      "owner()": {
        "details": "Returns the address of the current owner."
      },
      "renounceOwnership()": {
        "details": "Leaves the contract without owner. It will not be possible to call `onlyOwner` functions anymore. Can only be called by the current owner.     * NOTE: Renouncing ownership will leave the contract without an owner, thereby removing any functionality that is only available to the owner."
      },
      "transferOwnership(address)": {
        "details": "Transfers ownership of the contract to a new account (`newOwner`). Can only be called by the current owner."
      },
      "unwrapWETH()": {
        "details": "converts WETH to ETH"
      },
      "withdrawERC20Token(address,address,uint256)": {
        "details": "lets the owner withdraw any ERC20 Token from the contract"
      },
      "withdrawETH(address,uint256)": {
        "details": "lets the owner withdraw ETH from the contract"
      }
    }
  },
  "userdoc": {
    "methods": {}
  },
  "storageLayout": {
    "storage": [
      {
        "astId": 592,
        "contract": "contracts/FeeReceiverMultichain.sol:FeeReceiverMultichain",
        "label": "_owner",
        "offset": 0,
        "slot": "0",
        "type": "t_address"
      },
      {
        "astId": 1741,
        "contract": "contracts/FeeReceiverMultichain.sol:FeeReceiverMultichain",
        "label": "WETH",
        "offset": 0,
        "slot": "1",
        "type": "t_address"
      }
    ],
    "types": {
      "t_address": {
        "encoding": "inplace",
        "label": "address",
        "numberOfBytes": "20"
      }
    }
  }
}