{
  "address": "0xC4B8393ee768BFa96beA98E52D67C86D654dA81E",
  "abi": [
    {
      "inputs": [
        {
          "internalType": "address",
          "name": "_WETH",
          "type": "address"
        }
      ],
      "stateMutability": "nonpayable",
      "type": "constructor"
    },
    {
      "anonymous": false,
      "inputs": [
        {
          "indexed": true,
          "internalType": "address",
          "name": "previousOwner",
          "type": "address"
        },
        {
          "indexed": true,
          "internalType": "address",
          "name": "newOwner",
          "type": "address"
        }
      ],
      "name": "OwnershipTransferred",
      "type": "event"
    },
    {
      "inputs": [],
      "name": "WETH",
      "outputs": [
        {
          "internalType": "address",
          "name": "",
          "type": "address"
        }
      ],
      "stateMutability": "view",
      "type": "function"
    },
    {
      "inputs": [],
      "name": "owner",
      "outputs": [
        {
          "internalType": "address",
          "name": "",
          "type": "address"
        }
      ],
      "stateMutability": "view",
      "type": "function"
    },
    {
      "inputs": [],
      "name": "renounceOwnership",
      "outputs": [],
      "stateMutability": "nonpayable",
      "type": "function"
    },
    {
      "inputs": [
        {
          "internalType": "address",
          "name": "newOwner",
          "type": "address"
        }
      ],
      "name": "transferOwnership",
      "outputs": [],
      "stateMutability": "nonpayable",
      "type": "function"
    },
    {
      "inputs": [],
      "name": "unwrapWETH",
      "outputs": [],
      "stateMutability": "nonpayable",
      "type": "function"
    },
    {
      "inputs": [
        {
          "internalType": "address",
          "name": "token",
          "type": "address"
        },
        {
          "internalType": "address",
          "name": "to",
          "type": "address"
        },
        {
          "internalType": "uint256",
          "name": "amount",
          "type": "uint256"
        }
      ],
      "name": "withdrawERC20Token",
      "outputs": [],
      "stateMutability": "nonpayable",
      "type": "function"
    },
    {
      "inputs": [
        {
          "internalType": "address payable",
          "name": "to",
          "type": "address"
        },
        {
          "internalType": "uint256",
          "name": "amount",
          "type": "uint256"
        }
      ],
      "name": "withdrawETH",
      "outputs": [],
      "stateMutability": "nonpayable",
      "type": "function"
    },
    {
      "stateMutability": "payable",
      "type": "receive"
    }
  ],
  "transactionHash": "0x51b3f44c1aeca38360d1aa9eca28d41697b3e5da877d8f74a6718c73d378a9d0",
  "args": [
    "0x0d500b1d8e8ef31e21c99d1db9a6444d3adf1270"
  ],
  "solcInputHash": "60f4354d3b3b99cfbc2014bc2e2337ef",
  "bytecode": "0x608060405234801561001057600080fd5b506040516107733803806107738339818101604052602081101561003357600080fd5b505160006100486001600160e01b036100b716565b600080546001600160a01b0319166001600160a01b0383169081178255604051929350917f8be0079c531659141344cd1fd0a4f28419497f9722a3daafe3b4186f6b6457e0908290a350600180546001600160a01b0319166001600160a01b03929092169190911790556100bb565b3390565b6106a9806100ca6000396000f3fe6080604052600436106100745760003560e01c8063715018a61161004e578063715018a6146101135780638da5cb5b14610128578063ad5c464814610159578063f2fde38b1461016e5761007b565b8063385ad0a4146100805780634782f7791461009757806357d1b31b146100d05761007b565b3661007b57005b600080fd5b34801561008c57600080fd5b506100956101a1565b005b3480156100a357600080fd5b50610095600480360360408110156100ba57600080fd5b506001600160a01b0381351690602001356102d4565b3480156100dc57600080fd5b50610095600480360360608110156100f357600080fd5b506001600160a01b03813581169160208101359091169060400135610371565b34801561011f57600080fd5b5061009561045d565b34801561013457600080fd5b5061013d610509565b604080516001600160a01b039092168252519081900360200190f35b34801561016557600080fd5b5061013d610518565b34801561017a57600080fd5b506100956004803603602081101561019157600080fd5b50356001600160a01b0316610527565b600154604080516370a0823160e01b815230600482015290516000926001600160a01b0316916370a08231916024808301926020929190829003018186803b1580156101ec57600080fd5b505afa158015610200573d6000803e3d6000fd5b505050506040513d602081101561021657600080fd5b505190508061026c576040805162461bcd60e51b815260206004820152601e60248201527f46656552656365697665723a204e6f7468696e6720746f20756e777261700000604482015290519081900360640190fd5b60015460408051632e1a7d4d60e01b81526004810184905290516001600160a01b0390921691632e1a7d4d9160248082019260009290919082900301818387803b1580156102b957600080fd5b505af11580156102cd573d6000803e3d6000fd5b5050505050565b6102dc610629565b6001600160a01b03166102ed610509565b6001600160a01b031614610336576040805162461bcd60e51b81526020600482018190526024820152600080516020610654833981519152604482015290519081900360640190fd5b6040516001600160a01b0383169082156108fc029083906000818181858888f1935050505015801561036c573d6000803e3d6000fd5b505050565b610379610629565b6001600160a01b031661038a610509565b6001600160a01b0316146103d3576040805162461bcd60e51b81526020600482018190526024820152600080516020610654833981519152604482015290519081900360640190fd5b826001600160a01b031663a9059cbb83836040518363ffffffff1660e01b815260040180836001600160a01b03166001600160a01b0316815260200182815260200192505050602060405180830381600087803b15801561043357600080fd5b505af1158015610447573d6000803e3d6000fd5b505050506040513d60208110156102cd57600080fd5b610465610629565b6001600160a01b0316610476610509565b6001600160a01b0316146104bf576040805162461bcd60e51b81526020600482018190526024820152600080516020610654833981519152604482015290519081900360640190fd5b600080546040516001600160a01b03909116907f8be0079c531659141344cd1fd0a4f28419497f9722a3daafe3b4186f6b6457e0908390a3600080546001600160a01b0319169055565b6000546001600160a01b031690565b6001546001600160a01b031681565b61052f610629565b6001600160a01b0316610540610509565b6001600160a01b031614610589576040805162461bcd60e51b81526020600482018190526024820152600080516020610654833981519152604482015290519081900360640190fd5b6001600160a01b0381166105ce5760405162461bcd60e51b815260040180806020018281038252602681526020018061062e6026913960400191505060405180910390fd5b600080546040516001600160a01b03808516939216917f8be0079c531659141344cd1fd0a4f28419497f9722a3daafe3b4186f6b6457e091a3600080546001600160a01b0319166001600160a01b0392909216919091179055565b339056fe4f776e61626c653a206e6577206f776e657220697320746865207a65726f20616464726573734f776e61626c653a2063616c6c6572206973206e6f7420746865206f776e6572a2646970667358221220253dda468f2ac5017082e60f8cc9d62b0ecfe0771f8beb2f85d55ad56f8046b464736f6c63430006060033",
  "devdoc": {
    "methods": {
      "owner()": {
        "details": "Returns the address of the current owner."
      },
      "renounceOwnership()": {
        "details": "Leaves the contract without owner. It will not be possible to call `onlyOwner` functions anymore. Can only be called by the current owner.     * NOTE: Renouncing ownership will leave the contract without an owner, thereby removing any functionality that is only available to the owner."
      },
      "transferOwnership(address)": {
        "details": "Transfers ownership of the contract to a new account (`newOwner`). Can only be called by the current owner."
      },
      "unwrapWETH()": {
        "details": "converts WETH to ETH"
      },
      "withdrawERC20Token(address,address,uint256)": {
        "details": "lets the owner withdraw any ERC20 Token from the contract"
      },
      "withdrawETH(address,uint256)": {
        "details": "lets the owner withdraw ETH from the contract"
      }
    }
  },
  "userdoc": {
    "methods": {}
  },
  "storageLayout": {
    "storage": [
      {
        "astId": 592,
        "contract": "contracts/FeeReceiverMultichain.sol:FeeReceiverMultichain",
        "label": "_owner",
        "offset": 0,
        "slot": "0",
        "type": "t_address"
      },
      {
        "astId": 1741,
        "contract": "contracts/FeeReceiverMultichain.sol:FeeReceiverMultichain",
        "label": "WETH",
        "offset": 0,
        "slot": "1",
        "type": "t_address"
      }
    ],
    "types": {
      "t_address": {
        "encoding": "inplace",
        "label": "address",
        "numberOfBytes": "20"
      }
    }
  }
}