{
  "address": "0xeaAC1204D5E7b92DC1b37adB1CCb6aDaC4fd6A06",
  "abi": [
    {
      "inputs": [
        {
          "internalType": "address",
          "name": "_WETH",
          "type": "address"
        },
        {
          "internalType": "uint16",
          "name": "_swapFee",
          "type": "uint16"
        },
        {
          "internalType": "uint16",
          "name": "_referralRewardRate",
          "type": "uint16"
        },
        {
          "internalType": "address payable",
          "name": "_feeReceiver",
          "type": "address"
        },
        {
          "internalType": "contract IReferralRegistry",
          "name": "_referralRegistry",
          "type": "address"
        },
        {
          "internalType": "address payable",
          "name": "_zeroEx",
          "type": "address"
        },
        {
          "internalType": "address payable",
          "name": "_oneInch",
          "type": "address"
        }
      ],
      "stateMutability": "nonpayable",
      "type": "constructor"
    },
    {
      "anonymous": false,
      "inputs": [
        {
          "indexed": true,
          "internalType": "address",
          "name": "account",
          "type": "address"
        },
        {
          "indexed": false,
          "internalType": "uint16",
          "name": "referralRate",
          "type": "uint16"
        }
      ],
      "name": "CustomReferralRewardRateUpdated",
      "type": "event"
    },
    {
      "anonymous": false,
      "inputs": [
        {
          "indexed": false,
          "internalType": "address payable",
          "name": "feeReceiver",
          "type": "address"
        }
      ],
      "name": "FeeReceiverUpdated",
      "type": "event"
    },
    {
      "anonymous": false,
      "inputs": [
        {
          "indexed": false,
          "internalType": "address",
          "name": "factory",
          "type": "address"
        }
      ],
      "name": "ForkCreated",
      "type": "event"
    },
    {
      "anonymous": false,
      "inputs": [
        {
          "indexed": false,
          "internalType": "address",
          "name": "factory",
          "type": "address"
        }
      ],
      "name": "ForkUpdated",
      "type": "event"
    },
    {
      "anonymous": false,
      "inputs": [
        {
          "indexed": true,
          "internalType": "address",
          "name": "previousOwner",
          "type": "address"
        },
        {
          "indexed": true,
          "internalType": "address",
          "name": "newOwner",
          "type": "address"
        }
      ],
      "name": "OwnershipTransferred",
      "type": "event"
    },
    {
      "anonymous": false,
      "inputs": [
        {
          "indexed": false,
          "internalType": "address",
          "name": "account",
          "type": "address"
        }
      ],
      "name": "Paused",
      "type": "event"
    },
    {
      "anonymous": false,
      "inputs": [
        {
          "indexed": false,
          "internalType": "address",
          "name": "referralRegistry",
          "type": "address"
        }
      ],
      "name": "ReferralRegistryUpdated",
      "type": "event"
    },
    {
      "anonymous": false,
      "inputs": [
        {
          "indexed": false,
          "internalType": "address",
          "name": "from",
          "type": "address"
        },
        {
          "indexed": true,
          "internalType": "address",
          "name": "to",
          "type": "address"
        },
        {
          "indexed": false,
          "internalType": "address",
          "name": "tokenOut",
          "type": "address"
        },
        {
          "indexed": false,
          "internalType": "address",
          "name": "tokenReward",
          "type": "address"
        },
        {
          "indexed": false,
          "internalType": "uint256",
          "name": "amount",
          "type": "uint256"
        }
      ],
      "name": "ReferralRewardPaid",
      "type": "event"
    },
    {
      "anonymous": false,
      "inputs": [
        {
          "indexed": false,
          "internalType": "uint16",
          "name": "referralRewardRate",
          "type": "uint16"
        }
      ],
      "name": "ReferralRewardRateUpdated",
      "type": "event"
    },
    {
      "anonymous": false,
      "inputs": [
        {
          "indexed": false,
          "internalType": "bool",
          "name": "activated",
          "type": "bool"
        }
      ],
      "name": "ReferralsActivatedUpdated",
      "type": "event"
    },
    {
      "anonymous": false,
      "inputs": [
        {
          "indexed": false,
          "internalType": "uint16",
          "name": "swapFee",
          "type": "uint16"
        }
      ],
      "name": "SwapFeeUpdated",
      "type": "event"
    },
    {
      "anonymous": false,
      "inputs": [
        {
          "indexed": false,
          "internalType": "address",
          "name": "account",
          "type": "address"
        }
      ],
      "name": "Unpaused",
      "type": "event"
    },
    {
      "inputs": [],
      "name": "FEE_DENOMINATOR",
      "outputs": [
        {
          "internalType": "uint256",
          "name": "",
          "type": "uint256"
        }
      ],
      "stateMutability": "view",
      "type": "function"
    },
    {
      "inputs": [],
      "name": "WETH",
      "outputs": [
        {
          "internalType": "address",
          "name": "",
          "type": "address"
        }
      ],
      "stateMutability": "view",
      "type": "function"
    },
    {
      "inputs": [
        {
          "internalType": "address",
          "name": "",
          "type": "address"
        }
      ],
      "name": "customReferralRewardRate",
      "outputs": [
        {
          "internalType": "uint16",
          "name": "",
          "type": "uint16"
        }
      ],
      "stateMutability": "view",
      "type": "function"
    },
    {
      "inputs": [
        {
          "components": [
            {
              "internalType": "bytes",
              "name": "data",
              "type": "bytes"
            },
            {
              "internalType": "address",
              "name": "fromToken",
              "type": "address"
            },
            {
              "internalType": "address",
              "name": "toToken",
              "type": "address"
            },
            {
              "internalType": "uint256",
              "name": "amountFrom",
              "type": "uint256"
            },
            {
              "internalType": "address",
              "name": "referee",
              "type": "address"
            },
            {
              "internalType": "uint256",
              "name": "minOut",
              "type": "uint256"
            },
            {
              "internalType": "bool",
              "name": "fee",
              "type": "bool"
            }
          ],
          "internalType": "struct FloozMultichainRouter.ExternalSwapData",
          "name": "swapData",
          "type": "tuple"
        }
      ],
      "name": "executeOneInchSwap",
      "outputs": [],
      "stateMutability": "payable",
      "type": "function"
    },
    {
      "inputs": [
        {
          "components": [
            {
              "internalType": "bytes",
              "name": "data",
              "type": "bytes"
            },
            {
              "internalType": "address",
              "name": "fromToken",
              "type": "address"
            },
            {
              "internalType": "address",
              "name": "toToken",
              "type": "address"
            },
            {
              "internalType": "uint256",
              "name": "amountFrom",
              "type": "uint256"
            },
            {
              "internalType": "address",
              "name": "referee",
              "type": "address"
            },
            {
              "internalType": "uint256",
              "name": "minOut",
              "type": "uint256"
            },
            {
              "internalType": "bool",
              "name": "fee",
              "type": "bool"
            }
          ],
          "internalType": "struct FloozMultichainRouter.ExternalSwapData",
          "name": "swapData",
          "type": "tuple"
        }
      ],
      "name": "executeZeroExSwap",
      "outputs": [],
      "stateMutability": "payable",
      "type": "function"
    },
    {
      "inputs": [],
      "name": "feeReceiver",
      "outputs": [
        {
          "internalType": "address payable",
          "name": "",
          "type": "address"
        }
      ],
      "stateMutability": "view",
      "type": "function"
    },
    {
      "inputs": [
        {
          "internalType": "address",
          "name": "",
          "type": "address"
        }
      ],
      "name": "forkActivated",
      "outputs": [
        {
          "internalType": "bool",
          "name": "",
          "type": "bool"
        }
      ],
      "stateMutability": "view",
      "type": "function"
    },
    {
      "inputs": [
        {
          "internalType": "address",
          "name": "",
          "type": "address"
        }
      ],
      "name": "forkInitCode",
      "outputs": [
        {
          "internalType": "bytes",
          "name": "",
          "type": "bytes"
        }
      ],
      "stateMutability": "view",
      "type": "function"
    },
    {
      "inputs": [
        {
          "internalType": "address",
          "name": "user",
          "type": "address"
        }
      ],
      "name": "getUserReferee",
      "outputs": [
        {
          "internalType": "address",
          "name": "",
          "type": "address"
        }
      ],
      "stateMutability": "view",
      "type": "function"
    },
    {
      "inputs": [
        {
          "internalType": "address",
          "name": "user",
          "type": "address"
        }
      ],
      "name": "hasUserReferee",
      "outputs": [
        {
          "internalType": "bool",
          "name": "",
          "type": "bool"
        }
      ],
      "stateMutability": "view",
      "type": "function"
    },
    {
      "inputs": [],
      "name": "oneInch",
      "outputs": [
        {
          "internalType": "address payable",
          "name": "",
          "type": "address"
        }
      ],
      "stateMutability": "view",
      "type": "function"
    },
    {
      "inputs": [],
      "name": "owner",
      "outputs": [
        {
          "internalType": "address",
          "name": "",
          "type": "address"
        }
      ],
      "stateMutability": "view",
      "type": "function"
    },
    {
      "inputs": [],
      "name": "pause",
      "outputs": [],
      "stateMutability": "nonpayable",
      "type": "function"
    },
    {
      "inputs": [],
      "name": "paused",
      "outputs": [
        {
          "internalType": "bool",
          "name": "",
          "type": "bool"
        }
      ],
      "stateMutability": "view",
      "type": "function"
    },
    {
      "inputs": [],
      "name": "referralRegistry",
      "outputs": [
        {
          "internalType": "contract IReferralRegistry",
          "name": "",
          "type": "address"
        }
      ],
      "stateMutability": "view",
      "type": "function"
    },
    {
      "inputs": [],
      "name": "referralRewardRate",
      "outputs": [
        {
          "internalType": "uint16",
          "name": "",
          "type": "uint16"
        }
      ],
      "stateMutability": "view",
      "type": "function"
    },
    {
      "inputs": [],
      "name": "referralsActivated",
      "outputs": [
        {
          "internalType": "bool",
          "name": "",
          "type": "bool"
        }
      ],
      "stateMutability": "view",
      "type": "function"
    },
    {
      "inputs": [
        {
          "internalType": "address",
          "name": "_factory",
          "type": "address"
        },
        {
          "internalType": "bytes",
          "name": "_initCode",
          "type": "bytes"
        }
      ],
      "name": "registerFork",
      "outputs": [],
      "stateMutability": "nonpayable",
      "type": "function"
    },
    {
      "inputs": [],
      "name": "renounceOwnership",
      "outputs": [],
      "stateMutability": "nonpayable",
      "type": "function"
    },
    {
      "inputs": [
        {
          "components": [
            {
              "internalType": "address",
              "name": "fork",
              "type": "address"
            },
            {
              "internalType": "address",
              "name": "referee",
              "type": "address"
            },
            {
              "internalType": "bool",
              "name": "fee",
              "type": "bool"
            }
          ],
          "internalType": "struct FloozMultichainRouter.SwapData",
          "name": "swapData",
          "type": "tuple"
        },
        {
          "internalType": "uint256",
          "name": "amountOut",
          "type": "uint256"
        },
        {
          "internalType": "address[]",
          "name": "path",
          "type": "address[]"
        }
      ],
      "name": "swapETHForExactTokens",
      "outputs": [
        {
          "internalType": "uint256[]",
          "name": "amounts",
          "type": "uint256[]"
        }
      ],
      "stateMutability": "payable",
      "type": "function"
    },
    {
      "inputs": [
        {
          "components": [
            {
              "internalType": "address",
              "name": "fork",
              "type": "address"
            },
            {
              "internalType": "address",
              "name": "referee",
              "type": "address"
            },
            {
              "internalType": "bool",
              "name": "fee",
              "type": "bool"
            }
          ],
          "internalType": "struct FloozMultichainRouter.SwapData",
          "name": "swapData",
          "type": "tuple"
        },
        {
          "internalType": "uint256",
          "name": "amountOutMin",
          "type": "uint256"
        },
        {
          "internalType": "address[]",
          "name": "path",
          "type": "address[]"
        }
      ],
      "name": "swapExactETHForTokens",
      "outputs": [
        {
          "internalType": "uint256[]",
          "name": "amounts",
          "type": "uint256[]"
        }
      ],
      "stateMutability": "payable",
      "type": "function"
    },
    {
      "inputs": [
        {
          "components": [
            {
              "internalType": "address",
              "name": "fork",
              "type": "address"
            },
            {
              "internalType": "address",
              "name": "referee",
              "type": "address"
            },
            {
              "internalType": "bool",
              "name": "fee",
              "type": "bool"
            }
          ],
          "internalType": "struct FloozMultichainRouter.SwapData",
          "name": "swapData",
          "type": "tuple"
        },
        {
          "internalType": "uint256",
          "name": "amountOutMin",
          "type": "uint256"
        },
        {
          "internalType": "address[]",
          "name": "path",
          "type": "address[]"
        }
      ],
      "name": "swapExactETHForTokensSupportingFeeOnTransferTokens",
      "outputs": [],
      "stateMutability": "payable",
      "type": "function"
    },
    {
      "inputs": [
        {
          "components": [
            {
              "internalType": "address",
              "name": "fork",
              "type": "address"
            },
            {
              "internalType": "address",
              "name": "referee",
              "type": "address"
            },
            {
              "internalType": "bool",
              "name": "fee",
              "type": "bool"
            }
          ],
          "internalType": "struct FloozMultichainRouter.SwapData",
          "name": "swapData",
          "type": "tuple"
        },
        {
          "internalType": "uint256",
          "name": "amountIn",
          "type": "uint256"
        },
        {
          "internalType": "uint256",
          "name": "amountOutMin",
          "type": "uint256"
        },
        {
          "internalType": "address[]",
          "name": "path",
          "type": "address[]"
        }
      ],
      "name": "swapExactTokensForETH",
      "outputs": [
        {
          "internalType": "uint256[]",
          "name": "amounts",
          "type": "uint256[]"
        }
      ],
      "stateMutability": "nonpayable",
      "type": "function"
    },
    {
      "inputs": [
        {
          "components": [
            {
              "internalType": "address",
              "name": "fork",
              "type": "address"
            },
            {
              "internalType": "address",
              "name": "referee",
              "type": "address"
            },
            {
              "internalType": "bool",
              "name": "fee",
              "type": "bool"
            }
          ],
          "internalType": "struct FloozMultichainRouter.SwapData",
          "name": "swapData",
          "type": "tuple"
        },
        {
          "internalType": "uint256",
          "name": "amountIn",
          "type": "uint256"
        },
        {
          "internalType": "uint256",
          "name": "amountOutMin",
          "type": "uint256"
        },
        {
          "internalType": "address[]",
          "name": "path",
          "type": "address[]"
        }
      ],
      "name": "swapExactTokensForETHSupportingFeeOnTransferTokens",
      "outputs": [],
      "stateMutability": "nonpayable",
      "type": "function"
    },
    {
      "inputs": [
        {
          "components": [
            {
              "internalType": "address",
              "name": "fork",
              "type": "address"
            },
            {
              "internalType": "address",
              "name": "referee",
              "type": "address"
            },
            {
              "internalType": "bool",
              "name": "fee",
              "type": "bool"
            }
          ],
          "internalType": "struct FloozMultichainRouter.SwapData",
          "name": "swapData",
          "type": "tuple"
        },
        {
          "internalType": "uint256",
          "name": "amountIn",
          "type": "uint256"
        },
        {
          "internalType": "uint256",
          "name": "amountOutMin",
          "type": "uint256"
        },
        {
          "internalType": "address[]",
          "name": "path",
          "type": "address[]"
        }
      ],
      "name": "swapExactTokensForTokens",
      "outputs": [
        {
          "internalType": "uint256[]",
          "name": "amounts",
          "type": "uint256[]"
        }
      ],
      "stateMutability": "nonpayable",
      "type": "function"
    },
    {
      "inputs": [
        {
          "components": [
            {
              "internalType": "address",
              "name": "fork",
              "type": "address"
            },
            {
              "internalType": "address",
              "name": "referee",
              "type": "address"
            },
            {
              "internalType": "bool",
              "name": "fee",
              "type": "bool"
            }
          ],
          "internalType": "struct FloozMultichainRouter.SwapData",
          "name": "swapData",
          "type": "tuple"
        },
        {
          "internalType": "uint256",
          "name": "amountIn",
          "type": "uint256"
        },
        {
          "internalType": "uint256",
          "name": "amountOutMin",
          "type": "uint256"
        },
        {
          "internalType": "address[]",
          "name": "path",
          "type": "address[]"
        }
      ],
      "name": "swapExactTokensForTokensSupportingFeeOnTransferTokens",
      "outputs": [],
      "stateMutability": "nonpayable",
      "type": "function"
    },
    {
      "inputs": [],
      "name": "swapFee",
      "outputs": [
        {
          "internalType": "uint16",
          "name": "",
          "type": "uint16"
        }
      ],
      "stateMutability": "view",
      "type": "function"
    },
    {
      "inputs": [
        {
          "components": [
            {
              "internalType": "address",
              "name": "fork",
              "type": "address"
            },
            {
              "internalType": "address",
              "name": "referee",
              "type": "address"
            },
            {
              "internalType": "bool",
              "name": "fee",
              "type": "bool"
            }
          ],
          "internalType": "struct FloozMultichainRouter.SwapData",
          "name": "swapData",
          "type": "tuple"
        },
        {
          "internalType": "uint256",
          "name": "amountOut",
          "type": "uint256"
        },
        {
          "internalType": "uint256",
          "name": "amountInMax",
          "type": "uint256"
        },
        {
          "internalType": "address[]",
          "name": "path",
          "type": "address[]"
        }
      ],
      "name": "swapTokensForExactETH",
      "outputs": [
        {
          "internalType": "uint256[]",
          "name": "amounts",
          "type": "uint256[]"
        }
      ],
      "stateMutability": "nonpayable",
      "type": "function"
    },
    {
      "inputs": [
        {
          "components": [
            {
              "internalType": "address",
              "name": "fork",
              "type": "address"
            },
            {
              "internalType": "address",
              "name": "referee",
              "type": "address"
            },
            {
              "internalType": "bool",
              "name": "fee",
              "type": "bool"
            }
          ],
          "internalType": "struct FloozMultichainRouter.SwapData",
          "name": "swapData",
          "type": "tuple"
        },
        {
          "internalType": "uint256",
          "name": "amountOut",
          "type": "uint256"
        },
        {
          "internalType": "uint256",
          "name": "amountInMax",
          "type": "uint256"
        },
        {
          "internalType": "address[]",
          "name": "path",
          "type": "address[]"
        }
      ],
      "name": "swapTokensForExactTokens",
      "outputs": [
        {
          "internalType": "uint256[]",
          "name": "amounts",
          "type": "uint256[]"
        }
      ],
      "stateMutability": "nonpayable",
      "type": "function"
    },
    {
      "inputs": [
        {
          "internalType": "address",
          "name": "newOwner",
          "type": "address"
        }
      ],
      "name": "transferOwnership",
      "outputs": [],
      "stateMutability": "nonpayable",
      "type": "function"
    },
    {
      "inputs": [],
      "name": "unpause",
      "outputs": [],
      "stateMutability": "nonpayable",
      "type": "function"
    },
    {
      "inputs": [
        {
          "internalType": "address",
          "name": "account",
          "type": "address"
        },
        {
          "internalType": "uint16",
          "name": "referralRate",
          "type": "uint16"
        }
      ],
      "name": "updateCustomReferralRewardRate",
      "outputs": [
        {
          "internalType": "uint256",
          "name": "",
          "type": "uint256"
        }
      ],
      "stateMutability": "nonpayable",
      "type": "function"
    },
    {
      "inputs": [
        {
          "internalType": "address payable",
          "name": "newFeeReceiver",
          "type": "address"
        }
      ],
      "name": "updateFeeReceiver",
      "outputs": [],
      "stateMutability": "nonpayable",
      "type": "function"
    },
    {
      "inputs": [
        {
          "internalType": "address",
          "name": "_factory",
          "type": "address"
        },
        {
          "internalType": "bytes",
          "name": "_initCode",
          "type": "bytes"
        },
        {
          "internalType": "bool",
          "name": "_activated",
          "type": "bool"
        }
      ],
      "name": "updateFork",
      "outputs": [],
      "stateMutability": "nonpayable",
      "type": "function"
    },
    {
      "inputs": [
        {
          "internalType": "address",
          "name": "newReferralRegistry",
          "type": "address"
        }
      ],
      "name": "updateReferralRegistry",
      "outputs": [],
      "stateMutability": "nonpayable",
      "type": "function"
    },
    {
      "inputs": [
        {
          "internalType": "uint16",
          "name": "newReferralRewardRate",
          "type": "uint16"
        }
      ],
      "name": "updateReferralRewardRate",
      "outputs": [],
      "stateMutability": "nonpayable",
      "type": "function"
    },
    {
      "inputs": [
        {
          "internalType": "bool",
          "name": "newReferralsActivated",
          "type": "bool"
        }
      ],
      "name": "updateReferralsActivated",
      "outputs": [],
      "stateMutability": "nonpayable",
      "type": "function"
    },
    {
      "inputs": [
        {
          "internalType": "uint16",
          "name": "newSwapFee",
          "type": "uint16"
        }
      ],
      "name": "updateSwapFee",
      "outputs": [],
      "stateMutability": "nonpayable",
      "type": "function"
    },
    {
      "inputs": [
        {
          "internalType": "address",
          "name": "token",
          "type": "address"
        },
        {
          "internalType": "address",
          "name": "to",
          "type": "address"
        },
        {
          "internalType": "uint256",
          "name": "amount",
          "type": "uint256"
        }
      ],
      "name": "withdrawERC20Token",
      "outputs": [],
      "stateMutability": "nonpayable",
      "type": "function"
    },
    {
      "inputs": [
        {
          "internalType": "address payable",
          "name": "to",
          "type": "address"
        },
        {
          "internalType": "uint256",
          "name": "amount",
          "type": "uint256"
        }
      ],
      "name": "withdrawETH",
      "outputs": [],
      "stateMutability": "nonpayable",
      "type": "function"
    },
    {
      "inputs": [],
      "name": "zeroEx",
      "outputs": [
        {
          "internalType": "address payable",
          "name": "",
          "type": "address"
        }
      ],
      "stateMutability": "view",
      "type": "function"
    },
    {
      "stateMutability": "payable",
      "type": "receive"
    }
  ],
  "transactionHash": "0x3519a422bbc03da0fe29b1c8c4bd6f0538e6c350bf4db0f0da5645363ba386c7",
  "args": [
    "0x0d500b1d8e8ef31e21c99d1db9a6444d3adf1270",
    50,
    1000,
    "0x2be4436c7e4E405A89BF78CAa9aa41F7162f827A",
    "0x3799406a8a237CE4B19a5e79C8d2Ea306eFc16ef",
    "0xdef1c0ded9bec7f1a1670819833240f027b25eff",
    "0x1111111254fb6c44bAC0beD2854e76F90643097d"
  ],
  "solcInputHash": "240e6f3121f8fa37a06a3a6414afb2c7",
  "bytecode": "0x60e06040523480156200001157600080fd5b50604051620060503803806200605083398101604081905262000034916200015d565b6000620000496001600160e01b036200014016565b600080546001600160a01b0319166001600160a01b0383169081178255604051929350917f8be0079c531659141344cd1fd0a4f28419497f9722a3daafe3b4186f6b6457e0908290a3506000805460ff60a01b1916905560018055606096871b6001600160601b0319908116608052600280546003805461ffff1990921661ffff9a8b161762010000600160b01b031916620100006001600160a01b03988916021790925593891b821660a0529190971b90961660c052600160b01b61ffff60a01b19909116600160a01b9490951693909302939093176001600160a01b03191692169190911760ff60b01b19161790556200021b565b3390565b805161ffff811681146200015757600080fd5b92915050565b600080600080600080600060e0888a03121562000178578283fd5b8751620001858162000202565b9650620001968960208a0162000144565b9550620001a78960408a0162000144565b94506060880151620001b98162000202565b6080890151909450620001cc8162000202565b60a0890151909350620001df8162000202565b60c0890151909250620001f28162000202565b8091505092959891949750929550565b6001600160a01b03811681146200021857600080fd5b50565b60805160601c60a05160601c60c05160601c615d78620002d8600039806106f65280610e165280610eb75280610fb9528061115852806111f45250806114fe52806116fa528061179a52806118d65280611a665280611b02528061261c5250806107c85280610900528061098d5280611cd05280611e335280611ec05280612185528061222b52806122a452806129095280612ae8528061302b52806137d6528061392852806139c75280613c4c5280613e0e5250615d786000f3fe60806040526004361061024a5760003560e01c80638456cb5911610139578063c69bebe4116100b6578063e96b2f501161007a578063e96b2f501461063f578063ea043e271461065f578063f01e063a1461067f578063f2fde38b1461069f578063fe4ad446146106bf578063fe7d4f34146106d457610251565b8063c69bebe4146105aa578063caa9b5cb146105ca578063d113efc4146105ea578063d73792a91461060a578063e5ae0c321461061f57610251565b8063a7a94fde116100fd578063a7a94fde14610520578063ad5c464814610540578063b3f0067414610555578063bdf771081461056a578063c00a31591461058a57610251565b80638456cb591461049657806388b28687146104ab5780638d18300a146104cb5780638da5cb5b146104eb578063927e897a1461050057610251565b80634ba4ecb1116101c757806357d1b31b1161018b57806357d1b31b146103ff5780635c975abb1461041f578063692247c314610434578063715018a6146104615780637cde0c741461047657610251565b80634ba4ecb1146103735780634e627e62146103865780634fb5df081461039b57806352ab413b146103c857806354cf2aeb146103dd57610251565b80633149f47f1161020e5780633149f47f146103055780633b74651c146103185780633f4ba83a1461032b5780633f9f5ecb146103405780634782f7791461035357610251565b8063045c08d514610256578063279c186814610281578063279f3291146102a15780632def48b1146102c35780632f912005146102e557610251565b3661025157005b600080fd5b34801561026257600080fd5b5061026b6106f4565b6040516102789190615575565b60405180910390f35b61029461028f366004615308565b610718565b604051610278919061560a565b3480156102ad57600080fd5b506102b6610b3f565b604051610278919061564e565b3480156102cf57600080fd5b506102e36102de3660046150f8565b610b4f565b005b3480156102f157600080fd5b506102b66103003660046150f8565b610beb565b6102e36103133660046152c8565b610c00565b6102e36103263660046152c8565b611385565b34801561033757600080fd5b506102e3611be0565b61029461034e366004615308565b611c29565b34801561035f57600080fd5b506102e361036e366004615130565b612093565b6102e3610381366004615308565b6120e0565b34801561039257600080fd5b5061026b61256a565b3480156103a757600080fd5b506103bb6103b63660046150f8565b61257f565b6040516102789190615659565b3480156103d457600080fd5b5061026b61261a565b3480156103e957600080fd5b506103f261263e565b6040516102789190615c44565b34801561040b57600080fd5b506102e361041a36600461515b565b612648565b34801561042b57600080fd5b506102b6612697565b34801561044057600080fd5b5061045461044f366004615252565b6126a8565b6040516102789190615c53565b34801561046d57600080fd5b506102e3612774565b34801561048257600080fd5b506103f26104913660046150f8565b6127fd565b3480156104a257600080fd5b506102e3612813565b3480156104b757600080fd5b506102946104c6366004615360565b61285a565b3480156104d757600080fd5b506102946104e6366004615360565b612bc0565b3480156104f757600080fd5b5061026b612dc9565b34801561050c57600080fd5b506102b661051b3660046150f8565b612dd8565b34801561052c57600080fd5b5061029461053b366004615360565b612e65565b34801561054c57600080fd5b5061026b613029565b34801561056157600080fd5b5061026b61304d565b34801561057657600080fd5b506102e361058536600461519b565b61305c565b34801561059657600080fd5b506102e36105a53660046151ed565b613149565b3480156105b657600080fd5b506102e36105c53660046150f8565b6131ff565b3480156105d657600080fd5b506102e36105e536600461541a565b613289565b3480156105f657600080fd5b5061026b6106053660046150f8565b613309565b34801561061657600080fd5b50610454613390565b34801561062b57600080fd5b506102e361063a36600461541a565b613396565b34801561064b57600080fd5b506102e361065a366004615290565b613445565b34801561066b57600080fd5b506102e361067a366004615360565b6134cb565b34801561068b57600080fd5b506102e361069a366004615360565b613729565b3480156106ab57600080fd5b506102e36106ba3660046150f8565b613acc565b3480156106cb57600080fd5b506103f2613b8c565b3480156106e057600080fd5b506102946106ef366004615360565b613b9d565b7f000000000000000000000000000000000000000000000000000000000000000081565b6060610722612697565b156107485760405162461bcd60e51b815260040161073f9061592b565b60405180910390fd5b61075560208601866150f8565b6001600160a01b03811660009081526005602052604090205460ff1661078d5760405162461bcd60e51b815260040161073f90615a84565b61079d60408701602088016150f8565b336001600160a01b03821614156107c65760405162461bcd60e51b815260040161073f90615843565b7f00000000000000000000000000000000000000000000000000000000000000006001600160a01b0316858560008181106107fd57fe5b905060200201602081019061081291906150f8565b6001600160a01b0316146108385760405162461bcd60e51b815260040161073f90615955565b600061085261084d60408a0160208b016150f8565b613ed8565b90506000808061087461086b60608d0160408e01615290565b34866000614072565b919450925090506108c561088b60208d018d6150f8565b848b8b808060200260200160405190810160405280939291908181526020018383602002808284376000920191909152506141c592505050565b965089876001895103815181106108d857fe5b602002602001015110156108fe5760405162461bcd60e51b815260040161073f906157c7565b7f00000000000000000000000000000000000000000000000000000000000000006001600160a01b031663d0e30db08860008151811061093a57fe5b60200260200101516040518263ffffffff1660e01b81526004016000604051808303818588803b15801561096d57600080fd5b505af1158015610981573d6000803e3d6000fd5b50506001600160a01b037f000000000000000000000000000000000000000000000000000000000000000016925063a9059cbb9150610a1190506109c860208f018f6150f8565b8c8c60008181106109d557fe5b90506020020160208101906109ea91906150f8565b8d8d60018181106109f757fe5b9050602002016020810190610a0c91906150f8565b6142db565b89600081518110610a1e57fe5b60200260200101516040518363ffffffff1660e01b8152600401610a439291906155d7565b602060405180830381600087803b158015610a5d57600080fd5b505af1158015610a71573d6000803e3d6000fd5b505050506040513d601f19601f82011682018060405250810190610a9591906152ac565b610a9b57fe5b610ae7610aab60208d018d6150f8565b888b8b80806020026020016040519081016040528093929190818152602001838360200280828437600092019190915250339250614360915050565b6000610af9838363ffffffff6144e116565b1115610b3157610b3160008a8a6000198101818110610b1457fe5b9050602002016020810190610b2991906150f8565b868585614506565b505050505050949350505050565b600354600160b01b900460ff1681565b610b57614601565b6001600160a01b0316610b68612dc9565b6001600160a01b031614610b8e5760405162461bcd60e51b815260040161073f90615a0c565b6002805462010000600160b01b031916620100006001600160a01b038416021790556040517f9d4414af8d61d821c1ad25f0aadfa28aa386c452716a31fc1f7fdbd9b9d364dc90610be0908390615575565b60405180910390a150565b60056020526000908152604090205460ff1681565b60026001541415610c235760405162461bcd60e51b815260040161073f90615bdb565b6002600155610c30612697565b15610c4d5760405162461bcd60e51b815260040161073f9061592b565b610c5d60a08201608083016150f8565b336001600160a01b0382161415610c865760405162461bcd60e51b815260040161073f90615843565b6000610c9b61084d60a08501608086016150f8565b90506000610caf60608501604086016150f8565b6001600160a01b03166370a08231336040518263ffffffff1660e01b8152600401610cda9190615575565b60206040518083038186803b158015610cf257600080fd5b505afa158015610d06573d6000803e3d6000fd5b505050506040513d601f19601f82011682018060405250810190610d2a919061543c565b9050610d3c60e0850160c08601615290565b610f59576000610d5260408601602087016150f8565b6001600160a01b031614610eab57610d7060408501602086016150f8565b6001600160a01b03166323b872dd333087606001356040518463ffffffff1660e01b8152600401610da393929190615589565b602060405180830381600087803b158015610dbd57600080fd5b505af1158015610dd1573d6000803e3d6000fd5b505050506040513d601f19601f82011682018060405250810190610df591906152ac565b50610e0660408501602086016150f8565b6001600160a01b031663095ea7b37f000000000000000000000000000000000000000000000000000000000000000086606001356040518363ffffffff1660e01b8152600401610e579291906155d7565b602060405180830381600087803b158015610e7157600080fd5b505af1158015610e85573d6000803e3d6000fd5b505050506040513d601f19601f82011682018060405250810190610ea991906152ac565b505b60006001600160a01b037f00000000000000000000000000000000000000000000000000000000000000001634610ee28780615c89565b604051610ef09291906154a7565b60006040518083038185875af1925050503d8060008114610f2d576040519150601f19603f3d011682016040523d82523d6000602084013e610f32565b606091505b5050905080610f535760405162461bcd60e51b815260040161073f90615b25565b5061137b565b600034118015610f8157506000610f7660408601602087016150f8565b6001600160a01b0316145b1561107b5760008080610fa6610f9d60e0890160c08a01615290565b34876000614072565b9194509250905060006001600160a01b037f00000000000000000000000000000000000000000000000000000000000000001684610fe48a80615c89565b604051610ff29291906154a7565b60006040518083038185875af1925050503d806000811461102f576040519150601f19603f3d011682016040523d82523d6000602084013e611034565b606091505b50509050806110555760405162461bcd60e51b815260040161073f90615b25565b611072600061106a60608b0160408c016150f8565b888686614506565b505050506112b7565b6000808061109f61109260e0890160c08a01615290565b8860600135876000614072565b919450925090506110b660408801602089016150f8565b6001600160a01b03166323b872dd3330866040518463ffffffff1660e01b81526004016110e593929190615589565b602060405180830381600087803b1580156110ff57600080fd5b505af1158015611113573d6000803e3d6000fd5b505050506040513d601f19601f8201168201806040525081019061113791906152ac565b5061114860408801602089016150f8565b6001600160a01b031663095ea7b37f0000000000000000000000000000000000000000000000000000000000000000856040518363ffffffff1660e01b81526004016111959291906155d7565b602060405180830381600087803b1580156111af57600080fd5b505af11580156111c3573d6000803e3d6000fd5b505050506040513d601f19601f820116820180604052508101906111e791906152ac565b5060006001600160a01b037f00000000000000000000000000000000000000000000000000000000000000001661121e8980615c89565b60405161122c9291906154a7565b6000604051808303816000865af19150503d8060008114611269576040519150601f19603f3d011682016040523d82523d6000602084013e61126e565b606091505b505090508061128f5760405162461bcd60e51b815260040161073f90615b25565b6112b26112a260408a0160208b016150f8565b61106a60608b0160408c016150f8565b505050505b60006112c960608601604087016150f8565b6001600160a01b03166370a08231336040518263ffffffff1660e01b81526004016112f49190615575565b60206040518083038186803b15801561130c57600080fd5b505afa158015611320573d6000803e3d6000fd5b505050506040513d601f19601f82011682018060405250810190611344919061543c565b905060a085013561135b828463ffffffff61460516565b10156113795760405162461bcd60e51b815260040161073f9061580e565b505b5050600180555050565b600260015414156113a85760405162461bcd60e51b815260040161073f90615bdb565b60026001556113b5612697565b156113d25760405162461bcd60e51b815260040161073f9061592b565b6113e260a08201608083016150f8565b336001600160a01b038216141561140b5760405162461bcd60e51b815260040161073f90615843565b600061142061084d60a08501608086016150f8565b9050600061143460608501604086016150f8565b6001600160a01b03166370a08231336040518263ffffffff1660e01b815260040161145f9190615575565b60206040518083038186803b15801561147757600080fd5b505afa15801561148b573d6000803e3d6000fd5b505050506040513d601f19601f820116820180604052508101906114af919061543c565b90506114c160e0850160c08601615290565b61187f576000341180156114ed575060006114e260408601602087016150f8565b6001600160a01b0316145b156116445760006001600160a01b037f000000000000000000000000000000000000000000000000000000000000000016346115298780615c89565b6040516115379291906154a7565b60006040518083038185875af1925050503d8060008114611574576040519150601f19603f3d011682016040523d82523d6000602084013e611579565b606091505b505090508061159a5760405162461bcd60e51b815260040161073f90615b25565b61163e6115ad60608701604088016150f8565b336115be6060890160408a016150f8565b6001600160a01b03166370a08231306040518263ffffffff1660e01b81526004016115e99190615575565b60206040518083038186803b15801561160157600080fd5b505afa158015611615573d6000803e3d6000fd5b505050506040513d601f19601f82011682018060405250810190611639919061543c565b61462d565b5061187a565b61165460408501602086016150f8565b6001600160a01b03166323b872dd333087606001356040518463ffffffff1660e01b815260040161168793929190615589565b602060405180830381600087803b1580156116a157600080fd5b505af11580156116b5573d6000803e3d6000fd5b505050506040513d601f19601f820116820180604052508101906116d991906152ac565b506116ea60408501602086016150f8565b6001600160a01b031663095ea7b37f000000000000000000000000000000000000000000000000000000000000000086606001356040518363ffffffff1660e01b815260040161173b9291906155d7565b602060405180830381600087803b15801561175557600080fd5b505af1158015611769573d6000803e3d6000fd5b505050506040513d601f19601f8201168201806040525081019061178d91906152ac565b5060006001600160a01b037f0000000000000000000000000000000000000000000000000000000000000000166117c48680615c89565b6040516117d29291906154a7565b6000604051808303816000865af19150503d806000811461180f576040519150601f19603f3d011682016040523d82523d6000602084013e611814565b606091505b50509050806118355760405162461bcd60e51b815260040161073f90615b25565b600061184760608701604088016150f8565b6001600160a01b03161415611865576118603347614714565b611878565b6118786115ad60608701604088016150f8565b505b6112b7565b6000341180156118a75750600061189c60408601602087016150f8565b6001600160a01b0316145b1561199657600080806118c3610f9d60e0890160c08a01615290565b9194509250905060006001600160a01b037f000000000000000000000000000000000000000000000000000000000000000016846119018a80615c89565b60405161190f9291906154a7565b60006040518083038185875af1925050503d806000811461194c576040519150601f19603f3d011682016040523d82523d6000602084013e611951565b606091505b50509050806119725760405162461bcd60e51b815260040161073f90615b25565b61105561198560608a0160408b016150f8565b336115be60608c0160408d016150f8565b600080806119ad61109260e0890160c08a01615290565b919450925090506119c460408801602089016150f8565b6001600160a01b03166323b872dd3330866040518463ffffffff1660e01b81526004016119f393929190615589565b602060405180830381600087803b158015611a0d57600080fd5b505af1158015611a21573d6000803e3d6000fd5b505050506040513d601f19601f82011682018060405250810190611a4591906152ac565b50611a5660408801602089016150f8565b6001600160a01b031663095ea7b37f0000000000000000000000000000000000000000000000000000000000000000856040518363ffffffff1660e01b8152600401611aa39291906155d7565b602060405180830381600087803b158015611abd57600080fd5b505af1158015611ad1573d6000803e3d6000fd5b505050506040513d601f19601f82011682018060405250810190611af591906152ac565b5060006001600160a01b037f000000000000000000000000000000000000000000000000000000000000000016611b2c8980615c89565b604051611b3a9291906154a7565b6000604051808303816000865af19150503d8060008114611b77576040519150601f19603f3d011682016040523d82523d6000602084013e611b7c565b606091505b5050905080611b9d5760405162461bcd60e51b815260040161073f90615b25565b6000611baf60608a0160408b016150f8565b6001600160a01b03161415611bcd57611bc83347614714565b61128f565b61128f61198560608a0160408b016150f8565b611be8614601565b6001600160a01b0316611bf9612dc9565b6001600160a01b031614611c1f5760405162461bcd60e51b815260040161073f90615a0c565b611c276147a1565b565b6060611c33612697565b15611c505760405162461bcd60e51b815260040161073f9061592b565b611c5d60208601866150f8565b6001600160a01b03811660009081526005602052604090205460ff16611c955760405162461bcd60e51b815260040161073f90615a84565b611ca560408701602088016150f8565b336001600160a01b0382161415611cce5760405162461bcd60e51b815260040161073f90615843565b7f00000000000000000000000000000000000000000000000000000000000000006001600160a01b031685856000818110611d0557fe5b9050602002016020810190611d1a91906150f8565b6001600160a01b031614611d405760405162461bcd60e51b815260040161073f90615955565b6000611d5561084d60408a0160208b016150f8565b9050611da1611d6760208a018a6150f8565b8888888080602002602001604051908101604052809392919081815260200183836020028082843760009201919091525061481292505050565b9350600080611dd6611db960608c0160408d01615290565b87600081518110611dc657fe5b6020026020010151856001614072565b925092505034611e1382611e07858a600081518110611df157fe5b60200260200101516144e190919063ffffffff16565b9063ffffffff6144e116565b1115611e315760405162461bcd60e51b815260040161073f906158b1565b7f00000000000000000000000000000000000000000000000000000000000000006001600160a01b031663d0e30db087600081518110611e6d57fe5b60200260200101516040518263ffffffff1660e01b81526004016000604051808303818588803b158015611ea057600080fd5b505af1158015611eb4573d6000803e3d6000fd5b50506001600160a01b037f000000000000000000000000000000000000000000000000000000000000000016925063a9059cbb9150611f2a9050611efb60208e018e6150f8565b8b8b6000818110611f0857fe5b9050602002016020810190611f1d91906150f8565b8c8c60018181106109f757fe5b88600081518110611f3757fe5b60200260200101516040518363ffffffff1660e01b8152600401611f5c9291906155d7565b602060405180830381600087803b158015611f7657600080fd5b505af1158015611f8a573d6000803e3d6000fd5b505050506040513d601f19601f82011682018060405250810190611fae91906152ac565b611fb457fe5b612000611fc460208c018c6150f8565b878a8a80806020026020016040519081016040528093929190818152602001838360200280828437600092019190915250339250614360915050565b61201581611e078489600081518110611df157fe5b34111561203c5761203c3361203583611e07868b600081518110611df157fe5b3403614714565b600061204e838363ffffffff6144e116565b11156120865761208660008989600019810181811061206957fe5b905060200201602081019061207e91906150f8565b858585614506565b5050505050949350505050565b61209b614601565b6001600160a01b03166120ac612dc9565b6001600160a01b0316146120d25760405162461bcd60e51b815260040161073f90615a0c565b6120dc8282614714565b5050565b6120e8612697565b156121055760405162461bcd60e51b815260040161073f9061592b565b61211260208501856150f8565b6001600160a01b03811660009081526005602052604090205460ff1661214a5760405162461bcd60e51b815260040161073f90615a84565b61215a60408601602087016150f8565b336001600160a01b03821614156121835760405162461bcd60e51b815260040161073f90615843565b7f00000000000000000000000000000000000000000000000000000000000000006001600160a01b0316848460008181106121ba57fe5b90506020020160208101906121cf91906150f8565b6001600160a01b0316146121f55760405162461bcd60e51b815260040161073f90615955565b600061220a61084d6040890160208a016150f8565b90506000808061222361086b60608c0160408d01615290565b9250925092507f00000000000000000000000000000000000000000000000000000000000000006001600160a01b031663d0e30db0846040518263ffffffff1660e01b81526004016000604051808303818588803b15801561228457600080fd5b505af1158015612298573d6000803e3d6000fd5b50506001600160a01b037f000000000000000000000000000000000000000000000000000000000000000016925063a9059cbb91506122df9050611efb60208e018e6150f8565b856040518363ffffffff1660e01b81526004016122fd9291906155d7565b602060405180830381600087803b15801561231757600080fd5b505af115801561232b573d6000803e3d6000fd5b505050506040513d601f19601f8201168201806040525081019061234f91906152ac565b61235557fe5b60008888600019810181811061236757fe5b905060200201602081019061237c91906150f8565b6001600160a01b03166370a08231336040518263ffffffff1660e01b81526004016123a79190615575565b60206040518083038186803b1580156123bf57600080fd5b505afa1580156123d3573d6000803e3d6000fd5b505050506040513d601f19601f820116820180604052508101906123f7919061543c565b905061244461240960208d018d6150f8565b8a8a80806020026020016040519081016040528093929190818152602001838360200280828437600092019190915250339250614914915050565b896124f5828b8b600019810181811061245957fe5b905060200201602081019061246e91906150f8565b6001600160a01b03166370a08231336040518263ffffffff1660e01b81526004016124999190615575565b60206040518083038186803b1580156124b157600080fd5b505afa1580156124c5573d6000803e3d6000fd5b505050506040513d601f19601f820116820180604052508101906124e9919061543c565b9063ffffffff61460516565b10156125135760405162461bcd60e51b815260040161073f906157c7565b6000612525848463ffffffff6144e116565b111561255d5761255d60008a8a600019810181811061254057fe5b905060200201602081019061255591906150f8565b878686614506565b5050505050505050505050565b6002546201000090046001600160a01b031681565b60066020908152600091825260409182902080548351601f6002600019610100600186161502019093169290920491820184900484028101840190945280845290918301828280156126125780601f106125e757610100808354040283529160200191612612565b820191906000526020600020905b8154815290600101906020018083116125f557829003601f168201915b505050505081565b7f000000000000000000000000000000000000000000000000000000000000000081565b60025461ffff1681565b612650614601565b6001600160a01b0316612661612dc9565b6001600160a01b0316146126875760405162461bcd60e51b815260040161073f90615a0c565b61269283838361462d565b505050565b600054600160a01b900460ff165b90565b60006126b2614601565b6001600160a01b03166126c3612dc9565b6001600160a01b0316146126e95760405162461bcd60e51b815260040161073f90615a0c565b6127108261ffff16111561270f5760405162461bcd60e51b815260040161073f90615abb565b6001600160a01b03831660008181526004602052604090819020805461ffff191661ffff8616179055517f9b182573c5f49d27d10ab506c71acd90f3b44f15c35eb906f9a40d9c35412e4190612766908590615c44565b60405180910390a292915050565b61277c614601565b6001600160a01b031661278d612dc9565b6001600160a01b0316146127b35760405162461bcd60e51b815260040161073f90615a0c565b600080546040516001600160a01b03909116907f8be0079c531659141344cd1fd0a4f28419497f9722a3daafe3b4186f6b6457e0908390a3600080546001600160a01b0319169055565b60046020526000908152604090205461ffff1681565b61281b614601565b6001600160a01b031661282c612dc9565b6001600160a01b0316146128525760405162461bcd60e51b815260040161073f90615a0c565b611c27614b50565b6060612864612697565b156128815760405162461bcd60e51b815260040161073f9061592b565b61288e60208701876150f8565b6001600160a01b03811660009081526005602052604090205460ff166128c65760405162461bcd60e51b815260040161073f90615a84565b6128d660408801602089016150f8565b336001600160a01b03821614156128ff5760405162461bcd60e51b815260040161073f90615843565b6001600160a01b037f0000000000000000000000000000000000000000000000000000000000000000168585600019810181811061293957fe5b905060200201602081019061294e91906150f8565b6001600160a01b0316146129745760405162461bcd60e51b815260040161073f90615955565b600061298961084d60408b0160208c016150f8565b90506000806129aa6129a160608d0160408e01615290565b8b856001614072565b9093509150612a0e90506129c160208d018d6150f8565b6129d583611e078e8763ffffffff6144e116565b8a8a8080602002602001604051908101604052809392919081815260200183836020028082843760009201919091525061481292505050565b955088612a2682611e07858a600081518110611df157fe5b1115612a445760405162461bcd60e51b815260040161073f906158b1565b612a9a88886000818110612a5457fe5b9050602002016020810190612a6991906150f8565b33612a808e60000160208101906109c891906150f8565b89600081518110612a8d57fe5b6020026020010151614bb1565b612ae6612aaa60208d018d6150f8565b878a8a80806020026020016040519081016040528093929190818152602001838360200280828437600092019190915250309250614360915050565b7f00000000000000000000000000000000000000000000000000000000000000006001600160a01b0316632e1a7d4d87600189510381518110612b2557fe5b60200260200101516040518263ffffffff1660e01b8152600401612b499190615c53565b600060405180830381600087803b158015612b6357600080fd5b505af1158015612b77573d6000803e3d6000fd5b50505050612b85338b614714565b6000612b97838363ffffffff6144e116565b1115612bb257612bb260008989600019810181811061206957fe5b505050505095945050505050565b6060612bca612697565b15612be75760405162461bcd60e51b815260040161073f9061592b565b612bf460208701876150f8565b6001600160a01b03811660009081526005602052604090205460ff16612c2c5760405162461bcd60e51b815260040161073f90615a84565b612c3c60408801602089016150f8565b336001600160a01b0382161415612c655760405162461bcd60e51b815260040161073f90615843565b6000612c7a61084d60408b0160208c016150f8565b905060008080612c9c612c9360608e0160408f01615290565b8c866000614072565b91945092509050612cb361088b60208e018e6150f8565b96508987600189510381518110612cc657fe5b60200260200101511015612cec5760405162461bcd60e51b815260040161073f906157c7565b612d5d89896000818110612cfc57fe5b9050602002016020810190612d1191906150f8565b33612d578f6000016020810190612d2891906150f8565b8d8d6000818110612d3557fe5b9050602002016020810190612d4a91906150f8565b8e8e60018181106109f757fe5b86614bb1565b612d6d610aab60208e018e6150f8565b6000612d7f838363ffffffff6144e116565b1115612dba57612dba89896000818110612d9557fe5b9050602002016020810190612daa91906150f8565b8a8a6000198101818110610b1457fe5b50505050505095945050505050565b6000546001600160a01b031690565b60025460405163493f44bd60e11b81526000916201000090046001600160a01b03169063927e897a90612e0f908590600401615575565b60206040518083038186803b158015612e2757600080fd5b505afa158015612e3b573d6000803e3d6000fd5b505050506040513d601f19601f82011682018060405250810190612e5f91906152ac565b92915050565b6060612e6f612697565b15612e8c5760405162461bcd60e51b815260040161073f9061592b565b612e9960208701876150f8565b6001600160a01b03811660009081526005602052604090205460ff16612ed15760405162461bcd60e51b815260040161073f90615a84565b612ee160408801602089016150f8565b336001600160a01b0382161415612f0a5760405162461bcd60e51b815260040161073f90615843565b6000612f1f61084d60408b0160208c016150f8565b9050612f6b612f3160208b018b6150f8565b8988888080602002602001604051908101604052809392919081815260200183836020028082843760009201919091525061481292505050565b9350600080612f83611db960608d0160408e01615290565b925092505088612f9e82611e07858a600081518110611df157fe5b1115612fbc5760405162461bcd60e51b815260040161073f906158b1565b612fcc88886000818110612a5457fe5b612fdc611fc460208d018d6150f8565b6000612fee838363ffffffff6144e116565b1115612bb257612bb28888600081811061300457fe5b905060200201602081019061301991906150f8565b8989600019810181811061206957fe5b7f000000000000000000000000000000000000000000000000000000000000000081565b6003546001600160a01b031681565b613064614601565b6001600160a01b0316613075612dc9565b6001600160a01b03161461309b5760405162461bcd60e51b815260040161073f90615a0c565b6001600160a01b03831660009081526005602052604090205460ff16156130d45760405162461bcd60e51b815260040161073f90615c12565b6001600160a01b0383166000908152600560209081526040808320805460ff191660011790556006909152902061310c908383614fc9565b507f18191c6cb9d1bb0cd78a863c5efffb51200f41513b93a678d368156b26d7cc948360405161313c9190615575565b60405180910390a1505050565b613151614601565b6001600160a01b0316613162612dc9565b6001600160a01b0316146131885760405162461bcd60e51b815260040161073f90615a0c565b6001600160a01b0384166000908152600560209081526040808320805460ff1916851515179055600690915290206131c1908484614fc9565b507fd3e17274581b648825e308eb9fca7b795aa9ca651ee0953b1f66dd35cbc09978846040516131f19190615575565b60405180910390a150505050565b613207614601565b6001600160a01b0316613218612dc9565b6001600160a01b03161461323e5760405162461bcd60e51b815260040161073f90615a0c565b600380546001600160a01b0319166001600160a01b0383161790556040517f27aae5db36d94179909d019ae0b1ac7c16d96d953148f63c0f6a0a9c8ead79ee90610be0908390615575565b613291614601565b6001600160a01b03166132a2612dc9565b6001600160a01b0316146132c85760405162461bcd60e51b815260040161073f90615a0c565b6002805461ffff191661ffff83161790556040517fc8d25ca8616825eb60e022dde2d5ec038bdac6dd1bd8bba3fb5f74de553d062890610be0908390615c44565b600254604051633444fbf160e21b81526000916201000090046001600160a01b03169063d113efc490613340908590600401615575565b60206040518083038186803b15801561335857600080fd5b505afa15801561336c573d6000803e3d6000fd5b505050506040513d601f19601f82011682018060405250810190612e5f9190615114565b61271081565b61339e614601565b6001600160a01b03166133af612dc9565b6001600160a01b0316146133d55760405162461bcd60e51b815260040161073f90615a0c565b6127108161ffff1611156133fb5760405162461bcd60e51b815260040161073f90615abb565b6003805461ffff60a01b1916600160a01b61ffff8416021790556040517f2e8b87e2b3dff0b7b11ce73a61e3bb94498159c531480d9abf1307014b650af990610be0908390615c44565b61344d614601565b6001600160a01b031661345e612dc9565b6001600160a01b0316146134845760405162461bcd60e51b815260040161073f90615a0c565b6003805460ff60b01b1916600160b01b831515021790556040517f13a5d968457cb650b136b77bb4a3ff25f31b92939f2d8df0010911117b7ba9e090610be090839061564e565b6134d3612697565b156134f05760405162461bcd60e51b815260040161073f9061592b565b6134fd60208601866150f8565b6001600160a01b03811660009081526005602052604090205460ff166135355760405162461bcd60e51b815260040161073f90615a84565b61354560408701602088016150f8565b336001600160a01b038216141561356e5760405162461bcd60e51b815260040161073f90615843565b600061358361084d60408a0160208b016150f8565b9050600080806135a561359c60608d0160408e01615290565b8b866000614072565b9250925092506135e7888860008181106135bb57fe5b90506020020160208101906135d091906150f8565b33612d578e60000160208101906109c891906150f8565b6000888860001981018181106135f957fe5b905060200201602081019061360e91906150f8565b6001600160a01b03166370a08231336040518263ffffffff1660e01b81526004016136399190615575565b60206040518083038186803b15801561365157600080fd5b505afa158015613665573d6000803e3d6000fd5b505050506040513d601f19601f82011682018060405250810190613689919061543c565b905061369b61240960208e018e6150f8565b896136b0828b8b600019810181811061245957fe5b10156136ce5760405162461bcd60e51b815260040161073f906157c7565b60006136e0848463ffffffff6144e116565b111561371b5761371b898960008181106136f657fe5b905060200201602081019061370b91906150f8565b8a8a600019810181811061254057fe5b505050505050505050505050565b613731612697565b1561374e5760405162461bcd60e51b815260040161073f9061592b565b61375b60208601866150f8565b6001600160a01b03811660009081526005602052604090205460ff166137935760405162461bcd60e51b815260040161073f90615a84565b6137a360408701602088016150f8565b336001600160a01b03821614156137cc5760405162461bcd60e51b815260040161073f90615843565b6001600160a01b037f0000000000000000000000000000000000000000000000000000000000000000168484600019810181811061380657fe5b905060200201602081019061381b91906150f8565b6001600160a01b0316146138415760405162461bcd60e51b815260040161073f90615955565b600061385661084d60408a0160208b016150f8565b90506138c38585600081811061386857fe5b905060200201602081019061387d91906150f8565b336138bd61388e60208d018d6150f8565b8989600081811061389b57fe5b90506020020160208101906138b091906150f8565b8a8a60018181106109f757fe5b8a614bb1565b61390e6138d360208a018a6150f8565b868680806020026020016040519081016040528093929190818152602001838360200280828437600092019190915250309250614914915050565b6040516370a0823160e01b81526000906001600160a01b037f000000000000000000000000000000000000000000000000000000000000000016906370a082319061395d903090600401615575565b60206040518083038186803b15801561397557600080fd5b505afa158015613989573d6000803e3d6000fd5b505050506040513d601f19601f820116820180604052508101906139ad919061543c565b604051632e1a7d4d60e01b81529091506001600160a01b037f00000000000000000000000000000000000000000000000000000000000000001690632e1a7d4d906139fc908490600401615c53565b600060405180830381600087803b158015613a1657600080fd5b505af1158015613a2a573d6000803e3d6000fd5b505050506000806000613a528c6040016020810190613a499190615290565b85876000614072565b92509250925089831015613a785760405162461bcd60e51b815260040161073f90615794565b613a823384614714565b6000613a94838363ffffffff6144e116565b111561371b5761371b60008a8a6000198101818110613aaf57fe5b9050602002016020810190613ac491906150f8565b878585614506565b613ad4614601565b6001600160a01b0316613ae5612dc9565b6001600160a01b031614613b0b5760405162461bcd60e51b815260040161073f90615a0c565b6001600160a01b038116613b315760405162461bcd60e51b815260040161073f90615717565b600080546040516001600160a01b03808516939216917f8be0079c531659141344cd1fd0a4f28419497f9722a3daafe3b4186f6b6457e091a3600080546001600160a01b0319166001600160a01b0392909216919091179055565b600354600160a01b900461ffff1681565b6060613ba7612697565b15613bc45760405162461bcd60e51b815260040161073f9061592b565b613bd160208701876150f8565b6001600160a01b03811660009081526005602052604090205460ff16613c095760405162461bcd60e51b815260040161073f90615a84565b613c1960408801602089016150f8565b336001600160a01b0382161415613c425760405162461bcd60e51b815260040161073f90615843565b6001600160a01b037f00000000000000000000000000000000000000000000000000000000000000001685856000198101818110613c7c57fe5b9050602002016020810190613c9191906150f8565b6001600160a01b031614613cb75760405162461bcd60e51b815260040161073f90615955565b6000613ccc61084d60408b0160208c016150f8565b9050613d18613cde60208b018b6150f8565b898888808060200260200160405190810160405280939291908181526020018383602002808284376000920191909152506141c592505050565b935060008080613d51613d3160608e0160408f01615290565b8860018a510381518110613d4157fe5b6020026020010151866000614072565b92509250925089831015613d775760405162461bcd60e51b815260040161073f906157c7565b613dc089896000818110613d8757fe5b9050602002016020810190613d9c91906150f8565b33613db38f6000016020810190612d2891906150f8565b8a600081518110612a8d57fe5b613e0c613dd060208e018e6150f8565b888b8b80806020026020016040519081016040528093929190818152602001838360200280828437600092019190915250309250614360915050565b7f00000000000000000000000000000000000000000000000000000000000000006001600160a01b0316632e1a7d4d8860018a510381518110613e4b57fe5b60200260200101516040518263ffffffff1660e01b8152600401613e6f9190615c53565b600060405180830381600087803b158015613e8957600080fd5b505af1158015613e9d573d6000803e3d6000fd5b50505050613eab3384614714565b6000613ebd838363ffffffff6144e116565b1115612dba57612dba60008a8a6000198101818110610b1457fe5b60025460405163493f44bd60e11b81526000913391620100009091046001600160a01b03169063927e897a90613f12908490600401615575565b60206040518083038186803b158015613f2a57600080fd5b505afa158015613f3e573d6000803e3d6000fd5b505050506040513d601f19601f82011682018060405250810190613f6291906152ac565b158015613f7757506001600160a01b03831615155b15613fe6576002546040516364e0b15960e01b8152620100009091046001600160a01b0316906364e0b15990613fb390849087906004016155f0565b600060405180830381600087803b158015613fcd57600080fd5b505af1158015613fe1573d6000803e3d6000fd5b505050505b600254604051633444fbf160e21b8152620100009091046001600160a01b03169063d113efc49061401b908490600401615575565b60206040518083038186803b15801561403357600080fd5b505afa158015614047573d6000803e3d6000fd5b505050506040513d601f19601f8201168201806040525081019061406b9190615114565b9392505050565b6002546000908190819061ffff168761408d578693506141ba565b84156140d8578693506140d1846124e96140b361271061ffff861663ffffffff61460516565b6140c58861271063ffffffff614ca216565b9063ffffffff614cdc16565b9250614107565b6140f26127106140c58961ffff851663ffffffff614ca216565b9250614104878463ffffffff61460516565b93505b6001600160a01b038616158015906141285750600354600160b01b900460ff165b156141b5576001600160a01b03861660009081526004602052604081205461ffff1661416157600354600160a01b900461ffff1661417f565b6001600160a01b03871660009081526004602052604090205461ffff165b905061419b6127106140c58661ffff851663ffffffff614ca216565b92506141ad848463ffffffff61460516565b9350506141ba565b600091505b509450945094915050565b60606002825110156141e95760405162461bcd60e51b815260040161073f90615955565b81516001600160401b038111801561420057600080fd5b5060405190808252806020026020018201604052801561422a578160200160208202803683370190505b509050828160008151811061423b57fe5b60200260200101818152505060005b60018351038110156142d35760008061428d8786858151811061426957fe5b602002602001015187866001018151811061428057fe5b6020026020010151614d0e565b915091506142af8484815181106142a057fe5b60200260200101518383614de7565b8484600101815181106142be57fe5b6020908102919091010152505060010161424a565b509392505050565b60008060006142ea8585614e8d565b91509150858282604051602001614302929190615480565b60408051601f1981840301815282825280516020918201206001600160a01b038b166000908152600683529290922061433e94939091016154d3565b60408051601f1981840301815291905280516020909101209695505050505050565b60005b60018351038110156144da5760008084838151811061437e57fe5b602002602001015185846001018151811061439557fe5b60200260200101519150915060006143ad8383614e8d565b50905060008785600101815181106143c157fe5b60200260200101519050600080836001600160a01b0316866001600160a01b0316146143ef578260006143f3565b6000835b91509150600060028a5103881061440a578861442b565b61442b8c878c8b6002018151811061441e57fe5b60200260200101516142db565b90506144388c88886142db565b6001600160a01b031663022c0d9f84848460006040519080825280601f01601f191660200182016040528015614475576020820181803683370190505b506040518563ffffffff1660e01b81526004016144959493929190615c5c565b600060405180830381600087803b1580156144af57600080fd5b505af11580156144c3573d6000803e3d6000fd5b505060019099019850614363975050505050505050565b5050505050565b60008282018381101561406b5760405162461bcd60e51b815260040161073f9061575d565b6001600160a01b0385166145875760035461452a906001600160a01b031683614714565b80156145825761453a8382614714565b826001600160a01b03167f84ff16114f882a54c4748006b5e4b0b7ac76bd911d135145a6d063fd76a38a403386888560405161457994939291906155ad565b60405180910390a25b6144da565b6003546145a190869033906001600160a01b031685614bb1565b80156144da576145b385338584614bb1565b826001600160a01b03167f84ff16114f882a54c4748006b5e4b0b7ac76bd911d135145a6d063fd76a38a40338688856040516145f294939291906155ad565b60405180910390a25050505050565b3390565b6000828211156146275760405162461bcd60e51b815260040161073f9061587a565b50900390565b60006060846001600160a01b031663a9059cbb85856040516024016146539291906155d7565b6040516020818303038152906040529060e01b6020820180516001600160e01b03838183161783525050505060405161468c91906154b7565b6000604051808303816000865af19150503d80600081146146c9576040519150601f19603f3d011682016040523d82523d6000602084013e6146ce565b606091505b50915091508180156146f85750805115806146f85750808060200190518101906146f891906152ac565b6144da5760405162461bcd60e51b815260040161073f9061566c565b604080516000808252602082019092526001600160a01b03841690839060405161473e91906154b7565b60006040518083038185875af1925050503d806000811461477b576040519150601f19603f3d011682016040523d82523d6000602084013e614780565b606091505b50509050806126925760405162461bcd60e51b815260040161073f90615b54565b6147a9612697565b6147c55760405162461bcd60e51b815260040161073f906156a3565b6000805460ff60a01b191690557f5db9ee0a495bf2e6ff9c91a7834c1ba4fdd244a5e8aa4e537bd38aeae4b073aa6147fb614601565b6040516148089190615575565b60405180910390a1565b60606002825110156148365760405162461bcd60e51b815260040161073f90615955565b81516001600160401b038111801561484d57600080fd5b50604051908082528060200260200182016040528015614877578160200160208202803683370190505b509050828160018351038151811061488b57fe5b60209081029190910101528151600019015b80156142d3576000806148cd878660018603815181106148b957fe5b602002602001015187868151811061428057fe5b915091506148ef8484815181106148e057fe5b60200260200101518383614f17565b8460018503815181106148fe57fe5b602090810291909101015250506000190161489d565b60005b6001835103811015614b4a5760008084838151811061493257fe5b602002602001015185846001018151811061494957fe5b60200260200101519150915060006149618383614e8d565b50905060006149718885856142db565b9050600080600080846001600160a01b0316630902f1ac6040518163ffffffff1660e01b815260040160606040518083038186803b1580156149b257600080fd5b505afa1580156149c6573d6000803e3d6000fd5b505050506040513d601f19601f820116820180604052508101906149ea91906153c6565b506001600160701b031691506001600160701b03169150600080876001600160a01b03168a6001600160a01b031614614a24578284614a27565b83835b91509150614a5b828b6001600160a01b03166370a082318a6040518263ffffffff1660e01b81526004016124999190615575565b9550614a68868383614de7565b945050505050600080856001600160a01b0316886001600160a01b031614614a9257826000614a96565b6000835b91509150600060028c51038a10614aad578a614ac1565b614ac18d898e8d6002018151811061441e57fe5b6040805160008152602081019182905263022c0d9f60e01b9091529091506001600160a01b0387169063022c0d9f90614b039086908690869060248101615c5c565b600060405180830381600087803b158015614b1d57600080fd5b505af1158015614b31573d6000803e3d6000fd5b50506001909b019a506149179950505050505050505050565b50505050565b614b58612697565b15614b755760405162461bcd60e51b815260040161073f9061592b565b6000805460ff60a01b1916600160a01b1790557f62e78cea01bee320cd4e420270b5ea74000d11b0c9f74754ebdbfc544b05a2586147fb614601565b60006060856001600160a01b03166323b872dd868686604051602401614bd993929190615589565b6040516020818303038152906040529060e01b6020820180516001600160e01b038381831617835250505050604051614c1291906154b7565b6000604051808303816000865af19150503d8060008114614c4f576040519150601f19603f3d011682016040523d82523d6000602084013e614c54565b606091505b5091509150818015614c7e575080511580614c7e575080806020019051810190614c7e91906152ac565b614c9a5760405162461bcd60e51b815260040161073f90615b97565b505050505050565b600082614cb157506000612e5f565b82820282848281614cbe57fe5b041461406b5760405162461bcd60e51b815260040161073f906159cb565b6000808211614cfd5760405162461bcd60e51b815260040161073f906158f4565b818381614d0657fe5b049392505050565b6000806000614d1d8585614e8d565b509050600080614d2e8888886142db565b6001600160a01b0316630902f1ac6040518163ffffffff1660e01b815260040160606040518083038186803b158015614d6657600080fd5b505afa158015614d7a573d6000803e3d6000fd5b505050506040513d601f19601f82011682018060405250810190614d9e91906153c6565b506001600160701b031691506001600160701b03169150826001600160a01b0316876001600160a01b031614614dd5578082614dd8565b81815b90999098509650505050505050565b6000808411614e085760405162461bcd60e51b815260040161073f906156d1565b600083118015614e185750600082115b614e345760405162461bcd60e51b815260040161073f90615a41565b6000614e48856126f263ffffffff614ca216565b90506000614e5c828563ffffffff614ca216565b90506000614e7683611e078861271063ffffffff614ca216565b9050808281614e8157fe5b04979650505050505050565b600080826001600160a01b0316846001600160a01b03161415614ec25760405162461bcd60e51b815260040161073f90615988565b826001600160a01b0316846001600160a01b031610614ee2578284614ee5565b83835b90925090506001600160a01b038216614f105760405162461bcd60e51b815260040161073f90615aee565b9250929050565b6000808411614f385760405162461bcd60e51b815260040161073f906157c7565b600083118015614f485750600082115b614f645760405162461bcd60e51b815260040161073f90615a41565b6000614f88612710614f7c868863ffffffff614ca216565b9063ffffffff614ca216565b90506000614fa26126f2614f7c868963ffffffff61460516565b9050614fbf6001828481614fb257fe5b049063ffffffff6144e116565b9695505050505050565b828054600181600116156101000203166002900490600052602060002090601f016020900481019282601f1061500a5782800160ff19823516178555615037565b82800160010185558215615037579182015b8281111561503757823582559160200191906001019061501c565b50615043929150615047565b5090565b6126a591905b80821115615043576000815560010161504d565b60008083601f840112615072578182fd5b5081356001600160401b03811115615088578182fd5b6020830191508360208083028501011115614f1057600080fd5b60008083601f8401126150b3578182fd5b5081356001600160401b038111156150c9578182fd5b602083019150836020828501011115614f1057600080fd5b6000606082840312156150f2578081fd5b50919050565b600060208284031215615109578081fd5b813561406b81615d07565b600060208284031215615125578081fd5b815161406b81615d07565b60008060408385031215615142578081fd5b823561514d81615d07565b946020939093013593505050565b60008060006060848603121561516f578081fd5b833561517a81615d07565b9250602084013561518a81615d07565b929592945050506040919091013590565b6000806000604084860312156151af578283fd5b83356151ba81615d07565b925060208401356001600160401b038111156151d4578283fd5b6151e0868287016150a2565b9497909650939450505050565b60008060008060608587031215615202578081fd5b843561520d81615d07565b935060208501356001600160401b03811115615227578182fd5b615233878288016150a2565b909450925050604085013561524781615d1f565b939692955090935050565b60008060408385031215615264578182fd5b823561526f81615d07565b9150602083013561ffff81168114615285578182fd5b809150509250929050565b6000602082840312156152a1578081fd5b813561406b81615d1f565b6000602082840312156152bd578081fd5b815161406b81615d1f565b6000602082840312156152d9578081fd5b81356001600160401b038111156152ee578182fd5b80830160e08186031215615300578283fd5b949350505050565b60008060008060a0858703121561531d578384fd5b61532786866150e1565b93506060850135925060808501356001600160401b03811115615348578283fd5b61535487828801615061565b95989497509550505050565b600080600080600060c08688031215615377578283fd5b61538187876150e1565b9450606086013593506080860135925060a08601356001600160401b038111156153a9578182fd5b6153b588828901615061565b969995985093965092949392505050565b6000806000606084860312156153da578081fd5b83516153e581615d2d565b60208501519093506153f681615d2d565b604085015190925063ffffffff8116811461540f578182fd5b809150509250925092565b60006020828403121561542b578081fd5b813561ffff8116811461406b578182fd5b60006020828403121561544d578081fd5b5051919050565b6000815180845261546c816020860160208601615cdb565b601f01601f19169290920160200192915050565b6bffffffffffffffffffffffff19606093841b811682529190921b16601482015260280190565b6000828483379101908152919050565b600082516154c9818460208701615cdb565b9190910192915050565b600060ff60f81b825260016bffffffffffffffffffffffff198660601b1681840152846015840152603582855483811660008114615518576001811461553357615567565b60ff1982168785015260028204607f16870184019250615567565b6002820461554089615ccf565b875b8281101561555e5781548a820188015290870190602001615542565b50508701840192505b509098975050505050505050565b6001600160a01b0391909116815260200190565b6001600160a01b039384168152919092166020820152604081019190915260600190565b6001600160a01b039485168152928416602084015292166040820152606081019190915260800190565b6001600160a01b03929092168252602082015260400190565b6001600160a01b0392831681529116602082015260400190565b6020808252825182820181905260009190848201906040850190845b8181101561564257835183529284019291840191600101615626565b50909695505050505050565b901515815260200190565b60006020825261406b6020830184615454565b6020808252601f908201527f5472616e7366657248656c7065723a205452414e534645525f4641494c454400604082015260600190565b60208082526014908201527314185d5cd8589b194e881b9bdd081c185d5cd95960621b604082015260600190565b60208082526026908201527f466c6f6f7a526f757465723a20494e53554646494349454e545f494e5055545f604082015265105353d5539560d21b606082015260800190565b60208082526026908201527f4f776e61626c653a206e6577206f776e657220697320746865207a65726f206160408201526564647265737360d01b606082015260800190565b6020808252601b908201527f536166654d6174683a206164646974696f6e206f766572666c6f770000000000604082015260600190565b602080825260199082015278466c6f6f7a526f757465723a204c4f575f534c49505041474560381b604082015260600190565b60208082526027908201527f466c6f6f7a526f757465723a20494e53554646494349454e545f4f555450555460408201526617d05353d5539560ca1b606082015260800190565b6020808252818101527f466c6f6f7a526f757465723a20494e53554646494349454e545f4f5554505554604082015260600190565b6020808252601a908201527f466c6f6f7a526f757465723a2053454c465f524546455252414c000000000000604082015260600190565b6020808252601e908201527f536166654d6174683a207375627472616374696f6e206f766572666c6f770000604082015260600190565b60208082526023908201527f466c6f6f7a526f757465723a204558434553534956455f494e5055545f414d4f60408201526215539560ea1b606082015260800190565b6020808252601a908201527f536166654d6174683a206469766973696f6e206279207a65726f000000000000604082015260600190565b60208082526010908201526f14185d5cd8589b194e881c185d5cd95960821b604082015260600190565b60208082526019908201527808cd8dedef4a4deeae8cae47440929cac82989288bea082a89603b1b604082015260600190565b60208082526023908201527f50616e63616b654c6962726172793a204944454e544943414c5f41444452455360408201526253455360e81b606082015260800190565b60208082526021908201527f536166654d6174683a206d756c7469706c69636174696f6e206f766572666c6f6040820152607760f81b606082015260800190565b6020808252818101527f4f776e61626c653a2063616c6c6572206973206e6f7420746865206f776e6572604082015260600190565b60208082526023908201527f466c6f6f7a526f757465723a20494e53554646494349454e545f4c495155494460408201526249545960e81b606082015260800190565b6020808252601c908201527f466c6f6f7a526f757465723a20494e56414c49445f464143544f525900000000604082015260600190565b602080825260199082015278466c6f6f7a526f757465723a20494e56414c49445f5241544560381b604082015260600190565b6020808252601c908201527f50616e63616b654c6962726172793a205a45524f5f4144445245535300000000604082015260600190565b602080825260159082015274119b1bdbde949bdd5d195c8e881491559154951151605a1b604082015260600190565b60208082526023908201527f5472616e7366657248656c7065723a204554485f5452414e534645525f46414960408201526213115160ea1b606082015260800190565b60208082526024908201527f5472616e7366657248656c7065723a205452414e534645525f46524f4d5f46416040820152631253115160e21b606082015260800190565b6020808252601f908201527f5265656e7472616e637947756172643a207265656e7472616e742063616c6c00604082015260600190565b602080825260189082015277466c6f6f7a526f757465723a204143544956455f464f524b60401b604082015260600190565b61ffff91909116815260200190565b90815260200190565b600085825284602083015260018060a01b038416604083015260806060830152614fbf6080830184615454565b6000808335601e19843603018112615c9f578283fd5b808401803592506001600160401b03831115615cb9578384fd5b60200192505036819003821315614f1057600080fd5b60009081526020902090565b60005b83811015615cf6578181015183820152602001615cde565b83811115614b4a5750506000910152565b6001600160a01b0381168114615d1c57600080fd5b50565b8015158114615d1c57600080fd5b6001600160701b0381168114615d1c57600080fdfea264697066735822122041c48154e8438f2cf08f1ae65e04580ce054c7f0c9428db853860fb8842dc88b64736f6c63430006060033",
  "devdoc": {
    "methods": {
      "constructor": {
        "details": "construct this contract",
        "params": {
          "_WETH": "address of WETH.",
          "_feeReceiver": "address that receives protocol fees",
          "_referralRegistry": "address of referral registry that stores referral anchors",
          "_referralRewardRate": "percentage of swapFee that are paid out as rewards",
          "_swapFee": "nominator for swapFee. Denominator = 10000",
          "_zeroEx": "address of zeroX proxy contract to forward swaps"
        }
      },
      "executeOneInchSwap((bytes,address,address,uint256,address,uint256,bool))": {
        "details": "Executes a swap on 1inch",
        "params": {
          "swapData": "encoded swap data"
        }
      },
      "executeZeroExSwap((bytes,address,address,uint256,address,uint256,bool))": {
        "details": "Executes a swap on 0x",
        "params": {
          "swapData": "encoded swap data"
        }
      },
      "getUserReferee(address)": {
        "details": "returns the referee for a given user - 0x address if none"
      },
      "hasUserReferee(address)": {
        "details": "returns if the given user has been referred or not"
      },
      "owner()": {
        "details": "Returns the address of the current owner."
      },
      "pause()": {
        "details": "lets the admin pause this contract"
      },
      "paused()": {
        "details": "Returns true if the contract is paused, and false otherwise."
      },
      "registerFork(address,bytes)": {
        "details": "lets the admin register an Uniswap style fork"
      },
      "renounceOwnership()": {
        "details": "Leaves the contract without owner. It will not be possible to call `onlyOwner` functions anymore. Can only be called by the current owner.     * NOTE: Renouncing ownership will leave the contract without an owner, thereby removing any functionality that is only available to the owner."
      },
      "swapETHForExactTokens((address,address,bool),uint256,address[])": {
        "details": "execute swap directly on Uniswap/Pancake/...",
        "params": {
          "amountOut": "expected amount of tokens out",
          "path": "Sell path.",
          "swapData": "stores the swapData information"
        },
        "returns": {
          "amounts": "amounts"
        }
      },
      "swapExactETHForTokens((address,address,bool),uint256,address[])": {
        "details": "execute swap directly on Uniswap/Pancake & simular forks",
        "params": {
          "amountOutMin": "minimum tokens to receive",
          "path": "Sell path.",
          "swapData": "stores the swapData information"
        },
        "returns": {
          "amounts": "amounts"
        }
      },
      "swapExactETHForTokensSupportingFeeOnTransferTokens((address,address,bool),uint256,address[])": {
        "details": "execute swap directly on Uniswap/Pancake/...",
        "params": {
          "amountOutMin": "minimum expected tokens to receive",
          "path": "Sell path.",
          "swapData": "stores the swapData information"
        }
      },
      "swapExactTokensForETH((address,address,bool),uint256,uint256,address[])": {
        "details": "execute swap directly on Uniswap/Pancake/...",
        "params": {
          "amountIn": "amount if tokens In",
          "amountOutMin": "minimum tokens to receive",
          "path": "Sell path.",
          "swapData": "stores the swapData information"
        },
        "returns": {
          "amounts": "amounts"
        }
      },
      "swapExactTokensForETHSupportingFeeOnTransferTokens((address,address,bool),uint256,uint256,address[])": {
        "details": "execute swap directly on Uniswap/Pancake/...",
        "params": {
          "amountIn": "amount of tokensIn",
          "amountOutMin": "minimum tokens to receive",
          "path": "Sell path.",
          "swapData": "stores the swapData information"
        }
      },
      "swapExactTokensForTokens((address,address,bool),uint256,uint256,address[])": {
        "details": "execute swap directly on Uniswap/Pancake/...",
        "params": {
          "amountIn": "amount if tokens In",
          "amountOutMin": "minimum tokens to receive",
          "path": "Sell path.",
          "swapData": "stores the swapData information"
        },
        "returns": {
          "amounts": "amounts"
        }
      },
      "swapExactTokensForTokensSupportingFeeOnTransferTokens((address,address,bool),uint256,uint256,address[])": {
        "details": "execute swap directly on Uniswap/Pancake/...",
        "params": {
          "amountIn": "amount if tokens In",
          "amountOutMin": "minimum tokens to receive",
          "path": "Sell path.",
          "swapData": "stores the swapData information"
        }
      },
      "swapTokensForExactETH((address,address,bool),uint256,uint256,address[])": {
        "details": "execute swap directly on Uniswap/Pancake/...",
        "params": {
          "amountInMax": "maximum tokens to send",
          "amountOut": "expected tokens to receive",
          "path": "Sell path.",
          "swapData": "stores the swapData information"
        },
        "returns": {
          "amounts": "amounts"
        }
      },
      "swapTokensForExactTokens((address,address,bool),uint256,uint256,address[])": {
        "details": "execute swap directly on Uniswap/Pancake/...",
        "params": {
          "amountInMax": "maximum tokens to send",
          "amountOut": "expected tokens to receive",
          "path": "Sell path.",
          "swapData": "stores the swapData information"
        },
        "returns": {
          "amounts": "amounts"
        }
      },
      "transferOwnership(address)": {
        "details": "Transfers ownership of the contract to a new account (`newOwner`). Can only be called by the current owner."
      },
      "unpause()": {
        "details": "lets the admin unpause this contract"
      },
      "updateCustomReferralRewardRate(address,uint16)": {
        "details": "lets the admin set a custom referral rate"
      },
      "updateFeeReceiver(address)": {
        "details": "lets the admin update which address receives the protocol fees"
      },
      "updateFork(address,bytes,bool)": {
        "details": "lets the admin update an Uniswap style fork"
      },
      "updateReferralRegistry(address)": {
        "details": "lets the admin set a new referral registry"
      },
      "updateReferralRewardRate(uint16)": {
        "details": "lets the admin update the referral reward rate"
      },
      "updateReferralsActivated(bool)": {
        "details": "lets the admin update the status of the referral system"
      },
      "updateSwapFee(uint16)": {
        "details": "lets the admin update the swapFee nominator"
      },
      "withdrawERC20Token(address,address,uint256)": {
        "details": "lets the admin withdraw ERC20s from the contract."
      },
      "withdrawETH(address,uint256)": {
        "details": "lets the admin withdraw ETH from the contract."
      }
    }
  },
  "userdoc": {
    "methods": {}
  },
  "storageLayout": {
    "storage": [
      {
        "astId": 592,
        "contract": "contracts/FloozMultichainRouter.sol:FloozMultichainRouter",
        "label": "_owner",
        "offset": 0,
        "slot": "0",
        "type": "t_address"
      },
      {
        "astId": 1168,
        "contract": "contracts/FloozMultichainRouter.sol:FloozMultichainRouter",
        "label": "_paused",
        "offset": 20,
        "slot": "0",
        "type": "t_bool"
      },
      {
        "astId": 1253,
        "contract": "contracts/FloozMultichainRouter.sol:FloozMultichainRouter",
        "label": "_status",
        "offset": 0,
        "slot": "1",
        "type": "t_uint256"
      },
      {
        "astId": 1921,
        "contract": "contracts/FloozMultichainRouter.sol:FloozMultichainRouter",
        "label": "swapFee",
        "offset": 0,
        "slot": "2",
        "type": "t_uint16"
      },
      {
        "astId": 1929,
        "contract": "contracts/FloozMultichainRouter.sol:FloozMultichainRouter",
        "label": "referralRegistry",
        "offset": 2,
        "slot": "2",
        "type": "t_contract(IReferralRegistry)8564"
      },
      {
        "astId": 1931,
        "contract": "contracts/FloozMultichainRouter.sol:FloozMultichainRouter",
        "label": "feeReceiver",
        "offset": 0,
        "slot": "3",
        "type": "t_address_payable"
      },
      {
        "astId": 1933,
        "contract": "contracts/FloozMultichainRouter.sol:FloozMultichainRouter",
        "label": "referralRewardRate",
        "offset": 20,
        "slot": "3",
        "type": "t_uint16"
      },
      {
        "astId": 1935,
        "contract": "contracts/FloozMultichainRouter.sol:FloozMultichainRouter",
        "label": "referralsActivated",
        "offset": 22,
        "slot": "3",
        "type": "t_bool"
      },
      {
        "astId": 1939,
        "contract": "contracts/FloozMultichainRouter.sol:FloozMultichainRouter",
        "label": "customReferralRewardRate",
        "offset": 0,
        "slot": "4",
        "type": "t_mapping(t_address,t_uint16)"
      },
      {
        "astId": 1943,
        "contract": "contracts/FloozMultichainRouter.sol:FloozMultichainRouter",
        "label": "forkActivated",
        "offset": 0,
        "slot": "5",
        "type": "t_mapping(t_address,t_bool)"
      },
      {
        "astId": 1947,
        "contract": "contracts/FloozMultichainRouter.sol:FloozMultichainRouter",
        "label": "forkInitCode",
        "offset": 0,
        "slot": "6",
        "type": "t_mapping(t_address,t_bytes_storage)"
      }
    ],
    "types": {
      "t_address": {
        "encoding": "inplace",
        "label": "address",
        "numberOfBytes": "20"
      },
      "t_address_payable": {
        "encoding": "inplace",
        "label": "address payable",
        "numberOfBytes": "20"
      },
      "t_bool": {
        "encoding": "inplace",
        "label": "bool",
        "numberOfBytes": "1"
      },
      "t_bytes_storage": {
        "encoding": "bytes",
        "label": "bytes",
        "numberOfBytes": "32"
      },
      "t_contract(IReferralRegistry)8564": {
        "encoding": "inplace",
        "label": "contract IReferralRegistry",
        "numberOfBytes": "20"
      },
      "t_mapping(t_address,t_bool)": {
        "encoding": "mapping",
        "key": "t_address",
        "label": "mapping(address => bool)",
        "numberOfBytes": "32",
        "value": "t_bool"
      },
      "t_mapping(t_address,t_bytes_storage)": {
        "encoding": "mapping",
        "key": "t_address",
        "label": "mapping(address => bytes)",
        "numberOfBytes": "32",
        "value": "t_bytes_storage"
      },
      "t_mapping(t_address,t_uint16)": {
        "encoding": "mapping",
        "key": "t_address",
        "label": "mapping(address => uint16)",
        "numberOfBytes": "32",
        "value": "t_uint16"
      },
      "t_uint16": {
        "encoding": "inplace",
        "label": "uint16",
        "numberOfBytes": "2"
      },
      "t_uint256": {
        "encoding": "inplace",
        "label": "uint256",
        "numberOfBytes": "32"
      }
    }
  }
}