{
  "address": "0xBa5f177649FC29FB17564142dFd5DD901AcF7b83",
  "abi": [
    {
      "inputs": [
        {
          "internalType": "address",
          "name": "_WETH",
          "type": "address"
        },
        {
          "internalType": "uint16",
          "name": "_swapFee",
          "type": "uint16"
        },
        {
          "internalType": "uint16",
          "name": "_referralRewardRate",
          "type": "uint16"
        },
        {
          "internalType": "address payable",
          "name": "_feeReceiver",
          "type": "address"
        },
        {
          "internalType": "contract IReferralRegistry",
          "name": "_referralRegistry",
          "type": "address"
        },
        {
          "internalType": "address payable",
          "name": "_zeroEx",
          "type": "address"
        },
        {
          "internalType": "address payable",
          "name": "_oneInch",
          "type": "address"
        }
      ],
      "stateMutability": "nonpayable",
      "type": "constructor"
    },
    {
      "anonymous": false,
      "inputs": [
        {
          "indexed": true,
          "internalType": "address",
          "name": "account",
          "type": "address"
        },
        {
          "indexed": false,
          "internalType": "uint16",
          "name": "referralRate",
          "type": "uint16"
        }
      ],
      "name": "CustomReferralRewardRateUpdated",
      "type": "event"
    },
    {
      "anonymous": false,
      "inputs": [
        {
          "indexed": false,
          "internalType": "address payable",
          "name": "feeReceiver",
          "type": "address"
        }
      ],
      "name": "FeeReceiverUpdated",
      "type": "event"
    },
    {
      "anonymous": false,
      "inputs": [
        {
          "indexed": false,
          "internalType": "address",
          "name": "factory",
          "type": "address"
        }
      ],
      "name": "ForkCreated",
      "type": "event"
    },
    {
      "anonymous": false,
      "inputs": [
        {
          "indexed": false,
          "internalType": "address",
          "name": "factory",
          "type": "address"
        }
      ],
      "name": "ForkUpdated",
      "type": "event"
    },
    {
      "anonymous": false,
      "inputs": [
        {
          "indexed": true,
          "internalType": "address",
          "name": "previousOwner",
          "type": "address"
        },
        {
          "indexed": true,
          "internalType": "address",
          "name": "newOwner",
          "type": "address"
        }
      ],
      "name": "OwnershipTransferred",
      "type": "event"
    },
    {
      "anonymous": false,
      "inputs": [
        {
          "indexed": false,
          "internalType": "address",
          "name": "account",
          "type": "address"
        }
      ],
      "name": "Paused",
      "type": "event"
    },
    {
      "anonymous": false,
      "inputs": [
        {
          "indexed": false,
          "internalType": "address",
          "name": "referralRegistry",
          "type": "address"
        }
      ],
      "name": "ReferralRegistryUpdated",
      "type": "event"
    },
    {
      "anonymous": false,
      "inputs": [
        {
          "indexed": false,
          "internalType": "address",
          "name": "from",
          "type": "address"
        },
        {
          "indexed": true,
          "internalType": "address",
          "name": "to",
          "type": "address"
        },
        {
          "indexed": false,
          "internalType": "address",
          "name": "tokenOut",
          "type": "address"
        },
        {
          "indexed": false,
          "internalType": "address",
          "name": "tokenReward",
          "type": "address"
        },
        {
          "indexed": false,
          "internalType": "uint256",
          "name": "amount",
          "type": "uint256"
        }
      ],
      "name": "ReferralRewardPaid",
      "type": "event"
    },
    {
      "anonymous": false,
      "inputs": [
        {
          "indexed": false,
          "internalType": "uint16",
          "name": "referralRewardRate",
          "type": "uint16"
        }
      ],
      "name": "ReferralRewardRateUpdated",
      "type": "event"
    },
    {
      "anonymous": false,
      "inputs": [
        {
          "indexed": false,
          "internalType": "bool",
          "name": "activated",
          "type": "bool"
        }
      ],
      "name": "ReferralsActivatedUpdated",
      "type": "event"
    },
    {
      "anonymous": false,
      "inputs": [
        {
          "indexed": false,
          "internalType": "uint16",
          "name": "swapFee",
          "type": "uint16"
        }
      ],
      "name": "SwapFeeUpdated",
      "type": "event"
    },
    {
      "anonymous": false,
      "inputs": [
        {
          "indexed": false,
          "internalType": "address",
          "name": "account",
          "type": "address"
        }
      ],
      "name": "Unpaused",
      "type": "event"
    },
    {
      "inputs": [],
      "name": "FEE_DENOMINATOR",
      "outputs": [
        {
          "internalType": "uint256",
          "name": "",
          "type": "uint256"
        }
      ],
      "stateMutability": "view",
      "type": "function"
    },
    {
      "inputs": [],
      "name": "WETH",
      "outputs": [
        {
          "internalType": "address",
          "name": "",
          "type": "address"
        }
      ],
      "stateMutability": "view",
      "type": "function"
    },
    {
      "inputs": [
        {
          "internalType": "address",
          "name": "",
          "type": "address"
        }
      ],
      "name": "customReferralRewardRate",
      "outputs": [
        {
          "internalType": "uint16",
          "name": "",
          "type": "uint16"
        }
      ],
      "stateMutability": "view",
      "type": "function"
    },
    {
      "inputs": [
        {
          "internalType": "bytes",
          "name": "data",
          "type": "bytes"
        },
        {
          "internalType": "address",
          "name": "fromToken",
          "type": "address"
        },
        {
          "internalType": "address",
          "name": "toToken",
          "type": "address"
        },
        {
          "internalType": "uint256",
          "name": "amountFrom",
          "type": "uint256"
        },
        {
          "internalType": "address",
          "name": "referee",
          "type": "address"
        },
        {
          "internalType": "uint256",
          "name": "minOut",
          "type": "uint256"
        },
        {
          "internalType": "bool",
          "name": "fee",
          "type": "bool"
        }
      ],
      "name": "executeOneInchSwap",
      "outputs": [],
      "stateMutability": "payable",
      "type": "function"
    },
    {
      "inputs": [
        {
          "internalType": "bytes",
          "name": "data",
          "type": "bytes"
        },
        {
          "internalType": "address",
          "name": "fromToken",
          "type": "address"
        },
        {
          "internalType": "address",
          "name": "toToken",
          "type": "address"
        },
        {
          "internalType": "uint256",
          "name": "amountFrom",
          "type": "uint256"
        },
        {
          "internalType": "address",
          "name": "referee",
          "type": "address"
        },
        {
          "internalType": "uint256",
          "name": "minOut",
          "type": "uint256"
        },
        {
          "internalType": "bool",
          "name": "fee",
          "type": "bool"
        }
      ],
      "name": "executeZeroExSwap",
      "outputs": [],
      "stateMutability": "payable",
      "type": "function"
    },
    {
      "inputs": [],
      "name": "feeReceiver",
      "outputs": [
        {
          "internalType": "address payable",
          "name": "",
          "type": "address"
        }
      ],
      "stateMutability": "view",
      "type": "function"
    },
    {
      "inputs": [
        {
          "internalType": "address",
          "name": "",
          "type": "address"
        }
      ],
      "name": "forkActivated",
      "outputs": [
        {
          "internalType": "bool",
          "name": "",
          "type": "bool"
        }
      ],
      "stateMutability": "view",
      "type": "function"
    },
    {
      "inputs": [
        {
          "internalType": "address",
          "name": "",
          "type": "address"
        }
      ],
      "name": "forkInitCode",
      "outputs": [
        {
          "internalType": "bytes",
          "name": "",
          "type": "bytes"
        }
      ],
      "stateMutability": "view",
      "type": "function"
    },
    {
      "inputs": [
        {
          "internalType": "address",
          "name": "user",
          "type": "address"
        }
      ],
      "name": "getUserReferee",
      "outputs": [
        {
          "internalType": "address",
          "name": "",
          "type": "address"
        }
      ],
      "stateMutability": "view",
      "type": "function"
    },
    {
      "inputs": [
        {
          "internalType": "address",
          "name": "user",
          "type": "address"
        }
      ],
      "name": "hasUserReferee",
      "outputs": [
        {
          "internalType": "bool",
          "name": "",
          "type": "bool"
        }
      ],
      "stateMutability": "view",
      "type": "function"
    },
    {
      "inputs": [],
      "name": "oneInch",
      "outputs": [
        {
          "internalType": "address payable",
          "name": "",
          "type": "address"
        }
      ],
      "stateMutability": "view",
      "type": "function"
    },
    {
      "inputs": [],
      "name": "owner",
      "outputs": [
        {
          "internalType": "address",
          "name": "",
          "type": "address"
        }
      ],
      "stateMutability": "view",
      "type": "function"
    },
    {
      "inputs": [],
      "name": "pause",
      "outputs": [],
      "stateMutability": "nonpayable",
      "type": "function"
    },
    {
      "inputs": [],
      "name": "paused",
      "outputs": [
        {
          "internalType": "bool",
          "name": "",
          "type": "bool"
        }
      ],
      "stateMutability": "view",
      "type": "function"
    },
    {
      "inputs": [],
      "name": "referralRegistry",
      "outputs": [
        {
          "internalType": "contract IReferralRegistry",
          "name": "",
          "type": "address"
        }
      ],
      "stateMutability": "view",
      "type": "function"
    },
    {
      "inputs": [],
      "name": "referralRewardRate",
      "outputs": [
        {
          "internalType": "uint16",
          "name": "",
          "type": "uint16"
        }
      ],
      "stateMutability": "view",
      "type": "function"
    },
    {
      "inputs": [],
      "name": "referralsActivated",
      "outputs": [
        {
          "internalType": "bool",
          "name": "",
          "type": "bool"
        }
      ],
      "stateMutability": "view",
      "type": "function"
    },
    {
      "inputs": [
        {
          "internalType": "address",
          "name": "_factory",
          "type": "address"
        },
        {
          "internalType": "bytes",
          "name": "_initCode",
          "type": "bytes"
        }
      ],
      "name": "registerFork",
      "outputs": [],
      "stateMutability": "nonpayable",
      "type": "function"
    },
    {
      "inputs": [],
      "name": "renounceOwnership",
      "outputs": [],
      "stateMutability": "nonpayable",
      "type": "function"
    },
    {
      "inputs": [
        {
          "components": [
            {
              "internalType": "address",
              "name": "fork",
              "type": "address"
            },
            {
              "internalType": "address",
              "name": "referee",
              "type": "address"
            },
            {
              "internalType": "bool",
              "name": "fee",
              "type": "bool"
            }
          ],
          "internalType": "struct FloozMultichainRouter.SwapData",
          "name": "swapData",
          "type": "tuple"
        },
        {
          "internalType": "uint256",
          "name": "amountOut",
          "type": "uint256"
        },
        {
          "internalType": "address[]",
          "name": "path",
          "type": "address[]"
        }
      ],
      "name": "swapETHForExactTokens",
      "outputs": [
        {
          "internalType": "uint256[]",
          "name": "amounts",
          "type": "uint256[]"
        }
      ],
      "stateMutability": "payable",
      "type": "function"
    },
    {
      "inputs": [
        {
          "components": [
            {
              "internalType": "address",
              "name": "fork",
              "type": "address"
            },
            {
              "internalType": "address",
              "name": "referee",
              "type": "address"
            },
            {
              "internalType": "bool",
              "name": "fee",
              "type": "bool"
            }
          ],
          "internalType": "struct FloozMultichainRouter.SwapData",
          "name": "swapData",
          "type": "tuple"
        },
        {
          "internalType": "uint256",
          "name": "amountOutMin",
          "type": "uint256"
        },
        {
          "internalType": "address[]",
          "name": "path",
          "type": "address[]"
        }
      ],
      "name": "swapExactETHForTokens",
      "outputs": [
        {
          "internalType": "uint256[]",
          "name": "amounts",
          "type": "uint256[]"
        }
      ],
      "stateMutability": "payable",
      "type": "function"
    },
    {
      "inputs": [
        {
          "components": [
            {
              "internalType": "address",
              "name": "fork",
              "type": "address"
            },
            {
              "internalType": "address",
              "name": "referee",
              "type": "address"
            },
            {
              "internalType": "bool",
              "name": "fee",
              "type": "bool"
            }
          ],
          "internalType": "struct FloozMultichainRouter.SwapData",
          "name": "swapData",
          "type": "tuple"
        },
        {
          "internalType": "uint256",
          "name": "amountOutMin",
          "type": "uint256"
        },
        {
          "internalType": "address[]",
          "name": "path",
          "type": "address[]"
        }
      ],
      "name": "swapExactETHForTokensSupportingFeeOnTransferTokens",
      "outputs": [],
      "stateMutability": "payable",
      "type": "function"
    },
    {
      "inputs": [
        {
          "components": [
            {
              "internalType": "address",
              "name": "fork",
              "type": "address"
            },
            {
              "internalType": "address",
              "name": "referee",
              "type": "address"
            },
            {
              "internalType": "bool",
              "name": "fee",
              "type": "bool"
            }
          ],
          "internalType": "struct FloozMultichainRouter.SwapData",
          "name": "swapData",
          "type": "tuple"
        },
        {
          "internalType": "uint256",
          "name": "amountIn",
          "type": "uint256"
        },
        {
          "internalType": "uint256",
          "name": "amountOutMin",
          "type": "uint256"
        },
        {
          "internalType": "address[]",
          "name": "path",
          "type": "address[]"
        }
      ],
      "name": "swapExactTokensForETH",
      "outputs": [
        {
          "internalType": "uint256[]",
          "name": "amounts",
          "type": "uint256[]"
        }
      ],
      "stateMutability": "nonpayable",
      "type": "function"
    },
    {
      "inputs": [
        {
          "components": [
            {
              "internalType": "address",
              "name": "fork",
              "type": "address"
            },
            {
              "internalType": "address",
              "name": "referee",
              "type": "address"
            },
            {
              "internalType": "bool",
              "name": "fee",
              "type": "bool"
            }
          ],
          "internalType": "struct FloozMultichainRouter.SwapData",
          "name": "swapData",
          "type": "tuple"
        },
        {
          "internalType": "uint256",
          "name": "amountIn",
          "type": "uint256"
        },
        {
          "internalType": "uint256",
          "name": "amountOutMin",
          "type": "uint256"
        },
        {
          "internalType": "address[]",
          "name": "path",
          "type": "address[]"
        }
      ],
      "name": "swapExactTokensForETHSupportingFeeOnTransferTokens",
      "outputs": [],
      "stateMutability": "nonpayable",
      "type": "function"
    },
    {
      "inputs": [
        {
          "components": [
            {
              "internalType": "address",
              "name": "fork",
              "type": "address"
            },
            {
              "internalType": "address",
              "name": "referee",
              "type": "address"
            },
            {
              "internalType": "bool",
              "name": "fee",
              "type": "bool"
            }
          ],
          "internalType": "struct FloozMultichainRouter.SwapData",
          "name": "swapData",
          "type": "tuple"
        },
        {
          "internalType": "uint256",
          "name": "amountIn",
          "type": "uint256"
        },
        {
          "internalType": "uint256",
          "name": "amountOutMin",
          "type": "uint256"
        },
        {
          "internalType": "address[]",
          "name": "path",
          "type": "address[]"
        }
      ],
      "name": "swapExactTokensForTokens",
      "outputs": [
        {
          "internalType": "uint256[]",
          "name": "amounts",
          "type": "uint256[]"
        }
      ],
      "stateMutability": "nonpayable",
      "type": "function"
    },
    {
      "inputs": [
        {
          "components": [
            {
              "internalType": "address",
              "name": "fork",
              "type": "address"
            },
            {
              "internalType": "address",
              "name": "referee",
              "type": "address"
            },
            {
              "internalType": "bool",
              "name": "fee",
              "type": "bool"
            }
          ],
          "internalType": "struct FloozMultichainRouter.SwapData",
          "name": "swapData",
          "type": "tuple"
        },
        {
          "internalType": "uint256",
          "name": "amountIn",
          "type": "uint256"
        },
        {
          "internalType": "uint256",
          "name": "amountOutMin",
          "type": "uint256"
        },
        {
          "internalType": "address[]",
          "name": "path",
          "type": "address[]"
        }
      ],
      "name": "swapExactTokensForTokensSupportingFeeOnTransferTokens",
      "outputs": [],
      "stateMutability": "nonpayable",
      "type": "function"
    },
    {
      "inputs": [],
      "name": "swapFee",
      "outputs": [
        {
          "internalType": "uint16",
          "name": "",
          "type": "uint16"
        }
      ],
      "stateMutability": "view",
      "type": "function"
    },
    {
      "inputs": [
        {
          "components": [
            {
              "internalType": "address",
              "name": "fork",
              "type": "address"
            },
            {
              "internalType": "address",
              "name": "referee",
              "type": "address"
            },
            {
              "internalType": "bool",
              "name": "fee",
              "type": "bool"
            }
          ],
          "internalType": "struct FloozMultichainRouter.SwapData",
          "name": "swapData",
          "type": "tuple"
        },
        {
          "internalType": "uint256",
          "name": "amountOut",
          "type": "uint256"
        },
        {
          "internalType": "uint256",
          "name": "amountInMax",
          "type": "uint256"
        },
        {
          "internalType": "address[]",
          "name": "path",
          "type": "address[]"
        }
      ],
      "name": "swapTokensForExactETH",
      "outputs": [
        {
          "internalType": "uint256[]",
          "name": "amounts",
          "type": "uint256[]"
        }
      ],
      "stateMutability": "nonpayable",
      "type": "function"
    },
    {
      "inputs": [
        {
          "components": [
            {
              "internalType": "address",
              "name": "fork",
              "type": "address"
            },
            {
              "internalType": "address",
              "name": "referee",
              "type": "address"
            },
            {
              "internalType": "bool",
              "name": "fee",
              "type": "bool"
            }
          ],
          "internalType": "struct FloozMultichainRouter.SwapData",
          "name": "swapData",
          "type": "tuple"
        },
        {
          "internalType": "uint256",
          "name": "amountOut",
          "type": "uint256"
        },
        {
          "internalType": "uint256",
          "name": "amountInMax",
          "type": "uint256"
        },
        {
          "internalType": "address[]",
          "name": "path",
          "type": "address[]"
        }
      ],
      "name": "swapTokensForExactTokens",
      "outputs": [
        {
          "internalType": "uint256[]",
          "name": "amounts",
          "type": "uint256[]"
        }
      ],
      "stateMutability": "nonpayable",
      "type": "function"
    },
    {
      "inputs": [
        {
          "internalType": "address",
          "name": "newOwner",
          "type": "address"
        }
      ],
      "name": "transferOwnership",
      "outputs": [],
      "stateMutability": "nonpayable",
      "type": "function"
    },
    {
      "inputs": [],
      "name": "unpause",
      "outputs": [],
      "stateMutability": "nonpayable",
      "type": "function"
    },
    {
      "inputs": [
        {
          "internalType": "address",
          "name": "account",
          "type": "address"
        },
        {
          "internalType": "uint16",
          "name": "referralRate",
          "type": "uint16"
        }
      ],
      "name": "updateCustomReferralRewardRate",
      "outputs": [
        {
          "internalType": "uint256",
          "name": "",
          "type": "uint256"
        }
      ],
      "stateMutability": "nonpayable",
      "type": "function"
    },
    {
      "inputs": [
        {
          "internalType": "address payable",
          "name": "newFeeReceiver",
          "type": "address"
        }
      ],
      "name": "updateFeeReceiver",
      "outputs": [],
      "stateMutability": "nonpayable",
      "type": "function"
    },
    {
      "inputs": [
        {
          "internalType": "address",
          "name": "_factory",
          "type": "address"
        },
        {
          "internalType": "bytes",
          "name": "_initCode",
          "type": "bytes"
        },
        {
          "internalType": "bool",
          "name": "_activated",
          "type": "bool"
        }
      ],
      "name": "updateFork",
      "outputs": [],
      "stateMutability": "nonpayable",
      "type": "function"
    },
    {
      "inputs": [
        {
          "internalType": "address",
          "name": "newReferralRegistry",
          "type": "address"
        }
      ],
      "name": "updateReferralRegistry",
      "outputs": [],
      "stateMutability": "nonpayable",
      "type": "function"
    },
    {
      "inputs": [
        {
          "internalType": "uint16",
          "name": "newReferralRewardRate",
          "type": "uint16"
        }
      ],
      "name": "updateReferralRewardRate",
      "outputs": [],
      "stateMutability": "nonpayable",
      "type": "function"
    },
    {
      "inputs": [
        {
          "internalType": "bool",
          "name": "newReferralsActivated",
          "type": "bool"
        }
      ],
      "name": "updateReferralsActivated",
      "outputs": [],
      "stateMutability": "nonpayable",
      "type": "function"
    },
    {
      "inputs": [
        {
          "internalType": "uint16",
          "name": "newSwapFee",
          "type": "uint16"
        }
      ],
      "name": "updateSwapFee",
      "outputs": [],
      "stateMutability": "nonpayable",
      "type": "function"
    },
    {
      "inputs": [
        {
          "internalType": "address",
          "name": "token",
          "type": "address"
        },
        {
          "internalType": "address",
          "name": "to",
          "type": "address"
        },
        {
          "internalType": "uint256",
          "name": "amount",
          "type": "uint256"
        }
      ],
      "name": "withdrawERC20Token",
      "outputs": [],
      "stateMutability": "nonpayable",
      "type": "function"
    },
    {
      "inputs": [
        {
          "internalType": "address payable",
          "name": "to",
          "type": "address"
        },
        {
          "internalType": "uint256",
          "name": "amount",
          "type": "uint256"
        }
      ],
      "name": "withdrawETH",
      "outputs": [],
      "stateMutability": "nonpayable",
      "type": "function"
    },
    {
      "inputs": [],
      "name": "zeroEx",
      "outputs": [
        {
          "internalType": "address payable",
          "name": "",
          "type": "address"
        }
      ],
      "stateMutability": "view",
      "type": "function"
    },
    {
      "stateMutability": "payable",
      "type": "receive"
    }
  ],
  "transactionHash": "0xb4bea9a0d1c3c3c53af3a14faaeac96377d9fdcdb92244f8e6965f06b4492c6b",
  "args": [
    "0x0d500b1d8e8ef31e21c99d1db9a6444d3adf1270",
    50,
    1000,
    "0xc01678c13F8d762584F92bce1A9C19fBc840F2E1",
    "0x2Bffb14C396bF6573b5C80d4A8F27C54c5B53870",
    "0xdef1c0ded9bec7f1a1670819833240f027b25eff",
    "0x1111111254fb6c44bAC0beD2854e76F90643097d"
  ],
  "solcInputHash": "ce39f14efe2dda7f811be99533816fc8",
  "bytecode": "0x60e06040523480156200001157600080fd5b50604051620060743803806200607483398101604081905262000034916200015d565b6000620000496001600160e01b036200014016565b600080546001600160a01b0319166001600160a01b0383169081178255604051929350917f8be0079c531659141344cd1fd0a4f28419497f9722a3daafe3b4186f6b6457e0908290a3506000805460ff60a01b1916905560018055606096871b6001600160601b0319908116608052600280546003805461ffff1990921661ffff9a8b161762010000600160b01b031916620100006001600160a01b03988916021790925593891b821660a0529190971b90961660c052600160b01b61ffff60a01b19909116600160a01b9490951693909302939093176001600160a01b03191692169190911760ff60b01b19161790556200021b565b3390565b805161ffff811681146200015757600080fd5b92915050565b600080600080600080600060e0888a03121562000178578283fd5b8751620001858162000202565b9650620001968960208a0162000144565b9550620001a78960408a0162000144565b94506060880151620001b98162000202565b6080890151909450620001cc8162000202565b60a0890151909350620001df8162000202565b60c0890151909250620001f28162000202565b8091505092959891949750929550565b6001600160a01b03811681146200021857600080fd5b50565b60805160601c60a05160601c60c05160601c615d9c620002d8600039806106f6528061085352806108d752806109dc5280610b775280610bfa525080611bfa5280612a155280612c805280612d015280612ee5528061312452806131a5525080610d865280610ebe5280610f4b52806112ae5280611411528061149e5280611763528061180952806118825280611ee752806120c6528061260952806137b0528061390252806139a15280613c265280613de85250615d9c6000f3fe60806040526004361061024a5760003560e01c806388b2868711610139578063caa9b5cb116100b6578063e96b2f501161007a578063e96b2f501461063f578063ea043e271461065f578063f01e063a1461067f578063f2fde38b1461069f578063fe4ad446146106bf578063fe7d4f34146106d457610251565b8063caa9b5cb146105b7578063d113efc4146105d7578063d6242cf1146105f7578063d73792a91461060a578063e5ae0c321461061f57610251565b8063ad5c4648116100fd578063ad5c46481461052d578063b3f0067414610542578063bdf7710814610557578063c00a315914610577578063c69bebe41461059757610251565b806388b28687146104985780638d18300a146104b85780638da5cb5b146104d8578063927e897a146104ed578063a7a94fde1461050d57610251565b80634e627e62116101c75780635c975abb1161018b5780635c975abb1461040c578063692247c314610421578063715018a61461044e5780637cde0c74146104635780638456cb591461048357610251565b80634e627e62146103735780634fb5df081461038857806352ab413b146103b557806354cf2aeb146103ca57806357d1b31b146103ec57610251565b80632f9120051161020e5780632f912005146102f85780633f4ba83a146103185780633f9f5ecb1461032d5780634782f779146103405780634ba4ecb11461036057610251565b8063045c08d5146102565780630bc0456814610281578063279c186814610296578063279f3291146102b65780632def48b1146102d857610251565b3661025157005b600080fd5b34801561026257600080fd5b5061026b6106f4565b60405161027891906155cd565b60405180910390f35b61029461028f36600461529e565b610718565b005b6102a96102a436600461533d565b610cdf565b6040516102789190615662565b3480156102c257600080fd5b506102cb6110fd565b60405161027891906156a6565b3480156102e457600080fd5b506102946102f33660046150ce565b61110d565b34801561030457600080fd5b506102cb6103133660046150ce565b6111a9565b34801561032457600080fd5b506102946111be565b6102a961033b36600461533d565b611207565b34801561034c57600080fd5b5061029461035b366004615106565b611671565b61029461036e36600461533d565b6116be565b34801561037f57600080fd5b5061026b611b48565b34801561039457600080fd5b506103a86103a33660046150ce565b611b5d565b60405161027891906156b1565b3480156103c157600080fd5b5061026b611bf8565b3480156103d657600080fd5b506103df611c1c565b6040516102789190615cae565b3480156103f857600080fd5b50610294610407366004615131565b611c26565b34801561041857600080fd5b506102cb611c75565b34801561042d57600080fd5b5061044161043c366004615228565b611c86565b6040516102789190615cbd565b34801561045a57600080fd5b50610294611d52565b34801561046f57600080fd5b506103df61047e3660046150ce565b611ddb565b34801561048f57600080fd5b50610294611df1565b3480156104a457600080fd5b506102a96104b3366004615395565b611e38565b3480156104c457600080fd5b506102a96104d3366004615395565b61219e565b3480156104e457600080fd5b5061026b6123a7565b3480156104f957600080fd5b506102cb6105083660046150ce565b6123b6565b34801561051957600080fd5b506102a9610528366004615395565b612443565b34801561053957600080fd5b5061026b612607565b34801561054e57600080fd5b5061026b61262b565b34801561056357600080fd5b50610294610572366004615171565b61263a565b34801561058357600080fd5b506102946105923660046151c3565b612727565b3480156105a357600080fd5b506102946105b23660046150ce565b6127dd565b3480156105c357600080fd5b506102946105d236600461544f565b612867565b3480156105e357600080fd5b5061026b6105f23660046150ce565b6128e7565b61029461060536600461529e565b61296e565b34801561061657600080fd5b5061044161336a565b34801561062b57600080fd5b5061029461063a36600461544f565b613370565b34801561064b57600080fd5b5061029461065a366004615266565b61341f565b34801561066b57600080fd5b5061029461067a366004615395565b6134a5565b34801561068b57600080fd5b5061029461069a366004615395565b613703565b3480156106ab57600080fd5b506102946106ba3660046150ce565b613aa6565b3480156106cb57600080fd5b506103df613b66565b3480156106e057600080fd5b506102a96106ef366004615395565b613b77565b7f000000000000000000000000000000000000000000000000000000000000000081565b600260015414156107445760405162461bcd60e51b815260040161073b90615c45565b60405180910390fd5b6002600155610751611c75565b1561076e5760405162461bcd60e51b815260040161073b9061594e565b82336001600160a01b03821614156107985760405162461bcd60e51b815260040161073b90615866565b816109a2576001600160a01b038716156108d1576040516323b872dd60e01b81526001600160a01b038816906323b872dd906107dc90339030908a906004016155e1565b602060405180830381600087803b1580156107f657600080fd5b505af115801561080a573d6000803e3d6000fd5b505050506040513d601f19601f8201168201806040525081019061082e9190615282565b5060405163095ea7b360e01b81526001600160a01b0388169063095ea7b39061087d907f000000000000000000000000000000000000000000000000000000000000000090899060040161562f565b602060405180830381600087803b15801561089757600080fd5b505af11580156108ab573d6000803e3d6000fd5b505050506040513d601f19601f820116820180604052508101906108cf9190615282565b505b600060607f00000000000000000000000000000000000000000000000000000000000000006001600160a01b0316348c8c6040516109109291906154ff565b60006040518083038185875af1925050503d806000811461094d576040519150601f19603f3d011682016040523d82523d6000602084013e610952565b606091505b50915091508161096157600080fd5b6000818060200190518101906109779190615489565b5090508581101561099a5760405162461bcd60e51b815260040161073b90615978565b505050610cd0565b6000341180156109b957506001600160a01b038716155b15610ab85760008060006109d08534896000613eb2565b925092509250600060607f00000000000000000000000000000000000000000000000000000000000000006001600160a01b0316858f8f604051610a159291906154ff565b60006040518083038185875af1925050503d8060008114610a52576040519150601f19603f3d011682016040523d82523d6000602084013e610a57565b606091505b509150915081610a6657600080fd5b600081806020019051810190610a7c9190615489565b50905088811015610a9f5760405162461bcd60e51b815260040161073b90615978565b50610aae60008c8b8787614007565b5050505050610cd0565b6000806000610aca8589896000613eb2565b925092509250896001600160a01b03166323b872dd3330866040518463ffffffff1660e01b8152600401610b00939291906155e1565b602060405180830381600087803b158015610b1a57600080fd5b505af1158015610b2e573d6000803e3d6000fd5b505050506040513d601f19601f82011682018060405250810190610b529190615282565b5060405163095ea7b360e01b81526001600160a01b038b169063095ea7b390610ba1907f000000000000000000000000000000000000000000000000000000000000000090879060040161562f565b602060405180830381600087803b158015610bbb57600080fd5b505af1158015610bcf573d6000803e3d6000fd5b505050506040513d601f19601f82011682018060405250810190610bf39190615282565b50600060607f00000000000000000000000000000000000000000000000000000000000000006001600160a01b03168e8e604051610c329291906154ff565b6000604051808303816000865af19150503d8060008114610c6f576040519150601f19603f3d011682016040523d82523d6000602084013e610c74565b606091505b509150915081610c8357600080fd5b600081806020019051810190610c999190615489565b50905088811015610cbc5760405162461bcd60e51b815260040161073b90615978565b50610cca8c8c8b8787614007565b50505050505b50506001805550505050505050565b6060610ce9611c75565b15610d065760405162461bcd60e51b815260040161073b9061594e565b610d1360208601866150ce565b6001600160a01b03811660009081526005602052604090205460ff16610d4b5760405162461bcd60e51b815260040161073b90615aee565b610d5b60408701602088016150ce565b336001600160a01b0382161415610d845760405162461bcd60e51b815260040161073b90615866565b7f00000000000000000000000000000000000000000000000000000000000000006001600160a01b031685856000818110610dbb57fe5b9050602002016020810190610dd091906150ce565b6001600160a01b031614610df65760405162461bcd60e51b815260040161073b906159bf565b6000610e10610e0b60408a0160208b016150ce565b614103565b905060008080610e32610e2960608d0160408e01615266565b34866000613eb2565b91945092509050610e83610e4960208d018d6150ce565b848b8b8080602002602001604051908101604052809392919081815260200183836020028082843760009201919091525061429d92505050565b96508987600189510381518110610e9657fe5b60200260200101511015610ebc5760405162461bcd60e51b815260040161073b9061581f565b7f00000000000000000000000000000000000000000000000000000000000000006001600160a01b031663d0e30db088600081518110610ef857fe5b60200260200101516040518263ffffffff1660e01b81526004016000604051808303818588803b158015610f2b57600080fd5b505af1158015610f3f573d6000803e3d6000fd5b50506001600160a01b037f000000000000000000000000000000000000000000000000000000000000000016925063a9059cbb9150610fcf9050610f8660208f018f6150ce565b8c8c6000818110610f9357fe5b9050602002016020810190610fa891906150ce565b8d8d6001818110610fb557fe5b9050602002016020810190610fca91906150ce565b6143b3565b89600081518110610fdc57fe5b60200260200101516040518363ffffffff1660e01b815260040161100192919061562f565b602060405180830381600087803b15801561101b57600080fd5b505af115801561102f573d6000803e3d6000fd5b505050506040513d601f19601f820116820180604052508101906110539190615282565b61105957fe5b6110a561106960208d018d6150ce565b888b8b80806020026020016040519081016040528093929190818152602001838360200280828437600092019190915250339250614438915050565b60006110b7838363ffffffff6145b216565b11156110ef576110ef60008a8a60001981018181106110d257fe5b90506020020160208101906110e791906150ce565b868585614007565b505050505050949350505050565b600354600160b01b900460ff1681565b6111156145d7565b6001600160a01b03166111266123a7565b6001600160a01b03161461114c5760405162461bcd60e51b815260040161073b90615a76565b6002805462010000600160b01b031916620100006001600160a01b038416021790556040517f9d4414af8d61d821c1ad25f0aadfa28aa386c452716a31fc1f7fdbd9b9d364dc9061119e9083906155cd565b60405180910390a150565b60056020526000908152604090205460ff1681565b6111c66145d7565b6001600160a01b03166111d76123a7565b6001600160a01b0316146111fd5760405162461bcd60e51b815260040161073b90615a76565b6112056145db565b565b6060611211611c75565b1561122e5760405162461bcd60e51b815260040161073b9061594e565b61123b60208601866150ce565b6001600160a01b03811660009081526005602052604090205460ff166112735760405162461bcd60e51b815260040161073b90615aee565b61128360408701602088016150ce565b336001600160a01b03821614156112ac5760405162461bcd60e51b815260040161073b90615866565b7f00000000000000000000000000000000000000000000000000000000000000006001600160a01b0316858560008181106112e357fe5b90506020020160208101906112f891906150ce565b6001600160a01b03161461131e5760405162461bcd60e51b815260040161073b906159bf565b6000611333610e0b60408a0160208b016150ce565b905061137f61134560208a018a6150ce565b8888888080602002602001604051908101604052809392919081815260200183836020028082843760009201919091525061464c92505050565b93506000806113b461139760608c0160408d01615266565b876000815181106113a457fe5b6020026020010151856001613eb2565b9250925050346113f1826113e5858a6000815181106113cf57fe5b60200260200101516145b290919063ffffffff16565b9063ffffffff6145b216565b111561140f5760405162461bcd60e51b815260040161073b906158d4565b7f00000000000000000000000000000000000000000000000000000000000000006001600160a01b031663d0e30db08760008151811061144b57fe5b60200260200101516040518263ffffffff1660e01b81526004016000604051808303818588803b15801561147e57600080fd5b505af1158015611492573d6000803e3d6000fd5b50506001600160a01b037f000000000000000000000000000000000000000000000000000000000000000016925063a9059cbb915061150890506114d960208e018e6150ce565b8b8b60008181106114e657fe5b90506020020160208101906114fb91906150ce565b8c8c6001818110610fb557fe5b8860008151811061151557fe5b60200260200101516040518363ffffffff1660e01b815260040161153a92919061562f565b602060405180830381600087803b15801561155457600080fd5b505af1158015611568573d6000803e3d6000fd5b505050506040513d601f19601f8201168201806040525081019061158c9190615282565b61159257fe5b6115de6115a260208c018c6150ce565b878a8a80806020026020016040519081016040528093929190818152602001838360200280828437600092019190915250339250614438915050565b6115f3816113e584896000815181106113cf57fe5b34111561161a5761161a33611613836113e5868b6000815181106113cf57fe5b340361474e565b600061162c838363ffffffff6145b216565b11156116645761166460008989600019810181811061164757fe5b905060200201602081019061165c91906150ce565b858585614007565b5050505050949350505050565b6116796145d7565b6001600160a01b031661168a6123a7565b6001600160a01b0316146116b05760405162461bcd60e51b815260040161073b90615a76565b6116ba828261474e565b5050565b6116c6611c75565b156116e35760405162461bcd60e51b815260040161073b9061594e565b6116f060208501856150ce565b6001600160a01b03811660009081526005602052604090205460ff166117285760405162461bcd60e51b815260040161073b90615aee565b61173860408601602087016150ce565b336001600160a01b03821614156117615760405162461bcd60e51b815260040161073b90615866565b7f00000000000000000000000000000000000000000000000000000000000000006001600160a01b03168484600081811061179857fe5b90506020020160208101906117ad91906150ce565b6001600160a01b0316146117d35760405162461bcd60e51b815260040161073b906159bf565b60006117e8610e0b6040890160208a016150ce565b905060008080611801610e2960608c0160408d01615266565b9250925092507f00000000000000000000000000000000000000000000000000000000000000006001600160a01b031663d0e30db0846040518263ffffffff1660e01b81526004016000604051808303818588803b15801561186257600080fd5b505af1158015611876573d6000803e3d6000fd5b50506001600160a01b037f000000000000000000000000000000000000000000000000000000000000000016925063a9059cbb91506118bd90506114d960208e018e6150ce565b856040518363ffffffff1660e01b81526004016118db92919061562f565b602060405180830381600087803b1580156118f557600080fd5b505af1158015611909573d6000803e3d6000fd5b505050506040513d601f19601f8201168201806040525081019061192d9190615282565b61193357fe5b60008888600019810181811061194557fe5b905060200201602081019061195a91906150ce565b6001600160a01b03166370a08231336040518263ffffffff1660e01b815260040161198591906155cd565b60206040518083038186803b15801561199d57600080fd5b505afa1580156119b1573d6000803e3d6000fd5b505050506040513d601f19601f820116820180604052508101906119d59190615471565b9050611a226119e760208d018d6150ce565b8a8a808060200260200160405190810160405280939291908181526020018383602002808284376000920191909152503392506147db915050565b89611ad3828b8b6000198101818110611a3757fe5b9050602002016020810190611a4c91906150ce565b6001600160a01b03166370a08231336040518263ffffffff1660e01b8152600401611a7791906155cd565b60206040518083038186803b158015611a8f57600080fd5b505afa158015611aa3573d6000803e3d6000fd5b505050506040513d601f19601f82011682018060405250810190611ac79190615471565b9063ffffffff614a1716565b1015611af15760405162461bcd60e51b815260040161073b9061581f565b6000611b03848463ffffffff6145b216565b1115611b3b57611b3b60008a8a6000198101818110611b1e57fe5b9050602002016020810190611b3391906150ce565b878686614007565b5050505050505050505050565b6002546201000090046001600160a01b031681565b60066020908152600091825260409182902080548351601f600260001961010060018616150201909316929092049182018490048402810184019094528084529091830182828015611bf05780601f10611bc557610100808354040283529160200191611bf0565b820191906000526020600020905b815481529060010190602001808311611bd357829003601f168201915b505050505081565b7f000000000000000000000000000000000000000000000000000000000000000081565b60025461ffff1681565b611c2e6145d7565b6001600160a01b0316611c3f6123a7565b6001600160a01b031614611c655760405162461bcd60e51b815260040161073b90615a76565b611c70838383614a3f565b505050565b600054600160a01b900460ff165b90565b6000611c906145d7565b6001600160a01b0316611ca16123a7565b6001600160a01b031614611cc75760405162461bcd60e51b815260040161073b90615a76565b6127108261ffff161115611ced5760405162461bcd60e51b815260040161073b90615b25565b6001600160a01b03831660008181526004602052604090819020805461ffff191661ffff8616179055517f9b182573c5f49d27d10ab506c71acd90f3b44f15c35eb906f9a40d9c35412e4190611d44908590615cae565b60405180910390a292915050565b611d5a6145d7565b6001600160a01b0316611d6b6123a7565b6001600160a01b031614611d915760405162461bcd60e51b815260040161073b90615a76565b600080546040516001600160a01b03909116907f8be0079c531659141344cd1fd0a4f28419497f9722a3daafe3b4186f6b6457e0908390a3600080546001600160a01b0319169055565b60046020526000908152604090205461ffff1681565b611df96145d7565b6001600160a01b0316611e0a6123a7565b6001600160a01b031614611e305760405162461bcd60e51b815260040161073b90615a76565b611205614b26565b6060611e42611c75565b15611e5f5760405162461bcd60e51b815260040161073b9061594e565b611e6c60208701876150ce565b6001600160a01b03811660009081526005602052604090205460ff16611ea45760405162461bcd60e51b815260040161073b90615aee565b611eb460408801602089016150ce565b336001600160a01b0382161415611edd5760405162461bcd60e51b815260040161073b90615866565b6001600160a01b037f00000000000000000000000000000000000000000000000000000000000000001685856000198101818110611f1757fe5b9050602002016020810190611f2c91906150ce565b6001600160a01b031614611f525760405162461bcd60e51b815260040161073b906159bf565b6000611f67610e0b60408b0160208c016150ce565b9050600080611f88611f7f60608d0160408e01615266565b8b856001613eb2565b9093509150611fec9050611f9f60208d018d6150ce565b611fb3836113e58e8763ffffffff6145b216565b8a8a8080602002602001604051908101604052809392919081815260200183836020028082843760009201919091525061464c92505050565b955088612004826113e5858a6000815181106113cf57fe5b11156120225760405162461bcd60e51b815260040161073b906158d4565b6120788888600081811061203257fe5b905060200201602081019061204791906150ce565b3361205e8e6000016020810190610f8691906150ce565b8960008151811061206b57fe5b6020026020010151614b87565b6120c461208860208d018d6150ce565b878a8a80806020026020016040519081016040528093929190818152602001838360200280828437600092019190915250309250614438915050565b7f00000000000000000000000000000000000000000000000000000000000000006001600160a01b0316632e1a7d4d8760018951038151811061210357fe5b60200260200101516040518263ffffffff1660e01b81526004016121279190615cbd565b600060405180830381600087803b15801561214157600080fd5b505af1158015612155573d6000803e3d6000fd5b50505050612163338b61474e565b6000612175838363ffffffff6145b216565b11156121905761219060008989600019810181811061164757fe5b505050505095945050505050565b60606121a8611c75565b156121c55760405162461bcd60e51b815260040161073b9061594e565b6121d260208701876150ce565b6001600160a01b03811660009081526005602052604090205460ff1661220a5760405162461bcd60e51b815260040161073b90615aee565b61221a60408801602089016150ce565b336001600160a01b03821614156122435760405162461bcd60e51b815260040161073b90615866565b6000612258610e0b60408b0160208c016150ce565b90506000808061227a61227160608e0160408f01615266565b8c866000613eb2565b91945092509050612291610e4960208e018e6150ce565b965089876001895103815181106122a457fe5b602002602001015110156122ca5760405162461bcd60e51b815260040161073b9061581f565b61233b898960008181106122da57fe5b90506020020160208101906122ef91906150ce565b336123358f600001602081019061230691906150ce565b8d8d600081811061231357fe5b905060200201602081019061232891906150ce565b8e8e6001818110610fb557fe5b86614b87565b61234b61106960208e018e6150ce565b600061235d838363ffffffff6145b216565b1115612398576123988989600081811061237357fe5b905060200201602081019061238891906150ce565b8a8a60001981018181106110d257fe5b50505050505095945050505050565b6000546001600160a01b031690565b60025460405163493f44bd60e11b81526000916201000090046001600160a01b03169063927e897a906123ed9085906004016155cd565b60206040518083038186803b15801561240557600080fd5b505afa158015612419573d6000803e3d6000fd5b505050506040513d601f19601f8201168201806040525081019061243d9190615282565b92915050565b606061244d611c75565b1561246a5760405162461bcd60e51b815260040161073b9061594e565b61247760208701876150ce565b6001600160a01b03811660009081526005602052604090205460ff166124af5760405162461bcd60e51b815260040161073b90615aee565b6124bf60408801602089016150ce565b336001600160a01b03821614156124e85760405162461bcd60e51b815260040161073b90615866565b60006124fd610e0b60408b0160208c016150ce565b905061254961250f60208b018b6150ce565b8988888080602002602001604051908101604052809392919081815260200183836020028082843760009201919091525061464c92505050565b935060008061256161139760608d0160408e01615266565b92509250508861257c826113e5858a6000815181106113cf57fe5b111561259a5760405162461bcd60e51b815260040161073b906158d4565b6125aa8888600081811061203257fe5b6125ba6115a260208d018d6150ce565b60006125cc838363ffffffff6145b216565b111561219057612190888860008181106125e257fe5b90506020020160208101906125f791906150ce565b8989600019810181811061164757fe5b7f000000000000000000000000000000000000000000000000000000000000000081565b6003546001600160a01b031681565b6126426145d7565b6001600160a01b03166126536123a7565b6001600160a01b0316146126795760405162461bcd60e51b815260040161073b90615a76565b6001600160a01b03831660009081526005602052604090205460ff16156126b25760405162461bcd60e51b815260040161073b90615c7c565b6001600160a01b0383166000908152600560209081526040808320805460ff19166001179055600690915290206126ea908383614f9f565b507f18191c6cb9d1bb0cd78a863c5efffb51200f41513b93a678d368156b26d7cc948360405161271a91906155cd565b60405180910390a1505050565b61272f6145d7565b6001600160a01b03166127406123a7565b6001600160a01b0316146127665760405162461bcd60e51b815260040161073b90615a76565b6001600160a01b0384166000908152600560209081526040808320805460ff19168515151790556006909152902061279f908484614f9f565b507fd3e17274581b648825e308eb9fca7b795aa9ca651ee0953b1f66dd35cbc09978846040516127cf91906155cd565b60405180910390a150505050565b6127e56145d7565b6001600160a01b03166127f66123a7565b6001600160a01b03161461281c5760405162461bcd60e51b815260040161073b90615a76565b600380546001600160a01b0319166001600160a01b0383161790556040517f27aae5db36d94179909d019ae0b1ac7c16d96d953148f63c0f6a0a9c8ead79ee9061119e9083906155cd565b61286f6145d7565b6001600160a01b03166128806123a7565b6001600160a01b0316146128a65760405162461bcd60e51b815260040161073b90615a76565b6002805461ffff191661ffff83161790556040517fc8d25ca8616825eb60e022dde2d5ec038bdac6dd1bd8bba3fb5f74de553d06289061119e908390615cae565b600254604051633444fbf160e21b81526000916201000090046001600160a01b03169063d113efc49061291e9085906004016155cd565b60206040518083038186803b15801561293657600080fd5b505afa15801561294a573d6000803e3d6000fd5b505050506040513d601f19601f8201168201806040525081019061243d91906150ea565b600260015414156129915760405162461bcd60e51b815260040161073b90615c45565b600260015561299e611c75565b156129bb5760405162461bcd60e51b815260040161073b9061594e565b82336001600160a01b03821614156129e55760405162461bcd60e51b815260040161073b90615866565b6129ee84614103565b935081612ead57600034118015612a0c57506001600160a01b038716155b15612bd95760007f00000000000000000000000000000000000000000000000000000000000000006001600160a01b0316348b8b604051612a4e9291906154ff565b60006040518083038185875af1925050503d8060008114612a8b576040519150601f19603f3d011682016040523d82523d6000602084013e612a90565b606091505b5050905080612ab15760405162461bcd60e51b815260040161073b90615b8f565b6040516370a0823160e01b815284906001600160a01b038916906370a0823190612adf9030906004016155cd565b60206040518083038186803b158015612af757600080fd5b505afa158015612b0b573d6000803e3d6000fd5b505050506040513d601f19601f82011682018060405250810190612b2f9190615471565b1015612b4d5760405162461bcd60e51b815260040161073b90615978565b612bd38733896001600160a01b03166370a08231306040518263ffffffff1660e01b8152600401612b7e91906155cd565b60206040518083038186803b158015612b9657600080fd5b505afa158015612baa573d6000803e3d6000fd5b505050506040513d601f19601f82011682018060405250810190612bce9190615471565b614a3f565b50612ea8565b6040516323b872dd60e01b81526001600160a01b038816906323b872dd90612c0990339030908a906004016155e1565b602060405180830381600087803b158015612c2357600080fd5b505af1158015612c37573d6000803e3d6000fd5b505050506040513d601f19601f82011682018060405250810190612c5b9190615282565b5060405163095ea7b360e01b81526001600160a01b0388169063095ea7b390612caa907f000000000000000000000000000000000000000000000000000000000000000090899060040161562f565b602060405180830381600087803b158015612cc457600080fd5b505af1158015612cd8573d6000803e3d6000fd5b505050506040513d601f19601f82011682018060405250810190612cfc9190615282565b5060007f00000000000000000000000000000000000000000000000000000000000000006001600160a01b03168a8a604051612d399291906154ff565b6000604051808303816000865af19150503d8060008114612d76576040519150601f19603f3d011682016040523d82523d6000602084013e612d7b565b606091505b5050905080612d9c5760405162461bcd60e51b815260040161073b90615b8f565b6001600160a01b038716612dd95783471015612dca5760405162461bcd60e51b815260040161073b90615978565b612dd4334761474e565b612ea6565b6040516370a0823160e01b815284906001600160a01b038916906370a0823190612e079030906004016155cd565b60206040518083038186803b158015612e1f57600080fd5b505afa158015612e33573d6000803e3d6000fd5b505050506040513d601f19601f82011682018060405250810190612e579190615471565b1015612e755760405162461bcd60e51b815260040161073b90615978565b612ea68733896001600160a01b03166370a08231306040518263ffffffff1660e01b8152600401612b7e91906155cd565b505b610cd0565b600034118015612ec457506001600160a01b038716155b15613065576000806000612edb8534896000613eb2565b92509250925060007f00000000000000000000000000000000000000000000000000000000000000006001600160a01b0316848e8e604051612f1e9291906154ff565b60006040518083038185875af1925050503d8060008114612f5b576040519150601f19603f3d011682016040523d82523d6000602084013e612f60565b606091505b5050905080612f815760405162461bcd60e51b815260040161073b90615b8f565b6040516370a0823160e01b815287906001600160a01b038c16906370a0823190612faf9030906004016155cd565b60206040518083038186803b158015612fc757600080fd5b505afa158015612fdb573d6000803e3d6000fd5b505050506040513d601f19601f82011682018060405250810190612fff9190615471565b101561301d5760405162461bcd60e51b815260040161073b90615978565b61304e8a338c6001600160a01b03166370a08231306040518263ffffffff1660e01b8152600401612b7e91906155cd565b61305c60008b8a8686614007565b50505050610cd0565b60008060006130778589896000613eb2565b925092509250896001600160a01b03166323b872dd3330866040518463ffffffff1660e01b81526004016130ad939291906155e1565b602060405180830381600087803b1580156130c757600080fd5b505af11580156130db573d6000803e3d6000fd5b505050506040513d601f19601f820116820180604052508101906130ff9190615282565b5060405163095ea7b360e01b81526001600160a01b038b169063095ea7b39061314e907f000000000000000000000000000000000000000000000000000000000000000090879060040161562f565b602060405180830381600087803b15801561316857600080fd5b505af115801561317c573d6000803e3d6000fd5b505050506040513d601f19601f820116820180604052508101906131a09190615282565b5060007f00000000000000000000000000000000000000000000000000000000000000006001600160a01b03168d8d6040516131dd9291906154ff565b6000604051808303816000865af19150503d806000811461321a576040519150601f19603f3d011682016040523d82523d6000602084013e61321f565b606091505b50509050806132405760405162461bcd60e51b815260040161073b90615b8f565b6001600160a01b038a1661327d578647101561326e5760405162461bcd60e51b815260040161073b90615978565b613278334761474e565b61334a565b6040516370a0823160e01b815287906001600160a01b038c16906370a08231906132ab9030906004016155cd565b60206040518083038186803b1580156132c357600080fd5b505afa1580156132d7573d6000803e3d6000fd5b505050506040513d601f19601f820116820180604052508101906132fb9190615471565b10156133195760405162461bcd60e51b815260040161073b90615978565b61334a8a338c6001600160a01b03166370a08231306040518263ffffffff1660e01b8152600401612b7e91906155cd565b6133578b8b8a8686614007565b5050505050506001805550505050505050565b61271081565b6133786145d7565b6001600160a01b03166133896123a7565b6001600160a01b0316146133af5760405162461bcd60e51b815260040161073b90615a76565b6127108161ffff1611156133d55760405162461bcd60e51b815260040161073b90615b25565b6003805461ffff60a01b1916600160a01b61ffff8416021790556040517f2e8b87e2b3dff0b7b11ce73a61e3bb94498159c531480d9abf1307014b650af99061119e908390615cae565b6134276145d7565b6001600160a01b03166134386123a7565b6001600160a01b03161461345e5760405162461bcd60e51b815260040161073b90615a76565b6003805460ff60b01b1916600160b01b831515021790556040517f13a5d968457cb650b136b77bb4a3ff25f31b92939f2d8df0010911117b7ba9e09061119e9083906156a6565b6134ad611c75565b156134ca5760405162461bcd60e51b815260040161073b9061594e565b6134d760208601866150ce565b6001600160a01b03811660009081526005602052604090205460ff1661350f5760405162461bcd60e51b815260040161073b90615aee565b61351f60408701602088016150ce565b336001600160a01b03821614156135485760405162461bcd60e51b815260040161073b90615866565b600061355d610e0b60408a0160208b016150ce565b90506000808061357f61357660608d0160408e01615266565b8b866000613eb2565b9250925092506135c18888600081811061359557fe5b90506020020160208101906135aa91906150ce565b336123358e6000016020810190610f8691906150ce565b6000888860001981018181106135d357fe5b90506020020160208101906135e891906150ce565b6001600160a01b03166370a08231336040518263ffffffff1660e01b815260040161361391906155cd565b60206040518083038186803b15801561362b57600080fd5b505afa15801561363f573d6000803e3d6000fd5b505050506040513d601f19601f820116820180604052508101906136639190615471565b90506136756119e760208e018e6150ce565b8961368a828b8b6000198101818110611a3757fe5b10156136a85760405162461bcd60e51b815260040161073b9061581f565b60006136ba848463ffffffff6145b216565b11156136f5576136f5898960008181106136d057fe5b90506020020160208101906136e591906150ce565b8a8a6000198101818110611b1e57fe5b505050505050505050505050565b61370b611c75565b156137285760405162461bcd60e51b815260040161073b9061594e565b61373560208601866150ce565b6001600160a01b03811660009081526005602052604090205460ff1661376d5760405162461bcd60e51b815260040161073b90615aee565b61377d60408701602088016150ce565b336001600160a01b03821614156137a65760405162461bcd60e51b815260040161073b90615866565b6001600160a01b037f000000000000000000000000000000000000000000000000000000000000000016848460001981018181106137e057fe5b90506020020160208101906137f591906150ce565b6001600160a01b03161461381b5760405162461bcd60e51b815260040161073b906159bf565b6000613830610e0b60408a0160208b016150ce565b905061389d8585600081811061384257fe5b905060200201602081019061385791906150ce565b3361389761386860208d018d6150ce565b8989600081811061387557fe5b905060200201602081019061388a91906150ce565b8a8a6001818110610fb557fe5b8a614b87565b6138e86138ad60208a018a6150ce565b8686808060200260200160405190810160405280939291908181526020018383602002808284376000920191909152503092506147db915050565b6040516370a0823160e01b81526000906001600160a01b037f000000000000000000000000000000000000000000000000000000000000000016906370a08231906139379030906004016155cd565b60206040518083038186803b15801561394f57600080fd5b505afa158015613963573d6000803e3d6000fd5b505050506040513d601f19601f820116820180604052508101906139879190615471565b604051632e1a7d4d60e01b81529091506001600160a01b037f00000000000000000000000000000000000000000000000000000000000000001690632e1a7d4d906139d6908490600401615cbd565b600060405180830381600087803b1580156139f057600080fd5b505af1158015613a04573d6000803e3d6000fd5b505050506000806000613a2c8c6040016020810190613a239190615266565b85876000613eb2565b92509250925089831015613a525760405162461bcd60e51b815260040161073b906157ec565b613a5c338461474e565b6000613a6e838363ffffffff6145b216565b11156136f5576136f560008a8a6000198101818110613a8957fe5b9050602002016020810190613a9e91906150ce565b878585614007565b613aae6145d7565b6001600160a01b0316613abf6123a7565b6001600160a01b031614613ae55760405162461bcd60e51b815260040161073b90615a76565b6001600160a01b038116613b0b5760405162461bcd60e51b815260040161073b9061576f565b600080546040516001600160a01b03808516939216917f8be0079c531659141344cd1fd0a4f28419497f9722a3daafe3b4186f6b6457e091a3600080546001600160a01b0319166001600160a01b0392909216919091179055565b600354600160a01b900461ffff1681565b6060613b81611c75565b15613b9e5760405162461bcd60e51b815260040161073b9061594e565b613bab60208701876150ce565b6001600160a01b03811660009081526005602052604090205460ff16613be35760405162461bcd60e51b815260040161073b90615aee565b613bf360408801602089016150ce565b336001600160a01b0382161415613c1c5760405162461bcd60e51b815260040161073b90615866565b6001600160a01b037f00000000000000000000000000000000000000000000000000000000000000001685856000198101818110613c5657fe5b9050602002016020810190613c6b91906150ce565b6001600160a01b031614613c915760405162461bcd60e51b815260040161073b906159bf565b6000613ca6610e0b60408b0160208c016150ce565b9050613cf2613cb860208b018b6150ce565b8988888080602002602001604051908101604052809392919081815260200183836020028082843760009201919091525061429d92505050565b935060008080613d2b613d0b60608e0160408f01615266565b8860018a510381518110613d1b57fe5b6020026020010151866000613eb2565b92509250925089831015613d515760405162461bcd60e51b815260040161073b9061581f565b613d9a89896000818110613d6157fe5b9050602002016020810190613d7691906150ce565b33613d8d8f600001602081019061230691906150ce565b8a60008151811061206b57fe5b613de6613daa60208e018e6150ce565b888b8b80806020026020016040519081016040528093929190818152602001838360200280828437600092019190915250309250614438915050565b7f00000000000000000000000000000000000000000000000000000000000000006001600160a01b0316632e1a7d4d8860018a510381518110613e2557fe5b60200260200101516040518263ffffffff1660e01b8152600401613e499190615cbd565b600060405180830381600087803b158015613e6357600080fd5b505af1158015613e77573d6000803e3d6000fd5b50505050613e85338461474e565b6000613e97838363ffffffff6145b216565b11156123985761239860008a8a60001981018181106110d257fe5b600080600086613ec457859250613ffd565b8315613f1657600254869350613f0f908490611ac790613ef1906127109061ffff1663ffffffff614a1716565b613f038761271063ffffffff614c7816565b9063ffffffff614cb216565b9150613f4b565b600254613f369061271090613f0390899061ffff1663ffffffff614c7816565b9150613f48868363ffffffff614a1716565b92505b6001600160a01b03851615801590613f6c5750600354600160b01b900460ff165b15613ff9576001600160a01b03851660009081526004602052604081205461ffff16613fa557600354600160a01b900461ffff16613fc3565b6001600160a01b03861660009081526004602052604090205461ffff165b9050613fdf612710613f038561ffff851663ffffffff614c7816565b9150613ff1838363ffffffff614a1716565b925050613ffd565b5060005b9450945094915050565b6001600160a01b0385166140885760035461402b906001600160a01b03168361474e565b80156140835761403b838261474e565b826001600160a01b03167f84ff16114f882a54c4748006b5e4b0b7ac76bd911d135145a6d063fd76a38a403386888560405161407a9493929190615605565b60405180910390a25b6140fc565b6003546140a290869033906001600160a01b031685614b87565b80156140fc576140b485338584614b87565b826001600160a01b03167f84ff16114f882a54c4748006b5e4b0b7ac76bd911d135145a6d063fd76a38a40338688856040516140f39493929190615605565b60405180910390a25b5050505050565b60025460405163493f44bd60e11b81526000913391620100009091046001600160a01b03169063927e897a9061413d9084906004016155cd565b60206040518083038186803b15801561415557600080fd5b505afa158015614169573d6000803e3d6000fd5b505050506040513d601f19601f8201168201806040525081019061418d9190615282565b1580156141a257506001600160a01b03831615155b15614211576002546040516364e0b15960e01b8152620100009091046001600160a01b0316906364e0b159906141de9084908790600401615648565b600060405180830381600087803b1580156141f857600080fd5b505af115801561420c573d6000803e3d6000fd5b505050505b600254604051633444fbf160e21b8152620100009091046001600160a01b03169063d113efc4906142469084906004016155cd565b60206040518083038186803b15801561425e57600080fd5b505afa158015614272573d6000803e3d6000fd5b505050506040513d601f19601f8201168201806040525081019061429691906150ea565b9392505050565b60606002825110156142c15760405162461bcd60e51b815260040161073b906159bf565b81516001600160401b03811180156142d857600080fd5b50604051908082528060200260200182016040528015614302578160200160208202803683370190505b509050828160008151811061431357fe5b60200260200101818152505060005b60018351038110156143ab576000806143658786858151811061434157fe5b602002602001015187866001018151811061435857fe5b6020026020010151614ce4565b9150915061438784848151811061437857fe5b60200260200101518383614dbd565b84846001018151811061439657fe5b60209081029190910101525050600101614322565b509392505050565b60008060006143c28585614e63565b915091508582826040516020016143da9291906154d8565b60408051601f1981840301815282825280516020918201206001600160a01b038b1660009081526006835292909220614416949390910161552b565b60408051601f1981840301815291905280516020909101209695505050505050565b60005b60018351038110156140fc5760008084838151811061445657fe5b602002602001015185846001018151811061446d57fe5b60200260200101519150915060006144858383614e63565b509050600087856001018151811061449957fe5b60200260200101519050600080836001600160a01b0316866001600160a01b0316146144c7578260006144cb565b6000835b91509150600060028a510388106144e25788614503565b6145038c878c8b600201815181106144f657fe5b60200260200101516143b3565b90506145108c88886143b3565b6001600160a01b031663022c0d9f84848460006040519080825280601f01601f19166020018201604052801561454d576020820181803683370190505b506040518563ffffffff1660e01b815260040161456d9493929190615cc6565b600060405180830381600087803b15801561458757600080fd5b505af115801561459b573d6000803e3d6000fd5b50506001909901985061443b975050505050505050565b6000828201838110156142965760405162461bcd60e51b815260040161073b906157b5565b3390565b6145e3611c75565b6145ff5760405162461bcd60e51b815260040161073b906156fb565b6000805460ff60a01b191690557f5db9ee0a495bf2e6ff9c91a7834c1ba4fdd244a5e8aa4e537bd38aeae4b073aa6146356145d7565b60405161464291906155cd565b60405180910390a1565b60606002825110156146705760405162461bcd60e51b815260040161073b906159bf565b81516001600160401b038111801561468757600080fd5b506040519080825280602002602001820160405280156146b1578160200160208202803683370190505b50905082816001835103815181106146c557fe5b60209081029190910101528151600019015b80156143ab57600080614707878660018603815181106146f357fe5b602002602001015187868151811061435857fe5b9150915061472984848151811061471a57fe5b60200260200101518383614eed565b84600185038151811061473857fe5b60209081029190910101525050600019016146d7565b604080516000808252602082019092526001600160a01b038416908390604051614778919061550f565b60006040518083038185875af1925050503d80600081146147b5576040519150601f19603f3d011682016040523d82523d6000602084013e6147ba565b606091505b5050905080611c705760405162461bcd60e51b815260040161073b90615bbe565b60005b6001835103811015614a11576000808483815181106147f957fe5b602002602001015185846001018151811061481057fe5b60200260200101519150915060006148288383614e63565b50905060006148388885856143b3565b9050600080600080846001600160a01b0316630902f1ac6040518163ffffffff1660e01b815260040160606040518083038186803b15801561487957600080fd5b505afa15801561488d573d6000803e3d6000fd5b505050506040513d601f19601f820116820180604052508101906148b191906153fb565b506001600160701b031691506001600160701b03169150600080876001600160a01b03168a6001600160a01b0316146148eb5782846148ee565b83835b91509150614922828b6001600160a01b03166370a082318a6040518263ffffffff1660e01b8152600401611a7791906155cd565b955061492f868383614dbd565b945050505050600080856001600160a01b0316886001600160a01b0316146149595782600061495d565b6000835b91509150600060028c51038a10614974578a614988565b6149888d898e8d600201815181106144f657fe5b6040805160008152602081019182905263022c0d9f60e01b9091529091506001600160a01b0387169063022c0d9f906149ca9086908690869060248101615cc6565b600060405180830381600087803b1580156149e457600080fd5b505af11580156149f8573d6000803e3d6000fd5b50506001909b019a506147de9950505050505050505050565b50505050565b600082821115614a395760405162461bcd60e51b815260040161073b9061589d565b50900390565b60006060846001600160a01b031663a9059cbb8585604051602401614a6592919061562f565b6040516020818303038152906040529060e01b6020820180516001600160e01b038381831617835250505050604051614a9e919061550f565b6000604051808303816000865af19150503d8060008114614adb576040519150601f19603f3d011682016040523d82523d6000602084013e614ae0565b606091505b5091509150818015614b0a575080511580614b0a575080806020019051810190614b0a9190615282565b6140fc5760405162461bcd60e51b815260040161073b906156c4565b614b2e611c75565b15614b4b5760405162461bcd60e51b815260040161073b9061594e565b6000805460ff60a01b1916600160a01b1790557f62e78cea01bee320cd4e420270b5ea74000d11b0c9f74754ebdbfc544b05a2586146356145d7565b60006060856001600160a01b03166323b872dd868686604051602401614baf939291906155e1565b6040516020818303038152906040529060e01b6020820180516001600160e01b038381831617835250505050604051614be8919061550f565b6000604051808303816000865af19150503d8060008114614c25576040519150601f19603f3d011682016040523d82523d6000602084013e614c2a565b606091505b5091509150818015614c54575080511580614c54575080806020019051810190614c549190615282565b614c705760405162461bcd60e51b815260040161073b90615c01565b505050505050565b600082614c875750600061243d565b82820282848281614c9457fe5b04146142965760405162461bcd60e51b815260040161073b90615a35565b6000808211614cd35760405162461bcd60e51b815260040161073b90615917565b818381614cdc57fe5b049392505050565b6000806000614cf38585614e63565b509050600080614d048888886143b3565b6001600160a01b0316630902f1ac6040518163ffffffff1660e01b815260040160606040518083038186803b158015614d3c57600080fd5b505afa158015614d50573d6000803e3d6000fd5b505050506040513d601f19601f82011682018060405250810190614d7491906153fb565b506001600160701b031691506001600160701b03169150826001600160a01b0316876001600160a01b031614614dab578082614dae565b81815b90999098509650505050505050565b6000808411614dde5760405162461bcd60e51b815260040161073b90615729565b600083118015614dee5750600082115b614e0a5760405162461bcd60e51b815260040161073b90615aab565b6000614e1e856126f263ffffffff614c7816565b90506000614e32828563ffffffff614c7816565b90506000614e4c836113e58861271063ffffffff614c7816565b9050808281614e5757fe5b04979650505050505050565b600080826001600160a01b0316846001600160a01b03161415614e985760405162461bcd60e51b815260040161073b906159f2565b826001600160a01b0316846001600160a01b031610614eb8578284614ebb565b83835b90925090506001600160a01b038216614ee65760405162461bcd60e51b815260040161073b90615b58565b9250929050565b6000808411614f0e5760405162461bcd60e51b815260040161073b9061581f565b600083118015614f1e5750600082115b614f3a5760405162461bcd60e51b815260040161073b90615aab565b6000614f5e612710614f52868863ffffffff614c7816565b9063ffffffff614c7816565b90506000614f786126f2614f52868963ffffffff614a1716565b9050614f956001828481614f8857fe5b049063ffffffff6145b216565b9695505050505050565b828054600181600116156101000203166002900490600052602060002090601f016020900481019282601f10614fe05782800160ff1982351617855561500d565b8280016001018555821561500d579182015b8281111561500d578235825591602001919060010190614ff2565b5061501992915061501d565b5090565b611c8391905b808211156150195760008155600101615023565b60008083601f840112615048578182fd5b5081356001600160401b0381111561505e578182fd5b6020830191508360208083028501011115614ee657600080fd5b60008083601f840112615089578182fd5b5081356001600160401b0381111561509f578182fd5b602083019150836020828501011115614ee657600080fd5b6000606082840312156150c8578081fd5b50919050565b6000602082840312156150df578081fd5b813561429681615d2b565b6000602082840312156150fb578081fd5b815161429681615d2b565b60008060408385031215615118578081fd5b823561512381615d2b565b946020939093013593505050565b600080600060608486031215615145578081fd5b833561515081615d2b565b9250602084013561516081615d2b565b929592945050506040919091013590565b600080600060408486031215615185578283fd5b833561519081615d2b565b925060208401356001600160401b038111156151aa578283fd5b6151b686828701615078565b9497909650939450505050565b600080600080606085870312156151d8578081fd5b84356151e381615d2b565b935060208501356001600160401b038111156151fd578182fd5b61520987828801615078565b909450925050604085013561521d81615d43565b939692955090935050565b6000806040838503121561523a578182fd5b823561524581615d2b565b9150602083013561ffff8116811461525b578182fd5b809150509250929050565b600060208284031215615277578081fd5b813561429681615d43565b600060208284031215615293578081fd5b815161429681615d43565b60008060008060008060008060e0898b0312156152b9578384fd5b88356001600160401b038111156152ce578485fd5b6152da8b828c01615078565b90995097505060208901356152ee81615d2b565b955060408901356152fe81615d2b565b945060608901359350608089013561531581615d2b565b925060a0890135915060c089013561532c81615d43565b809150509295985092959890939650565b60008060008060a08587031215615352578182fd5b61535c86866150b7565b93506060850135925060808501356001600160401b0381111561537d578283fd5b61538987828801615037565b95989497509550505050565b600080600080600060c086880312156153ac578283fd5b6153b687876150b7565b9450606086013593506080860135925060a08601356001600160401b038111156153de578182fd5b6153ea88828901615037565b969995985093965092949392505050565b60008060006060848603121561540f578081fd5b835161541a81615d51565b602085015190935061542b81615d51565b604085015190925063ffffffff81168114615444578182fd5b809150509250925092565b600060208284031215615460578081fd5b813561ffff81168114614296578182fd5b600060208284031215615482578081fd5b5051919050565b6000806040838503121561549b578182fd5b505080516020909101519092909150565b600081518084526154c4816020860160208601615cff565b601f01601f19169290920160200192915050565b6bffffffffffffffffffffffff19606093841b811682529190921b16601482015260280190565b6000828483379101908152919050565b60008251615521818460208701615cff565b9190910192915050565b600060ff60f81b825260016bffffffffffffffffffffffff198660601b1681840152846015840152603582855483811660008114615570576001811461558b576155bf565b60ff1982168785015260028204607f168701840192506155bf565b6002820461559889615cf3565b875b828110156155b65781548a82018801529087019060200161559a565b50508701840192505b509098975050505050505050565b6001600160a01b0391909116815260200190565b6001600160a01b039384168152919092166020820152604081019190915260600190565b6001600160a01b039485168152928416602084015292166040820152606081019190915260800190565b6001600160a01b03929092168252602082015260400190565b6001600160a01b0392831681529116602082015260400190565b6020808252825182820181905260009190848201906040850190845b8181101561569a5783518352928401929184019160010161567e565b50909695505050505050565b901515815260200190565b60006020825261429660208301846154ac565b6020808252601f908201527f5472616e7366657248656c7065723a205452414e534645525f4641494c454400604082015260600190565b60208082526014908201527314185d5cd8589b194e881b9bdd081c185d5cd95960621b604082015260600190565b60208082526026908201527f466c6f6f7a526f757465723a20494e53554646494349454e545f494e5055545f604082015265105353d5539560d21b606082015260800190565b60208082526026908201527f4f776e61626c653a206e6577206f776e657220697320746865207a65726f206160408201526564647265737360d01b606082015260800190565b6020808252601b908201527f536166654d6174683a206164646974696f6e206f766572666c6f770000000000604082015260600190565b602080825260199082015278466c6f6f7a526f757465723a204c4f575f534c49505041474560381b604082015260600190565b60208082526027908201527f466c6f6f7a526f757465723a20494e53554646494349454e545f4f555450555460408201526617d05353d5539560ca1b606082015260800190565b6020808252601a908201527f466c6f6f7a526f757465723a2053454c465f524546455252414c000000000000604082015260600190565b6020808252601e908201527f536166654d6174683a207375627472616374696f6e206f766572666c6f770000604082015260600190565b60208082526023908201527f466c6f6f7a526f757465723a204558434553534956455f494e5055545f414d4f60408201526215539560ea1b606082015260800190565b6020808252601a908201527f536166654d6174683a206469766973696f6e206279207a65726f000000000000604082015260600190565b60208082526010908201526f14185d5cd8589b194e881c185d5cd95960821b604082015260600190565b60208082526027908201527f466c6f6f7a526f757465723a20496e73756666696369656e74204f757470757460408201526608105b5bdd5b9d60ca1b606082015260800190565b60208082526019908201527808cd8dedef4a4deeae8cae47440929cac82989288bea082a89603b1b604082015260600190565b60208082526023908201527f50616e63616b654c6962726172793a204944454e544943414c5f41444452455360408201526253455360e81b606082015260800190565b60208082526021908201527f536166654d6174683a206d756c7469706c69636174696f6e206f766572666c6f6040820152607760f81b606082015260800190565b6020808252818101527f4f776e61626c653a2063616c6c6572206973206e6f7420746865206f776e6572604082015260600190565b60208082526023908201527f466c6f6f7a526f757465723a20494e53554646494349454e545f4c495155494460408201526249545960e81b606082015260800190565b6020808252601c908201527f466c6f6f7a526f757465723a20494e56414c49445f464143544f525900000000604082015260600190565b602080825260199082015278466c6f6f7a526f757465723a20494e56414c49445f5241544560381b604082015260600190565b6020808252601c908201527f50616e63616b654c6962726172793a205a45524f5f4144445245535300000000604082015260600190565b602080825260159082015274119b1bdbde949bdd5d195c8e881491559154951151605a1b604082015260600190565b60208082526023908201527f5472616e7366657248656c7065723a204554485f5452414e534645525f46414960408201526213115160ea1b606082015260800190565b60208082526024908201527f5472616e7366657248656c7065723a205452414e534645525f46524f4d5f46416040820152631253115160e21b606082015260800190565b6020808252601f908201527f5265656e7472616e637947756172643a207265656e7472616e742063616c6c00604082015260600190565b602080825260189082015277466c6f6f7a526f757465723a204143544956455f464f524b60401b604082015260600190565b61ffff91909116815260200190565b90815260200190565b600085825284602083015260018060a01b038416604083015260806060830152614f9560808301846154ac565b60009081526020902090565b60005b83811015615d1a578181015183820152602001615d02565b83811115614a115750506000910152565b6001600160a01b0381168114615d4057600080fd5b50565b8015158114615d4057600080fd5b6001600160701b0381168114615d4057600080fdfea26469706673582212207445960d87d2a147b1f589fc57d62e84ff768d4a8f46c9a078447f76fda4746b64736f6c63430006060033",
  "devdoc": {
    "methods": {
      "constructor": {
        "details": "construct this contract",
        "params": {
          "_WETH": "address of WETH.",
          "_feeReceiver": "address that receives protocol fees",
          "_referralRegistry": "address of referral registry that stores referral anchors",
          "_referralRewardRate": "percentage of swapFee that are paid out as rewards",
          "_swapFee": "nominator for swapFee. Denominator = 10000",
          "_zeroEx": "address of zeroX proxy contract to forward swaps"
        }
      },
      "executeZeroExSwap(bytes,address,address,uint256,address,uint256,bool)": {
        "details": "Executes a swap on 0x API",
        "params": {
          "data": "calldata expected by data field on 0x API (https://0x.org/docs/api#response-1)",
          "fee": "boolean if fee should be applied or not",
          "fromToken": "the address of currency to sell - 0x address for ETH",
          "referee": "address of referee for msg.sender, 0x adress if none",
          "toToken": "the address of currency to buy - 0x address for ETH"
        }
      },
      "getUserReferee(address)": {
        "details": "returns the referee for a given user - 0x address if none"
      },
      "hasUserReferee(address)": {
        "details": "returns if the given user has been referred or not"
      },
      "owner()": {
        "details": "Returns the address of the current owner."
      },
      "pause()": {
        "details": "lets the admin pause this contract"
      },
      "paused()": {
        "details": "Returns true if the contract is paused, and false otherwise."
      },
      "registerFork(address,bytes)": {
        "details": "lets the admin register an Uniswap style fork"
      },
      "renounceOwnership()": {
        "details": "Leaves the contract without owner. It will not be possible to call `onlyOwner` functions anymore. Can only be called by the current owner.     * NOTE: Renouncing ownership will leave the contract without an owner, thereby removing any functionality that is only available to the owner."
      },
      "swapETHForExactTokens((address,address,bool),uint256,address[])": {
        "details": "execute swap directly on Uniswap/Pancake/...",
        "params": {
          "amountOut": "expected amount of tokens out",
          "path": "Sell path.",
          "swapData": "stores the swapData information"
        },
        "returns": {
          "amounts": "amounts"
        }
      },
      "swapExactETHForTokens((address,address,bool),uint256,address[])": {
        "details": "execute swap directly on Uniswap/Pancake & simular forks",
        "params": {
          "amountOutMin": "minimum tokens to receive",
          "path": "Sell path.",
          "swapData": "stores the swapData information"
        },
        "returns": {
          "amounts": "amounts"
        }
      },
      "swapExactETHForTokensSupportingFeeOnTransferTokens((address,address,bool),uint256,address[])": {
        "details": "execute swap directly on Uniswap/Pancake/...",
        "params": {
          "amountOutMin": "minimum expected tokens to receive",
          "path": "Sell path.",
          "swapData": "stores the swapData information"
        }
      },
      "swapExactTokensForETH((address,address,bool),uint256,uint256,address[])": {
        "details": "execute swap directly on Uniswap/Pancake/...",
        "params": {
          "amountIn": "amount if tokens In",
          "amountOutMin": "minimum tokens to receive",
          "path": "Sell path.",
          "swapData": "stores the swapData information"
        },
        "returns": {
          "amounts": "amounts"
        }
      },
      "swapExactTokensForETHSupportingFeeOnTransferTokens((address,address,bool),uint256,uint256,address[])": {
        "details": "execute swap directly on Uniswap/Pancake/...",
        "params": {
          "amountIn": "amount of tokensIn",
          "amountOutMin": "minimum tokens to receive",
          "path": "Sell path.",
          "swapData": "stores the swapData information"
        }
      },
      "swapExactTokensForTokens((address,address,bool),uint256,uint256,address[])": {
        "details": "execute swap directly on Uniswap/Pancake/...",
        "params": {
          "amountIn": "amount if tokens In",
          "amountOutMin": "minimum tokens to receive",
          "path": "Sell path.",
          "swapData": "stores the swapData information"
        },
        "returns": {
          "amounts": "amounts"
        }
      },
      "swapExactTokensForTokensSupportingFeeOnTransferTokens((address,address,bool),uint256,uint256,address[])": {
        "details": "execute swap directly on Uniswap/Pancake/...",
        "params": {
          "amountIn": "amount if tokens In",
          "amountOutMin": "minimum tokens to receive",
          "path": "Sell path.",
          "swapData": "stores the swapData information"
        }
      },
      "swapTokensForExactETH((address,address,bool),uint256,uint256,address[])": {
        "details": "execute swap directly on Uniswap/Pancake/...",
        "params": {
          "amountInMax": "maximum tokens to send",
          "amountOut": "expected tokens to receive",
          "path": "Sell path.",
          "swapData": "stores the swapData information"
        },
        "returns": {
          "amounts": "amounts"
        }
      },
      "swapTokensForExactTokens((address,address,bool),uint256,uint256,address[])": {
        "details": "execute swap directly on Uniswap/Pancake/...",
        "params": {
          "amountInMax": "maximum tokens to send",
          "amountOut": "expected tokens to receive",
          "path": "Sell path.",
          "swapData": "stores the swapData information"
        },
        "returns": {
          "amounts": "amounts"
        }
      },
      "transferOwnership(address)": {
        "details": "Transfers ownership of the contract to a new account (`newOwner`). Can only be called by the current owner."
      },
      "unpause()": {
        "details": "lets the admin unpause this contract"
      },
      "updateCustomReferralRewardRate(address,uint16)": {
        "details": "lets the admin set a custom referral rate"
      },
      "updateFeeReceiver(address)": {
        "details": "lets the admin update which address receives the protocol fees"
      },
      "updateFork(address,bytes,bool)": {
        "details": "lets the admin update an Uniswap style fork"
      },
      "updateReferralRegistry(address)": {
        "details": "lets the admin set a new referral registry"
      },
      "updateReferralRewardRate(uint16)": {
        "details": "lets the admin update the referral reward rate"
      },
      "updateReferralsActivated(bool)": {
        "details": "lets the admin update the status of the referral system"
      },
      "updateSwapFee(uint16)": {
        "details": "lets the admin update the swapFee nominator"
      },
      "withdrawERC20Token(address,address,uint256)": {
        "details": "lets the admin withdraw ERC20s from the contract."
      },
      "withdrawETH(address,uint256)": {
        "details": "lets the admin withdraw ETH from the contract."
      }
    }
  },
  "userdoc": {
    "methods": {}
  },
  "storageLayout": {
    "storage": [
      {
        "astId": 592,
        "contract": "contracts/FloozMultichainRouter.sol:FloozMultichainRouter",
        "label": "_owner",
        "offset": 0,
        "slot": "0",
        "type": "t_address"
      },
      {
        "astId": 1168,
        "contract": "contracts/FloozMultichainRouter.sol:FloozMultichainRouter",
        "label": "_paused",
        "offset": 20,
        "slot": "0",
        "type": "t_bool"
      },
      {
        "astId": 1253,
        "contract": "contracts/FloozMultichainRouter.sol:FloozMultichainRouter",
        "label": "_status",
        "offset": 0,
        "slot": "1",
        "type": "t_uint256"
      },
      {
        "astId": 1906,
        "contract": "contracts/FloozMultichainRouter.sol:FloozMultichainRouter",
        "label": "swapFee",
        "offset": 0,
        "slot": "2",
        "type": "t_uint16"
      },
      {
        "astId": 1914,
        "contract": "contracts/FloozMultichainRouter.sol:FloozMultichainRouter",
        "label": "referralRegistry",
        "offset": 2,
        "slot": "2",
        "type": "t_contract(IReferralRegistry)8396"
      },
      {
        "astId": 1916,
        "contract": "contracts/FloozMultichainRouter.sol:FloozMultichainRouter",
        "label": "feeReceiver",
        "offset": 0,
        "slot": "3",
        "type": "t_address_payable"
      },
      {
        "astId": 1918,
        "contract": "contracts/FloozMultichainRouter.sol:FloozMultichainRouter",
        "label": "referralRewardRate",
        "offset": 20,
        "slot": "3",
        "type": "t_uint16"
      },
      {
        "astId": 1920,
        "contract": "contracts/FloozMultichainRouter.sol:FloozMultichainRouter",
        "label": "referralsActivated",
        "offset": 22,
        "slot": "3",
        "type": "t_bool"
      },
      {
        "astId": 1924,
        "contract": "contracts/FloozMultichainRouter.sol:FloozMultichainRouter",
        "label": "customReferralRewardRate",
        "offset": 0,
        "slot": "4",
        "type": "t_mapping(t_address,t_uint16)"
      },
      {
        "astId": 1928,
        "contract": "contracts/FloozMultichainRouter.sol:FloozMultichainRouter",
        "label": "forkActivated",
        "offset": 0,
        "slot": "5",
        "type": "t_mapping(t_address,t_bool)"
      },
      {
        "astId": 1932,
        "contract": "contracts/FloozMultichainRouter.sol:FloozMultichainRouter",
        "label": "forkInitCode",
        "offset": 0,
        "slot": "6",
        "type": "t_mapping(t_address,t_bytes_storage)"
      }
    ],
    "types": {
      "t_address": {
        "encoding": "inplace",
        "label": "address",
        "numberOfBytes": "20"
      },
      "t_address_payable": {
        "encoding": "inplace",
        "label": "address payable",
        "numberOfBytes": "20"
      },
      "t_bool": {
        "encoding": "inplace",
        "label": "bool",
        "numberOfBytes": "1"
      },
      "t_bytes_storage": {
        "encoding": "bytes",
        "label": "bytes",
        "numberOfBytes": "32"
      },
      "t_contract(IReferralRegistry)8396": {
        "encoding": "inplace",
        "label": "contract IReferralRegistry",
        "numberOfBytes": "20"
      },
      "t_mapping(t_address,t_bool)": {
        "encoding": "mapping",
        "key": "t_address",
        "label": "mapping(address => bool)",
        "numberOfBytes": "32",
        "value": "t_bool"
      },
      "t_mapping(t_address,t_bytes_storage)": {
        "encoding": "mapping",
        "key": "t_address",
        "label": "mapping(address => bytes)",
        "numberOfBytes": "32",
        "value": "t_bytes_storage"
      },
      "t_mapping(t_address,t_uint16)": {
        "encoding": "mapping",
        "key": "t_address",
        "label": "mapping(address => uint16)",
        "numberOfBytes": "32",
        "value": "t_uint16"
      },
      "t_uint16": {
        "encoding": "inplace",
        "label": "uint16",
        "numberOfBytes": "2"
      },
      "t_uint256": {
        "encoding": "inplace",
        "label": "uint256",
        "numberOfBytes": "32"
      }
    }
  }
}