{
  "address": "0x2351358A998fb3C8B1e86Ae1C1009530Aa413dAd",
  "abi": [
    {
      "inputs": [
        {
          "internalType": "address",
          "name": "_WETH",
          "type": "address"
        },
        {
          "internalType": "uint16",
          "name": "_swapFee",
          "type": "uint16"
        },
        {
          "internalType": "uint16",
          "name": "_referralRewardRate",
          "type": "uint16"
        },
        {
          "internalType": "address payable",
          "name": "_feeReceiver",
          "type": "address"
        },
        {
          "internalType": "contract IReferralRegistry",
          "name": "_referralRegistry",
          "type": "address"
        },
        {
          "internalType": "address payable",
          "name": "_zeroEx",
          "type": "address"
        }
      ],
      "stateMutability": "nonpayable",
      "type": "constructor"
    },
    {
      "anonymous": false,
      "inputs": [
        {
          "indexed": true,
          "internalType": "address",
          "name": "account",
          "type": "address"
        },
        {
          "indexed": false,
          "internalType": "uint16",
          "name": "referralRate",
          "type": "uint16"
        }
      ],
      "name": "CustomReferralRewardRateUpdated",
      "type": "event"
    },
    {
      "anonymous": false,
      "inputs": [
        {
          "indexed": false,
          "internalType": "address payable",
          "name": "feeReceiver",
          "type": "address"
        }
      ],
      "name": "FeeReceiverUpdated",
      "type": "event"
    },
    {
      "anonymous": false,
      "inputs": [
        {
          "indexed": false,
          "internalType": "address",
          "name": "factory",
          "type": "address"
        }
      ],
      "name": "ForkCreated",
      "type": "event"
    },
    {
      "anonymous": false,
      "inputs": [
        {
          "indexed": false,
          "internalType": "address",
          "name": "factory",
          "type": "address"
        }
      ],
      "name": "ForkUpdated",
      "type": "event"
    },
    {
      "anonymous": false,
      "inputs": [
        {
          "indexed": true,
          "internalType": "address",
          "name": "previousOwner",
          "type": "address"
        },
        {
          "indexed": true,
          "internalType": "address",
          "name": "newOwner",
          "type": "address"
        }
      ],
      "name": "OwnershipTransferred",
      "type": "event"
    },
    {
      "anonymous": false,
      "inputs": [
        {
          "indexed": false,
          "internalType": "address",
          "name": "account",
          "type": "address"
        }
      ],
      "name": "Paused",
      "type": "event"
    },
    {
      "anonymous": false,
      "inputs": [
        {
          "indexed": false,
          "internalType": "address",
          "name": "referralRegistry",
          "type": "address"
        }
      ],
      "name": "ReferralRegistryUpdated",
      "type": "event"
    },
    {
      "anonymous": false,
      "inputs": [
        {
          "indexed": false,
          "internalType": "address",
          "name": "from",
          "type": "address"
        },
        {
          "indexed": true,
          "internalType": "address",
          "name": "to",
          "type": "address"
        },
        {
          "indexed": false,
          "internalType": "address",
          "name": "tokenOut",
          "type": "address"
        },
        {
          "indexed": false,
          "internalType": "address",
          "name": "tokenReward",
          "type": "address"
        },
        {
          "indexed": false,
          "internalType": "uint256",
          "name": "amount",
          "type": "uint256"
        }
      ],
      "name": "ReferralRewardPaid",
      "type": "event"
    },
    {
      "anonymous": false,
      "inputs": [
        {
          "indexed": false,
          "internalType": "uint16",
          "name": "referralRewardRate",
          "type": "uint16"
        }
      ],
      "name": "ReferralRewardRateUpdated",
      "type": "event"
    },
    {
      "anonymous": false,
      "inputs": [
        {
          "indexed": false,
          "internalType": "bool",
          "name": "activated",
          "type": "bool"
        }
      ],
      "name": "ReferralsActivatedUpdated",
      "type": "event"
    },
    {
      "anonymous": false,
      "inputs": [
        {
          "indexed": false,
          "internalType": "uint16",
          "name": "swapFee",
          "type": "uint16"
        }
      ],
      "name": "SwapFeeUpdated",
      "type": "event"
    },
    {
      "anonymous": false,
      "inputs": [
        {
          "indexed": false,
          "internalType": "address",
          "name": "account",
          "type": "address"
        }
      ],
      "name": "Unpaused",
      "type": "event"
    },
    {
      "stateMutability": "payable",
      "type": "fallback"
    },
    {
      "inputs": [],
      "name": "FEE_DENOMINATOR",
      "outputs": [
        {
          "internalType": "uint256",
          "name": "",
          "type": "uint256"
        }
      ],
      "stateMutability": "view",
      "type": "function"
    },
    {
      "inputs": [],
      "name": "WETH",
      "outputs": [
        {
          "internalType": "address",
          "name": "",
          "type": "address"
        }
      ],
      "stateMutability": "view",
      "type": "function"
    },
    {
      "inputs": [
        {
          "internalType": "address",
          "name": "",
          "type": "address"
        }
      ],
      "name": "customReferralRewardRate",
      "outputs": [
        {
          "internalType": "uint16",
          "name": "",
          "type": "uint16"
        }
      ],
      "stateMutability": "view",
      "type": "function"
    },
    {
      "inputs": [
        {
          "internalType": "bytes",
          "name": "data",
          "type": "bytes"
        },
        {
          "internalType": "address",
          "name": "tokenOut",
          "type": "address"
        },
        {
          "internalType": "address",
          "name": "tokenIn",
          "type": "address"
        },
        {
          "internalType": "address",
          "name": "referee",
          "type": "address"
        },
        {
          "internalType": "bool",
          "name": "fee",
          "type": "bool"
        }
      ],
      "name": "executeZeroExSwap",
      "outputs": [],
      "stateMutability": "payable",
      "type": "function"
    },
    {
      "inputs": [],
      "name": "feeReceiver",
      "outputs": [
        {
          "internalType": "address payable",
          "name": "",
          "type": "address"
        }
      ],
      "stateMutability": "view",
      "type": "function"
    },
    {
      "inputs": [
        {
          "internalType": "address",
          "name": "",
          "type": "address"
        }
      ],
      "name": "forkActivated",
      "outputs": [
        {
          "internalType": "bool",
          "name": "",
          "type": "bool"
        }
      ],
      "stateMutability": "view",
      "type": "function"
    },
    {
      "inputs": [
        {
          "internalType": "address",
          "name": "",
          "type": "address"
        }
      ],
      "name": "forkInitCode",
      "outputs": [
        {
          "internalType": "bytes",
          "name": "",
          "type": "bytes"
        }
      ],
      "stateMutability": "view",
      "type": "function"
    },
    {
      "inputs": [
        {
          "internalType": "address",
          "name": "user",
          "type": "address"
        }
      ],
      "name": "getUserReferee",
      "outputs": [
        {
          "internalType": "address",
          "name": "",
          "type": "address"
        }
      ],
      "stateMutability": "view",
      "type": "function"
    },
    {
      "inputs": [
        {
          "internalType": "address",
          "name": "user",
          "type": "address"
        }
      ],
      "name": "hasUserReferee",
      "outputs": [
        {
          "internalType": "bool",
          "name": "",
          "type": "bool"
        }
      ],
      "stateMutability": "view",
      "type": "function"
    },
    {
      "inputs": [],
      "name": "owner",
      "outputs": [
        {
          "internalType": "address",
          "name": "",
          "type": "address"
        }
      ],
      "stateMutability": "view",
      "type": "function"
    },
    {
      "inputs": [],
      "name": "pause",
      "outputs": [],
      "stateMutability": "nonpayable",
      "type": "function"
    },
    {
      "inputs": [],
      "name": "paused",
      "outputs": [
        {
          "internalType": "bool",
          "name": "",
          "type": "bool"
        }
      ],
      "stateMutability": "view",
      "type": "function"
    },
    {
      "inputs": [],
      "name": "referralRegistry",
      "outputs": [
        {
          "internalType": "contract IReferralRegistry",
          "name": "",
          "type": "address"
        }
      ],
      "stateMutability": "view",
      "type": "function"
    },
    {
      "inputs": [],
      "name": "referralRewardRate",
      "outputs": [
        {
          "internalType": "uint16",
          "name": "",
          "type": "uint16"
        }
      ],
      "stateMutability": "view",
      "type": "function"
    },
    {
      "inputs": [],
      "name": "referralsActivated",
      "outputs": [
        {
          "internalType": "bool",
          "name": "",
          "type": "bool"
        }
      ],
      "stateMutability": "view",
      "type": "function"
    },
    {
      "inputs": [
        {
          "internalType": "address",
          "name": "_factory",
          "type": "address"
        },
        {
          "internalType": "bytes",
          "name": "_initCode",
          "type": "bytes"
        }
      ],
      "name": "registerFork",
      "outputs": [],
      "stateMutability": "nonpayable",
      "type": "function"
    },
    {
      "inputs": [],
      "name": "renounceOwnership",
      "outputs": [],
      "stateMutability": "nonpayable",
      "type": "function"
    },
    {
      "inputs": [
        {
          "components": [
            {
              "internalType": "address",
              "name": "fork",
              "type": "address"
            },
            {
              "internalType": "address",
              "name": "referee",
              "type": "address"
            },
            {
              "internalType": "bool",
              "name": "fee",
              "type": "bool"
            }
          ],
          "internalType": "struct FloozMultichainRouter.SwapData",
          "name": "swapData",
          "type": "tuple"
        },
        {
          "internalType": "uint256",
          "name": "amountOut",
          "type": "uint256"
        },
        {
          "internalType": "address[]",
          "name": "path",
          "type": "address[]"
        }
      ],
      "name": "swapETHForExactTokens",
      "outputs": [
        {
          "internalType": "uint256[]",
          "name": "amounts",
          "type": "uint256[]"
        }
      ],
      "stateMutability": "payable",
      "type": "function"
    },
    {
      "inputs": [
        {
          "components": [
            {
              "internalType": "address",
              "name": "fork",
              "type": "address"
            },
            {
              "internalType": "address",
              "name": "referee",
              "type": "address"
            },
            {
              "internalType": "bool",
              "name": "fee",
              "type": "bool"
            }
          ],
          "internalType": "struct FloozMultichainRouter.SwapData",
          "name": "swapData",
          "type": "tuple"
        },
        {
          "internalType": "uint256",
          "name": "amountOutMin",
          "type": "uint256"
        },
        {
          "internalType": "address[]",
          "name": "path",
          "type": "address[]"
        }
      ],
      "name": "swapExactETHForTokens",
      "outputs": [
        {
          "internalType": "uint256[]",
          "name": "amounts",
          "type": "uint256[]"
        }
      ],
      "stateMutability": "payable",
      "type": "function"
    },
    {
      "inputs": [
        {
          "components": [
            {
              "internalType": "address",
              "name": "fork",
              "type": "address"
            },
            {
              "internalType": "address",
              "name": "referee",
              "type": "address"
            },
            {
              "internalType": "bool",
              "name": "fee",
              "type": "bool"
            }
          ],
          "internalType": "struct FloozMultichainRouter.SwapData",
          "name": "swapData",
          "type": "tuple"
        },
        {
          "internalType": "uint256",
          "name": "amountOutMin",
          "type": "uint256"
        },
        {
          "internalType": "address[]",
          "name": "path",
          "type": "address[]"
        }
      ],
      "name": "swapExactETHForTokensSupportingFeeOnTransferTokens",
      "outputs": [],
      "stateMutability": "payable",
      "type": "function"
    },
    {
      "inputs": [
        {
          "components": [
            {
              "internalType": "address",
              "name": "fork",
              "type": "address"
            },
            {
              "internalType": "address",
              "name": "referee",
              "type": "address"
            },
            {
              "internalType": "bool",
              "name": "fee",
              "type": "bool"
            }
          ],
          "internalType": "struct FloozMultichainRouter.SwapData",
          "name": "swapData",
          "type": "tuple"
        },
        {
          "internalType": "uint256",
          "name": "amountIn",
          "type": "uint256"
        },
        {
          "internalType": "uint256",
          "name": "amountOutMin",
          "type": "uint256"
        },
        {
          "internalType": "address[]",
          "name": "path",
          "type": "address[]"
        }
      ],
      "name": "swapExactTokensForETH",
      "outputs": [
        {
          "internalType": "uint256[]",
          "name": "amounts",
          "type": "uint256[]"
        }
      ],
      "stateMutability": "nonpayable",
      "type": "function"
    },
    {
      "inputs": [
        {
          "components": [
            {
              "internalType": "address",
              "name": "fork",
              "type": "address"
            },
            {
              "internalType": "address",
              "name": "referee",
              "type": "address"
            },
            {
              "internalType": "bool",
              "name": "fee",
              "type": "bool"
            }
          ],
          "internalType": "struct FloozMultichainRouter.SwapData",
          "name": "swapData",
          "type": "tuple"
        },
        {
          "internalType": "uint256",
          "name": "amountIn",
          "type": "uint256"
        },
        {
          "internalType": "uint256",
          "name": "amountOutMin",
          "type": "uint256"
        },
        {
          "internalType": "address[]",
          "name": "path",
          "type": "address[]"
        }
      ],
      "name": "swapExactTokensForETHSupportingFeeOnTransferTokens",
      "outputs": [],
      "stateMutability": "nonpayable",
      "type": "function"
    },
    {
      "inputs": [
        {
          "components": [
            {
              "internalType": "address",
              "name": "fork",
              "type": "address"
            },
            {
              "internalType": "address",
              "name": "referee",
              "type": "address"
            },
            {
              "internalType": "bool",
              "name": "fee",
              "type": "bool"
            }
          ],
          "internalType": "struct FloozMultichainRouter.SwapData",
          "name": "swapData",
          "type": "tuple"
        },
        {
          "internalType": "uint256",
          "name": "amountIn",
          "type": "uint256"
        },
        {
          "internalType": "uint256",
          "name": "amountOutMin",
          "type": "uint256"
        },
        {
          "internalType": "address[]",
          "name": "path",
          "type": "address[]"
        }
      ],
      "name": "swapExactTokensForTokens",
      "outputs": [
        {
          "internalType": "uint256[]",
          "name": "amounts",
          "type": "uint256[]"
        }
      ],
      "stateMutability": "nonpayable",
      "type": "function"
    },
    {
      "inputs": [
        {
          "components": [
            {
              "internalType": "address",
              "name": "fork",
              "type": "address"
            },
            {
              "internalType": "address",
              "name": "referee",
              "type": "address"
            },
            {
              "internalType": "bool",
              "name": "fee",
              "type": "bool"
            }
          ],
          "internalType": "struct FloozMultichainRouter.SwapData",
          "name": "swapData",
          "type": "tuple"
        },
        {
          "internalType": "uint256",
          "name": "amountIn",
          "type": "uint256"
        },
        {
          "internalType": "uint256",
          "name": "amountOutMin",
          "type": "uint256"
        },
        {
          "internalType": "address[]",
          "name": "path",
          "type": "address[]"
        }
      ],
      "name": "swapExactTokensForTokensSupportingFeeOnTransferTokens",
      "outputs": [],
      "stateMutability": "nonpayable",
      "type": "function"
    },
    {
      "inputs": [],
      "name": "swapFee",
      "outputs": [
        {
          "internalType": "uint16",
          "name": "",
          "type": "uint16"
        }
      ],
      "stateMutability": "view",
      "type": "function"
    },
    {
      "inputs": [
        {
          "components": [
            {
              "internalType": "address",
              "name": "fork",
              "type": "address"
            },
            {
              "internalType": "address",
              "name": "referee",
              "type": "address"
            },
            {
              "internalType": "bool",
              "name": "fee",
              "type": "bool"
            }
          ],
          "internalType": "struct FloozMultichainRouter.SwapData",
          "name": "swapData",
          "type": "tuple"
        },
        {
          "internalType": "uint256",
          "name": "amountOut",
          "type": "uint256"
        },
        {
          "internalType": "uint256",
          "name": "amountInMax",
          "type": "uint256"
        },
        {
          "internalType": "address[]",
          "name": "path",
          "type": "address[]"
        }
      ],
      "name": "swapTokensForExactETH",
      "outputs": [
        {
          "internalType": "uint256[]",
          "name": "amounts",
          "type": "uint256[]"
        }
      ],
      "stateMutability": "nonpayable",
      "type": "function"
    },
    {
      "inputs": [
        {
          "components": [
            {
              "internalType": "address",
              "name": "fork",
              "type": "address"
            },
            {
              "internalType": "address",
              "name": "referee",
              "type": "address"
            },
            {
              "internalType": "bool",
              "name": "fee",
              "type": "bool"
            }
          ],
          "internalType": "struct FloozMultichainRouter.SwapData",
          "name": "swapData",
          "type": "tuple"
        },
        {
          "internalType": "uint256",
          "name": "amountOut",
          "type": "uint256"
        },
        {
          "internalType": "uint256",
          "name": "amountInMax",
          "type": "uint256"
        },
        {
          "internalType": "address[]",
          "name": "path",
          "type": "address[]"
        }
      ],
      "name": "swapTokensForExactTokens",
      "outputs": [
        {
          "internalType": "uint256[]",
          "name": "amounts",
          "type": "uint256[]"
        }
      ],
      "stateMutability": "nonpayable",
      "type": "function"
    },
    {
      "inputs": [
        {
          "internalType": "address",
          "name": "newOwner",
          "type": "address"
        }
      ],
      "name": "transferOwnership",
      "outputs": [],
      "stateMutability": "nonpayable",
      "type": "function"
    },
    {
      "inputs": [],
      "name": "unpause",
      "outputs": [],
      "stateMutability": "nonpayable",
      "type": "function"
    },
    {
      "inputs": [
        {
          "internalType": "address",
          "name": "account",
          "type": "address"
        },
        {
          "internalType": "uint16",
          "name": "referralRate",
          "type": "uint16"
        }
      ],
      "name": "updateCustomReferralRewardRate",
      "outputs": [
        {
          "internalType": "uint256",
          "name": "",
          "type": "uint256"
        }
      ],
      "stateMutability": "nonpayable",
      "type": "function"
    },
    {
      "inputs": [
        {
          "internalType": "address payable",
          "name": "newFeeReceiver",
          "type": "address"
        }
      ],
      "name": "updateFeeReceiver",
      "outputs": [],
      "stateMutability": "nonpayable",
      "type": "function"
    },
    {
      "inputs": [
        {
          "internalType": "address",
          "name": "_factory",
          "type": "address"
        },
        {
          "internalType": "bytes",
          "name": "_initCode",
          "type": "bytes"
        },
        {
          "internalType": "bool",
          "name": "_activated",
          "type": "bool"
        }
      ],
      "name": "updateFork",
      "outputs": [],
      "stateMutability": "nonpayable",
      "type": "function"
    },
    {
      "inputs": [
        {
          "internalType": "address",
          "name": "newReferralRegistry",
          "type": "address"
        }
      ],
      "name": "updateReferralRegistry",
      "outputs": [],
      "stateMutability": "nonpayable",
      "type": "function"
    },
    {
      "inputs": [
        {
          "internalType": "uint16",
          "name": "newReferralRewardRate",
          "type": "uint16"
        }
      ],
      "name": "updateReferralRewardRate",
      "outputs": [],
      "stateMutability": "nonpayable",
      "type": "function"
    },
    {
      "inputs": [
        {
          "internalType": "bool",
          "name": "newReferralsActivated",
          "type": "bool"
        }
      ],
      "name": "updateReferralsActivated",
      "outputs": [],
      "stateMutability": "nonpayable",
      "type": "function"
    },
    {
      "inputs": [
        {
          "internalType": "uint16",
          "name": "newSwapFee",
          "type": "uint16"
        }
      ],
      "name": "updateSwapFee",
      "outputs": [],
      "stateMutability": "nonpayable",
      "type": "function"
    },
    {
      "inputs": [
        {
          "internalType": "address",
          "name": "token",
          "type": "address"
        },
        {
          "internalType": "address",
          "name": "to",
          "type": "address"
        },
        {
          "internalType": "uint256",
          "name": "amount",
          "type": "uint256"
        }
      ],
      "name": "withdrawERC20Token",
      "outputs": [],
      "stateMutability": "nonpayable",
      "type": "function"
    },
    {
      "inputs": [
        {
          "internalType": "address payable",
          "name": "to",
          "type": "address"
        },
        {
          "internalType": "uint256",
          "name": "amount",
          "type": "uint256"
        }
      ],
      "name": "withdrawETH",
      "outputs": [],
      "stateMutability": "nonpayable",
      "type": "function"
    },
    {
      "inputs": [],
      "name": "zeroEx",
      "outputs": [
        {
          "internalType": "address payable",
          "name": "",
          "type": "address"
        }
      ],
      "stateMutability": "view",
      "type": "function"
    },
    {
      "stateMutability": "payable",
      "type": "receive"
    }
  ],
  "transactionHash": "0xf8b23dc8abded4c4fc3867f18bb84f590efaf681721ab5635562225d04a4aed0",
  "args": [
    "0x0d500b1d8e8ef31e21c99d1db9a6444d3adf1270",
    50,
    1000,
    "0xC4B8393ee768BFa96beA98E52D67C86D654dA81E",
    "0x83fD363B58D3aCBA15C8c04988f0064D4e561ecD",
    "0xdef1c0ded9bec7f1a1670819833240f027b25eff"
  ],
  "solcInputHash": "60f4354d3b3b99cfbc2014bc2e2337ef",
  "bytecode": "0x60c06040523480156200001157600080fd5b50604051620057a7380380620057a7833981016040819052620000349162000153565b6000620000496001600160e01b036200013616565b600080546001600160a01b0319166001600160a01b0383169081178255604051929350917f8be0079c531659141344cd1fd0a4f28419497f9722a3daafe3b4186f6b6457e0908290a3506000805460ff60a01b1916905560018055606095861b6001600160601b0319908116608052600280546003805461ffff1990921661ffff998a161762010000600160b01b031916620100006001600160a01b0397881602179092559290971b1660a052600160b01b61ffff60a01b19909116600160a01b9490951693909302939093176001600160a01b03191692169190911760ff60b01b1916179055620001fa565b3390565b805161ffff811681146200014d57600080fd5b92915050565b60008060008060008060c087890312156200016c578182fd5b86516200017981620001e1565b95506200018a88602089016200013a565b94506200019b88604089016200013a565b93506060870151620001ad81620001e1565b6080880151909350620001c081620001e1565b60a0880151909250620001d381620001e1565b809150509295509295509295565b6001600160a01b0381168114620001f757600080fd5b50565b60805160601c60a05160601c6155296200027e6000398061028d52806117b15280611a7c52508061093d5280610a755280610b025280610e655280610fc85280611055528061131a52806113c052806114395280611fdd52806121bc52806126f95280612ea45280612ff65280613095528061331a52806134dc52506155296000f3fe6080604052600436106102345760003560e01c806388b286871161012e578063caa9b5cb116100ab578063ea043e271161006f578063ea043e27146107be578063f01e063a146107de578063f2fde38b146107fe578063fe4ad4461461081e578063fe7d4f34146108335761023b565b8063caa9b5cb14610729578063d113efc414610749578063d73792a914610769578063e5ae0c321461077e578063e96b2f501461079e5761023b565b8063ad5c4648116100f2578063ad5c46481461069f578063b3f00674146106b4578063bdf77108146106c9578063c00a3159146106e9578063c69bebe4146107095761023b565b806388b286871461060a5780638d18300a1461062a5780638da5cb5b1461064a578063927e897a1461065f578063a7a94fde1461067f5761023b565b80634fb5df08116101bc578063692247c311610180578063692247c314610580578063715018a6146105ad5780637cde0c74146105c25780637e66dc15146105e25780638456cb59146105f55761023b565b80634fb5df08146104e757806352ab413b1461051457806354cf2aeb1461052957806357d1b31b1461054b5780635c975abb1461056b5761023b565b80633f4ba83a116102035780633f4ba83a1461046a5780633f9f5ecb1461047f5780634782f779146104925780634ba4ecb1146104b25780634e627e62146104c55761023b565b8063279c1868146103dd578063279f3291146104065780632def48b1146104285780632f9120051461044a5761023b565b3661023b57005b6000610287600080368080601f016020809104026020016040519081016040528093929190818152602001838380828437600092019190915250929392505063ffffffff610853169050565b905060007f00000000000000000000000000000000000000000000000000000000000000006001600160a01b031663972fdd26836040518263ffffffff1660e01b81526004016102d79190614ddf565b602060405180830381600087803b1580156102f157600080fd5b505af1158015610305573d6000803e3d6000fd5b505050506040513d601f19601f82011682018060405250810190610329919061484a565b90506001600160a01b03811661035a5760405162461bcd60e51b815260040161035190614ed4565b60405180910390fd5b6000816001600160a01b0316600036604051610377929190614c2d565b600060405180830381855af49150503d80600081146103b2576040519150601f19603f3d011682016040523d82523d6000602084013e6103b7565b606091505b50509050806103d85760405162461bcd60e51b815260040161035190615317565b505050005b6103f06103eb366004614a8c565b610896565b6040516103fd9190614d90565b60405180910390f35b34801561041257600080fd5b5061041b610cb4565b6040516103fd9190614dd4565b34801561043457600080fd5b5061044861044336600461482e565b610cc4565b005b34801561045657600080fd5b5061041b61046536600461482e565b610d60565b34801561047657600080fd5b50610448610d75565b6103f061048d366004614a8c565b610dbe565b34801561049e57600080fd5b506104486104ad366004614866565b611228565b6104486104c0366004614a8c565b611275565b3480156104d157600080fd5b506104da6116ff565b6040516103fd9190614cfb565b3480156104f357600080fd5b5061050761050236600461482e565b611714565b6040516103fd9190614df4565b34801561052057600080fd5b506104da6117af565b34801561053557600080fd5b5061053e6117d3565b6040516103fd919061543b565b34801561055757600080fd5b50610448610566366004614891565b6117dd565b34801561057757600080fd5b5061041b61182c565b34801561058c57600080fd5b506105a061059b36600461498a565b61183d565b6040516103fd919061544a565b3480156105b957600080fd5b50610448611909565b3480156105ce57600080fd5b5061053e6105dd36600461482e565b611992565b6104486105f0366004614a00565b6119a8565b34801561060157600080fd5b50610448611ee7565b34801561061657600080fd5b506103f0610625366004614ae5565b611f2e565b34801561063657600080fd5b506103f0610645366004614ae5565b612294565b34801561065657600080fd5b506104da61249d565b34801561066b57600080fd5b5061041b61067a36600461482e565b6124ac565b34801561068b57600080fd5b506103f061069a366004614ae5565b612533565b3480156106ab57600080fd5b506104da6126f7565b3480156106c057600080fd5b506104da61271b565b3480156106d557600080fd5b506104486106e43660046148d1565b61272a565b3480156106f557600080fd5b50610448610704366004614924565b612817565b34801561071557600080fd5b5061044861072436600461482e565b6128cd565b34801561073557600080fd5b50610448610744366004614ba0565b612957565b34801561075557600080fd5b506104da61076436600461482e565b6129d7565b34801561077557600080fd5b506105a0612a5e565b34801561078a57600080fd5b50610448610799366004614ba0565b612a64565b3480156107aa57600080fd5b506104486107b93660046149c8565b612b13565b3480156107ca57600080fd5b506104486107d9366004614ae5565b612b99565b3480156107ea57600080fd5b506104486107f9366004614ae5565b612df7565b34801561080a57600080fd5b5061044861081936600461482e565b61319a565b34801561082a57600080fd5b5061053e61325a565b34801561083f57600080fd5b506103f061084e366004614ae5565b61326b565b600081600401835110156108795761087961087460038551856004016135a6565b613600565b5060208183018101519101906001600160e01b0319165b92915050565b60606108a061182c565b156108bd5760405162461bcd60e51b815260040161035190615115565b6108ca602086018661482e565b6001600160a01b03811660009081526005602052604090205460ff166109025760405162461bcd60e51b815260040161035190615272565b610912604087016020880161482e565b336001600160a01b038216141561093b5760405162461bcd60e51b81526004016103519061502d565b7f00000000000000000000000000000000000000000000000000000000000000006001600160a01b03168585600081811061097257fe5b9050602002016020810190610987919061482e565b6001600160a01b0316146109ad5760405162461bcd60e51b81526004016103519061513f565b60006109c76109c260408a0160208b0161482e565b613608565b9050600080806109e96109e060608d0160408e016149c8565b348660006137a2565b91945092509050610a3a610a0060208d018d61482e565b848b8b808060200260200160405190810160405280939291908181526020018383602002808284376000920191909152506138f792505050565b96508987600189510381518110610a4d57fe5b60200260200101511015610a735760405162461bcd60e51b815260040161035190614fbf565b7f00000000000000000000000000000000000000000000000000000000000000006001600160a01b031663d0e30db088600081518110610aaf57fe5b60200260200101516040518263ffffffff1660e01b81526004016000604051808303818588803b158015610ae257600080fd5b505af1158015610af6573d6000803e3d6000fd5b50506001600160a01b037f000000000000000000000000000000000000000000000000000000000000000016925063a9059cbb9150610b869050610b3d60208f018f61482e565b8c8c6000818110610b4a57fe5b9050602002016020810190610b5f919061482e565b8d8d6001818110610b6c57fe5b9050602002016020810190610b81919061482e565b613a0e565b89600081518110610b9357fe5b60200260200101516040518363ffffffff1660e01b8152600401610bb8929190614d77565b602060405180830381600087803b158015610bd257600080fd5b505af1158015610be6573d6000803e3d6000fd5b505050506040513d601f19601f82011682018060405250810190610c0a91906149e4565b610c1057fe5b610c5c610c2060208d018d61482e565b888b8b80806020026020016040519081016040528093929190818152602001838360200280828437600092019190915250339250613a93915050565b6000610c6e838363ffffffff613c1416565b1115610ca657610ca660008a8a6000198101818110610c8957fe5b9050602002016020810190610c9e919061482e565b868585613c39565b505050505050949350505050565b600354600160b01b900460ff1681565b610ccc613d34565b6001600160a01b0316610cdd61249d565b6001600160a01b031614610d035760405162461bcd60e51b8152600401610351906151fa565b6002805462010000600160b01b031916620100006001600160a01b038416021790556040517f9d4414af8d61d821c1ad25f0aadfa28aa386c452716a31fc1f7fdbd9b9d364dc90610d55908390614cfb565b60405180910390a150565b60056020526000908152604090205460ff1681565b610d7d613d34565b6001600160a01b0316610d8e61249d565b6001600160a01b031614610db45760405162461bcd60e51b8152600401610351906151fa565b610dbc613d38565b565b6060610dc861182c565b15610de55760405162461bcd60e51b815260040161035190615115565b610df2602086018661482e565b6001600160a01b03811660009081526005602052604090205460ff16610e2a5760405162461bcd60e51b815260040161035190615272565b610e3a604087016020880161482e565b336001600160a01b0382161415610e635760405162461bcd60e51b81526004016103519061502d565b7f00000000000000000000000000000000000000000000000000000000000000006001600160a01b031685856000818110610e9a57fe5b9050602002016020810190610eaf919061482e565b6001600160a01b031614610ed55760405162461bcd60e51b81526004016103519061513f565b6000610eea6109c260408a0160208b0161482e565b9050610f36610efc60208a018a61482e565b88888880806020026020016040519081016040528093929190818152602001838360200280828437600092019190915250613da992505050565b9350600080610f6b610f4e60608c0160408d016149c8565b87600081518110610f5b57fe5b60200260200101518560016137a2565b925092505034610fa882610f9c858a600081518110610f8657fe5b6020026020010151613c1490919063ffffffff16565b9063ffffffff613c1416565b1115610fc65760405162461bcd60e51b81526004016103519061509b565b7f00000000000000000000000000000000000000000000000000000000000000006001600160a01b031663d0e30db08760008151811061100257fe5b60200260200101516040518263ffffffff1660e01b81526004016000604051808303818588803b15801561103557600080fd5b505af1158015611049573d6000803e3d6000fd5b50506001600160a01b037f000000000000000000000000000000000000000000000000000000000000000016925063a9059cbb91506110bf905061109060208e018e61482e565b8b8b600081811061109d57fe5b90506020020160208101906110b2919061482e565b8c8c6001818110610b6c57fe5b886000815181106110cc57fe5b60200260200101516040518363ffffffff1660e01b81526004016110f1929190614d77565b602060405180830381600087803b15801561110b57600080fd5b505af115801561111f573d6000803e3d6000fd5b505050506040513d601f19601f8201168201806040525081019061114391906149e4565b61114957fe5b61119561115960208c018c61482e565b878a8a80806020026020016040519081016040528093929190818152602001838360200280828437600092019190915250339250613a93915050565b6111aa81610f9c8489600081518110610f8657fe5b3411156111d1576111d1336111ca83610f9c868b600081518110610f8657fe5b3403613eac565b60006111e3838363ffffffff613c1416565b111561121b5761121b6000898960001981018181106111fe57fe5b9050602002016020810190611213919061482e565b858585613c39565b5050505050949350505050565b611230613d34565b6001600160a01b031661124161249d565b6001600160a01b0316146112675760405162461bcd60e51b8152600401610351906151fa565b6112718282613eac565b5050565b61127d61182c565b1561129a5760405162461bcd60e51b815260040161035190615115565b6112a7602085018561482e565b6001600160a01b03811660009081526005602052604090205460ff166112df5760405162461bcd60e51b815260040161035190615272565b6112ef604086016020870161482e565b336001600160a01b03821614156113185760405162461bcd60e51b81526004016103519061502d565b7f00000000000000000000000000000000000000000000000000000000000000006001600160a01b03168484600081811061134f57fe5b9050602002016020810190611364919061482e565b6001600160a01b03161461138a5760405162461bcd60e51b81526004016103519061513f565b600061139f6109c26040890160208a0161482e565b9050600080806113b86109e060608c0160408d016149c8565b9250925092507f00000000000000000000000000000000000000000000000000000000000000006001600160a01b031663d0e30db0846040518263ffffffff1660e01b81526004016000604051808303818588803b15801561141957600080fd5b505af115801561142d573d6000803e3d6000fd5b50506001600160a01b037f000000000000000000000000000000000000000000000000000000000000000016925063a9059cbb9150611474905061109060208e018e61482e565b856040518363ffffffff1660e01b8152600401611492929190614d77565b602060405180830381600087803b1580156114ac57600080fd5b505af11580156114c0573d6000803e3d6000fd5b505050506040513d601f19601f820116820180604052508101906114e491906149e4565b6114ea57fe5b6000888860001981018181106114fc57fe5b9050602002016020810190611511919061482e565b6001600160a01b03166370a08231336040518263ffffffff1660e01b815260040161153c9190614cfb565b60206040518083038186803b15801561155457600080fd5b505afa158015611568573d6000803e3d6000fd5b505050506040513d601f19601f8201168201806040525081019061158c9190614bc2565b90506115d961159e60208d018d61482e565b8a8a80806020026020016040519081016040528093929190818152602001838360200280828437600092019190915250339250613f39915050565b8961168a828b8b60001981018181106115ee57fe5b9050602002016020810190611603919061482e565b6001600160a01b03166370a08231336040518263ffffffff1660e01b815260040161162e9190614cfb565b60206040518083038186803b15801561164657600080fd5b505afa15801561165a573d6000803e3d6000fd5b505050506040513d601f19601f8201168201806040525081019061167e9190614bc2565b9063ffffffff61417516565b10156116a85760405162461bcd60e51b815260040161035190614fbf565b60006116ba848463ffffffff613c1416565b11156116f2576116f260008a8a60001981018181106116d557fe5b90506020020160208101906116ea919061482e565b878686613c39565b5050505050505050505050565b6002546201000090046001600160a01b031681565b60066020908152600091825260409182902080548351601f6002600019610100600186161502019093169290920491820184900484028101840190945280845290918301828280156117a75780601f1061177c576101008083540402835291602001916117a7565b820191906000526020600020905b81548152906001019060200180831161178a57829003601f168201915b505050505081565b7f000000000000000000000000000000000000000000000000000000000000000081565b60025461ffff1681565b6117e5613d34565b6001600160a01b03166117f661249d565b6001600160a01b03161461181c5760405162461bcd60e51b8152600401610351906151fa565b61182783838361419d565b505050565b600054600160a01b900460ff165b90565b6000611847613d34565b6001600160a01b031661185861249d565b6001600160a01b03161461187e5760405162461bcd60e51b8152600401610351906151fa565b6127108261ffff1611156118a45760405162461bcd60e51b8152600401610351906152a9565b6001600160a01b03831660008181526004602052604090819020805461ffff191661ffff8616179055517f9b182573c5f49d27d10ab506c71acd90f3b44f15c35eb906f9a40d9c35412e41906118fb90859061543b565b60405180910390a292915050565b611911613d34565b6001600160a01b031661192261249d565b6001600160a01b0316146119485760405162461bcd60e51b8152600401610351906151fa565b600080546040516001600160a01b03909116907f8be0079c531659141344cd1fd0a4f28419497f9722a3daafe3b4186f6b6457e0908390a3600080546001600160a01b0319169055565b60046020526000908152604090205461ffff1681565b600260015414156119cb5760405162461bcd60e51b8152600401610351906153cd565b60026001556119d861182c565b156119f55760405162461bcd60e51b815260040161035190615115565b81336001600160a01b0382161415611a1f5760405162461bcd60e51b81526004016103519061502d565b611a2883613608565b92506000611a76600089898080601f016020809104026020016040519081016040528093929190818152602001838380828437600092019190915250929392505063ffffffff610853169050565b905060007f00000000000000000000000000000000000000000000000000000000000000006001600160a01b031663972fdd26836040518263ffffffff1660e01b8152600401611ac69190614ddf565b602060405180830381600087803b158015611ae057600080fd5b505af1158015611af4573d6000803e3d6000fd5b505050506040513d601f19601f82011682018060405250810190611b18919061484a565b90506001600160a01b038116611b405760405162461bcd60e51b815260040161035190614ed4565b83611bc8576000816001600160a01b03168a8a604051611b61929190614c2d565b600060405180830381855af49150503d8060008114611b9c576040519150601f19603f3d011682016040523d82523d6000602084013e611ba1565b606091505b5050905080611bc25760405162461bcd60e51b815260040161035190615317565b50611ed8565b3415611d03576000806000611be087348a60006137a2565b9250925092506000846001600160a01b0316848e8e604051611c03929190614c2d565b60006040518083038185875af1925050503d8060008114611c40576040519150601f19603f3d011682016040523d82523d6000602084013e611c45565b606091505b5050905080611c665760405162461bcd60e51b815260040161035190615317565b611cec8a338c6001600160a01b03166370a08231306040518263ffffffff1660e01b8152600401611c979190614cfb565b60206040518083038186803b158015611caf57600080fd5b505afa158015611cc3573d6000803e3d6000fd5b505050506040513d601f19601f82011682018060405250810190611ce79190614bc2565b61419d565b611cfa60008b8b8686613c39565b50505050611ed8565b6040516370a0823160e01b81526000906001600160a01b038916906370a0823190611d32903390600401614cfb565b60206040518083038186803b158015611d4a57600080fd5b505afa158015611d5e573d6000803e3d6000fd5b505050506040513d601f19601f82011682018060405250810190611d829190614bc2565b90506000826001600160a01b03168b8b604051611da0929190614c2d565b600060405180830381855af49150503d8060008114611ddb576040519150601f19603f3d011682016040523d82523d6000602084013e611de0565b606091505b5050905080611e015760405162461bcd60e51b815260040161035190615317565b6040516370a0823160e01b81526000906001600160a01b038b16906370a0823190611e30903390600401614cfb565b60206040518083038186803b158015611e4857600080fd5b505afa158015611e5c573d6000803e3d6000fd5b505050506040513d601f19601f82011682018060405250810190611e809190614bc2565b9050808311611ea15760405162461bcd60e51b815260040161035190615006565b600080611ec089611eb8878663ffffffff61417516565b8c60016137a2565b9250925050611ed28c8c8c8585613c39565b50505050505b50506001805550505050505050565b611eef613d34565b6001600160a01b0316611f0061249d565b6001600160a01b031614611f265760405162461bcd60e51b8152600401610351906151fa565b610dbc614284565b6060611f3861182c565b15611f555760405162461bcd60e51b815260040161035190615115565b611f62602087018761482e565b6001600160a01b03811660009081526005602052604090205460ff16611f9a5760405162461bcd60e51b815260040161035190615272565b611faa604088016020890161482e565b336001600160a01b0382161415611fd35760405162461bcd60e51b81526004016103519061502d565b6001600160a01b037f0000000000000000000000000000000000000000000000000000000000000000168585600019810181811061200d57fe5b9050602002016020810190612022919061482e565b6001600160a01b0316146120485760405162461bcd60e51b81526004016103519061513f565b600061205d6109c260408b0160208c0161482e565b905060008061207e61207560608d0160408e016149c8565b8b8560016137a2565b90935091506120e2905061209560208d018d61482e565b6120a983610f9c8e8763ffffffff613c1416565b8a8a80806020026020016040519081016040528093929190818152602001838360200280828437600092019190915250613da992505050565b9550886120fa82610f9c858a600081518110610f8657fe5b11156121185760405162461bcd60e51b81526004016103519061509b565b61216e8888600081811061212857fe5b905060200201602081019061213d919061482e565b336121548e6000016020810190610b3d919061482e565b8960008151811061216157fe5b60200260200101516142e5565b6121ba61217e60208d018d61482e565b878a8a80806020026020016040519081016040528093929190818152602001838360200280828437600092019190915250309250613a93915050565b7f00000000000000000000000000000000000000000000000000000000000000006001600160a01b0316632e1a7d4d876001895103815181106121f957fe5b60200260200101516040518263ffffffff1660e01b815260040161221d919061544a565b600060405180830381600087803b15801561223757600080fd5b505af115801561224b573d6000803e3d6000fd5b50505050612259338b613eac565b600061226b838363ffffffff613c1416565b1115612286576122866000898960001981018181106111fe57fe5b505050505095945050505050565b606061229e61182c565b156122bb5760405162461bcd60e51b815260040161035190615115565b6122c8602087018761482e565b6001600160a01b03811660009081526005602052604090205460ff166123005760405162461bcd60e51b815260040161035190615272565b612310604088016020890161482e565b336001600160a01b03821614156123395760405162461bcd60e51b81526004016103519061502d565b600061234e6109c260408b0160208c0161482e565b90506000808061237061236760608e0160408f016149c8565b8c8660006137a2565b91945092509050612387610a0060208e018e61482e565b9650898760018951038151811061239a57fe5b602002602001015110156123c05760405162461bcd60e51b815260040161035190614fbf565b612431898960008181106123d057fe5b90506020020160208101906123e5919061482e565b3361242b8f60000160208101906123fc919061482e565b8d8d600081811061240957fe5b905060200201602081019061241e919061482e565b8e8e6001818110610b6c57fe5b866142e5565b612441610c2060208e018e61482e565b6000612453838363ffffffff613c1416565b111561248e5761248e8989600081811061246957fe5b905060200201602081019061247e919061482e565b8a8a6000198101818110610c8957fe5b50505050505095945050505050565b6000546001600160a01b031690565b60025460405163493f44bd60e11b81526000916201000090046001600160a01b03169063927e897a906124e3908590600401614cfb565b60206040518083038186803b1580156124fb57600080fd5b505afa15801561250f573d6000803e3d6000fd5b505050506040513d601f19601f8201168201806040525081019061089091906149e4565b606061253d61182c565b1561255a5760405162461bcd60e51b815260040161035190615115565b612567602087018761482e565b6001600160a01b03811660009081526005602052604090205460ff1661259f5760405162461bcd60e51b815260040161035190615272565b6125af604088016020890161482e565b336001600160a01b03821614156125d85760405162461bcd60e51b81526004016103519061502d565b60006125ed6109c260408b0160208c0161482e565b90506126396125ff60208b018b61482e565b89888880806020026020016040519081016040528093929190818152602001838360200280828437600092019190915250613da992505050565b9350600080612651610f4e60608d0160408e016149c8565b92509250508861266c82610f9c858a600081518110610f8657fe5b111561268a5760405162461bcd60e51b81526004016103519061509b565b61269a8888600081811061212857fe5b6126aa61115960208d018d61482e565b60006126bc838363ffffffff613c1416565b111561228657612286888860008181106126d257fe5b90506020020160208101906126e7919061482e565b898960001981018181106111fe57fe5b7f000000000000000000000000000000000000000000000000000000000000000081565b6003546001600160a01b031681565b612732613d34565b6001600160a01b031661274361249d565b6001600160a01b0316146127695760405162461bcd60e51b8152600401610351906151fa565b6001600160a01b03831660009081526005602052604090205460ff16156127a25760405162461bcd60e51b815260040161035190615404565b6001600160a01b0383166000908152600560209081526040808320805460ff19166001179055600690915290206127da9083836146fd565b507f18191c6cb9d1bb0cd78a863c5efffb51200f41513b93a678d368156b26d7cc948360405161280a9190614cfb565b60405180910390a1505050565b61281f613d34565b6001600160a01b031661283061249d565b6001600160a01b0316146128565760405162461bcd60e51b8152600401610351906151fa565b6001600160a01b0384166000908152600560209081526040808320805460ff19168515151790556006909152902061288f9084846146fd565b507fd3e17274581b648825e308eb9fca7b795aa9ca651ee0953b1f66dd35cbc09978846040516128bf9190614cfb565b60405180910390a150505050565b6128d5613d34565b6001600160a01b03166128e661249d565b6001600160a01b03161461290c5760405162461bcd60e51b8152600401610351906151fa565b600380546001600160a01b0319166001600160a01b0383161790556040517f27aae5db36d94179909d019ae0b1ac7c16d96d953148f63c0f6a0a9c8ead79ee90610d55908390614cfb565b61295f613d34565b6001600160a01b031661297061249d565b6001600160a01b0316146129965760405162461bcd60e51b8152600401610351906151fa565b6002805461ffff191661ffff83161790556040517fc8d25ca8616825eb60e022dde2d5ec038bdac6dd1bd8bba3fb5f74de553d062890610d5590839061543b565b600254604051633444fbf160e21b81526000916201000090046001600160a01b03169063d113efc490612a0e908590600401614cfb565b60206040518083038186803b158015612a2657600080fd5b505afa158015612a3a573d6000803e3d6000fd5b505050506040513d601f19601f82011682018060405250810190610890919061484a565b61271081565b612a6c613d34565b6001600160a01b0316612a7d61249d565b6001600160a01b031614612aa35760405162461bcd60e51b8152600401610351906151fa565b6127108161ffff161115612ac95760405162461bcd60e51b8152600401610351906152a9565b6003805461ffff60a01b1916600160a01b61ffff8416021790556040517f2e8b87e2b3dff0b7b11ce73a61e3bb94498159c531480d9abf1307014b650af990610d5590839061543b565b612b1b613d34565b6001600160a01b0316612b2c61249d565b6001600160a01b031614612b525760405162461bcd60e51b8152600401610351906151fa565b6003805460ff60b01b1916600160b01b831515021790556040517f13a5d968457cb650b136b77bb4a3ff25f31b92939f2d8df0010911117b7ba9e090610d55908390614dd4565b612ba161182c565b15612bbe5760405162461bcd60e51b815260040161035190615115565b612bcb602086018661482e565b6001600160a01b03811660009081526005602052604090205460ff16612c035760405162461bcd60e51b815260040161035190615272565b612c13604087016020880161482e565b336001600160a01b0382161415612c3c5760405162461bcd60e51b81526004016103519061502d565b6000612c516109c260408a0160208b0161482e565b905060008080612c73612c6a60608d0160408e016149c8565b8b8660006137a2565b925092509250612cb588886000818110612c8957fe5b9050602002016020810190612c9e919061482e565b3361242b8e6000016020810190610b3d919061482e565b600088886000198101818110612cc757fe5b9050602002016020810190612cdc919061482e565b6001600160a01b03166370a08231336040518263ffffffff1660e01b8152600401612d079190614cfb565b60206040518083038186803b158015612d1f57600080fd5b505afa158015612d33573d6000803e3d6000fd5b505050506040513d601f19601f82011682018060405250810190612d579190614bc2565b9050612d6961159e60208e018e61482e565b89612d7e828b8b60001981018181106115ee57fe5b1015612d9c5760405162461bcd60e51b815260040161035190614fbf565b6000612dae848463ffffffff613c1416565b1115612de957612de989896000818110612dc457fe5b9050602002016020810190612dd9919061482e565b8a8a60001981018181106116d557fe5b505050505050505050505050565b612dff61182c565b15612e1c5760405162461bcd60e51b815260040161035190615115565b612e29602086018661482e565b6001600160a01b03811660009081526005602052604090205460ff16612e615760405162461bcd60e51b815260040161035190615272565b612e71604087016020880161482e565b336001600160a01b0382161415612e9a5760405162461bcd60e51b81526004016103519061502d565b6001600160a01b037f00000000000000000000000000000000000000000000000000000000000000001684846000198101818110612ed457fe5b9050602002016020810190612ee9919061482e565b6001600160a01b031614612f0f5760405162461bcd60e51b81526004016103519061513f565b6000612f246109c260408a0160208b0161482e565b9050612f9185856000818110612f3657fe5b9050602002016020810190612f4b919061482e565b33612f8b612f5c60208d018d61482e565b89896000818110612f6957fe5b9050602002016020810190612f7e919061482e565b8a8a6001818110610b6c57fe5b8a6142e5565b612fdc612fa160208a018a61482e565b868680806020026020016040519081016040528093929190818152602001838360200280828437600092019190915250309250613f39915050565b6040516370a0823160e01b81526000906001600160a01b037f000000000000000000000000000000000000000000000000000000000000000016906370a082319061302b903090600401614cfb565b60206040518083038186803b15801561304357600080fd5b505afa158015613057573d6000803e3d6000fd5b505050506040513d601f19601f8201168201806040525081019061307b9190614bc2565b604051632e1a7d4d60e01b81529091506001600160a01b037f00000000000000000000000000000000000000000000000000000000000000001690632e1a7d4d906130ca90849060040161544a565b600060405180830381600087803b1580156130e457600080fd5b505af11580156130f8573d6000803e3d6000fd5b5050505060008060006131208c604001602081019061311791906149c8565b858760006137a2565b925092509250898310156131465760405162461bcd60e51b815260040161035190614f88565b6131503384613eac565b6000613162838363ffffffff613c1416565b1115612de957612de960008a8a600019810181811061317d57fe5b9050602002016020810190613192919061482e565b878585613c39565b6131a2613d34565b6001600160a01b03166131b361249d565b6001600160a01b0316146131d95760405162461bcd60e51b8152600401610351906151fa565b6001600160a01b0381166131ff5760405162461bcd60e51b815260040161035190614f0b565b600080546040516001600160a01b03808516939216917f8be0079c531659141344cd1fd0a4f28419497f9722a3daafe3b4186f6b6457e091a3600080546001600160a01b0319166001600160a01b0392909216919091179055565b600354600160a01b900461ffff1681565b606061327561182c565b156132925760405162461bcd60e51b815260040161035190615115565b61329f602087018761482e565b6001600160a01b03811660009081526005602052604090205460ff166132d75760405162461bcd60e51b815260040161035190615272565b6132e7604088016020890161482e565b336001600160a01b03821614156133105760405162461bcd60e51b81526004016103519061502d565b6001600160a01b037f0000000000000000000000000000000000000000000000000000000000000000168585600019810181811061334a57fe5b905060200201602081019061335f919061482e565b6001600160a01b0316146133855760405162461bcd60e51b81526004016103519061513f565b600061339a6109c260408b0160208c0161482e565b90506133e66133ac60208b018b61482e565b898888808060200260200160405190810160405280939291908181526020018383602002808284376000920191909152506138f792505050565b93506000808061341f6133ff60608e0160408f016149c8565b8860018a51038151811061340f57fe5b60200260200101518660006137a2565b925092509250898310156134455760405162461bcd60e51b815260040161035190614fbf565b61348e8989600081811061345557fe5b905060200201602081019061346a919061482e565b336134818f60000160208101906123fc919061482e565b8a60008151811061216157fe5b6134da61349e60208e018e61482e565b888b8b80806020026020016040519081016040528093929190818152602001838360200280828437600092019190915250309250613a93915050565b7f00000000000000000000000000000000000000000000000000000000000000006001600160a01b0316632e1a7d4d8860018a51038151811061351957fe5b60200260200101516040518263ffffffff1660e01b815260040161353d919061544a565b600060405180830381600087803b15801561355757600080fd5b505af115801561356b573d6000803e3d6000fd5b505050506135793384613eac565b600061358b838363ffffffff613c1416565b111561248e5761248e60008a8a6000198101818110610c8957fe5b6060632800659560e01b8484846040516024016135c593929190614e07565b60408051601f198184030181529190526020810180516001600160e01b03166001600160e01b03199093169290921790915290509392505050565b805160208201fd5b60025460405163493f44bd60e11b81526000913391620100009091046001600160a01b03169063927e897a90613642908490600401614cfb565b60206040518083038186803b15801561365a57600080fd5b505afa15801561366e573d6000803e3d6000fd5b505050506040513d601f19601f8201168201806040525081019061369291906149e4565b1580156136a757506001600160a01b03831615155b15613716576002546040516364e0b15960e01b8152620100009091046001600160a01b0316906364e0b159906136e39084908790600401614d39565b600060405180830381600087803b1580156136fd57600080fd5b505af1158015613711573d6000803e3d6000fd5b505050505b600254604051633444fbf160e21b8152620100009091046001600160a01b03169063d113efc49061374b908490600401614cfb565b60206040518083038186803b15801561376357600080fd5b505afa158015613777573d6000803e3d6000fd5b505050506040513d601f19601f8201168201806040525081019061379b919061484a565b9392505050565b6000806000866137b4578592506138ed565b8315613806576002548693506137ff90849061167e906137e1906127109061ffff1663ffffffff61417516565b6137f38761271063ffffffff6143d616565b9063ffffffff61441016565b915061383b565b60025461382690612710906137f390899061ffff1663ffffffff6143d616565b9150613838868363ffffffff61417516565b92505b6001600160a01b0385161580159061385c5750600354600160b01b900460ff165b156138e9576001600160a01b03851660009081526004602052604081205461ffff1661389557600354600160a01b900461ffff166138b3565b6001600160a01b03861660009081526004602052604090205461ffff165b90506138cf6127106137f38561ffff851663ffffffff6143d616565b91506138e1838363ffffffff61417516565b9250506138ed565b5060005b9450945094915050565b606060028251101561391b5760405162461bcd60e51b81526004016103519061513f565b815167ffffffffffffffff8111801561393357600080fd5b5060405190808252806020026020018201604052801561395d578160200160208202803683370190505b509050828160008151811061396e57fe5b60200260200101818152505060005b6001835103811015613a06576000806139c08786858151811061399c57fe5b60200260200101518786600101815181106139b357fe5b6020026020010151614442565b915091506139e28484815181106139d357fe5b6020026020010151838361451b565b8484600101815181106139f157fe5b6020908102919091010152505060010161397d565b509392505050565b6000806000613a1d85856145c1565b91509150858282604051602001613a35929190614c06565b60408051601f1981840301815282825280516020918201206001600160a01b038b1660009081526006835292909220613a719493909101614c59565b60408051601f1981840301815291905280516020909101209695505050505050565b60005b6001835103811015613c0d57600080848381518110613ab157fe5b6020026020010151858460010181518110613ac857fe5b6020026020010151915091506000613ae083836145c1565b5090506000878560010181518110613af457fe5b60200260200101519050600080836001600160a01b0316866001600160a01b031614613b2257826000613b26565b6000835b91509150600060028a51038810613b3d5788613b5e565b613b5e8c878c8b60020181518110613b5157fe5b6020026020010151613a0e565b9050613b6b8c8888613a0e565b6001600160a01b031663022c0d9f84848460006040519080825280601f01601f191660200182016040528015613ba8576020820181803683370190505b506040518563ffffffff1660e01b8152600401613bc89493929190615453565b600060405180830381600087803b158015613be257600080fd5b505af1158015613bf6573d6000803e3d6000fd5b505060019099019850613a96975050505050505050565b5050505050565b60008282018381101561379b5760405162461bcd60e51b815260040161035190614f51565b6001600160a01b038516613cba57600354613c5d906001600160a01b031683613eac565b8015613cb557613c6d8382613eac565b826001600160a01b03167f84ff16114f882a54c4748006b5e4b0b7ac76bd911d135145a6d063fd76a38a4033868885604051613cac9493929190614d0f565b60405180910390a25b613c0d565b600354613cd490869033906001600160a01b0316856142e5565b8015613c0d57613ce6853385846142e5565b826001600160a01b03167f84ff16114f882a54c4748006b5e4b0b7ac76bd911d135145a6d063fd76a38a4033868885604051613d259493929190614d0f565b60405180910390a25050505050565b3390565b613d4061182c565b613d5c5760405162461bcd60e51b815260040161035190614e60565b6000805460ff60a01b191690557f5db9ee0a495bf2e6ff9c91a7834c1ba4fdd244a5e8aa4e537bd38aeae4b073aa613d92613d34565b604051613d9f9190614cfb565b60405180910390a1565b6060600282511015613dcd5760405162461bcd60e51b81526004016103519061513f565b815167ffffffffffffffff81118015613de557600080fd5b50604051908082528060200260200182016040528015613e0f578160200160208202803683370190505b5090508281600183510381518110613e2357fe5b60209081029190910101528151600019015b8015613a0657600080613e6587866001860381518110613e5157fe5b60200260200101518786815181106139b357fe5b91509150613e87848481518110613e7857fe5b6020026020010151838361464b565b846001850381518110613e9657fe5b6020908102919091010152505060001901613e35565b604080516000808252602082019092526001600160a01b038416908390604051613ed69190614c3d565b60006040518083038185875af1925050503d8060008114613f13576040519150601f19603f3d011682016040523d82523d6000602084013e613f18565b606091505b50509050806118275760405162461bcd60e51b815260040161035190615346565b60005b600183510381101561416f57600080848381518110613f5757fe5b6020026020010151858460010181518110613f6e57fe5b6020026020010151915091506000613f8683836145c1565b5090506000613f96888585613a0e565b9050600080600080846001600160a01b0316630902f1ac6040518163ffffffff1660e01b815260040160606040518083038186803b158015613fd757600080fd5b505afa158015613feb573d6000803e3d6000fd5b505050506040513d601f19601f8201168201806040525081019061400f9190614b4c565b506001600160701b031691506001600160701b03169150600080876001600160a01b03168a6001600160a01b03161461404957828461404c565b83835b91509150614080828b6001600160a01b03166370a082318a6040518263ffffffff1660e01b815260040161162e9190614cfb565b955061408d86838361451b565b945050505050600080856001600160a01b0316886001600160a01b0316146140b7578260006140bb565b6000835b91509150600060028c51038a106140d2578a6140e6565b6140e68d898e8d60020181518110613b5157fe5b6040805160008152602081019182905263022c0d9f60e01b9091529091506001600160a01b0387169063022c0d9f906141289086908690869060248101615453565b600060405180830381600087803b15801561414257600080fd5b505af1158015614156573d6000803e3d6000fd5b50506001909b019a50613f3c9950505050505050505050565b50505050565b6000828211156141975760405162461bcd60e51b815260040161035190615064565b50900390565b60006060846001600160a01b031663a9059cbb85856040516024016141c3929190614d77565b6040516020818303038152906040529060e01b6020820180516001600160e01b0383818316178352505050506040516141fc9190614c3d565b6000604051808303816000865af19150503d8060008114614239576040519150601f19603f3d011682016040523d82523d6000602084013e61423e565b606091505b509150915081801561426857508051158061426857508080602001905181019061426891906149e4565b613c0d5760405162461bcd60e51b815260040161035190614e29565b61428c61182c565b156142a95760405162461bcd60e51b815260040161035190615115565b6000805460ff60a01b1916600160a01b1790557f62e78cea01bee320cd4e420270b5ea74000d11b0c9f74754ebdbfc544b05a258613d92613d34565b60006060856001600160a01b03166323b872dd86868660405160240161430d93929190614d53565b6040516020818303038152906040529060e01b6020820180516001600160e01b0383818316178352505050506040516143469190614c3d565b6000604051808303816000865af19150503d8060008114614383576040519150601f19603f3d011682016040523d82523d6000602084013e614388565b606091505b50915091508180156143b25750805115806143b25750808060200190518101906143b291906149e4565b6143ce5760405162461bcd60e51b815260040161035190615389565b505050505050565b6000826143e557506000610890565b828202828482816143f257fe5b041461379b5760405162461bcd60e51b8152600401610351906151b9565b60008082116144315760405162461bcd60e51b8152600401610351906150de565b81838161443a57fe5b049392505050565b600080600061445185856145c1565b509050600080614462888888613a0e565b6001600160a01b0316630902f1ac6040518163ffffffff1660e01b815260040160606040518083038186803b15801561449a57600080fd5b505afa1580156144ae573d6000803e3d6000fd5b505050506040513d601f19601f820116820180604052508101906144d29190614b4c565b506001600160701b031691506001600160701b03169150826001600160a01b0316876001600160a01b03161461450957808261450c565b81815b90999098509650505050505050565b600080841161453c5760405162461bcd60e51b815260040161035190614e8e565b60008311801561454c5750600082115b6145685760405162461bcd60e51b81526004016103519061522f565b600061457c856126f263ffffffff6143d616565b90506000614590828563ffffffff6143d616565b905060006145aa83610f9c8861271063ffffffff6143d616565b90508082816145b557fe5b04979650505050505050565b600080826001600160a01b0316846001600160a01b031614156145f65760405162461bcd60e51b815260040161035190615176565b826001600160a01b0316846001600160a01b031610614616578284614619565b83835b90925090506001600160a01b0382166146445760405162461bcd60e51b8152600401610351906152e0565b9250929050565b600080841161466c5760405162461bcd60e51b815260040161035190614fbf565b60008311801561467c5750600082115b6146985760405162461bcd60e51b81526004016103519061522f565b60006146bc6127106146b0868863ffffffff6143d616565b9063ffffffff6143d616565b905060006146d66126f26146b0868963ffffffff61417516565b90506146f360018284816146e657fe5b049063ffffffff613c1416565b9695505050505050565b828054600181600116156101000203166002900490600052602060002090601f016020900481019282601f1061473e5782800160ff1982351617855561476b565b8280016001018555821561476b579182015b8281111561476b578235825591602001919060010190614750565b5061477792915061477b565b5090565b61183a91905b808211156147775760008155600101614781565b60008083601f8401126147a6578182fd5b50813567ffffffffffffffff8111156147bd578182fd5b602083019150836020808302850101111561464457600080fd5b60008083601f8401126147e8578182fd5b50813567ffffffffffffffff8111156147ff578182fd5b60208301915083602082850101111561464457600080fd5b600060608284031215614828578081fd5b50919050565b60006020828403121561483f578081fd5b813561379b816154b8565b60006020828403121561485b578081fd5b815161379b816154b8565b60008060408385031215614878578081fd5b8235614883816154b8565b946020939093013593505050565b6000806000606084860312156148a5578081fd5b83356148b0816154b8565b925060208401356148c0816154b8565b929592945050506040919091013590565b6000806000604084860312156148e5578283fd5b83356148f0816154b8565b9250602084013567ffffffffffffffff81111561490b578283fd5b614917868287016147d7565b9497909650939450505050565b60008060008060608587031215614939578081fd5b8435614944816154b8565b9350602085013567ffffffffffffffff81111561495f578182fd5b61496b878288016147d7565b909450925050604085013561497f816154d0565b939692955090935050565b6000806040838503121561499c578182fd5b82356149a7816154b8565b9150602083013561ffff811681146149bd578182fd5b809150509250929050565b6000602082840312156149d9578081fd5b813561379b816154d0565b6000602082840312156149f5578081fd5b815161379b816154d0565b60008060008060008060a08789031215614a18578182fd5b863567ffffffffffffffff811115614a2e578283fd5b614a3a89828a016147d7565b9097509550506020870135614a4e816154b8565b93506040870135614a5e816154b8565b92506060870135614a6e816154b8565b91506080870135614a7e816154d0565b809150509295509295509295565b60008060008060a08587031215614aa1578182fd5b614aab8686614817565b935060608501359250608085013567ffffffffffffffff811115614acd578283fd5b614ad987828801614795565b95989497509550505050565b600080600080600060c08688031215614afc578283fd5b614b068787614817565b9450606086013593506080860135925060a086013567ffffffffffffffff811115614b2f578182fd5b614b3b88828901614795565b969995985093965092949392505050565b600080600060608486031215614b60578081fd5b8351614b6b816154de565b6020850151909350614b7c816154de565b604085015190925063ffffffff81168114614b95578182fd5b809150509250925092565b600060208284031215614bb1578081fd5b813561ffff8116811461379b578182fd5b600060208284031215614bd3578081fd5b5051919050565b60008151808452614bf281602086016020860161548c565b601f01601f19169290920160200192915050565b6bffffffffffffffffffffffff19606093841b811682529190921b16601482015260280190565b6000828483379101908152919050565b60008251614c4f81846020870161548c565b9190910192915050565b600060ff60f81b825260016bffffffffffffffffffffffff198660601b1681840152846015840152603582855483811660008114614c9e5760018114614cb957614ced565b60ff1982168785015260028204607f16870184019250614ced565b60028204614cc689615480565b875b82811015614ce45781548a820188015290870190602001614cc8565b50508701840192505b509098975050505050505050565b6001600160a01b0391909116815260200190565b6001600160a01b039485168152928416602084015292166040820152606081019190915260800190565b6001600160a01b0392831681529116602082015260400190565b6001600160a01b039384168152919092166020820152604081019190915260600190565b6001600160a01b03929092168252602082015260400190565b6020808252825182820181905260009190848201906040850190845b81811015614dc857835183529284019291840191600101614dac565b50909695505050505050565b901515815260200190565b6001600160e01b031991909116815260200190565b60006020825261379b6020830184614bda565b6060810160088510614e1557fe5b938152602081019290925260409091015290565b6020808252601f908201527f5472616e7366657248656c7065723a205452414e534645525f4641494c454400604082015260600190565b60208082526014908201527314185d5cd8589b194e881b9bdd081c185d5cd95960621b604082015260600190565b60208082526026908201527f466c6f6f7a526f757465723a20494e53554646494349454e545f494e5055545f604082015265105353d5539560d21b606082015260800190565b6020808252601e908201527f466c6f6f7a526f757465723a204e4f5f494d504c454d454e544154494f4e0000604082015260600190565b60208082526026908201527f4f776e61626c653a206e6577206f776e657220697320746865207a65726f206160408201526564647265737360d01b606082015260800190565b6020808252601b908201527f536166654d6174683a206164646974696f6e206f766572666c6f770000000000604082015260600190565b60208082526019908201527f466c6f6f7a526f757465723a204c4f575f534c49505041474500000000000000604082015260600190565b60208082526027908201527f466c6f6f7a526f757465723a20494e53554646494349454e545f4f555450555460408201526617d05353d5539560ca1b606082015260800190565b6020808252600d908201526c24a72b20a624a22faa27a5a2a760991b604082015260600190565b6020808252601a908201527f466c6f6f7a526f757465723a2053454c465f524546455252414c000000000000604082015260600190565b6020808252601e908201527f536166654d6174683a207375627472616374696f6e206f766572666c6f770000604082015260600190565b60208082526023908201527f466c6f6f7a526f757465723a204558434553534956455f494e5055545f414d4f60408201526215539560ea1b606082015260800190565b6020808252601a908201527f536166654d6174683a206469766973696f6e206279207a65726f000000000000604082015260600190565b60208082526010908201526f14185d5cd8589b194e881c185d5cd95960821b604082015260600190565b60208082526019908201527f466c6f6f7a526f757465723a20494e56414c49445f5041544800000000000000604082015260600190565b60208082526023908201527f50616e63616b654c6962726172793a204944454e544943414c5f41444452455360408201526253455360e81b606082015260800190565b60208082526021908201527f536166654d6174683a206d756c7469706c69636174696f6e206f766572666c6f6040820152607760f81b606082015260800190565b6020808252818101527f4f776e61626c653a2063616c6c6572206973206e6f7420746865206f776e6572604082015260600190565b60208082526023908201527f466c6f6f7a526f757465723a20494e53554646494349454e545f4c495155494460408201526249545960e81b606082015260800190565b6020808252601c908201527f466c6f6f7a526f757465723a20494e56414c49445f464143544f525900000000604082015260600190565b60208082526019908201527f466c6f6f7a526f757465723a20494e56414c49445f5241544500000000000000604082015260600190565b6020808252601c908201527f50616e63616b654c6962726172793a205a45524f5f4144445245535300000000604082015260600190565b602080825260159082015274119b1bdbde949bdd5d195c8e881491559154951151605a1b604082015260600190565b60208082526023908201527f5472616e7366657248656c7065723a204554485f5452414e534645525f46414960408201526213115160ea1b606082015260800190565b60208082526024908201527f5472616e7366657248656c7065723a205452414e534645525f46524f4d5f46416040820152631253115160e21b606082015260800190565b6020808252601f908201527f5265656e7472616e637947756172643a207265656e7472616e742063616c6c00604082015260600190565b60208082526018908201527f466c6f6f7a526f757465723a204143544956455f464f524b0000000000000000604082015260600190565b61ffff91909116815260200190565b90815260200190565b600085825284602083015260018060a01b0384166040830152608060608301526146f36080830184614bda565b60009081526020902090565b60005b838110156154a757818101518382015260200161548f565b8381111561416f5750506000910152565b6001600160a01b03811681146154cd57600080fd5b50565b80151581146154cd57600080fd5b6001600160701b03811681146154cd57600080fdfea2646970667358221220516fd6e300620bcea5f028e915a42e8cbdbdd94678c1430c3c64944b7fd3d89964736f6c63430006060033",
  "devdoc": {
    "methods": {
      "constructor": {
        "details": "construct this contract",
        "params": {
          "_WETH": "address of WETH.",
          "_feeReceiver": "address that receives protocol fees",
          "_referralRegistry": "address of referral registry that stores referral anchors",
          "_referralRewardRate": "percentage of swapFee that are paid out as rewards",
          "_swapFee": "nominator for swapFee. Denominator = 10000",
          "_zeroEx": "address of zeroX proxy contract to forward swaps"
        }
      },
      "executeZeroExSwap(bytes,address,address,address,bool)": {
        "details": "Executes a swap on 0x API",
        "params": {
          "data": "calldata expected by data field on 0x API (https://0x.org/docs/api#response-1)",
          "fee": "boolean if fee should be applied or not",
          "referee": "address of referee for msg.sender, 0x adress if none",
          "tokenIn": "the address of currency to buy - 0x address for ETH",
          "tokenOut": "the address of currency to sell - 0x address for ETH"
        }
      },
      "getUserReferee(address)": {
        "details": "returns the referee for a given user - 0x address if none"
      },
      "hasUserReferee(address)": {
        "details": "returns if the given user has been referred or not"
      },
      "owner()": {
        "details": "Returns the address of the current owner."
      },
      "pause()": {
        "details": "lets the admin pause this contract"
      },
      "paused()": {
        "details": "Returns true if the contract is paused, and false otherwise."
      },
      "registerFork(address,bytes)": {
        "details": "lets the admin register an Uniswap style fork"
      },
      "renounceOwnership()": {
        "details": "Leaves the contract without owner. It will not be possible to call `onlyOwner` functions anymore. Can only be called by the current owner.     * NOTE: Renouncing ownership will leave the contract without an owner, thereby removing any functionality that is only available to the owner."
      },
      "swapETHForExactTokens((address,address,bool),uint256,address[])": {
        "details": "execute swap directly on Uniswap/Pancake/...",
        "params": {
          "amountOut": "expected amount of tokens out",
          "path": "Sell path.",
          "swapData": "stores the swapData information"
        },
        "returns": {
          "amounts": "amounts"
        }
      },
      "swapExactETHForTokens((address,address,bool),uint256,address[])": {
        "details": "execute swap directly on Uniswap/Pancake & simular forks",
        "params": {
          "amountOutMin": "minimum tokens to receive",
          "path": "Sell path.",
          "swapData": "stores the swapData information"
        },
        "returns": {
          "amounts": "amounts"
        }
      },
      "swapExactETHForTokensSupportingFeeOnTransferTokens((address,address,bool),uint256,address[])": {
        "details": "execute swap directly on Uniswap/Pancake/...",
        "params": {
          "amountOutMin": "minimum expected tokens to receive",
          "path": "Sell path.",
          "swapData": "stores the swapData information"
        }
      },
      "swapExactTokensForETH((address,address,bool),uint256,uint256,address[])": {
        "details": "execute swap directly on Uniswap/Pancake/...",
        "params": {
          "amountIn": "amount if tokens In",
          "amountOutMin": "minimum tokens to receive",
          "path": "Sell path.",
          "swapData": "stores the swapData information"
        },
        "returns": {
          "amounts": "amounts"
        }
      },
      "swapExactTokensForETHSupportingFeeOnTransferTokens((address,address,bool),uint256,uint256,address[])": {
        "details": "execute swap directly on Uniswap/Pancake/...",
        "params": {
          "amountIn": "amount of tokensIn",
          "amountOutMin": "minimum tokens to receive",
          "path": "Sell path.",
          "swapData": "stores the swapData information"
        }
      },
      "swapExactTokensForTokens((address,address,bool),uint256,uint256,address[])": {
        "details": "execute swap directly on Uniswap/Pancake/...",
        "params": {
          "amountIn": "amount if tokens In",
          "amountOutMin": "minimum tokens to receive",
          "path": "Sell path.",
          "swapData": "stores the swapData information"
        },
        "returns": {
          "amounts": "amounts"
        }
      },
      "swapExactTokensForTokensSupportingFeeOnTransferTokens((address,address,bool),uint256,uint256,address[])": {
        "details": "execute swap directly on Uniswap/Pancake/...",
        "params": {
          "amountIn": "amount if tokens In",
          "amountOutMin": "minimum tokens to receive",
          "path": "Sell path.",
          "swapData": "stores the swapData information"
        }
      },
      "swapTokensForExactETH((address,address,bool),uint256,uint256,address[])": {
        "details": "execute swap directly on Uniswap/Pancake/...",
        "params": {
          "amountInMax": "maximum tokens to send",
          "amountOut": "expected tokens to receive",
          "path": "Sell path.",
          "swapData": "stores the swapData information"
        },
        "returns": {
          "amounts": "amounts"
        }
      },
      "swapTokensForExactTokens((address,address,bool),uint256,uint256,address[])": {
        "details": "execute swap directly on Uniswap/Pancake/...",
        "params": {
          "amountInMax": "maximum tokens to send",
          "amountOut": "expected tokens to receive",
          "path": "Sell path.",
          "swapData": "stores the swapData information"
        },
        "returns": {
          "amounts": "amounts"
        }
      },
      "transferOwnership(address)": {
        "details": "Transfers ownership of the contract to a new account (`newOwner`). Can only be called by the current owner."
      },
      "unpause()": {
        "details": "lets the admin unpause this contract"
      },
      "updateCustomReferralRewardRate(address,uint16)": {
        "details": "lets the admin set a custom referral rate"
      },
      "updateFeeReceiver(address)": {
        "details": "lets the admin update which address receives the protocol fees"
      },
      "updateFork(address,bytes,bool)": {
        "details": "lets the admin update an Uniswap style fork"
      },
      "updateReferralRegistry(address)": {
        "details": "lets the admin set a new referral registry"
      },
      "updateReferralRewardRate(uint16)": {
        "details": "lets the admin update the referral reward rate"
      },
      "updateReferralsActivated(bool)": {
        "details": "lets the admin update the status of the referral system"
      },
      "updateSwapFee(uint16)": {
        "details": "lets the admin update the swapFee nominator"
      },
      "withdrawERC20Token(address,address,uint256)": {
        "details": "lets the admin withdraw ERC20s from the contract."
      },
      "withdrawETH(address,uint256)": {
        "details": "lets the admin withdraw ETH from the contract."
      }
    }
  },
  "userdoc": {
    "methods": {}
  },
  "storageLayout": {
    "storage": [
      {
        "astId": 592,
        "contract": "contracts/FloozMultichainRouter.sol:FloozMultichainRouter",
        "label": "_owner",
        "offset": 0,
        "slot": "0",
        "type": "t_address"
      },
      {
        "astId": 1168,
        "contract": "contracts/FloozMultichainRouter.sol:FloozMultichainRouter",
        "label": "_paused",
        "offset": 20,
        "slot": "0",
        "type": "t_bool"
      },
      {
        "astId": 1253,
        "contract": "contracts/FloozMultichainRouter.sol:FloozMultichainRouter",
        "label": "_status",
        "offset": 0,
        "slot": "1",
        "type": "t_uint256"
      },
      {
        "astId": 1910,
        "contract": "contracts/FloozMultichainRouter.sol:FloozMultichainRouter",
        "label": "swapFee",
        "offset": 0,
        "slot": "2",
        "type": "t_uint16"
      },
      {
        "astId": 1916,
        "contract": "contracts/FloozMultichainRouter.sol:FloozMultichainRouter",
        "label": "referralRegistry",
        "offset": 2,
        "slot": "2",
        "type": "t_contract(IReferralRegistry)8220"
      },
      {
        "astId": 1918,
        "contract": "contracts/FloozMultichainRouter.sol:FloozMultichainRouter",
        "label": "feeReceiver",
        "offset": 0,
        "slot": "3",
        "type": "t_address_payable"
      },
      {
        "astId": 1920,
        "contract": "contracts/FloozMultichainRouter.sol:FloozMultichainRouter",
        "label": "referralRewardRate",
        "offset": 20,
        "slot": "3",
        "type": "t_uint16"
      },
      {
        "astId": 1922,
        "contract": "contracts/FloozMultichainRouter.sol:FloozMultichainRouter",
        "label": "referralsActivated",
        "offset": 22,
        "slot": "3",
        "type": "t_bool"
      },
      {
        "astId": 1926,
        "contract": "contracts/FloozMultichainRouter.sol:FloozMultichainRouter",
        "label": "customReferralRewardRate",
        "offset": 0,
        "slot": "4",
        "type": "t_mapping(t_address,t_uint16)"
      },
      {
        "astId": 1930,
        "contract": "contracts/FloozMultichainRouter.sol:FloozMultichainRouter",
        "label": "forkActivated",
        "offset": 0,
        "slot": "5",
        "type": "t_mapping(t_address,t_bool)"
      },
      {
        "astId": 1934,
        "contract": "contracts/FloozMultichainRouter.sol:FloozMultichainRouter",
        "label": "forkInitCode",
        "offset": 0,
        "slot": "6",
        "type": "t_mapping(t_address,t_bytes_storage)"
      }
    ],
    "types": {
      "t_address": {
        "encoding": "inplace",
        "label": "address",
        "numberOfBytes": "20"
      },
      "t_address_payable": {
        "encoding": "inplace",
        "label": "address payable",
        "numberOfBytes": "20"
      },
      "t_bool": {
        "encoding": "inplace",
        "label": "bool",
        "numberOfBytes": "1"
      },
      "t_bytes_storage": {
        "encoding": "bytes",
        "label": "bytes",
        "numberOfBytes": "32"
      },
      "t_contract(IReferralRegistry)8220": {
        "encoding": "inplace",
        "label": "contract IReferralRegistry",
        "numberOfBytes": "20"
      },
      "t_mapping(t_address,t_bool)": {
        "encoding": "mapping",
        "key": "t_address",
        "label": "mapping(address => bool)",
        "numberOfBytes": "32",
        "value": "t_bool"
      },
      "t_mapping(t_address,t_bytes_storage)": {
        "encoding": "mapping",
        "key": "t_address",
        "label": "mapping(address => bytes)",
        "numberOfBytes": "32",
        "value": "t_bytes_storage"
      },
      "t_mapping(t_address,t_uint16)": {
        "encoding": "mapping",
        "key": "t_address",
        "label": "mapping(address => uint16)",
        "numberOfBytes": "32",
        "value": "t_uint16"
      },
      "t_uint16": {
        "encoding": "inplace",
        "label": "uint16",
        "numberOfBytes": "2"
      },
      "t_uint256": {
        "encoding": "inplace",
        "label": "uint256",
        "numberOfBytes": "32"
      }
    }
  }
}