{
  "address": "0x129444679e9A1Dd3142bc51Bf9b6e2d80a6088A2",
  "abi": [
    {
      "inputs": [
        {
          "internalType": "address",
          "name": "_WETH",
          "type": "address"
        },
        {
          "internalType": "uint16",
          "name": "_swapFee",
          "type": "uint16"
        },
        {
          "internalType": "uint16",
          "name": "_referralRewardRate",
          "type": "uint16"
        },
        {
          "internalType": "address payable",
          "name": "_feeReceiver",
          "type": "address"
        },
        {
          "internalType": "contract IReferralRegistry",
          "name": "_referralRegistry",
          "type": "address"
        },
        {
          "internalType": "address payable",
          "name": "_zeroEx",
          "type": "address"
        },
        {
          "internalType": "address payable",
          "name": "_oneInch",
          "type": "address"
        }
      ],
      "stateMutability": "nonpayable",
      "type": "constructor"
    },
    {
      "anonymous": false,
      "inputs": [
        {
          "indexed": true,
          "internalType": "address",
          "name": "account",
          "type": "address"
        },
        {
          "indexed": false,
          "internalType": "uint16",
          "name": "referralRate",
          "type": "uint16"
        }
      ],
      "name": "CustomReferralRewardRateUpdated",
      "type": "event"
    },
    {
      "anonymous": false,
      "inputs": [
        {
          "indexed": false,
          "internalType": "address payable",
          "name": "feeReceiver",
          "type": "address"
        }
      ],
      "name": "FeeReceiverUpdated",
      "type": "event"
    },
    {
      "anonymous": false,
      "inputs": [
        {
          "indexed": false,
          "internalType": "address",
          "name": "factory",
          "type": "address"
        }
      ],
      "name": "ForkCreated",
      "type": "event"
    },
    {
      "anonymous": false,
      "inputs": [
        {
          "indexed": false,
          "internalType": "address",
          "name": "factory",
          "type": "address"
        }
      ],
      "name": "ForkUpdated",
      "type": "event"
    },
    {
      "anonymous": false,
      "inputs": [
        {
          "indexed": true,
          "internalType": "address",
          "name": "previousOwner",
          "type": "address"
        },
        {
          "indexed": true,
          "internalType": "address",
          "name": "newOwner",
          "type": "address"
        }
      ],
      "name": "OwnershipTransferred",
      "type": "event"
    },
    {
      "anonymous": false,
      "inputs": [
        {
          "indexed": false,
          "internalType": "address",
          "name": "account",
          "type": "address"
        }
      ],
      "name": "Paused",
      "type": "event"
    },
    {
      "anonymous": false,
      "inputs": [
        {
          "indexed": false,
          "internalType": "address",
          "name": "referralRegistry",
          "type": "address"
        }
      ],
      "name": "ReferralRegistryUpdated",
      "type": "event"
    },
    {
      "anonymous": false,
      "inputs": [
        {
          "indexed": false,
          "internalType": "address",
          "name": "from",
          "type": "address"
        },
        {
          "indexed": true,
          "internalType": "address",
          "name": "to",
          "type": "address"
        },
        {
          "indexed": false,
          "internalType": "address",
          "name": "tokenOut",
          "type": "address"
        },
        {
          "indexed": false,
          "internalType": "address",
          "name": "tokenReward",
          "type": "address"
        },
        {
          "indexed": false,
          "internalType": "uint256",
          "name": "amount",
          "type": "uint256"
        }
      ],
      "name": "ReferralRewardPaid",
      "type": "event"
    },
    {
      "anonymous": false,
      "inputs": [
        {
          "indexed": false,
          "internalType": "uint16",
          "name": "referralRewardRate",
          "type": "uint16"
        }
      ],
      "name": "ReferralRewardRateUpdated",
      "type": "event"
    },
    {
      "anonymous": false,
      "inputs": [
        {
          "indexed": false,
          "internalType": "bool",
          "name": "activated",
          "type": "bool"
        }
      ],
      "name": "ReferralsActivatedUpdated",
      "type": "event"
    },
    {
      "anonymous": false,
      "inputs": [
        {
          "indexed": false,
          "internalType": "uint16",
          "name": "swapFee",
          "type": "uint16"
        }
      ],
      "name": "SwapFeeUpdated",
      "type": "event"
    },
    {
      "anonymous": false,
      "inputs": [
        {
          "indexed": false,
          "internalType": "address",
          "name": "account",
          "type": "address"
        }
      ],
      "name": "Unpaused",
      "type": "event"
    },
    {
      "inputs": [],
      "name": "FEE_DENOMINATOR",
      "outputs": [
        {
          "internalType": "uint256",
          "name": "",
          "type": "uint256"
        }
      ],
      "stateMutability": "view",
      "type": "function"
    },
    {
      "inputs": [],
      "name": "WETH",
      "outputs": [
        {
          "internalType": "address",
          "name": "",
          "type": "address"
        }
      ],
      "stateMutability": "view",
      "type": "function"
    },
    {
      "inputs": [
        {
          "internalType": "address",
          "name": "",
          "type": "address"
        }
      ],
      "name": "customReferralRewardRate",
      "outputs": [
        {
          "internalType": "uint16",
          "name": "",
          "type": "uint16"
        }
      ],
      "stateMutability": "view",
      "type": "function"
    },
    {
      "inputs": [
        {
          "internalType": "bytes",
          "name": "data",
          "type": "bytes"
        },
        {
          "internalType": "address",
          "name": "fromToken",
          "type": "address"
        },
        {
          "internalType": "address",
          "name": "toToken",
          "type": "address"
        },
        {
          "internalType": "uint256",
          "name": "amountFrom",
          "type": "uint256"
        },
        {
          "internalType": "address",
          "name": "referee",
          "type": "address"
        },
        {
          "internalType": "uint256",
          "name": "minOut",
          "type": "uint256"
        },
        {
          "internalType": "bool",
          "name": "fee",
          "type": "bool"
        }
      ],
      "name": "executeOneInchSwap",
      "outputs": [],
      "stateMutability": "payable",
      "type": "function"
    },
    {
      "inputs": [
        {
          "internalType": "bytes",
          "name": "data",
          "type": "bytes"
        },
        {
          "internalType": "address",
          "name": "fromToken",
          "type": "address"
        },
        {
          "internalType": "address",
          "name": "toToken",
          "type": "address"
        },
        {
          "internalType": "uint256",
          "name": "amountFrom",
          "type": "uint256"
        },
        {
          "internalType": "address",
          "name": "referee",
          "type": "address"
        },
        {
          "internalType": "uint256",
          "name": "minOut",
          "type": "uint256"
        },
        {
          "internalType": "bool",
          "name": "fee",
          "type": "bool"
        }
      ],
      "name": "executeZeroExSwap",
      "outputs": [],
      "stateMutability": "payable",
      "type": "function"
    },
    {
      "inputs": [],
      "name": "feeReceiver",
      "outputs": [
        {
          "internalType": "address payable",
          "name": "",
          "type": "address"
        }
      ],
      "stateMutability": "view",
      "type": "function"
    },
    {
      "inputs": [
        {
          "internalType": "address",
          "name": "",
          "type": "address"
        }
      ],
      "name": "forkActivated",
      "outputs": [
        {
          "internalType": "bool",
          "name": "",
          "type": "bool"
        }
      ],
      "stateMutability": "view",
      "type": "function"
    },
    {
      "inputs": [
        {
          "internalType": "address",
          "name": "",
          "type": "address"
        }
      ],
      "name": "forkInitCode",
      "outputs": [
        {
          "internalType": "bytes",
          "name": "",
          "type": "bytes"
        }
      ],
      "stateMutability": "view",
      "type": "function"
    },
    {
      "inputs": [
        {
          "internalType": "address",
          "name": "user",
          "type": "address"
        }
      ],
      "name": "getUserReferee",
      "outputs": [
        {
          "internalType": "address",
          "name": "",
          "type": "address"
        }
      ],
      "stateMutability": "view",
      "type": "function"
    },
    {
      "inputs": [
        {
          "internalType": "address",
          "name": "user",
          "type": "address"
        }
      ],
      "name": "hasUserReferee",
      "outputs": [
        {
          "internalType": "bool",
          "name": "",
          "type": "bool"
        }
      ],
      "stateMutability": "view",
      "type": "function"
    },
    {
      "inputs": [],
      "name": "oneInch",
      "outputs": [
        {
          "internalType": "address payable",
          "name": "",
          "type": "address"
        }
      ],
      "stateMutability": "view",
      "type": "function"
    },
    {
      "inputs": [],
      "name": "owner",
      "outputs": [
        {
          "internalType": "address",
          "name": "",
          "type": "address"
        }
      ],
      "stateMutability": "view",
      "type": "function"
    },
    {
      "inputs": [],
      "name": "pause",
      "outputs": [],
      "stateMutability": "nonpayable",
      "type": "function"
    },
    {
      "inputs": [],
      "name": "paused",
      "outputs": [
        {
          "internalType": "bool",
          "name": "",
          "type": "bool"
        }
      ],
      "stateMutability": "view",
      "type": "function"
    },
    {
      "inputs": [],
      "name": "referralRegistry",
      "outputs": [
        {
          "internalType": "contract IReferralRegistry",
          "name": "",
          "type": "address"
        }
      ],
      "stateMutability": "view",
      "type": "function"
    },
    {
      "inputs": [],
      "name": "referralRewardRate",
      "outputs": [
        {
          "internalType": "uint16",
          "name": "",
          "type": "uint16"
        }
      ],
      "stateMutability": "view",
      "type": "function"
    },
    {
      "inputs": [],
      "name": "referralsActivated",
      "outputs": [
        {
          "internalType": "bool",
          "name": "",
          "type": "bool"
        }
      ],
      "stateMutability": "view",
      "type": "function"
    },
    {
      "inputs": [
        {
          "internalType": "address",
          "name": "_factory",
          "type": "address"
        },
        {
          "internalType": "bytes",
          "name": "_initCode",
          "type": "bytes"
        }
      ],
      "name": "registerFork",
      "outputs": [],
      "stateMutability": "nonpayable",
      "type": "function"
    },
    {
      "inputs": [],
      "name": "renounceOwnership",
      "outputs": [],
      "stateMutability": "nonpayable",
      "type": "function"
    },
    {
      "inputs": [
        {
          "components": [
            {
              "internalType": "address",
              "name": "fork",
              "type": "address"
            },
            {
              "internalType": "address",
              "name": "referee",
              "type": "address"
            },
            {
              "internalType": "bool",
              "name": "fee",
              "type": "bool"
            }
          ],
          "internalType": "struct MultichainRouter.SwapData",
          "name": "swapData",
          "type": "tuple"
        },
        {
          "internalType": "uint256",
          "name": "amountOut",
          "type": "uint256"
        },
        {
          "internalType": "address[]",
          "name": "path",
          "type": "address[]"
        }
      ],
      "name": "swapETHForExactTokens",
      "outputs": [
        {
          "internalType": "uint256[]",
          "name": "amounts",
          "type": "uint256[]"
        }
      ],
      "stateMutability": "payable",
      "type": "function"
    },
    {
      "inputs": [
        {
          "components": [
            {
              "internalType": "address",
              "name": "fork",
              "type": "address"
            },
            {
              "internalType": "address",
              "name": "referee",
              "type": "address"
            },
            {
              "internalType": "bool",
              "name": "fee",
              "type": "bool"
            }
          ],
          "internalType": "struct MultichainRouter.SwapData",
          "name": "swapData",
          "type": "tuple"
        },
        {
          "internalType": "uint256",
          "name": "amountOutMin",
          "type": "uint256"
        },
        {
          "internalType": "address[]",
          "name": "path",
          "type": "address[]"
        }
      ],
      "name": "swapExactETHForTokens",
      "outputs": [
        {
          "internalType": "uint256[]",
          "name": "amounts",
          "type": "uint256[]"
        }
      ],
      "stateMutability": "payable",
      "type": "function"
    },
    {
      "inputs": [
        {
          "components": [
            {
              "internalType": "address",
              "name": "fork",
              "type": "address"
            },
            {
              "internalType": "address",
              "name": "referee",
              "type": "address"
            },
            {
              "internalType": "bool",
              "name": "fee",
              "type": "bool"
            }
          ],
          "internalType": "struct MultichainRouter.SwapData",
          "name": "swapData",
          "type": "tuple"
        },
        {
          "internalType": "uint256",
          "name": "amountOutMin",
          "type": "uint256"
        },
        {
          "internalType": "address[]",
          "name": "path",
          "type": "address[]"
        }
      ],
      "name": "swapExactETHForTokensSupportingFeeOnTransferTokens",
      "outputs": [],
      "stateMutability": "payable",
      "type": "function"
    },
    {
      "inputs": [
        {
          "components": [
            {
              "internalType": "address",
              "name": "fork",
              "type": "address"
            },
            {
              "internalType": "address",
              "name": "referee",
              "type": "address"
            },
            {
              "internalType": "bool",
              "name": "fee",
              "type": "bool"
            }
          ],
          "internalType": "struct MultichainRouter.SwapData",
          "name": "swapData",
          "type": "tuple"
        },
        {
          "internalType": "uint256",
          "name": "amountIn",
          "type": "uint256"
        },
        {
          "internalType": "uint256",
          "name": "amountOutMin",
          "type": "uint256"
        },
        {
          "internalType": "address[]",
          "name": "path",
          "type": "address[]"
        }
      ],
      "name": "swapExactTokensForETH",
      "outputs": [
        {
          "internalType": "uint256[]",
          "name": "amounts",
          "type": "uint256[]"
        }
      ],
      "stateMutability": "nonpayable",
      "type": "function"
    },
    {
      "inputs": [
        {
          "components": [
            {
              "internalType": "address",
              "name": "fork",
              "type": "address"
            },
            {
              "internalType": "address",
              "name": "referee",
              "type": "address"
            },
            {
              "internalType": "bool",
              "name": "fee",
              "type": "bool"
            }
          ],
          "internalType": "struct MultichainRouter.SwapData",
          "name": "swapData",
          "type": "tuple"
        },
        {
          "internalType": "uint256",
          "name": "amountIn",
          "type": "uint256"
        },
        {
          "internalType": "uint256",
          "name": "amountOutMin",
          "type": "uint256"
        },
        {
          "internalType": "address[]",
          "name": "path",
          "type": "address[]"
        }
      ],
      "name": "swapExactTokensForETHSupportingFeeOnTransferTokens",
      "outputs": [],
      "stateMutability": "nonpayable",
      "type": "function"
    },
    {
      "inputs": [
        {
          "components": [
            {
              "internalType": "address",
              "name": "fork",
              "type": "address"
            },
            {
              "internalType": "address",
              "name": "referee",
              "type": "address"
            },
            {
              "internalType": "bool",
              "name": "fee",
              "type": "bool"
            }
          ],
          "internalType": "struct MultichainRouter.SwapData",
          "name": "swapData",
          "type": "tuple"
        },
        {
          "internalType": "uint256",
          "name": "amountIn",
          "type": "uint256"
        },
        {
          "internalType": "uint256",
          "name": "amountOutMin",
          "type": "uint256"
        },
        {
          "internalType": "address[]",
          "name": "path",
          "type": "address[]"
        }
      ],
      "name": "swapExactTokensForTokens",
      "outputs": [
        {
          "internalType": "uint256[]",
          "name": "amounts",
          "type": "uint256[]"
        }
      ],
      "stateMutability": "nonpayable",
      "type": "function"
    },
    {
      "inputs": [
        {
          "components": [
            {
              "internalType": "address",
              "name": "fork",
              "type": "address"
            },
            {
              "internalType": "address",
              "name": "referee",
              "type": "address"
            },
            {
              "internalType": "bool",
              "name": "fee",
              "type": "bool"
            }
          ],
          "internalType": "struct MultichainRouter.SwapData",
          "name": "swapData",
          "type": "tuple"
        },
        {
          "internalType": "uint256",
          "name": "amountIn",
          "type": "uint256"
        },
        {
          "internalType": "uint256",
          "name": "amountOutMin",
          "type": "uint256"
        },
        {
          "internalType": "address[]",
          "name": "path",
          "type": "address[]"
        }
      ],
      "name": "swapExactTokensForTokensSupportingFeeOnTransferTokens",
      "outputs": [],
      "stateMutability": "nonpayable",
      "type": "function"
    },
    {
      "inputs": [],
      "name": "swapFee",
      "outputs": [
        {
          "internalType": "uint16",
          "name": "",
          "type": "uint16"
        }
      ],
      "stateMutability": "view",
      "type": "function"
    },
    {
      "inputs": [
        {
          "components": [
            {
              "internalType": "address",
              "name": "fork",
              "type": "address"
            },
            {
              "internalType": "address",
              "name": "referee",
              "type": "address"
            },
            {
              "internalType": "bool",
              "name": "fee",
              "type": "bool"
            }
          ],
          "internalType": "struct MultichainRouter.SwapData",
          "name": "swapData",
          "type": "tuple"
        },
        {
          "internalType": "uint256",
          "name": "amountOut",
          "type": "uint256"
        },
        {
          "internalType": "uint256",
          "name": "amountInMax",
          "type": "uint256"
        },
        {
          "internalType": "address[]",
          "name": "path",
          "type": "address[]"
        }
      ],
      "name": "swapTokensForExactETH",
      "outputs": [
        {
          "internalType": "uint256[]",
          "name": "amounts",
          "type": "uint256[]"
        }
      ],
      "stateMutability": "nonpayable",
      "type": "function"
    },
    {
      "inputs": [
        {
          "components": [
            {
              "internalType": "address",
              "name": "fork",
              "type": "address"
            },
            {
              "internalType": "address",
              "name": "referee",
              "type": "address"
            },
            {
              "internalType": "bool",
              "name": "fee",
              "type": "bool"
            }
          ],
          "internalType": "struct MultichainRouter.SwapData",
          "name": "swapData",
          "type": "tuple"
        },
        {
          "internalType": "uint256",
          "name": "amountOut",
          "type": "uint256"
        },
        {
          "internalType": "uint256",
          "name": "amountInMax",
          "type": "uint256"
        },
        {
          "internalType": "address[]",
          "name": "path",
          "type": "address[]"
        }
      ],
      "name": "swapTokensForExactTokens",
      "outputs": [
        {
          "internalType": "uint256[]",
          "name": "amounts",
          "type": "uint256[]"
        }
      ],
      "stateMutability": "nonpayable",
      "type": "function"
    },
    {
      "inputs": [
        {
          "internalType": "address",
          "name": "newOwner",
          "type": "address"
        }
      ],
      "name": "transferOwnership",
      "outputs": [],
      "stateMutability": "nonpayable",
      "type": "function"
    },
    {
      "inputs": [],
      "name": "unpause",
      "outputs": [],
      "stateMutability": "nonpayable",
      "type": "function"
    },
    {
      "inputs": [
        {
          "internalType": "address",
          "name": "account",
          "type": "address"
        },
        {
          "internalType": "uint16",
          "name": "referralRate",
          "type": "uint16"
        }
      ],
      "name": "updateCustomReferralRewardRate",
      "outputs": [
        {
          "internalType": "uint256",
          "name": "",
          "type": "uint256"
        }
      ],
      "stateMutability": "nonpayable",
      "type": "function"
    },
    {
      "inputs": [
        {
          "internalType": "address payable",
          "name": "newFeeReceiver",
          "type": "address"
        }
      ],
      "name": "updateFeeReceiver",
      "outputs": [],
      "stateMutability": "nonpayable",
      "type": "function"
    },
    {
      "inputs": [
        {
          "internalType": "address",
          "name": "_factory",
          "type": "address"
        },
        {
          "internalType": "bytes",
          "name": "_initCode",
          "type": "bytes"
        },
        {
          "internalType": "bool",
          "name": "_activated",
          "type": "bool"
        }
      ],
      "name": "updateFork",
      "outputs": [],
      "stateMutability": "nonpayable",
      "type": "function"
    },
    {
      "inputs": [
        {
          "internalType": "address",
          "name": "newReferralRegistry",
          "type": "address"
        }
      ],
      "name": "updateReferralRegistry",
      "outputs": [],
      "stateMutability": "nonpayable",
      "type": "function"
    },
    {
      "inputs": [
        {
          "internalType": "uint16",
          "name": "newReferralRewardRate",
          "type": "uint16"
        }
      ],
      "name": "updateReferralRewardRate",
      "outputs": [],
      "stateMutability": "nonpayable",
      "type": "function"
    },
    {
      "inputs": [
        {
          "internalType": "bool",
          "name": "newReferralsActivated",
          "type": "bool"
        }
      ],
      "name": "updateReferralsActivated",
      "outputs": [],
      "stateMutability": "nonpayable",
      "type": "function"
    },
    {
      "inputs": [
        {
          "internalType": "uint16",
          "name": "newSwapFee",
          "type": "uint16"
        }
      ],
      "name": "updateSwapFee",
      "outputs": [],
      "stateMutability": "nonpayable",
      "type": "function"
    },
    {
      "inputs": [
        {
          "internalType": "address",
          "name": "token",
          "type": "address"
        },
        {
          "internalType": "address",
          "name": "to",
          "type": "address"
        },
        {
          "internalType": "uint256",
          "name": "amount",
          "type": "uint256"
        }
      ],
      "name": "withdrawERC20Token",
      "outputs": [],
      "stateMutability": "nonpayable",
      "type": "function"
    },
    {
      "inputs": [
        {
          "internalType": "address payable",
          "name": "to",
          "type": "address"
        },
        {
          "internalType": "uint256",
          "name": "amount",
          "type": "uint256"
        }
      ],
      "name": "withdrawETH",
      "outputs": [],
      "stateMutability": "nonpayable",
      "type": "function"
    },
    {
      "inputs": [],
      "name": "zeroEx",
      "outputs": [
        {
          "internalType": "address payable",
          "name": "",
          "type": "address"
        }
      ],
      "stateMutability": "view",
      "type": "function"
    },
    {
      "stateMutability": "payable",
      "type": "receive"
    }
  ],
  "transactionHash": "0xf5795f6782e98f25c1f800fc3e9ef6b1e82d8c79c6cff879d04ba44a14b51375",
  "args": [
    "0x0d500b1d8e8ef31e21c99d1db9a6444d3adf1270",
    50,
    1000,
    "0x61eF55fF50f0Bc0141E477745fF0c0Ce1Ae664aF",
    "0x5271eca224B21Def908D70c762D90777B0e4f8B8",
    "0xdef1c0ded9bec7f1a1670819833240f027b25eff",
    "0x1111111254fb6c44bAC0beD2854e76F90643097d"
  ],
  "solcInputHash": "a3069635db967a81a0e388a0c643eac6",
  "bytecode": "0x60e06040523480156200001157600080fd5b506040516200606538038062006065833981016040819052620000349162000144565b6000620000496001600160e01b036200014016565b600080546001600160a01b0319166001600160a01b0383169081178255604051929350917f8be0079c531659141344cd1fd0a4f28419497f9722a3daafe3b4186f6b6457e0908290a3506000805460ff60a01b1916905560018055606096871b6001600160601b0319908116608052600280546003805461ffff1990921661ffff9a8b161762010000600160b01b031916620100006001600160a01b03988916021790925593891b821660a0529190971b90961660c052600160b01b61ffff60a01b19909116600160a01b9490951693909302939093176001600160a01b03191692169190911760ff60b01b191617905562000218565b3390565b600080600080600080600060e0888a0312156200015f578283fd5b87516200016c81620001ee565b60208901519097506200017f8162000207565b6040890151909650620001928162000207565b6060890151909550620001a581620001ee565b6080890151909450620001b881620001ee565b60a0890151909350620001cb81620001ee565b60c0890151909250620001de81620001ee565b8091505092959891949750929550565b6001600160a01b03811681146200020457600080fd5b50565b61ffff811681146200020457600080fd5b60805160601c60a05160601c60c05160601c615d90620002d5600039806106f6528061085352806108d752806109d85280610b6f5280610bf2525080611bee5280612a095280612c745280612cf55280612ed952806131185280613199525080610d7a5280610eb25280610f3f52806112a252806114055280611492528061175752806117fd52806118765280611edb52806120ba52806125fd52806137a452806138f652806139955280613c1a5280613ddc5250615d906000f3fe60806040526004361061024a5760003560e01c806388b2868711610139578063caa9b5cb116100b6578063e96b2f501161007a578063e96b2f501461063f578063ea043e271461065f578063f01e063a1461067f578063f2fde38b1461069f578063fe4ad446146106bf578063fe7d4f34146106d457610251565b8063caa9b5cb146105b7578063d113efc4146105d7578063d6242cf1146105f7578063d73792a91461060a578063e5ae0c321461061f57610251565b8063ad5c4648116100fd578063ad5c46481461052d578063b3f0067414610542578063bdf7710814610557578063c00a315914610577578063c69bebe41461059757610251565b806388b28687146104985780638d18300a146104b85780638da5cb5b146104d8578063927e897a146104ed578063a7a94fde1461050d57610251565b80634e627e62116101c75780635c975abb1161018b5780635c975abb1461040c578063692247c314610421578063715018a61461044e5780637cde0c74146104635780638456cb591461048357610251565b80634e627e62146103735780634fb5df081461038857806352ab413b146103b557806354cf2aeb146103ca57806357d1b31b146103ec57610251565b80632f9120051161020e5780632f912005146102f85780633f4ba83a146103185780633f9f5ecb1461032d5780634782f779146103405780634ba4ecb11461036057610251565b8063045c08d5146102565780630bc0456814610281578063279c186814610296578063279f3291146102b65780632def48b1146102d857610251565b3661025157005b600080fd5b34801561026257600080fd5b5061026b6106f4565b60405161027891906155c1565b60405180910390f35b61029461028f366004615292565b610718565b005b6102a96102a4366004615331565b610cd3565b6040516102789190615656565b3480156102c257600080fd5b506102cb6110f1565b604051610278919061569a565b3480156102e457600080fd5b506102946102f33660046150c2565b611101565b34801561030457600080fd5b506102cb6103133660046150c2565b61119d565b34801561032457600080fd5b506102946111b2565b6102a961033b366004615331565b6111fb565b34801561034c57600080fd5b5061029461035b3660046150fa565b611665565b61029461036e366004615331565b6116b2565b34801561037f57600080fd5b5061026b611b3c565b34801561039457600080fd5b506103a86103a33660046150c2565b611b51565b60405161027891906156a5565b3480156103c157600080fd5b5061026b611bec565b3480156103d657600080fd5b506103df611c10565b6040516102789190615ca2565b3480156103f857600080fd5b50610294610407366004615125565b611c1a565b34801561041857600080fd5b506102cb611c69565b34801561042d57600080fd5b5061044161043c36600461521c565b611c7a565b6040516102789190615cb1565b34801561045a57600080fd5b50610294611d46565b34801561046f57600080fd5b506103df61047e3660046150c2565b611dcf565b34801561048f57600080fd5b50610294611de5565b3480156104a457600080fd5b506102a96104b3366004615389565b611e2c565b3480156104c457600080fd5b506102a96104d3366004615389565b612192565b3480156104e457600080fd5b5061026b61239b565b3480156104f957600080fd5b506102cb6105083660046150c2565b6123aa565b34801561051957600080fd5b506102a9610528366004615389565b612437565b34801561053957600080fd5b5061026b6125fb565b34801561054e57600080fd5b5061026b61261f565b34801561056357600080fd5b50610294610572366004615165565b61262e565b34801561058357600080fd5b506102946105923660046151b7565b61271b565b3480156105a357600080fd5b506102946105b23660046150c2565b6127d1565b3480156105c357600080fd5b506102946105d2366004615443565b61285b565b3480156105e357600080fd5b5061026b6105f23660046150c2565b6128db565b610294610605366004615292565b612962565b34801561061657600080fd5b5061044161335e565b34801561062b57600080fd5b5061029461063a366004615443565b613364565b34801561064b57600080fd5b5061029461065a36600461525a565b613413565b34801561066b57600080fd5b5061029461067a366004615389565b613499565b34801561068b57600080fd5b5061029461069a366004615389565b6136f7565b3480156106ab57600080fd5b506102946106ba3660046150c2565b613a9a565b3480156106cb57600080fd5b506103df613b5a565b3480156106e057600080fd5b506102a96106ef366004615389565b613b6b565b7f000000000000000000000000000000000000000000000000000000000000000081565b600260015414156107445760405162461bcd60e51b815260040161073b90615c39565b60405180910390fd5b6002600155610751611c69565b1561076e5760405162461bcd60e51b815260040161073b90615942565b82336001600160a01b03821614156107985760405162461bcd60e51b815260040161073b9061585a565b8161099e576001600160a01b038716156108d1576040516323b872dd60e01b81526001600160a01b038816906323b872dd906107dc90339030908a906004016155d5565b602060405180830381600087803b1580156107f657600080fd5b505af115801561080a573d6000803e3d6000fd5b505050506040513d601f19601f8201168201806040525081019061082e9190615276565b5060405163095ea7b360e01b81526001600160a01b0388169063095ea7b39061087d907f0000000000000000000000000000000000000000000000000000000000000000908990600401615623565b602060405180830381600087803b15801561089757600080fd5b505af11580156108ab573d6000803e3d6000fd5b505050506040513d601f19601f820116820180604052508101906108cf9190615276565b505b600060607f00000000000000000000000000000000000000000000000000000000000000006001600160a01b0316348c8c6040516109109291906154f3565b60006040518083038185875af1925050503d806000811461094d576040519150601f19603f3d011682016040523d82523d6000602084013e610952565b606091505b5091509150811561025157600081806020019051810190610973919061547d565b509050858110156109965760405162461bcd60e51b815260040161073b9061596c565b505050610cc4565b6000341180156109b557506001600160a01b038716155b15610ab05760008060006109cc8534896000613ea6565b925092509250600060607f00000000000000000000000000000000000000000000000000000000000000006001600160a01b0316858f8f604051610a119291906154f3565b60006040518083038185875af1925050503d8060008114610a4e576040519150601f19603f3d011682016040523d82523d6000602084013e610a53565b606091505b5091509150811561025157600081806020019051810190610a74919061547d565b50905088811015610a975760405162461bcd60e51b815260040161073b9061596c565b50610aa660008c8b8787613ffb565b5050505050610cc4565b6000806000610ac28589896000613ea6565b925092509250896001600160a01b03166323b872dd3330866040518463ffffffff1660e01b8152600401610af8939291906155d5565b602060405180830381600087803b158015610b1257600080fd5b505af1158015610b26573d6000803e3d6000fd5b505050506040513d601f19601f82011682018060405250810190610b4a9190615276565b5060405163095ea7b360e01b81526001600160a01b038b169063095ea7b390610b99907f0000000000000000000000000000000000000000000000000000000000000000908790600401615623565b602060405180830381600087803b158015610bb357600080fd5b505af1158015610bc7573d6000803e3d6000fd5b505050506040513d601f19601f82011682018060405250810190610beb9190615276565b50600060607f00000000000000000000000000000000000000000000000000000000000000006001600160a01b03168e8e604051610c2a9291906154f3565b6000604051808303816000865af19150503d8060008114610c67576040519150601f19603f3d011682016040523d82523d6000602084013e610c6c565b606091505b5091509150811561025157600081806020019051810190610c8d919061547d565b50905088811015610cb05760405162461bcd60e51b815260040161073b9061596c565b50610cbe8c8c8b8787613ffb565b50505050505b50506001805550505050505050565b6060610cdd611c69565b15610cfa5760405162461bcd60e51b815260040161073b90615942565b610d0760208601866150c2565b6001600160a01b03811660009081526005602052604090205460ff16610d3f5760405162461bcd60e51b815260040161073b90615ae2565b610d4f60408701602088016150c2565b336001600160a01b0382161415610d785760405162461bcd60e51b815260040161073b9061585a565b7f00000000000000000000000000000000000000000000000000000000000000006001600160a01b031685856000818110610daf57fe5b9050602002016020810190610dc491906150c2565b6001600160a01b031614610dea5760405162461bcd60e51b815260040161073b906159b3565b6000610e04610dff60408a0160208b016150c2565b6140f7565b905060008080610e26610e1d60608d0160408e0161525a565b34866000613ea6565b91945092509050610e77610e3d60208d018d6150c2565b848b8b8080602002602001604051908101604052809392919081815260200183836020028082843760009201919091525061429192505050565b96508987600189510381518110610e8a57fe5b60200260200101511015610eb05760405162461bcd60e51b815260040161073b90615813565b7f00000000000000000000000000000000000000000000000000000000000000006001600160a01b031663d0e30db088600081518110610eec57fe5b60200260200101516040518263ffffffff1660e01b81526004016000604051808303818588803b158015610f1f57600080fd5b505af1158015610f33573d6000803e3d6000fd5b50506001600160a01b037f000000000000000000000000000000000000000000000000000000000000000016925063a9059cbb9150610fc39050610f7a60208f018f6150c2565b8c8c6000818110610f8757fe5b9050602002016020810190610f9c91906150c2565b8d8d6001818110610fa957fe5b9050602002016020810190610fbe91906150c2565b6143a7565b89600081518110610fd057fe5b60200260200101516040518363ffffffff1660e01b8152600401610ff5929190615623565b602060405180830381600087803b15801561100f57600080fd5b505af1158015611023573d6000803e3d6000fd5b505050506040513d601f19601f820116820180604052508101906110479190615276565b61104d57fe5b61109961105d60208d018d6150c2565b888b8b8080602002602001604051908101604052809392919081815260200183836020028082843760009201919091525033925061442c915050565b60006110ab838363ffffffff6145a616565b11156110e3576110e360008a8a60001981018181106110c657fe5b90506020020160208101906110db91906150c2565b868585613ffb565b505050505050949350505050565b600354600160b01b900460ff1681565b6111096145cb565b6001600160a01b031661111a61239b565b6001600160a01b0316146111405760405162461bcd60e51b815260040161073b90615a6a565b6002805462010000600160b01b031916620100006001600160a01b038416021790556040517f9d4414af8d61d821c1ad25f0aadfa28aa386c452716a31fc1f7fdbd9b9d364dc906111929083906155c1565b60405180910390a150565b60056020526000908152604090205460ff1681565b6111ba6145cb565b6001600160a01b03166111cb61239b565b6001600160a01b0316146111f15760405162461bcd60e51b815260040161073b90615a6a565b6111f96145cf565b565b6060611205611c69565b156112225760405162461bcd60e51b815260040161073b90615942565b61122f60208601866150c2565b6001600160a01b03811660009081526005602052604090205460ff166112675760405162461bcd60e51b815260040161073b90615ae2565b61127760408701602088016150c2565b336001600160a01b03821614156112a05760405162461bcd60e51b815260040161073b9061585a565b7f00000000000000000000000000000000000000000000000000000000000000006001600160a01b0316858560008181106112d757fe5b90506020020160208101906112ec91906150c2565b6001600160a01b0316146113125760405162461bcd60e51b815260040161073b906159b3565b6000611327610dff60408a0160208b016150c2565b905061137361133960208a018a6150c2565b8888888080602002602001604051908101604052809392919081815260200183836020028082843760009201919091525061464092505050565b93506000806113a861138b60608c0160408d0161525a565b8760008151811061139857fe5b6020026020010151856001613ea6565b9250925050346113e5826113d9858a6000815181106113c357fe5b60200260200101516145a690919063ffffffff16565b9063ffffffff6145a616565b11156114035760405162461bcd60e51b815260040161073b906158c8565b7f00000000000000000000000000000000000000000000000000000000000000006001600160a01b031663d0e30db08760008151811061143f57fe5b60200260200101516040518263ffffffff1660e01b81526004016000604051808303818588803b15801561147257600080fd5b505af1158015611486573d6000803e3d6000fd5b50506001600160a01b037f000000000000000000000000000000000000000000000000000000000000000016925063a9059cbb91506114fc90506114cd60208e018e6150c2565b8b8b60008181106114da57fe5b90506020020160208101906114ef91906150c2565b8c8c6001818110610fa957fe5b8860008151811061150957fe5b60200260200101516040518363ffffffff1660e01b815260040161152e929190615623565b602060405180830381600087803b15801561154857600080fd5b505af115801561155c573d6000803e3d6000fd5b505050506040513d601f19601f820116820180604052508101906115809190615276565b61158657fe5b6115d261159660208c018c6150c2565b878a8a8080602002602001604051908101604052809392919081815260200183836020028082843760009201919091525033925061442c915050565b6115e7816113d984896000815181106113c357fe5b34111561160e5761160e33611607836113d9868b6000815181106113c357fe5b3403614742565b6000611620838363ffffffff6145a616565b11156116585761165860008989600019810181811061163b57fe5b905060200201602081019061165091906150c2565b858585613ffb565b5050505050949350505050565b61166d6145cb565b6001600160a01b031661167e61239b565b6001600160a01b0316146116a45760405162461bcd60e51b815260040161073b90615a6a565b6116ae8282614742565b5050565b6116ba611c69565b156116d75760405162461bcd60e51b815260040161073b90615942565b6116e460208501856150c2565b6001600160a01b03811660009081526005602052604090205460ff1661171c5760405162461bcd60e51b815260040161073b90615ae2565b61172c60408601602087016150c2565b336001600160a01b03821614156117555760405162461bcd60e51b815260040161073b9061585a565b7f00000000000000000000000000000000000000000000000000000000000000006001600160a01b03168484600081811061178c57fe5b90506020020160208101906117a191906150c2565b6001600160a01b0316146117c75760405162461bcd60e51b815260040161073b906159b3565b60006117dc610dff6040890160208a016150c2565b9050600080806117f5610e1d60608c0160408d0161525a565b9250925092507f00000000000000000000000000000000000000000000000000000000000000006001600160a01b031663d0e30db0846040518263ffffffff1660e01b81526004016000604051808303818588803b15801561185657600080fd5b505af115801561186a573d6000803e3d6000fd5b50506001600160a01b037f000000000000000000000000000000000000000000000000000000000000000016925063a9059cbb91506118b190506114cd60208e018e6150c2565b856040518363ffffffff1660e01b81526004016118cf929190615623565b602060405180830381600087803b1580156118e957600080fd5b505af11580156118fd573d6000803e3d6000fd5b505050506040513d601f19601f820116820180604052508101906119219190615276565b61192757fe5b60008888600019810181811061193957fe5b905060200201602081019061194e91906150c2565b6001600160a01b03166370a08231336040518263ffffffff1660e01b815260040161197991906155c1565b60206040518083038186803b15801561199157600080fd5b505afa1580156119a5573d6000803e3d6000fd5b505050506040513d601f19601f820116820180604052508101906119c99190615465565b9050611a166119db60208d018d6150c2565b8a8a808060200260200160405190810160405280939291908181526020018383602002808284376000920191909152503392506147cf915050565b89611ac7828b8b6000198101818110611a2b57fe5b9050602002016020810190611a4091906150c2565b6001600160a01b03166370a08231336040518263ffffffff1660e01b8152600401611a6b91906155c1565b60206040518083038186803b158015611a8357600080fd5b505afa158015611a97573d6000803e3d6000fd5b505050506040513d601f19601f82011682018060405250810190611abb9190615465565b9063ffffffff614a0b16565b1015611ae55760405162461bcd60e51b815260040161073b90615813565b6000611af7848463ffffffff6145a616565b1115611b2f57611b2f60008a8a6000198101818110611b1257fe5b9050602002016020810190611b2791906150c2565b878686613ffb565b5050505050505050505050565b6002546201000090046001600160a01b031681565b60066020908152600091825260409182902080548351601f600260001961010060018616150201909316929092049182018490048402810184019094528084529091830182828015611be45780601f10611bb957610100808354040283529160200191611be4565b820191906000526020600020905b815481529060010190602001808311611bc757829003601f168201915b505050505081565b7f000000000000000000000000000000000000000000000000000000000000000081565b60025461ffff1681565b611c226145cb565b6001600160a01b0316611c3361239b565b6001600160a01b031614611c595760405162461bcd60e51b815260040161073b90615a6a565b611c64838383614a33565b505050565b600054600160a01b900460ff165b90565b6000611c846145cb565b6001600160a01b0316611c9561239b565b6001600160a01b031614611cbb5760405162461bcd60e51b815260040161073b90615a6a565b6127108261ffff161115611ce15760405162461bcd60e51b815260040161073b90615b19565b6001600160a01b03831660008181526004602052604090819020805461ffff191661ffff8616179055517f9b182573c5f49d27d10ab506c71acd90f3b44f15c35eb906f9a40d9c35412e4190611d38908590615ca2565b60405180910390a292915050565b611d4e6145cb565b6001600160a01b0316611d5f61239b565b6001600160a01b031614611d855760405162461bcd60e51b815260040161073b90615a6a565b600080546040516001600160a01b03909116907f8be0079c531659141344cd1fd0a4f28419497f9722a3daafe3b4186f6b6457e0908390a3600080546001600160a01b0319169055565b60046020526000908152604090205461ffff1681565b611ded6145cb565b6001600160a01b0316611dfe61239b565b6001600160a01b031614611e245760405162461bcd60e51b815260040161073b90615a6a565b6111f9614b1a565b6060611e36611c69565b15611e535760405162461bcd60e51b815260040161073b90615942565b611e6060208701876150c2565b6001600160a01b03811660009081526005602052604090205460ff16611e985760405162461bcd60e51b815260040161073b90615ae2565b611ea860408801602089016150c2565b336001600160a01b0382161415611ed15760405162461bcd60e51b815260040161073b9061585a565b6001600160a01b037f00000000000000000000000000000000000000000000000000000000000000001685856000198101818110611f0b57fe5b9050602002016020810190611f2091906150c2565b6001600160a01b031614611f465760405162461bcd60e51b815260040161073b906159b3565b6000611f5b610dff60408b0160208c016150c2565b9050600080611f7c611f7360608d0160408e0161525a565b8b856001613ea6565b9093509150611fe09050611f9360208d018d6150c2565b611fa7836113d98e8763ffffffff6145a616565b8a8a8080602002602001604051908101604052809392919081815260200183836020028082843760009201919091525061464092505050565b955088611ff8826113d9858a6000815181106113c357fe5b11156120165760405162461bcd60e51b815260040161073b906158c8565b61206c8888600081811061202657fe5b905060200201602081019061203b91906150c2565b336120528e6000016020810190610f7a91906150c2565b8960008151811061205f57fe5b6020026020010151614b7b565b6120b861207c60208d018d6150c2565b878a8a8080602002602001604051908101604052809392919081815260200183836020028082843760009201919091525030925061442c915050565b7f00000000000000000000000000000000000000000000000000000000000000006001600160a01b0316632e1a7d4d876001895103815181106120f757fe5b60200260200101516040518263ffffffff1660e01b815260040161211b9190615cb1565b600060405180830381600087803b15801561213557600080fd5b505af1158015612149573d6000803e3d6000fd5b50505050612157338b614742565b6000612169838363ffffffff6145a616565b11156121845761218460008989600019810181811061163b57fe5b505050505095945050505050565b606061219c611c69565b156121b95760405162461bcd60e51b815260040161073b90615942565b6121c660208701876150c2565b6001600160a01b03811660009081526005602052604090205460ff166121fe5760405162461bcd60e51b815260040161073b90615ae2565b61220e60408801602089016150c2565b336001600160a01b03821614156122375760405162461bcd60e51b815260040161073b9061585a565b600061224c610dff60408b0160208c016150c2565b90506000808061226e61226560608e0160408f0161525a565b8c866000613ea6565b91945092509050612285610e3d60208e018e6150c2565b9650898760018951038151811061229857fe5b602002602001015110156122be5760405162461bcd60e51b815260040161073b90615813565b61232f898960008181106122ce57fe5b90506020020160208101906122e391906150c2565b336123298f60000160208101906122fa91906150c2565b8d8d600081811061230757fe5b905060200201602081019061231c91906150c2565b8e8e6001818110610fa957fe5b86614b7b565b61233f61105d60208e018e6150c2565b6000612351838363ffffffff6145a616565b111561238c5761238c8989600081811061236757fe5b905060200201602081019061237c91906150c2565b8a8a60001981018181106110c657fe5b50505050505095945050505050565b6000546001600160a01b031690565b60025460405163493f44bd60e11b81526000916201000090046001600160a01b03169063927e897a906123e19085906004016155c1565b60206040518083038186803b1580156123f957600080fd5b505afa15801561240d573d6000803e3d6000fd5b505050506040513d601f19601f820116820180604052508101906124319190615276565b92915050565b6060612441611c69565b1561245e5760405162461bcd60e51b815260040161073b90615942565b61246b60208701876150c2565b6001600160a01b03811660009081526005602052604090205460ff166124a35760405162461bcd60e51b815260040161073b90615ae2565b6124b360408801602089016150c2565b336001600160a01b03821614156124dc5760405162461bcd60e51b815260040161073b9061585a565b60006124f1610dff60408b0160208c016150c2565b905061253d61250360208b018b6150c2565b8988888080602002602001604051908101604052809392919081815260200183836020028082843760009201919091525061464092505050565b935060008061255561138b60608d0160408e0161525a565b925092505088612570826113d9858a6000815181106113c357fe5b111561258e5760405162461bcd60e51b815260040161073b906158c8565b61259e8888600081811061202657fe5b6125ae61159660208d018d6150c2565b60006125c0838363ffffffff6145a616565b111561218457612184888860008181106125d657fe5b90506020020160208101906125eb91906150c2565b8989600019810181811061163b57fe5b7f000000000000000000000000000000000000000000000000000000000000000081565b6003546001600160a01b031681565b6126366145cb565b6001600160a01b031661264761239b565b6001600160a01b03161461266d5760405162461bcd60e51b815260040161073b90615a6a565b6001600160a01b03831660009081526005602052604090205460ff16156126a65760405162461bcd60e51b815260040161073b90615c70565b6001600160a01b0383166000908152600560209081526040808320805460ff19166001179055600690915290206126de908383614f93565b507f18191c6cb9d1bb0cd78a863c5efffb51200f41513b93a678d368156b26d7cc948360405161270e91906155c1565b60405180910390a1505050565b6127236145cb565b6001600160a01b031661273461239b565b6001600160a01b03161461275a5760405162461bcd60e51b815260040161073b90615a6a565b6001600160a01b0384166000908152600560209081526040808320805460ff191685151517905560069091529020612793908484614f93565b507fd3e17274581b648825e308eb9fca7b795aa9ca651ee0953b1f66dd35cbc09978846040516127c391906155c1565b60405180910390a150505050565b6127d96145cb565b6001600160a01b03166127ea61239b565b6001600160a01b0316146128105760405162461bcd60e51b815260040161073b90615a6a565b600380546001600160a01b0319166001600160a01b0383161790556040517f27aae5db36d94179909d019ae0b1ac7c16d96d953148f63c0f6a0a9c8ead79ee906111929083906155c1565b6128636145cb565b6001600160a01b031661287461239b565b6001600160a01b03161461289a5760405162461bcd60e51b815260040161073b90615a6a565b6002805461ffff191661ffff83161790556040517fc8d25ca8616825eb60e022dde2d5ec038bdac6dd1bd8bba3fb5f74de553d062890611192908390615ca2565b600254604051633444fbf160e21b81526000916201000090046001600160a01b03169063d113efc4906129129085906004016155c1565b60206040518083038186803b15801561292a57600080fd5b505afa15801561293e573d6000803e3d6000fd5b505050506040513d601f19601f8201168201806040525081019061243191906150de565b600260015414156129855760405162461bcd60e51b815260040161073b90615c39565b6002600155612992611c69565b156129af5760405162461bcd60e51b815260040161073b90615942565b82336001600160a01b03821614156129d95760405162461bcd60e51b815260040161073b9061585a565b6129e2846140f7565b935081612ea157600034118015612a0057506001600160a01b038716155b15612bcd5760007f00000000000000000000000000000000000000000000000000000000000000006001600160a01b0316348b8b604051612a429291906154f3565b60006040518083038185875af1925050503d8060008114612a7f576040519150601f19603f3d011682016040523d82523d6000602084013e612a84565b606091505b5050905080612aa55760405162461bcd60e51b815260040161073b90615b83565b6040516370a0823160e01b815284906001600160a01b038916906370a0823190612ad39030906004016155c1565b60206040518083038186803b158015612aeb57600080fd5b505afa158015612aff573d6000803e3d6000fd5b505050506040513d601f19601f82011682018060405250810190612b239190615465565b1015612b415760405162461bcd60e51b815260040161073b9061596c565b612bc78733896001600160a01b03166370a08231306040518263ffffffff1660e01b8152600401612b7291906155c1565b60206040518083038186803b158015612b8a57600080fd5b505afa158015612b9e573d6000803e3d6000fd5b505050506040513d601f19601f82011682018060405250810190612bc29190615465565b614a33565b50612e9c565b6040516323b872dd60e01b81526001600160a01b038816906323b872dd90612bfd90339030908a906004016155d5565b602060405180830381600087803b158015612c1757600080fd5b505af1158015612c2b573d6000803e3d6000fd5b505050506040513d601f19601f82011682018060405250810190612c4f9190615276565b5060405163095ea7b360e01b81526001600160a01b0388169063095ea7b390612c9e907f0000000000000000000000000000000000000000000000000000000000000000908990600401615623565b602060405180830381600087803b158015612cb857600080fd5b505af1158015612ccc573d6000803e3d6000fd5b505050506040513d601f19601f82011682018060405250810190612cf09190615276565b5060007f00000000000000000000000000000000000000000000000000000000000000006001600160a01b03168a8a604051612d2d9291906154f3565b6000604051808303816000865af19150503d8060008114612d6a576040519150601f19603f3d011682016040523d82523d6000602084013e612d6f565b606091505b5050905080612d905760405162461bcd60e51b815260040161073b90615b83565b6001600160a01b038716612dcd5783471015612dbe5760405162461bcd60e51b815260040161073b9061596c565b612dc83347614742565b612e9a565b6040516370a0823160e01b815284906001600160a01b038916906370a0823190612dfb9030906004016155c1565b60206040518083038186803b158015612e1357600080fd5b505afa158015612e27573d6000803e3d6000fd5b505050506040513d601f19601f82011682018060405250810190612e4b9190615465565b1015612e695760405162461bcd60e51b815260040161073b9061596c565b612e9a8733896001600160a01b03166370a08231306040518263ffffffff1660e01b8152600401612b7291906155c1565b505b610cc4565b600034118015612eb857506001600160a01b038716155b15613059576000806000612ecf8534896000613ea6565b92509250925060007f00000000000000000000000000000000000000000000000000000000000000006001600160a01b0316848e8e604051612f129291906154f3565b60006040518083038185875af1925050503d8060008114612f4f576040519150601f19603f3d011682016040523d82523d6000602084013e612f54565b606091505b5050905080612f755760405162461bcd60e51b815260040161073b90615b83565b6040516370a0823160e01b815287906001600160a01b038c16906370a0823190612fa39030906004016155c1565b60206040518083038186803b158015612fbb57600080fd5b505afa158015612fcf573d6000803e3d6000fd5b505050506040513d601f19601f82011682018060405250810190612ff39190615465565b10156130115760405162461bcd60e51b815260040161073b9061596c565b6130428a338c6001600160a01b03166370a08231306040518263ffffffff1660e01b8152600401612b7291906155c1565b61305060008b8a8686613ffb565b50505050610cc4565b600080600061306b8589896000613ea6565b925092509250896001600160a01b03166323b872dd33308b6040518463ffffffff1660e01b81526004016130a1939291906155d5565b602060405180830381600087803b1580156130bb57600080fd5b505af11580156130cf573d6000803e3d6000fd5b505050506040513d601f19601f820116820180604052508101906130f39190615276565b5060405163095ea7b360e01b81526001600160a01b038b169063095ea7b390613142907f0000000000000000000000000000000000000000000000000000000000000000908790600401615623565b602060405180830381600087803b15801561315c57600080fd5b505af1158015613170573d6000803e3d6000fd5b505050506040513d601f19601f820116820180604052508101906131949190615276565b5060007f00000000000000000000000000000000000000000000000000000000000000006001600160a01b03168d8d6040516131d19291906154f3565b6000604051808303816000865af19150503d806000811461320e576040519150601f19603f3d011682016040523d82523d6000602084013e613213565b606091505b50509050806132345760405162461bcd60e51b815260040161073b90615b83565b6001600160a01b038a1661327157864710156132625760405162461bcd60e51b815260040161073b9061596c565b61326c3347614742565b61333e565b6040516370a0823160e01b815287906001600160a01b038c16906370a082319061329f9030906004016155c1565b60206040518083038186803b1580156132b757600080fd5b505afa1580156132cb573d6000803e3d6000fd5b505050506040513d601f19601f820116820180604052508101906132ef9190615465565b101561330d5760405162461bcd60e51b815260040161073b9061596c565b61333e8a338c6001600160a01b03166370a08231306040518263ffffffff1660e01b8152600401612b7291906155c1565b61334b8b8b8a8686613ffb565b5050505050506001805550505050505050565b61271081565b61336c6145cb565b6001600160a01b031661337d61239b565b6001600160a01b0316146133a35760405162461bcd60e51b815260040161073b90615a6a565b6127108161ffff1611156133c95760405162461bcd60e51b815260040161073b90615b19565b6003805461ffff60a01b1916600160a01b61ffff8416021790556040517f2e8b87e2b3dff0b7b11ce73a61e3bb94498159c531480d9abf1307014b650af990611192908390615ca2565b61341b6145cb565b6001600160a01b031661342c61239b565b6001600160a01b0316146134525760405162461bcd60e51b815260040161073b90615a6a565b6003805460ff60b01b1916600160b01b831515021790556040517f13a5d968457cb650b136b77bb4a3ff25f31b92939f2d8df0010911117b7ba9e09061119290839061569a565b6134a1611c69565b156134be5760405162461bcd60e51b815260040161073b90615942565b6134cb60208601866150c2565b6001600160a01b03811660009081526005602052604090205460ff166135035760405162461bcd60e51b815260040161073b90615ae2565b61351360408701602088016150c2565b336001600160a01b038216141561353c5760405162461bcd60e51b815260040161073b9061585a565b6000613551610dff60408a0160208b016150c2565b90506000808061357361356a60608d0160408e0161525a565b8b866000613ea6565b9250925092506135b58888600081811061358957fe5b905060200201602081019061359e91906150c2565b336123298e6000016020810190610f7a91906150c2565b6000888860001981018181106135c757fe5b90506020020160208101906135dc91906150c2565b6001600160a01b03166370a08231336040518263ffffffff1660e01b815260040161360791906155c1565b60206040518083038186803b15801561361f57600080fd5b505afa158015613633573d6000803e3d6000fd5b505050506040513d601f19601f820116820180604052508101906136579190615465565b90506136696119db60208e018e6150c2565b8961367e828b8b6000198101818110611a2b57fe5b101561369c5760405162461bcd60e51b815260040161073b90615813565b60006136ae848463ffffffff6145a616565b11156136e9576136e9898960008181106136c457fe5b90506020020160208101906136d991906150c2565b8a8a6000198101818110611b1257fe5b505050505050505050505050565b6136ff611c69565b1561371c5760405162461bcd60e51b815260040161073b90615942565b61372960208601866150c2565b6001600160a01b03811660009081526005602052604090205460ff166137615760405162461bcd60e51b815260040161073b90615ae2565b61377160408701602088016150c2565b336001600160a01b038216141561379a5760405162461bcd60e51b815260040161073b9061585a565b6001600160a01b037f000000000000000000000000000000000000000000000000000000000000000016848460001981018181106137d457fe5b90506020020160208101906137e991906150c2565b6001600160a01b03161461380f5760405162461bcd60e51b815260040161073b906159b3565b6000613824610dff60408a0160208b016150c2565b90506138918585600081811061383657fe5b905060200201602081019061384b91906150c2565b3361388b61385c60208d018d6150c2565b8989600081811061386957fe5b905060200201602081019061387e91906150c2565b8a8a6001818110610fa957fe5b8a614b7b565b6138dc6138a160208a018a6150c2565b8686808060200260200160405190810160405280939291908181526020018383602002808284376000920191909152503092506147cf915050565b6040516370a0823160e01b81526000906001600160a01b037f000000000000000000000000000000000000000000000000000000000000000016906370a082319061392b9030906004016155c1565b60206040518083038186803b15801561394357600080fd5b505afa158015613957573d6000803e3d6000fd5b505050506040513d601f19601f8201168201806040525081019061397b9190615465565b604051632e1a7d4d60e01b81529091506001600160a01b037f00000000000000000000000000000000000000000000000000000000000000001690632e1a7d4d906139ca908490600401615cb1565b600060405180830381600087803b1580156139e457600080fd5b505af11580156139f8573d6000803e3d6000fd5b505050506000806000613a208c6040016020810190613a17919061525a565b85876000613ea6565b92509250925089831015613a465760405162461bcd60e51b815260040161073b906157e0565b613a503384614742565b6000613a62838363ffffffff6145a616565b11156136e9576136e960008a8a6000198101818110613a7d57fe5b9050602002016020810190613a9291906150c2565b878585613ffb565b613aa26145cb565b6001600160a01b0316613ab361239b565b6001600160a01b031614613ad95760405162461bcd60e51b815260040161073b90615a6a565b6001600160a01b038116613aff5760405162461bcd60e51b815260040161073b90615763565b600080546040516001600160a01b03808516939216917f8be0079c531659141344cd1fd0a4f28419497f9722a3daafe3b4186f6b6457e091a3600080546001600160a01b0319166001600160a01b0392909216919091179055565b600354600160a01b900461ffff1681565b6060613b75611c69565b15613b925760405162461bcd60e51b815260040161073b90615942565b613b9f60208701876150c2565b6001600160a01b03811660009081526005602052604090205460ff16613bd75760405162461bcd60e51b815260040161073b90615ae2565b613be760408801602089016150c2565b336001600160a01b0382161415613c105760405162461bcd60e51b815260040161073b9061585a565b6001600160a01b037f00000000000000000000000000000000000000000000000000000000000000001685856000198101818110613c4a57fe5b9050602002016020810190613c5f91906150c2565b6001600160a01b031614613c855760405162461bcd60e51b815260040161073b906159b3565b6000613c9a610dff60408b0160208c016150c2565b9050613ce6613cac60208b018b6150c2565b8988888080602002602001604051908101604052809392919081815260200183836020028082843760009201919091525061429192505050565b935060008080613d1f613cff60608e0160408f0161525a565b8860018a510381518110613d0f57fe5b6020026020010151866000613ea6565b92509250925089831015613d455760405162461bcd60e51b815260040161073b90615813565b613d8e89896000818110613d5557fe5b9050602002016020810190613d6a91906150c2565b33613d818f60000160208101906122fa91906150c2565b8a60008151811061205f57fe5b613dda613d9e60208e018e6150c2565b888b8b8080602002602001604051908101604052809392919081815260200183836020028082843760009201919091525030925061442c915050565b7f00000000000000000000000000000000000000000000000000000000000000006001600160a01b0316632e1a7d4d8860018a510381518110613e1957fe5b60200260200101516040518263ffffffff1660e01b8152600401613e3d9190615cb1565b600060405180830381600087803b158015613e5757600080fd5b505af1158015613e6b573d6000803e3d6000fd5b50505050613e793384614742565b6000613e8b838363ffffffff6145a616565b111561238c5761238c60008a8a60001981018181106110c657fe5b600080600086613eb857859250613ff1565b8315613f0a57600254869350613f03908490611abb90613ee5906127109061ffff1663ffffffff614a0b16565b613ef78761271063ffffffff614c6c16565b9063ffffffff614ca616565b9150613f3f565b600254613f2a9061271090613ef790899061ffff1663ffffffff614c6c16565b9150613f3c868363ffffffff614a0b16565b92505b6001600160a01b03851615801590613f605750600354600160b01b900460ff165b15613fed576001600160a01b03851660009081526004602052604081205461ffff16613f9957600354600160a01b900461ffff16613fb7565b6001600160a01b03861660009081526004602052604090205461ffff165b9050613fd3612710613ef78561ffff851663ffffffff614c6c16565b9150613fe5838363ffffffff614a0b16565b925050613ff1565b5060005b9450945094915050565b6001600160a01b03851661407c5760035461401f906001600160a01b031683614742565b80156140775761402f8382614742565b826001600160a01b03167f84ff16114f882a54c4748006b5e4b0b7ac76bd911d135145a6d063fd76a38a403386888560405161406e94939291906155f9565b60405180910390a25b6140f0565b60035461409690869033906001600160a01b031685614b7b565b80156140f0576140a885338584614b7b565b826001600160a01b03167f84ff16114f882a54c4748006b5e4b0b7ac76bd911d135145a6d063fd76a38a40338688856040516140e794939291906155f9565b60405180910390a25b5050505050565b60025460405163493f44bd60e11b81526000913391620100009091046001600160a01b03169063927e897a906141319084906004016155c1565b60206040518083038186803b15801561414957600080fd5b505afa15801561415d573d6000803e3d6000fd5b505050506040513d601f19601f820116820180604052508101906141819190615276565b15801561419657506001600160a01b03831615155b15614205576002546040516364e0b15960e01b8152620100009091046001600160a01b0316906364e0b159906141d2908490879060040161563c565b600060405180830381600087803b1580156141ec57600080fd5b505af1158015614200573d6000803e3d6000fd5b505050505b600254604051633444fbf160e21b8152620100009091046001600160a01b03169063d113efc49061423a9084906004016155c1565b60206040518083038186803b15801561425257600080fd5b505afa158015614266573d6000803e3d6000fd5b505050506040513d601f19601f8201168201806040525081019061428a91906150de565b9392505050565b60606002825110156142b55760405162461bcd60e51b815260040161073b906159b3565b81516001600160401b03811180156142cc57600080fd5b506040519080825280602002602001820160405280156142f6578160200160208202803683370190505b509050828160008151811061430757fe5b60200260200101818152505060005b600183510381101561439f576000806143598786858151811061433557fe5b602002602001015187866001018151811061434c57fe5b6020026020010151614cd8565b9150915061437b84848151811061436c57fe5b60200260200101518383614db1565b84846001018151811061438a57fe5b60209081029190910101525050600101614316565b509392505050565b60008060006143b68585614e57565b915091508582826040516020016143ce9291906154cc565b60408051601f1981840301815282825280516020918201206001600160a01b038b166000908152600683529290922061440a949390910161551f565b60408051601f1981840301815291905280516020909101209695505050505050565b60005b60018351038110156140f05760008084838151811061444a57fe5b602002602001015185846001018151811061446157fe5b60200260200101519150915060006144798383614e57565b509050600087856001018151811061448d57fe5b60200260200101519050600080836001600160a01b0316866001600160a01b0316146144bb578260006144bf565b6000835b91509150600060028a510388106144d657886144f7565b6144f78c878c8b600201815181106144ea57fe5b60200260200101516143a7565b90506145048c88886143a7565b6001600160a01b031663022c0d9f84848460006040519080825280601f01601f191660200182016040528015614541576020820181803683370190505b506040518563ffffffff1660e01b81526004016145619493929190615cba565b600060405180830381600087803b15801561457b57600080fd5b505af115801561458f573d6000803e3d6000fd5b50506001909901985061442f975050505050505050565b60008282018381101561428a5760405162461bcd60e51b815260040161073b906157a9565b3390565b6145d7611c69565b6145f35760405162461bcd60e51b815260040161073b906156ef565b6000805460ff60a01b191690557f5db9ee0a495bf2e6ff9c91a7834c1ba4fdd244a5e8aa4e537bd38aeae4b073aa6146296145cb565b60405161463691906155c1565b60405180910390a1565b60606002825110156146645760405162461bcd60e51b815260040161073b906159b3565b81516001600160401b038111801561467b57600080fd5b506040519080825280602002602001820160405280156146a5578160200160208202803683370190505b50905082816001835103815181106146b957fe5b60209081029190910101528151600019015b801561439f576000806146fb878660018603815181106146e757fe5b602002602001015187868151811061434c57fe5b9150915061471d84848151811061470e57fe5b60200260200101518383614ee1565b84600185038151811061472c57fe5b60209081029190910101525050600019016146cb565b604080516000808252602082019092526001600160a01b03841690839060405161476c9190615503565b60006040518083038185875af1925050503d80600081146147a9576040519150601f19603f3d011682016040523d82523d6000602084013e6147ae565b606091505b5050905080611c645760405162461bcd60e51b815260040161073b90615bb2565b60005b6001835103811015614a05576000808483815181106147ed57fe5b602002602001015185846001018151811061480457fe5b602002602001015191509150600061481c8383614e57565b509050600061482c8885856143a7565b9050600080600080846001600160a01b0316630902f1ac6040518163ffffffff1660e01b815260040160606040518083038186803b15801561486d57600080fd5b505afa158015614881573d6000803e3d6000fd5b505050506040513d601f19601f820116820180604052508101906148a591906153ef565b506001600160701b031691506001600160701b03169150600080876001600160a01b03168a6001600160a01b0316146148df5782846148e2565b83835b91509150614916828b6001600160a01b03166370a082318a6040518263ffffffff1660e01b8152600401611a6b91906155c1565b9550614923868383614db1565b945050505050600080856001600160a01b0316886001600160a01b03161461494d57826000614951565b6000835b91509150600060028c51038a10614968578a61497c565b61497c8d898e8d600201815181106144ea57fe5b6040805160008152602081019182905263022c0d9f60e01b9091529091506001600160a01b0387169063022c0d9f906149be9086908690869060248101615cba565b600060405180830381600087803b1580156149d857600080fd5b505af11580156149ec573d6000803e3d6000fd5b50506001909b019a506147d29950505050505050505050565b50505050565b600082821115614a2d5760405162461bcd60e51b815260040161073b90615891565b50900390565b60006060846001600160a01b031663a9059cbb8585604051602401614a59929190615623565b6040516020818303038152906040529060e01b6020820180516001600160e01b038381831617835250505050604051614a929190615503565b6000604051808303816000865af19150503d8060008114614acf576040519150601f19603f3d011682016040523d82523d6000602084013e614ad4565b606091505b5091509150818015614afe575080511580614afe575080806020019051810190614afe9190615276565b6140f05760405162461bcd60e51b815260040161073b906156b8565b614b22611c69565b15614b3f5760405162461bcd60e51b815260040161073b90615942565b6000805460ff60a01b1916600160a01b1790557f62e78cea01bee320cd4e420270b5ea74000d11b0c9f74754ebdbfc544b05a2586146296145cb565b60006060856001600160a01b03166323b872dd868686604051602401614ba3939291906155d5565b6040516020818303038152906040529060e01b6020820180516001600160e01b038381831617835250505050604051614bdc9190615503565b6000604051808303816000865af19150503d8060008114614c19576040519150601f19603f3d011682016040523d82523d6000602084013e614c1e565b606091505b5091509150818015614c48575080511580614c48575080806020019051810190614c489190615276565b614c645760405162461bcd60e51b815260040161073b90615bf5565b505050505050565b600082614c7b57506000612431565b82820282848281614c8857fe5b041461428a5760405162461bcd60e51b815260040161073b90615a29565b6000808211614cc75760405162461bcd60e51b815260040161073b9061590b565b818381614cd057fe5b049392505050565b6000806000614ce78585614e57565b509050600080614cf88888886143a7565b6001600160a01b0316630902f1ac6040518163ffffffff1660e01b815260040160606040518083038186803b158015614d3057600080fd5b505afa158015614d44573d6000803e3d6000fd5b505050506040513d601f19601f82011682018060405250810190614d6891906153ef565b506001600160701b031691506001600160701b03169150826001600160a01b0316876001600160a01b031614614d9f578082614da2565b81815b90999098509650505050505050565b6000808411614dd25760405162461bcd60e51b815260040161073b9061571d565b600083118015614de25750600082115b614dfe5760405162461bcd60e51b815260040161073b90615a9f565b6000614e12856126f263ffffffff614c6c16565b90506000614e26828563ffffffff614c6c16565b90506000614e40836113d98861271063ffffffff614c6c16565b9050808281614e4b57fe5b04979650505050505050565b600080826001600160a01b0316846001600160a01b03161415614e8c5760405162461bcd60e51b815260040161073b906159e6565b826001600160a01b0316846001600160a01b031610614eac578284614eaf565b83835b90925090506001600160a01b038216614eda5760405162461bcd60e51b815260040161073b90615b4c565b9250929050565b6000808411614f025760405162461bcd60e51b815260040161073b90615813565b600083118015614f125750600082115b614f2e5760405162461bcd60e51b815260040161073b90615a9f565b6000614f52612710614f46868863ffffffff614c6c16565b9063ffffffff614c6c16565b90506000614f6c6126f2614f46868963ffffffff614a0b16565b9050614f896001828481614f7c57fe5b049063ffffffff6145a616565b9695505050505050565b828054600181600116156101000203166002900490600052602060002090601f016020900481019282601f10614fd45782800160ff19823516178555615001565b82800160010185558215615001579182015b82811115615001578235825591602001919060010190614fe6565b5061500d929150615011565b5090565b611c7791905b8082111561500d5760008155600101615017565b60008083601f84011261503c578182fd5b5081356001600160401b03811115615052578182fd5b6020830191508360208083028501011115614eda57600080fd5b60008083601f84011261507d578182fd5b5081356001600160401b03811115615093578182fd5b602083019150836020828501011115614eda57600080fd5b6000606082840312156150bc578081fd5b50919050565b6000602082840312156150d3578081fd5b813561428a81615d1f565b6000602082840312156150ef578081fd5b815161428a81615d1f565b6000806040838503121561510c578081fd5b823561511781615d1f565b946020939093013593505050565b600080600060608486031215615139578081fd5b833561514481615d1f565b9250602084013561515481615d1f565b929592945050506040919091013590565b600080600060408486031215615179578283fd5b833561518481615d1f565b925060208401356001600160401b0381111561519e578283fd5b6151aa8682870161506c565b9497909650939450505050565b600080600080606085870312156151cc578081fd5b84356151d781615d1f565b935060208501356001600160401b038111156151f1578182fd5b6151fd8782880161506c565b909450925050604085013561521181615d37565b939692955090935050565b6000806040838503121561522e578182fd5b823561523981615d1f565b9150602083013561ffff8116811461524f578182fd5b809150509250929050565b60006020828403121561526b578081fd5b813561428a81615d37565b600060208284031215615287578081fd5b815161428a81615d37565b60008060008060008060008060e0898b0312156152ad578384fd5b88356001600160401b038111156152c2578485fd5b6152ce8b828c0161506c565b90995097505060208901356152e281615d1f565b955060408901356152f281615d1f565b945060608901359350608089013561530981615d1f565b925060a0890135915060c089013561532081615d37565b809150509295985092959890939650565b60008060008060a08587031215615346578182fd5b61535086866150ab565b93506060850135925060808501356001600160401b03811115615371578283fd5b61537d8782880161502b565b95989497509550505050565b600080600080600060c086880312156153a0578283fd5b6153aa87876150ab565b9450606086013593506080860135925060a08601356001600160401b038111156153d2578182fd5b6153de8882890161502b565b969995985093965092949392505050565b600080600060608486031215615403578081fd5b835161540e81615d45565b602085015190935061541f81615d45565b604085015190925063ffffffff81168114615438578182fd5b809150509250925092565b600060208284031215615454578081fd5b813561ffff8116811461428a578182fd5b600060208284031215615476578081fd5b5051919050565b6000806040838503121561548f578182fd5b505080516020909101519092909150565b600081518084526154b8816020860160208601615cf3565b601f01601f19169290920160200192915050565b6bffffffffffffffffffffffff19606093841b811682529190921b16601482015260280190565b6000828483379101908152919050565b60008251615515818460208701615cf3565b9190910192915050565b600060ff60f81b825260016bffffffffffffffffffffffff198660601b1681840152846015840152603582855483811660008114615564576001811461557f576155b3565b60ff1982168785015260028204607f168701840192506155b3565b6002820461558c89615ce7565b875b828110156155aa5781548a82018801529087019060200161558e565b50508701840192505b509098975050505050505050565b6001600160a01b0391909116815260200190565b6001600160a01b039384168152919092166020820152604081019190915260600190565b6001600160a01b039485168152928416602084015292166040820152606081019190915260800190565b6001600160a01b03929092168252602082015260400190565b6001600160a01b0392831681529116602082015260400190565b6020808252825182820181905260009190848201906040850190845b8181101561568e57835183529284019291840191600101615672565b50909695505050505050565b901515815260200190565b60006020825261428a60208301846154a0565b6020808252601f908201527f5472616e7366657248656c7065723a205452414e534645525f4641494c454400604082015260600190565b60208082526014908201527314185d5cd8589b194e881b9bdd081c185d5cd95960621b604082015260600190565b60208082526026908201527f466c6f6f7a526f757465723a20494e53554646494349454e545f494e5055545f604082015265105353d5539560d21b606082015260800190565b60208082526026908201527f4f776e61626c653a206e6577206f776e657220697320746865207a65726f206160408201526564647265737360d01b606082015260800190565b6020808252601b908201527f536166654d6174683a206164646974696f6e206f766572666c6f770000000000604082015260600190565b602080825260199082015278466c6f6f7a526f757465723a204c4f575f534c49505041474560381b604082015260600190565b60208082526027908201527f466c6f6f7a526f757465723a20494e53554646494349454e545f4f555450555460408201526617d05353d5539560ca1b606082015260800190565b6020808252601a908201527f466c6f6f7a526f757465723a2053454c465f524546455252414c000000000000604082015260600190565b6020808252601e908201527f536166654d6174683a207375627472616374696f6e206f766572666c6f770000604082015260600190565b60208082526023908201527f466c6f6f7a526f757465723a204558434553534956455f494e5055545f414d4f60408201526215539560ea1b606082015260800190565b6020808252601a908201527f536166654d6174683a206469766973696f6e206279207a65726f000000000000604082015260600190565b60208082526010908201526f14185d5cd8589b194e881c185d5cd95960821b604082015260600190565b60208082526027908201527f466c6f6f7a526f757465723a20496e73756666696369656e74204f757470757460408201526608105b5bdd5b9d60ca1b606082015260800190565b60208082526019908201527808cd8dedef4a4deeae8cae47440929cac82989288bea082a89603b1b604082015260600190565b60208082526023908201527f50616e63616b654c6962726172793a204944454e544943414c5f41444452455360408201526253455360e81b606082015260800190565b60208082526021908201527f536166654d6174683a206d756c7469706c69636174696f6e206f766572666c6f6040820152607760f81b606082015260800190565b6020808252818101527f4f776e61626c653a2063616c6c6572206973206e6f7420746865206f776e6572604082015260600190565b60208082526023908201527f466c6f6f7a526f757465723a20494e53554646494349454e545f4c495155494460408201526249545960e81b606082015260800190565b6020808252601c908201527f466c6f6f7a526f757465723a20494e56414c49445f464143544f525900000000604082015260600190565b602080825260199082015278466c6f6f7a526f757465723a20494e56414c49445f5241544560381b604082015260600190565b6020808252601c908201527f50616e63616b654c6962726172793a205a45524f5f4144445245535300000000604082015260600190565b602080825260159082015274119b1bdbde949bdd5d195c8e881491559154951151605a1b604082015260600190565b60208082526023908201527f5472616e7366657248656c7065723a204554485f5452414e534645525f46414960408201526213115160ea1b606082015260800190565b60208082526024908201527f5472616e7366657248656c7065723a205452414e534645525f46524f4d5f46416040820152631253115160e21b606082015260800190565b6020808252601f908201527f5265656e7472616e637947756172643a207265656e7472616e742063616c6c00604082015260600190565b602080825260189082015277466c6f6f7a526f757465723a204143544956455f464f524b60401b604082015260600190565b61ffff91909116815260200190565b90815260200190565b600085825284602083015260018060a01b038416604083015260806060830152614f8960808301846154a0565b60009081526020902090565b60005b83811015615d0e578181015183820152602001615cf6565b83811115614a055750506000910152565b6001600160a01b0381168114615d3457600080fd5b50565b8015158114615d3457600080fd5b6001600160701b0381168114615d3457600080fdfea26469706673582212208cb26718df3c8ea9d565a5f526fb07bd84d9d81c0028b70772c726cba35c162264736f6c63430006060033",
  "devdoc": {
    "methods": {
      "constructor": {
        "details": "construct this contract",
        "params": {
          "_WETH": "address of WETH.",
          "_feeReceiver": "address that receives protocol fees",
          "_referralRegistry": "address of referral registry that stores referral anchors",
          "_referralRewardRate": "percentage of swapFee that are paid out as rewards",
          "_swapFee": "nominator for swapFee. Denominator = 10000",
          "_zeroEx": "address of zeroX proxy contract to forward swaps"
        }
      },
      "executeZeroExSwap(bytes,address,address,uint256,address,uint256,bool)": {
        "details": "Executes a swap on 0x API",
        "params": {
          "data": "calldata expected by data field on 0x API (https://0x.org/docs/api#response-1)",
          "fee": "boolean if fee should be applied or not",
          "fromToken": "the address of currency to sell - 0x address for ETH",
          "referee": "address of referee for msg.sender, 0x adress if none",
          "toToken": "the address of currency to buy - 0x address for ETH"
        }
      },
      "getUserReferee(address)": {
        "details": "returns the referee for a given user - 0x address if none"
      },
      "hasUserReferee(address)": {
        "details": "returns if the given user has been referred or not"
      },
      "owner()": {
        "details": "Returns the address of the current owner."
      },
      "pause()": {
        "details": "lets the admin pause this contract"
      },
      "paused()": {
        "details": "Returns true if the contract is paused, and false otherwise."
      },
      "registerFork(address,bytes)": {
        "details": "lets the admin register an Uniswap style fork"
      },
      "renounceOwnership()": {
        "details": "Leaves the contract without owner. It will not be possible to call `onlyOwner` functions anymore. Can only be called by the current owner.     * NOTE: Renouncing ownership will leave the contract without an owner, thereby removing any functionality that is only available to the owner."
      },
      "swapETHForExactTokens((address,address,bool),uint256,address[])": {
        "details": "execute swap directly on Uniswap/Pancake/...",
        "params": {
          "amountOut": "expected amount of tokens out",
          "path": "Sell path.",
          "swapData": "stores the swapData information"
        },
        "returns": {
          "amounts": "amounts"
        }
      },
      "swapExactETHForTokens((address,address,bool),uint256,address[])": {
        "details": "execute swap directly on Uniswap/Pancake & simular forks",
        "params": {
          "amountOutMin": "minimum tokens to receive",
          "path": "Sell path.",
          "swapData": "stores the swapData information"
        },
        "returns": {
          "amounts": "amounts"
        }
      },
      "swapExactETHForTokensSupportingFeeOnTransferTokens((address,address,bool),uint256,address[])": {
        "details": "execute swap directly on Uniswap/Pancake/...",
        "params": {
          "amountOutMin": "minimum expected tokens to receive",
          "path": "Sell path.",
          "swapData": "stores the swapData information"
        }
      },
      "swapExactTokensForETH((address,address,bool),uint256,uint256,address[])": {
        "details": "execute swap directly on Uniswap/Pancake/...",
        "params": {
          "amountIn": "amount if tokens In",
          "amountOutMin": "minimum tokens to receive",
          "path": "Sell path.",
          "swapData": "stores the swapData information"
        },
        "returns": {
          "amounts": "amounts"
        }
      },
      "swapExactTokensForETHSupportingFeeOnTransferTokens((address,address,bool),uint256,uint256,address[])": {
        "details": "execute swap directly on Uniswap/Pancake/...",
        "params": {
          "amountIn": "amount of tokensIn",
          "amountOutMin": "minimum tokens to receive",
          "path": "Sell path.",
          "swapData": "stores the swapData information"
        }
      },
      "swapExactTokensForTokens((address,address,bool),uint256,uint256,address[])": {
        "details": "execute swap directly on Uniswap/Pancake/...",
        "params": {
          "amountIn": "amount if tokens In",
          "amountOutMin": "minimum tokens to receive",
          "path": "Sell path.",
          "swapData": "stores the swapData information"
        },
        "returns": {
          "amounts": "amounts"
        }
      },
      "swapExactTokensForTokensSupportingFeeOnTransferTokens((address,address,bool),uint256,uint256,address[])": {
        "details": "execute swap directly on Uniswap/Pancake/...",
        "params": {
          "amountIn": "amount if tokens In",
          "amountOutMin": "minimum tokens to receive",
          "path": "Sell path.",
          "swapData": "stores the swapData information"
        }
      },
      "swapTokensForExactETH((address,address,bool),uint256,uint256,address[])": {
        "details": "execute swap directly on Uniswap/Pancake/...",
        "params": {
          "amountInMax": "maximum tokens to send",
          "amountOut": "expected tokens to receive",
          "path": "Sell path.",
          "swapData": "stores the swapData information"
        },
        "returns": {
          "amounts": "amounts"
        }
      },
      "swapTokensForExactTokens((address,address,bool),uint256,uint256,address[])": {
        "details": "execute swap directly on Uniswap/Pancake/...",
        "params": {
          "amountInMax": "maximum tokens to send",
          "amountOut": "expected tokens to receive",
          "path": "Sell path.",
          "swapData": "stores the swapData information"
        },
        "returns": {
          "amounts": "amounts"
        }
      },
      "transferOwnership(address)": {
        "details": "Transfers ownership of the contract to a new account (`newOwner`). Can only be called by the current owner."
      },
      "unpause()": {
        "details": "lets the admin unpause this contract"
      },
      "updateCustomReferralRewardRate(address,uint16)": {
        "details": "lets the admin set a custom referral rate"
      },
      "updateFeeReceiver(address)": {
        "details": "lets the admin update which address receives the protocol fees"
      },
      "updateFork(address,bytes,bool)": {
        "details": "lets the admin update an Uniswap style fork"
      },
      "updateReferralRegistry(address)": {
        "details": "lets the admin set a new referral registry"
      },
      "updateReferralRewardRate(uint16)": {
        "details": "lets the admin update the referral reward rate"
      },
      "updateReferralsActivated(bool)": {
        "details": "lets the admin update the status of the referral system"
      },
      "updateSwapFee(uint16)": {
        "details": "lets the admin update the swapFee nominator"
      },
      "withdrawERC20Token(address,address,uint256)": {
        "details": "lets the admin withdraw ERC20s from the contract."
      },
      "withdrawETH(address,uint256)": {
        "details": "lets the admin withdraw ETH from the contract."
      }
    }
  },
  "userdoc": {
    "methods": {}
  },
  "storageLayout": {
    "storage": [
      {
        "astId": 592,
        "contract": "contracts/FloozMultichainRouterV2.sol:MultichainRouter",
        "label": "_owner",
        "offset": 0,
        "slot": "0",
        "type": "t_address"
      },
      {
        "astId": 1168,
        "contract": "contracts/FloozMultichainRouterV2.sol:MultichainRouter",
        "label": "_paused",
        "offset": 20,
        "slot": "0",
        "type": "t_bool"
      },
      {
        "astId": 1253,
        "contract": "contracts/FloozMultichainRouterV2.sol:MultichainRouter",
        "label": "_status",
        "offset": 0,
        "slot": "1",
        "type": "t_uint256"
      },
      {
        "astId": 4828,
        "contract": "contracts/FloozMultichainRouterV2.sol:MultichainRouter",
        "label": "swapFee",
        "offset": 0,
        "slot": "2",
        "type": "t_uint16"
      },
      {
        "astId": 4836,
        "contract": "contracts/FloozMultichainRouterV2.sol:MultichainRouter",
        "label": "referralRegistry",
        "offset": 2,
        "slot": "2",
        "type": "t_contract(IReferralRegistry)11315"
      },
      {
        "astId": 4838,
        "contract": "contracts/FloozMultichainRouterV2.sol:MultichainRouter",
        "label": "feeReceiver",
        "offset": 0,
        "slot": "3",
        "type": "t_address_payable"
      },
      {
        "astId": 4840,
        "contract": "contracts/FloozMultichainRouterV2.sol:MultichainRouter",
        "label": "referralRewardRate",
        "offset": 20,
        "slot": "3",
        "type": "t_uint16"
      },
      {
        "astId": 4842,
        "contract": "contracts/FloozMultichainRouterV2.sol:MultichainRouter",
        "label": "referralsActivated",
        "offset": 22,
        "slot": "3",
        "type": "t_bool"
      },
      {
        "astId": 4846,
        "contract": "contracts/FloozMultichainRouterV2.sol:MultichainRouter",
        "label": "customReferralRewardRate",
        "offset": 0,
        "slot": "4",
        "type": "t_mapping(t_address,t_uint16)"
      },
      {
        "astId": 4850,
        "contract": "contracts/FloozMultichainRouterV2.sol:MultichainRouter",
        "label": "forkActivated",
        "offset": 0,
        "slot": "5",
        "type": "t_mapping(t_address,t_bool)"
      },
      {
        "astId": 4854,
        "contract": "contracts/FloozMultichainRouterV2.sol:MultichainRouter",
        "label": "forkInitCode",
        "offset": 0,
        "slot": "6",
        "type": "t_mapping(t_address,t_bytes_storage)"
      }
    ],
    "types": {
      "t_address": {
        "encoding": "inplace",
        "label": "address",
        "numberOfBytes": "20"
      },
      "t_address_payable": {
        "encoding": "inplace",
        "label": "address payable",
        "numberOfBytes": "20"
      },
      "t_bool": {
        "encoding": "inplace",
        "label": "bool",
        "numberOfBytes": "1"
      },
      "t_bytes_storage": {
        "encoding": "bytes",
        "label": "bytes",
        "numberOfBytes": "32"
      },
      "t_contract(IReferralRegistry)11315": {
        "encoding": "inplace",
        "label": "contract IReferralRegistry",
        "numberOfBytes": "20"
      },
      "t_mapping(t_address,t_bool)": {
        "encoding": "mapping",
        "key": "t_address",
        "label": "mapping(address => bool)",
        "numberOfBytes": "32",
        "value": "t_bool"
      },
      "t_mapping(t_address,t_bytes_storage)": {
        "encoding": "mapping",
        "key": "t_address",
        "label": "mapping(address => bytes)",
        "numberOfBytes": "32",
        "value": "t_bytes_storage"
      },
      "t_mapping(t_address,t_uint16)": {
        "encoding": "mapping",
        "key": "t_address",
        "label": "mapping(address => uint16)",
        "numberOfBytes": "32",
        "value": "t_uint16"
      },
      "t_uint16": {
        "encoding": "inplace",
        "label": "uint16",
        "numberOfBytes": "2"
      },
      "t_uint256": {
        "encoding": "inplace",
        "label": "uint256",
        "numberOfBytes": "32"
      }
    }
  }
}