{
  "address": "0x952f22c0eb45e325a37A3d60F7F561F2D7E86d3C",
  "abi": [
    {
      "inputs": [
        {
          "internalType": "address",
          "name": "_WETH",
          "type": "address"
        },
        {
          "internalType": "uint16",
          "name": "_swapFee",
          "type": "uint16"
        },
        {
          "internalType": "uint16",
          "name": "_referralRewardRate",
          "type": "uint16"
        },
        {
          "internalType": "address payable",
          "name": "_feeReceiver",
          "type": "address"
        },
        {
          "internalType": "uint256",
          "name": "_balanceThreshold",
          "type": "uint256"
        },
        {
          "internalType": "contract IERC20",
          "name": "_saveYourAssetsToken",
          "type": "address"
        },
        {
          "internalType": "contract IReferralRegistry",
          "name": "_referralRegistry",
          "type": "address"
        },
        {
          "internalType": "address payable",
          "name": "_zeroEx",
          "type": "address"
        },
        {
          "internalType": "address payable",
          "name": "_oneInch",
          "type": "address"
        }
      ],
      "stateMutability": "nonpayable",
      "type": "constructor"
    },
    {
      "anonymous": false,
      "inputs": [
        {
          "indexed": false,
          "internalType": "uint256",
          "name": "balanceThreshold",
          "type": "uint256"
        }
      ],
      "name": "BalanceThresholdUpdated",
      "type": "event"
    },
    {
      "anonymous": false,
      "inputs": [
        {
          "indexed": true,
          "internalType": "address",
          "name": "account",
          "type": "address"
        },
        {
          "indexed": false,
          "internalType": "uint16",
          "name": "referralRate",
          "type": "uint16"
        }
      ],
      "name": "CustomReferralRewardRateUpdated",
      "type": "event"
    },
    {
      "anonymous": false,
      "inputs": [
        {
          "indexed": false,
          "internalType": "address payable",
          "name": "feeReceiver",
          "type": "address"
        }
      ],
      "name": "FeeReceiverUpdated",
      "type": "event"
    },
    {
      "anonymous": false,
      "inputs": [
        {
          "indexed": false,
          "internalType": "address",
          "name": "factory",
          "type": "address"
        }
      ],
      "name": "ForkUpdated",
      "type": "event"
    },
    {
      "anonymous": false,
      "inputs": [
        {
          "indexed": true,
          "internalType": "address",
          "name": "previousOwner",
          "type": "address"
        },
        {
          "indexed": true,
          "internalType": "address",
          "name": "newOwner",
          "type": "address"
        }
      ],
      "name": "OwnershipTransferred",
      "type": "event"
    },
    {
      "anonymous": false,
      "inputs": [
        {
          "indexed": false,
          "internalType": "address",
          "name": "account",
          "type": "address"
        }
      ],
      "name": "Paused",
      "type": "event"
    },
    {
      "anonymous": false,
      "inputs": [
        {
          "indexed": false,
          "internalType": "address",
          "name": "referralRegistry",
          "type": "address"
        }
      ],
      "name": "ReferralRegistryUpdated",
      "type": "event"
    },
    {
      "anonymous": false,
      "inputs": [
        {
          "indexed": false,
          "internalType": "address",
          "name": "from",
          "type": "address"
        },
        {
          "indexed": true,
          "internalType": "address",
          "name": "to",
          "type": "address"
        },
        {
          "indexed": false,
          "internalType": "address",
          "name": "tokenOut",
          "type": "address"
        },
        {
          "indexed": false,
          "internalType": "address",
          "name": "tokenReward",
          "type": "address"
        },
        {
          "indexed": false,
          "internalType": "uint256",
          "name": "amount",
          "type": "uint256"
        }
      ],
      "name": "ReferralRewardPaid",
      "type": "event"
    },
    {
      "anonymous": false,
      "inputs": [
        {
          "indexed": false,
          "internalType": "uint16",
          "name": "referralRewardRate",
          "type": "uint16"
        }
      ],
      "name": "ReferralRewardRateUpdated",
      "type": "event"
    },
    {
      "anonymous": false,
      "inputs": [
        {
          "indexed": false,
          "internalType": "bool",
          "name": "activated",
          "type": "bool"
        }
      ],
      "name": "ReferralsActivatedUpdated",
      "type": "event"
    },
    {
      "anonymous": false,
      "inputs": [
        {
          "indexed": false,
          "internalType": "uint16",
          "name": "swapFee",
          "type": "uint16"
        }
      ],
      "name": "SwapFeeUpdated",
      "type": "event"
    },
    {
      "anonymous": false,
      "inputs": [
        {
          "indexed": false,
          "internalType": "address",
          "name": "account",
          "type": "address"
        }
      ],
      "name": "Unpaused",
      "type": "event"
    },
    {
      "inputs": [],
      "name": "FEE_DENOMINATOR",
      "outputs": [
        {
          "internalType": "uint256",
          "name": "",
          "type": "uint256"
        }
      ],
      "stateMutability": "view",
      "type": "function"
    },
    {
      "inputs": [],
      "name": "WETH",
      "outputs": [
        {
          "internalType": "address",
          "name": "",
          "type": "address"
        }
      ],
      "stateMutability": "view",
      "type": "function"
    },
    {
      "inputs": [],
      "name": "balanceThreshold",
      "outputs": [
        {
          "internalType": "uint256",
          "name": "",
          "type": "uint256"
        }
      ],
      "stateMutability": "view",
      "type": "function"
    },
    {
      "inputs": [
        {
          "internalType": "address",
          "name": "",
          "type": "address"
        }
      ],
      "name": "customReferralRewardRate",
      "outputs": [
        {
          "internalType": "uint16",
          "name": "",
          "type": "uint16"
        }
      ],
      "stateMutability": "view",
      "type": "function"
    },
    {
      "inputs": [
        {
          "internalType": "bytes",
          "name": "data",
          "type": "bytes"
        },
        {
          "internalType": "address",
          "name": "fromToken",
          "type": "address"
        },
        {
          "internalType": "address",
          "name": "toToken",
          "type": "address"
        },
        {
          "internalType": "uint256",
          "name": "amountFrom",
          "type": "uint256"
        },
        {
          "internalType": "address",
          "name": "referee",
          "type": "address"
        },
        {
          "internalType": "uint256",
          "name": "minOut",
          "type": "uint256"
        }
      ],
      "name": "execute1InchSwap",
      "outputs": [],
      "stateMutability": "payable",
      "type": "function"
    },
    {
      "inputs": [
        {
          "internalType": "bytes",
          "name": "data",
          "type": "bytes"
        },
        {
          "internalType": "address",
          "name": "fromToken",
          "type": "address"
        },
        {
          "internalType": "address",
          "name": "toToken",
          "type": "address"
        },
        {
          "internalType": "uint256",
          "name": "amountFrom",
          "type": "uint256"
        },
        {
          "internalType": "address",
          "name": "referee",
          "type": "address"
        }
      ],
      "name": "executeZeroExSwap",
      "outputs": [],
      "stateMutability": "payable",
      "type": "function"
    },
    {
      "inputs": [],
      "name": "feeReceiver",
      "outputs": [
        {
          "internalType": "address payable",
          "name": "",
          "type": "address"
        }
      ],
      "stateMutability": "view",
      "type": "function"
    },
    {
      "inputs": [
        {
          "internalType": "address",
          "name": "",
          "type": "address"
        }
      ],
      "name": "forkActivated",
      "outputs": [
        {
          "internalType": "bool",
          "name": "",
          "type": "bool"
        }
      ],
      "stateMutability": "view",
      "type": "function"
    },
    {
      "inputs": [
        {
          "internalType": "address",
          "name": "",
          "type": "address"
        }
      ],
      "name": "forkInitCode",
      "outputs": [
        {
          "internalType": "bytes",
          "name": "",
          "type": "bytes"
        }
      ],
      "stateMutability": "view",
      "type": "function"
    },
    {
      "inputs": [
        {
          "internalType": "address",
          "name": "user",
          "type": "address"
        }
      ],
      "name": "getUserFee",
      "outputs": [
        {
          "internalType": "uint256",
          "name": "",
          "type": "uint256"
        }
      ],
      "stateMutability": "view",
      "type": "function"
    },
    {
      "inputs": [],
      "name": "oneInch",
      "outputs": [
        {
          "internalType": "address payable",
          "name": "",
          "type": "address"
        }
      ],
      "stateMutability": "view",
      "type": "function"
    },
    {
      "inputs": [],
      "name": "owner",
      "outputs": [
        {
          "internalType": "address",
          "name": "",
          "type": "address"
        }
      ],
      "stateMutability": "view",
      "type": "function"
    },
    {
      "inputs": [],
      "name": "pause",
      "outputs": [],
      "stateMutability": "nonpayable",
      "type": "function"
    },
    {
      "inputs": [],
      "name": "paused",
      "outputs": [
        {
          "internalType": "bool",
          "name": "",
          "type": "bool"
        }
      ],
      "stateMutability": "view",
      "type": "function"
    },
    {
      "inputs": [],
      "name": "referralRegistry",
      "outputs": [
        {
          "internalType": "contract IReferralRegistry",
          "name": "",
          "type": "address"
        }
      ],
      "stateMutability": "view",
      "type": "function"
    },
    {
      "inputs": [],
      "name": "referralRewardRate",
      "outputs": [
        {
          "internalType": "uint16",
          "name": "",
          "type": "uint16"
        }
      ],
      "stateMutability": "view",
      "type": "function"
    },
    {
      "inputs": [],
      "name": "referralsActivated",
      "outputs": [
        {
          "internalType": "bool",
          "name": "",
          "type": "bool"
        }
      ],
      "stateMutability": "view",
      "type": "function"
    },
    {
      "inputs": [],
      "name": "renounceOwnership",
      "outputs": [],
      "stateMutability": "nonpayable",
      "type": "function"
    },
    {
      "inputs": [],
      "name": "saveYourAssetsToken",
      "outputs": [
        {
          "internalType": "contract IERC20",
          "name": "",
          "type": "address"
        }
      ],
      "stateMutability": "view",
      "type": "function"
    },
    {
      "inputs": [
        {
          "internalType": "address",
          "name": "fork",
          "type": "address"
        },
        {
          "internalType": "uint256",
          "name": "amountOut",
          "type": "uint256"
        },
        {
          "internalType": "address[]",
          "name": "path",
          "type": "address[]"
        },
        {
          "internalType": "address",
          "name": "referee",
          "type": "address"
        }
      ],
      "name": "swapETHForExactTokens",
      "outputs": [
        {
          "internalType": "uint256[]",
          "name": "amounts",
          "type": "uint256[]"
        }
      ],
      "stateMutability": "payable",
      "type": "function"
    },
    {
      "inputs": [
        {
          "internalType": "address",
          "name": "fork",
          "type": "address"
        },
        {
          "internalType": "uint256",
          "name": "amountOutMin",
          "type": "uint256"
        },
        {
          "internalType": "address[]",
          "name": "path",
          "type": "address[]"
        },
        {
          "internalType": "address",
          "name": "referee",
          "type": "address"
        }
      ],
      "name": "swapExactETHForTokens",
      "outputs": [
        {
          "internalType": "uint256[]",
          "name": "amounts",
          "type": "uint256[]"
        }
      ],
      "stateMutability": "payable",
      "type": "function"
    },
    {
      "inputs": [
        {
          "internalType": "address",
          "name": "fork",
          "type": "address"
        },
        {
          "internalType": "uint256",
          "name": "amountOutMin",
          "type": "uint256"
        },
        {
          "internalType": "address[]",
          "name": "path",
          "type": "address[]"
        },
        {
          "internalType": "address",
          "name": "referee",
          "type": "address"
        }
      ],
      "name": "swapExactETHForTokensSupportingFeeOnTransferTokens",
      "outputs": [],
      "stateMutability": "payable",
      "type": "function"
    },
    {
      "inputs": [
        {
          "internalType": "address",
          "name": "fork",
          "type": "address"
        },
        {
          "internalType": "uint256",
          "name": "amountIn",
          "type": "uint256"
        },
        {
          "internalType": "uint256",
          "name": "amountOutMin",
          "type": "uint256"
        },
        {
          "internalType": "address[]",
          "name": "path",
          "type": "address[]"
        },
        {
          "internalType": "address",
          "name": "referee",
          "type": "address"
        }
      ],
      "name": "swapExactTokensForETH",
      "outputs": [
        {
          "internalType": "uint256[]",
          "name": "amounts",
          "type": "uint256[]"
        }
      ],
      "stateMutability": "nonpayable",
      "type": "function"
    },
    {
      "inputs": [
        {
          "internalType": "address",
          "name": "fork",
          "type": "address"
        },
        {
          "internalType": "uint256",
          "name": "amountIn",
          "type": "uint256"
        },
        {
          "internalType": "uint256",
          "name": "amountOutMin",
          "type": "uint256"
        },
        {
          "internalType": "address[]",
          "name": "path",
          "type": "address[]"
        },
        {
          "internalType": "address",
          "name": "referee",
          "type": "address"
        }
      ],
      "name": "swapExactTokensForETHSupportingFeeOnTransferTokens",
      "outputs": [],
      "stateMutability": "nonpayable",
      "type": "function"
    },
    {
      "inputs": [
        {
          "internalType": "address",
          "name": "fork",
          "type": "address"
        },
        {
          "internalType": "uint256",
          "name": "amountIn",
          "type": "uint256"
        },
        {
          "internalType": "uint256",
          "name": "amountOutMin",
          "type": "uint256"
        },
        {
          "internalType": "address[]",
          "name": "path",
          "type": "address[]"
        },
        {
          "internalType": "address",
          "name": "referee",
          "type": "address"
        }
      ],
      "name": "swapExactTokensForTokens",
      "outputs": [
        {
          "internalType": "uint256[]",
          "name": "amounts",
          "type": "uint256[]"
        }
      ],
      "stateMutability": "nonpayable",
      "type": "function"
    },
    {
      "inputs": [
        {
          "internalType": "address",
          "name": "fork",
          "type": "address"
        },
        {
          "internalType": "uint256",
          "name": "amountIn",
          "type": "uint256"
        },
        {
          "internalType": "uint256",
          "name": "amountOutMin",
          "type": "uint256"
        },
        {
          "internalType": "address[]",
          "name": "path",
          "type": "address[]"
        },
        {
          "internalType": "address",
          "name": "referee",
          "type": "address"
        }
      ],
      "name": "swapExactTokensForTokensSupportingFeeOnTransferTokens",
      "outputs": [],
      "stateMutability": "nonpayable",
      "type": "function"
    },
    {
      "inputs": [],
      "name": "swapFee",
      "outputs": [
        {
          "internalType": "uint16",
          "name": "",
          "type": "uint16"
        }
      ],
      "stateMutability": "view",
      "type": "function"
    },
    {
      "inputs": [
        {
          "internalType": "address",
          "name": "fork",
          "type": "address"
        },
        {
          "internalType": "uint256",
          "name": "amountOut",
          "type": "uint256"
        },
        {
          "internalType": "uint256",
          "name": "amountInMax",
          "type": "uint256"
        },
        {
          "internalType": "address[]",
          "name": "path",
          "type": "address[]"
        },
        {
          "internalType": "address",
          "name": "referee",
          "type": "address"
        }
      ],
      "name": "swapTokensForExactETH",
      "outputs": [
        {
          "internalType": "uint256[]",
          "name": "amounts",
          "type": "uint256[]"
        }
      ],
      "stateMutability": "nonpayable",
      "type": "function"
    },
    {
      "inputs": [
        {
          "internalType": "address",
          "name": "fork",
          "type": "address"
        },
        {
          "internalType": "uint256",
          "name": "amountOut",
          "type": "uint256"
        },
        {
          "internalType": "uint256",
          "name": "amountInMax",
          "type": "uint256"
        },
        {
          "internalType": "address[]",
          "name": "path",
          "type": "address[]"
        },
        {
          "internalType": "address",
          "name": "referee",
          "type": "address"
        }
      ],
      "name": "swapTokensForExactTokens",
      "outputs": [
        {
          "internalType": "uint256[]",
          "name": "amounts",
          "type": "uint256[]"
        }
      ],
      "stateMutability": "nonpayable",
      "type": "function"
    },
    {
      "inputs": [
        {
          "internalType": "address",
          "name": "newOwner",
          "type": "address"
        }
      ],
      "name": "transferOwnership",
      "outputs": [],
      "stateMutability": "nonpayable",
      "type": "function"
    },
    {
      "inputs": [],
      "name": "unpause",
      "outputs": [],
      "stateMutability": "nonpayable",
      "type": "function"
    },
    {
      "inputs": [
        {
          "internalType": "address",
          "name": "_factory",
          "type": "address"
        },
        {
          "internalType": "bytes",
          "name": "_initCode",
          "type": "bytes"
        },
        {
          "internalType": "bool",
          "name": "_activated",
          "type": "bool"
        }
      ],
      "name": "updateFork",
      "outputs": [],
      "stateMutability": "nonpayable",
      "type": "function"
    },
    {
      "inputs": [
        {
          "internalType": "address",
          "name": "_account",
          "type": "address"
        }
      ],
      "name": "userAboveBalanceThreshold",
      "outputs": [
        {
          "internalType": "bool",
          "name": "",
          "type": "bool"
        }
      ],
      "stateMutability": "view",
      "type": "function"
    },
    {
      "inputs": [],
      "name": "zeroEx",
      "outputs": [
        {
          "internalType": "address payable",
          "name": "",
          "type": "address"
        }
      ],
      "stateMutability": "view",
      "type": "function"
    },
    {
      "stateMutability": "payable",
      "type": "receive"
    }
  ],
  "transactionHash": "0x00b87f6e8cf4756394e0f213686e21868f052559facfbb652ef69aac7e17fe5f",
  "args": [
    "0xae13d989dac2f0debff460ac112a837c89baa7cd",
    50,
    1000,
    "0x12b61B82f441bAD5A6E4dD86d74b92E8F15b930B",
    "50000000000000000000",
    "0x8884ccE491A4a1b5E7A73CB850c28ec6C6394944",
    "0x491AcC56B46B09b91CEA690C3D5c7be17e390fbB",
    "0xdef1c0ded9bec7f1a1670819833240f027b25eff",
    "0x1111111254fb6c44bac0bed2854e76f90643097d"
  ],
  "solcInputHash": "63914a4573e9a879490827afa6b7756c",
  "bytecode": "0x60e06040523480156200001157600080fd5b50604051620054c6380380620054c683398181016040526101208110156200003857600080fd5b508051602082015160408301516060840151608085015160a086015160c087015160e0880151610100909801519697959694959394929391929091906000620000896001600160e01b036200019916565b600080546001600160a01b0319166001600160a01b0383169081178255604051929350917f8be0079c531659141344cd1fd0a4f28419497f9722a3daafe3b4186f6b6457e0908290a3506000805460ff60a01b19169055600180556001600160601b03196060998a1b81166080526002805460058054600380546001600160a01b039a8b166001600160a01b03199182161790915560049a909a55968816620100000262010000600160b01b031961ffff9d8e1661ffff19909416939093179290921691909117909155928a1b811660a052981b90971660c05260ff60b01b199390911693909416600160a01b0261ffff60a01b1990941693909317929092161716600160b01b1790556200019d565b3390565b60805160601c60a05160601c60c05160601c61528f6200023760003980610c805280610ed95280610f6752508061198f5280611b555280611be152508061118152806113b3528061160d52806117ec528061276c52806129755280612a275280612a9b5280612dca5280612f125280612f9a52806131df528061331a52806133a252806136285280613773528061380a525061528f6000f3fe6080604052600436106101bd5760003560e01c80638456cb59116100ed578063c317377411610090578063c317377414610995578063cd685618146109aa578063d73792a914610a36578063d758bcc614610a4b578063db12c8e714610ad7578063e229357114610b63578063e94265c414610c03578063f2fde38b14610c36578063fe4ad44614610c69576101c4565b80638456cb591461075f578063882f3b85146107745780638da5cb5b1461081457806393228dda14610829578063a3a4bc9a1461083e578063ad5c4648146108de578063b3f00674146108f3578063c00a315914610908576101c4565b80634e627e62116101605780634e627e62146104d75780634fb5df08146104ec57806352ab413b1461059457806354cf2aeb146105a95780635b6fbead146105d55780635c975abb146106625780636553b71214610677578063715018a6146107175780637cde0c741461072c576101c4565b8063045c08d5146101c9578063060f58c3146101fa578063242054ce1461023f578063279f3291146102d65780632f912005146102ff57806337166709146103325780633f4ba83a146104225780633f4e48bb14610437576101c4565b366101c457005b600080fd5b3480156101d557600080fd5b506101de610c7e565b604080516001600160a01b039092168252519081900360200190f35b34801561020657600080fd5b5061022d6004803603602081101561021d57600080fd5b50356001600160a01b0316610ca2565b60408051918252519081900360200190f35b6102d4600480360360c081101561025557600080fd5b810190602081018135600160201b81111561026f57600080fd5b82018360208201111561028157600080fd5b803590602001918460018302840111600160201b831117156102a257600080fd5b91935091506001600160a01b038135811691602081013582169160408201359160608101359091169060800135610d3f565b005b3480156102e257600080fd5b506102eb61105e565b604080519115158252519081900360200190f35b34801561030b57600080fd5b506102eb6004803603602081101561032257600080fd5b50356001600160a01b031661106e565b34801561033e57600080fd5b506103d2600480360360a081101561035557600080fd5b6001600160a01b038235169160208101359160408201359190810190608081016060820135600160201b81111561038b57600080fd5b82018360208201111561039d57600080fd5b803590602001918460208302840111600160201b831117156103be57600080fd5b9193509150356001600160a01b0316611083565b60408051602080825283518183015283519192839290830191858101910280838360005b8381101561040e5781810151838201526020016103f6565b505050509050019250505060405180910390f35b34801561042e57600080fd5b506102d46114a3565b34801561044357600080fd5b506103d2600480360360a081101561045a57600080fd5b6001600160a01b038235169160208101359160408201359190810190608081016060820135600160201b81111561049057600080fd5b8201836020820111156104a257600080fd5b803590602001918460208302840111600160201b831117156104c357600080fd5b9193509150356001600160a01b031661150f565b3480156104e357600080fd5b506101de6118dd565b3480156104f857600080fd5b5061051f6004803603602081101561050f57600080fd5b50356001600160a01b03166118f2565b6040805160208082528351818301528351919283929083019185019080838360005b83811015610559578181015183820152602001610541565b50505050905090810190601f1680156105865780820380516001836020036101000a031916815260200191505b509250505060405180910390f35b3480156105a057600080fd5b506101de61198d565b3480156105b557600080fd5b506105be6119b1565b6040805161ffff9092168252519081900360200190f35b6102d4600480360360a08110156105eb57600080fd5b810190602081018135600160201b81111561060557600080fd5b82018360208201111561061757600080fd5b803590602001918460018302840111600160201b8311171561063857600080fd5b91935091506001600160a01b038135811691602081013582169160408201359160600135166119bb565b34801561066e57600080fd5b506102eb611df7565b34801561068357600080fd5b506102d4600480360360a081101561069a57600080fd5b6001600160a01b038235169160208101359160408201359190810190608081016060820135600160201b8111156106d057600080fd5b8201836020820111156106e257600080fd5b803590602001918460208302840111600160201b8311171561070357600080fd5b9193509150356001600160a01b0316611e08565b34801561072357600080fd5b506102d4612164565b34801561073857600080fd5b506105be6004803603602081101561074f57600080fd5b50356001600160a01b0316612210565b34801561076b57600080fd5b506102d4612226565b34801561078057600080fd5b506103d2600480360360a081101561079757600080fd5b6001600160a01b038235169160208101359160408201359190810190608081016060820135600160201b8111156107cd57600080fd5b8201836020820111156107df57600080fd5b803590602001918460208302840111600160201b8311171561080057600080fd5b9193509150356001600160a01b0316612290565b34801561082057600080fd5b506101de6124e4565b34801561083557600080fd5b506101de6124f3565b34801561084a57600080fd5b506103d2600480360360a081101561086157600080fd5b6001600160a01b038235169160208101359160408201359190810190608081016060820135600160201b81111561089757600080fd5b8201836020820111156108a957600080fd5b803590602001918460208302840111600160201b831117156108ca57600080fd5b9193509150356001600160a01b0316612502565b3480156108ea57600080fd5b506101de61276a565b3480156108ff57600080fd5b506101de61278e565b34801561091457600080fd5b506102d46004803603606081101561092b57600080fd5b6001600160a01b038235169190810190604081016020820135600160201b81111561095557600080fd5b82018360208201111561096757600080fd5b803590602001918460018302840111600160201b8311171561098857600080fd5b919350915035151561279d565b3480156109a157600080fd5b5061022d61287b565b6102d4600480360360808110156109c057600080fd5b6001600160a01b0382351691602081013591810190606081016040820135600160201b8111156109ef57600080fd5b820183602082011115610a0157600080fd5b803590602001918460208302840111600160201b83111715610a2257600080fd5b9193509150356001600160a01b0316612881565b348015610a4257600080fd5b5061022d612cce565b6103d260048036036080811015610a6157600080fd5b6001600160a01b0382351691602081013591810190606081016040820135600160201b811115610a9057600080fd5b820183602082011115610aa257600080fd5b803590602001918460208302840111600160201b83111715610ac357600080fd5b9193509150356001600160a01b0316612cd4565b6103d260048036036080811015610aed57600080fd5b6001600160a01b0382351691602081013591810190606081016040820135600160201b811115610b1c57600080fd5b820183602082011115610b2e57600080fd5b803590602001918460208302840111600160201b83111715610b4f57600080fd5b9193509150356001600160a01b03166130e9565b348015610b6f57600080fd5b506102d4600480360360a0811015610b8657600080fd5b6001600160a01b038235169160208101359160408201359190810190608081016060820135600160201b811115610bbc57600080fd5b820183602082011115610bce57600080fd5b803590602001918460208302840111600160201b83111715610bef57600080fd5b9193509150356001600160a01b031661352c565b348015610c0f57600080fd5b506102eb60048036036020811015610c2657600080fd5b50356001600160a01b0316613909565b348015610c4257600080fd5b506102d460048036036020811015610c5957600080fd5b50356001600160a01b0316613993565b348015610c7557600080fd5b506105be613a95565b7f000000000000000000000000000000000000000000000000000000000000000081565b60048054600354604080516370a0823160e01b81526001600160a01b03868116958201959095529051600094909216916370a0823191602480820192602092909190829003018186803b158015610cf857600080fd5b505afa158015610d0c573d6000803e3d6000fd5b505050506040513d6020811015610d2257600080fd5b50511015610d365760025461ffff16610d39565b60005b50919050565b60026001541415610d97576040805162461bcd60e51b815260206004820152601f60248201527f5265656e7472616e637947756172643a207265656e7472616e742063616c6c00604482015290519081900360640190fd5b6002600155610da4611df7565b15610de4576040805162461bcd60e51b815260206004820152601060248201526000805160206151d3833981519152604482015290519081900360640190fd5b81336001600160a01b0382161415610e31576040805162461bcd60e51b815260206004820152601a60248201526000805160206150e5833981519152604482015290519081900360640190fd5b6001600160a01b03861615610f6157604080516323b872dd60e01b81523360048201523060248201526044810186905290516001600160a01b038816916323b872dd9160648083019260209291908290030181600087803b158015610e9557600080fd5b505af1158015610ea9573d6000803e3d6000fd5b505050506040513d6020811015610ebf57600080fd5b50506040805163095ea7b360e01b81526001600160a01b037f0000000000000000000000000000000000000000000000000000000000000000811660048301526024820187905291519188169163095ea7b3916044808201926020929091908290030181600087803b158015610f3457600080fd5b505af1158015610f48573d6000803e3d6000fd5b505050506040513d6020811015610f5e57600080fd5b50505b600060607f00000000000000000000000000000000000000000000000000000000000000006001600160a01b0316348b8b604051808383808284376040519201945060009350909150508083038185875af1925050503d8060008114610fe3576040519150601f19603f3d011682016040523d82523d6000602084013e610fe8565b606091505b509150915081156101c457600081806020019051604081101561100a57600080fd5b505190508481101561104d5760405162461bcd60e51b81526004018080602001828103825260278152602001806151056027913960400191505060405180910390fd5b505050600180555050505050505050565b600554600160b01b900460ff1681565b60076020526000908152604090205460ff1681565b606061108d611df7565b156110cd576040805162461bcd60e51b815260206004820152601060248201526000805160206151d3833981519152604482015290519081900360640190fd5b6001600160a01b038716600090815260076020526040902054879060ff1661112a576040805162461bcd60e51b815260206004820152601c6024820152600080516020615216833981519152604482015290519081900360640190fd5b82336001600160a01b0382161415611177576040805162461bcd60e51b815260206004820152601a60248201526000805160206150e5833981519152604482015290519081900360640190fd5b6001600160a01b037f000000000000000000000000000000000000000000000000000000000000000016868660001981018181106111b157fe5b905060200201356001600160a01b03166001600160a01b03161461120a576040805162461bcd60e51b815260206004820152601960248201526000805160206151b3833981519152604482015290519081900360640190fd5b61121384613aa6565b93506000806112248a876001613c3c565b909350915061128890508b61124f836112438e8763ffffffff613da516565b9063ffffffff613da516565b8a8a80806020026020016040519081016040528093929190818152602001838360200280828437600092019190915250613e0892505050565b9450886112b68261124385896000815181106112a057fe5b6020026020010151613da590919063ffffffff16565b11156112f35760405162461bcd60e51b81526004018080602001828103825260238152602001806150c26023913960400191505060405180910390fd5b6113718888600081811061130357fe5b905060200201356001600160a01b0316336113578e8c8c600081811061132557fe5b905060200201356001600160a01b03168d8d600181811061134257fe5b905060200201356001600160a01b0316613f43565b8860008151811061136457fe5b602002602001015161408c565b6113b18b868a8a808060200260200160405190810160405280939291908181526020018383602002808284376000920191909152503092506141e9915050565b7f00000000000000000000000000000000000000000000000000000000000000006001600160a01b0316632e1a7d4d866001885103815181106113f057fe5b60200260200101516040518263ffffffff1660e01b815260040180828152602001915050600060405180830381600087803b15801561142e57600080fd5b505af1158015611442573d6000803e3d6000fd5b50505050611450338b6143f0565b6000611462838363ffffffff613da516565b11156114955761149560008989600019810181811061147d57fe5b905060200201356001600160a01b03168885856144e8565b505050509695505050505050565b6114ab6145ff565b6001600160a01b03166114bc6124e4565b6001600160a01b031614611505576040805162461bcd60e51b81526020600482018190526024820152600080516020615170833981519152604482015290519081900360640190fd5b61150d614603565b565b6060611519611df7565b15611559576040805162461bcd60e51b815260206004820152601060248201526000805160206151d3833981519152604482015290519081900360640190fd5b6001600160a01b038716600090815260076020526040902054879060ff166115b6576040805162461bcd60e51b815260206004820152601c6024820152600080516020615216833981519152604482015290519081900360640190fd5b82336001600160a01b0382161415611603576040805162461bcd60e51b815260206004820152601a60248201526000805160206150e5833981519152604482015290519081900360640190fd5b6001600160a01b037f0000000000000000000000000000000000000000000000000000000000000000168686600019810181811061163d57fe5b905060200201356001600160a01b03166001600160a01b031614611696576040805162461bcd60e51b815260206004820152601960248201526000805160206151b3833981519152604482015290519081900360640190fd5b61169f84613aa6565b93506116df89898888808060200260200160405190810160405280939291908181526020018383602002808284376000920191909152506146a692505050565b92506000806000611709866001885103815181106116f957fe5b6020026020010151886000613c3c565b9250925092508983101561174e5760405162461bcd60e51b815260040180806020018281038252602781526020018061509b6027913960400191505060405180910390fd5b6117aa8989600081811061175e57fe5b905060200201356001600160a01b03163361179d8f8d8d600081811061178057fe5b905060200201356001600160a01b03168e8e600181811061134257fe5b8960008151811061136457fe5b6117ea8c878b8b808060200260200160405190810160405280939291908181526020018383602002808284376000920191909152503092506141e9915050565b7f00000000000000000000000000000000000000000000000000000000000000006001600160a01b0316632e1a7d4d8760018951038151811061182957fe5b60200260200101516040518263ffffffff1660e01b815260040180828152602001915050600060405180830381600087803b15801561186757600080fd5b505af115801561187b573d6000803e3d6000fd5b5050505061188933846143f0565b600061189b838363ffffffff613da516565b11156118ce576118ce60008a8a60001981018181106118b657fe5b905060200201356001600160a01b03168985856144e8565b50505050509695505050505050565b6002546201000090046001600160a01b031681565b60086020908152600091825260409182902080548351601f6002600019610100600186161502019093169290920491820184900484028101840190945280845290918301828280156119855780601f1061195a57610100808354040283529160200191611985565b820191906000526020600020905b81548152906001019060200180831161196857829003601f168201915b505050505081565b7f000000000000000000000000000000000000000000000000000000000000000081565b60025461ffff1681565b60026001541415611a13576040805162461bcd60e51b815260206004820152601f60248201527f5265656e7472616e637947756172643a207265656e7472616e742063616c6c00604482015290519081900360640190fd5b6002600155611a20611df7565b15611a60576040805162461bcd60e51b815260206004820152601060248201526000805160206151d3833981519152604482015290519081900360640190fd5b80336001600160a01b0382161415611aad576040805162461bcd60e51b815260206004820152601a60248201526000805160206150e5833981519152604482015290519081900360640190fd5b6001600160a01b03851615611bdd57604080516323b872dd60e01b81523360048201523060248201526044810185905290516001600160a01b038716916323b872dd9160648083019260209291908290030181600087803b158015611b1157600080fd5b505af1158015611b25573d6000803e3d6000fd5b505050506040513d6020811015611b3b57600080fd5b50506040805163095ea7b360e01b81526001600160a01b037f0000000000000000000000000000000000000000000000000000000000000000811660048301526024820186905291519187169163095ea7b3916044808201926020929091908290030181600087803b158015611bb057600080fd5b505af1158015611bc4573d6000803e3d6000fd5b505050506040513d6020811015611bda57600080fd5b50505b60007f00000000000000000000000000000000000000000000000000000000000000006001600160a01b0316348989604051808383808284376040519201945060009350909150508083038185875af1925050503d8060008114611c5d576040519150601f19603f3d011682016040523d82523d6000602084013e611c62565b606091505b5050905080611cb0576040805162461bcd60e51b8152602060048201526015602482015274119b1bdbde949bdd5d195c8e881491559154951151605a1b604482015290519081900360640190fd5b6001600160a01b03861615611dbb57604080516370a0823160e01b815230600482015290516000916001600160a01b038816916370a0823191602480820192602092909190829003018186803b158015611d0957600080fd5b505afa158015611d1d573d6000803e3d6000fd5b505050506040513d6020811015611d3357600080fd5b50516040805163a9059cbb60e01b81523360048201526024810183905290519192506001600160a01b0388169163a9059cbb916044808201926020929091908290030181600087803b158015611d8857600080fd5b505af1158015611d9c573d6000803e3d6000fd5b505050506040513d6020811015611db257600080fd5b50611de9915050565b60405133904780156108fc02916000818181858888f19350505050158015611de7573d6000803e3d6000fd5b505b505060018055505050505050565b600054600160a01b900460ff165b90565b611e10611df7565b15611e50576040805162461bcd60e51b815260206004820152601060248201526000805160206151d3833981519152604482015290519081900360640190fd5b6001600160a01b038616600090815260076020526040902054869060ff16611ead576040805162461bcd60e51b815260206004820152601c6024820152600080516020615216833981519152604482015290519081900360640190fd5b81336001600160a01b0382161415611efa576040805162461bcd60e51b815260206004820152601a60248201526000805160206150e5833981519152604482015290519081900360640190fd5b611f0383613aa6565b92506000806000611f168a876000613c3c565b925092509250611f5488886000818110611f2c57fe5b905060200201356001600160a01b031633611f4e8e8c8c600081811061132557fe5b8661408c565b600088886000198101818110611f6657fe5b604080516370a0823160e01b81523360048201529051602092830294909401356001600160a01b0316936370a08231935060248083019392829003018186803b158015611fb257600080fd5b505afa158015611fc6573d6000803e3d6000fd5b505050506040513d6020811015611fdc57600080fd5b50516040805160208b810282810182019093528b825292935061201e928f928d918d9182918501908490808284376000920191909152503392506147cb915050565b896120b7828b8b600019810181811061203357fe5b604080516370a0823160e01b81523360048201529051602092830294909401356001600160a01b0316936370a08231935060248083019392829003018186803b15801561207f57600080fd5b505afa158015612093573d6000803e3d6000fd5b505050506040513d60208110156120a957600080fd5b50519063ffffffff614a9c16565b10156120f45760405162461bcd60e51b815260040180806020018281038252602781526020018061509b6027913960400191505060405180910390fd5b6000612106848463ffffffff613da516565b1115612156576121568989600081811061211c57fe5b905060200201356001600160a01b03168a8a60018d8d90500381811061213e57fe5b905060200201356001600160a01b03168986866144e8565b505050505050505050505050565b61216c6145ff565b6001600160a01b031661217d6124e4565b6001600160a01b0316146121c6576040805162461bcd60e51b81526020600482018190526024820152600080516020615170833981519152604482015290519081900360640190fd5b600080546040516001600160a01b03909116907f8be0079c531659141344cd1fd0a4f28419497f9722a3daafe3b4186f6b6457e0908390a3600080546001600160a01b0319169055565b60066020526000908152604090205461ffff1681565b61222e6145ff565b6001600160a01b031661223f6124e4565b6001600160a01b031614612288576040805162461bcd60e51b81526020600482018190526024820152600080516020615170833981519152604482015290519081900360640190fd5b61150d614af9565b606061229a611df7565b156122da576040805162461bcd60e51b815260206004820152601060248201526000805160206151d3833981519152604482015290519081900360640190fd5b6001600160a01b038716600090815260076020526040902054879060ff16612337576040805162461bcd60e51b815260206004820152601c6024820152600080516020615216833981519152604482015290519081900360640190fd5b82336001600160a01b0382161415612384576040805162461bcd60e51b815260206004820152601a60248201526000805160206150e5833981519152604482015290519081900360640190fd5b61238d84613aa6565b93506123cd8989888880806020026020016040519081016040528093929190818152602001838360200280828437600092019190915250613e0892505050565b92506000806123f2856000815181106123e257fe5b6020026020010151876001613c3c565b92509250508861240d8261124385896000815181106112a057fe5b111561244a5760405162461bcd60e51b81526004018080602001828103825260238152602001806150c26023913960400191505060405180910390fd5b61245a8888600081811061130357fe5b61249a8b868a8a808060200260200160405190810160405280939291908181526020018383602002808284376000920191909152503392506141e9915050565b60006124ac838363ffffffff613da516565b111561149557611495888860008181106124c257fe5b905060200201356001600160a01b0316898960018c8c90500381811061147d57fe5b6000546001600160a01b031690565b6003546001600160a01b031681565b606061250c611df7565b1561254c576040805162461bcd60e51b815260206004820152601060248201526000805160206151d3833981519152604482015290519081900360640190fd5b6001600160a01b038716600090815260076020526040902054879060ff166125a9576040805162461bcd60e51b815260206004820152601c6024820152600080516020615216833981519152604482015290519081900360640190fd5b82336001600160a01b03821614156125f6576040805162461bcd60e51b815260206004820152601a60248201526000805160206150e5833981519152604482015290519081900360640190fd5b6125ff84613aa6565b935060008060006126128b886000613c3c565b9250925092506126568c848b8b808060200260200160405190810160405280939291908181526020018383602002808284376000920191909152506146a692505050565b9550898660018851038151811061266957fe5b602002602001015110156126ae5760405162461bcd60e51b815260040180806020018281038252602781526020018061509b6027913960400191505060405180910390fd5b6126e0898960008181106126be57fe5b905060200201356001600160a01b031633611f4e8f8d8d600081811061178057fe5b6127208c878b8b808060200260200160405190810160405280939291908181526020018383602002808284376000920191909152503392506141e9915050565b6000612732838363ffffffff613da516565b11156118ce576118ce8989600081811061274857fe5b905060200201356001600160a01b03168a8a60018d8d9050038181106118b657fe5b7f000000000000000000000000000000000000000000000000000000000000000081565b6005546001600160a01b031681565b6127a56145ff565b6001600160a01b03166127b66124e4565b6001600160a01b0316146127ff576040805162461bcd60e51b81526020600482018190526024820152600080516020615170833981519152604482015290519081900360640190fd5b6001600160a01b0384166000908152600760209081526040808320805460ff191685151517905560089091529020612838908484614fb6565b50604080516001600160a01b038616815290517fd3e17274581b648825e308eb9fca7b795aa9ca651ee0953b1f66dd35cbc099789181900360200190a150505050565b60045481565b612889611df7565b156128c9576040805162461bcd60e51b815260206004820152601060248201526000805160206151d3833981519152604482015290519081900360640190fd5b6001600160a01b038516600090815260076020526040902054859060ff16612926576040805162461bcd60e51b815260206004820152601c6024820152600080516020615216833981519152604482015290519081900360640190fd5b81336001600160a01b0382161415612973576040805162461bcd60e51b815260206004820152601a60248201526000805160206150e5833981519152604482015290519081900360640190fd5b7f00000000000000000000000000000000000000000000000000000000000000006001600160a01b0316858560008181106129aa57fe5b905060200201356001600160a01b03166001600160a01b031614612a03576040805162461bcd60e51b815260206004820152601960248201526000805160206151b3833981519152604482015290519081900360640190fd5b612a0c83613aa6565b92506000806000612a1f34876000613c3c565b9250925092507f00000000000000000000000000000000000000000000000000000000000000006001600160a01b031663d0e30db0846040518263ffffffff1660e01b81526004016000604051808303818588803b158015612a8057600080fd5b505af1158015612a94573d6000803e3d6000fd5b50505050507f00000000000000000000000000000000000000000000000000000000000000006001600160a01b031663a9059cbb612af68c8b8b6000818110612ad957fe5b905060200201356001600160a01b03168c8c600181811061134257fe5b856040518363ffffffff1660e01b815260040180836001600160a01b03166001600160a01b0316815260200182815260200192505050602060405180830381600087803b158015612b4657600080fd5b505af1158015612b5a573d6000803e3d6000fd5b505050506040513d6020811015612b7057600080fd5b5051612b7857fe5b600088886000198101818110612b8a57fe5b604080516370a0823160e01b81523360048201529051602092830294909401356001600160a01b0316936370a08231935060248083019392829003018186803b158015612bd657600080fd5b505afa158015612bea573d6000803e3d6000fd5b505050506040513d6020811015612c0057600080fd5b50516040805160208b810282810182019093528b8252929350612c42928e928d918d9182918501908490808284376000920191909152503392506147cb915050565b89612c57828b8b600019810181811061203357fe5b1015612c945760405162461bcd60e51b815260040180806020018281038252602781526020018061509b6027913960400191505060405180910390fd5b6000612ca6848463ffffffff613da516565b1115612cc157612cc160008a8a600019810181811061213e57fe5b5050505050505050505050565b61271081565b6060612cde611df7565b15612d1e576040805162461bcd60e51b815260206004820152601060248201526000805160206151d3833981519152604482015290519081900360640190fd5b6001600160a01b038616600090815260076020526040902054869060ff16612d7b576040805162461bcd60e51b815260206004820152601c6024820152600080516020615216833981519152604482015290519081900360640190fd5b82336001600160a01b0382161415612dc8576040805162461bcd60e51b815260206004820152601a60248201526000805160206150e5833981519152604482015290519081900360640190fd5b7f00000000000000000000000000000000000000000000000000000000000000006001600160a01b031686866000818110612dff57fe5b905060200201356001600160a01b03166001600160a01b031614612e58576040805162461bcd60e51b815260206004820152601960248201526000805160206151b3833981519152604482015290519081900360640190fd5b612e6184613aa6565b93506000806000612e7434886000613c3c565b925092509250612eb88b848b8b808060200260200160405190810160405280939291908181526020018383602002808284376000920191909152506146a692505050565b95508986600188510381518110612ecb57fe5b60200260200101511015612f105760405162461bcd60e51b815260040180806020018281038252602781526020018061509b6027913960400191505060405180910390fd5b7f00000000000000000000000000000000000000000000000000000000000000006001600160a01b031663d0e30db087600081518110612f4c57fe5b60200260200101516040518263ffffffff1660e01b81526004016000604051808303818588803b158015612f7f57600080fd5b505af1158015612f93573d6000803e3d6000fd5b50505050507f00000000000000000000000000000000000000000000000000000000000000006001600160a01b031663a9059cbb612fd88d8c8c600081811061132557fe5b88600081518110612fe557fe5b60200260200101516040518363ffffffff1660e01b815260040180836001600160a01b03166001600160a01b0316815260200182815260200192505050602060405180830381600087803b15801561303c57600080fd5b505af1158015613050573d6000803e3d6000fd5b505050506040513d602081101561306657600080fd5b505161306e57fe5b6130ae8b878b8b808060200260200160405190810160405280939291908181526020018383602002808284376000920191909152503392506141e9915050565b60006130c0838363ffffffff613da516565b11156130db576130db60008a8a60001981018181106118b657fe5b505050505095945050505050565b60606130f3611df7565b15613133576040805162461bcd60e51b815260206004820152601060248201526000805160206151d3833981519152604482015290519081900360640190fd5b6001600160a01b038616600090815260076020526040902054869060ff16613190576040805162461bcd60e51b815260206004820152601c6024820152600080516020615216833981519152604482015290519081900360640190fd5b82336001600160a01b03821614156131dd576040805162461bcd60e51b815260206004820152601a60248201526000805160206150e5833981519152604482015290519081900360640190fd5b7f00000000000000000000000000000000000000000000000000000000000000006001600160a01b03168686600081811061321457fe5b905060200201356001600160a01b03166001600160a01b03161461326d576040805162461bcd60e51b815260206004820152601960248201526000805160206151b3833981519152604482015290519081900360640190fd5b6132ab8888888880806020026020016040519081016040528093929190818152602001838360200280828437600092019190915250613e0892505050565b92506000806132c0856000815181106123e257fe5b9250925050346132db8261124385896000815181106112a057fe5b11156133185760405162461bcd60e51b81526004018080602001828103825260238152602001806150c26023913960400191505060405180910390fd5b7f00000000000000000000000000000000000000000000000000000000000000006001600160a01b031663d0e30db08660008151811061335457fe5b60200260200101516040518263ffffffff1660e01b81526004016000604051808303818588803b15801561338757600080fd5b505af115801561339b573d6000803e3d6000fd5b50505050507f00000000000000000000000000000000000000000000000000000000000000006001600160a01b031663a9059cbb6133e08c8b8b6000818110612ad957fe5b876000815181106133ed57fe5b60200260200101516040518363ffffffff1660e01b815260040180836001600160a01b03166001600160a01b0316815260200182815260200192505050602060405180830381600087803b15801561344457600080fd5b505af1158015613458573d6000803e3d6000fd5b505050506040513d602081101561346e57600080fd5b505161347657fe5b6134b68a868a8a808060200260200160405190810160405280939291908181526020018383602002808284376000920191909152503392506141e9915050565b6134cb8161124384886000815181106112a057fe5b3411156134f2576134f2336134eb83611243868a6000815181106112a057fe5b34036143f0565b6000613504838363ffffffff613da516565b111561351f5761351f60008989600019810181811061147d57fe5b5050505095945050505050565b613534611df7565b15613574576040805162461bcd60e51b815260206004820152601060248201526000805160206151d3833981519152604482015290519081900360640190fd5b6001600160a01b038616600090815260076020526040902054869060ff166135d1576040805162461bcd60e51b815260206004820152601c6024820152600080516020615216833981519152604482015290519081900360640190fd5b81336001600160a01b038216141561361e576040805162461bcd60e51b815260206004820152601a60248201526000805160206150e5833981519152604482015290519081900360640190fd5b6001600160a01b037f0000000000000000000000000000000000000000000000000000000000000000168585600019810181811061365857fe5b905060200201356001600160a01b03166001600160a01b0316146136b1576040805162461bcd60e51b815260206004820152601960248201526000805160206151b3833981519152604482015290519081900360640190fd5b6136ba83613aa6565b9250613711858560008181106136cc57fe5b905060200201356001600160a01b03163361370b8b898960008181106136ee57fe5b905060200201356001600160a01b03168a8a600181811061134257fe5b8a61408c565b613750888686808060200260200160405190810160405280939291908181526020018383602002808284376000920191909152503092506147cb915050565b604080516370a0823160e01b815230600482015290516000916001600160a01b037f000000000000000000000000000000000000000000000000000000000000000016916370a0823191602480820192602092909190829003018186803b1580156137ba57600080fd5b505afa1580156137ce573d6000803e3d6000fd5b505050506040513d60208110156137e457600080fd5b505160408051632e1a7d4d60e01b81526004810183905290519192506001600160a01b037f00000000000000000000000000000000000000000000000000000000000000001691632e1a7d4d9160248082019260009290919082900301818387803b15801561385257600080fd5b505af1158015613866573d6000803e3d6000fd5b50505050600080600061387b84886000613c3c565b925092509250898310156138d2576040805162461bcd60e51b8152602060048201526019602482015278466c6f6f7a526f757465723a204c4f575f534c49505041474560381b604482015290519081900360640190fd5b6138dc33846143f0565b60006138ee838363ffffffff613da516565b11156121565761215660008a8a60001981018181106118b657fe5b60048054600354604080516370a0823160e01b81526001600160a01b03868116958201959095529051600094909216916370a0823191602480820192602092909190829003018186803b15801561395f57600080fd5b505afa158015613973573d6000803e3d6000fd5b505050506040513d602081101561398957600080fd5b5051101592915050565b61399b6145ff565b6001600160a01b03166139ac6124e4565b6001600160a01b0316146139f5576040805162461bcd60e51b81526020600482018190526024820152600080516020615170833981519152604482015290519081900360640190fd5b6001600160a01b038116613a3a5760405162461bcd60e51b81526004018080602001828103825260268152602001806150756026913960400191505060405180910390fd5b600080546040516001600160a01b03808516939216917f8be0079c531659141344cd1fd0a4f28419497f9722a3daafe3b4186f6b6457e091a3600080546001600160a01b0319166001600160a01b0392909216919091179055565b600554600160a01b900461ffff1681565b6002546040805163493f44bd60e11b8152336004820181905291516000936201000090046001600160a01b03169163927e897a916024808301926020929190829003018186803b158015613af957600080fd5b505afa158015613b0d573d6000803e3d6000fd5b505050506040513d6020811015613b2357600080fd5b5051158015613b3a57506001600160a01b03831615155b15613bb557600254604080516364e0b15960e01b81526001600160a01b0384811660048301528681166024830152915162010000909304909116916364e0b1599160448082019260009290919082900301818387803b158015613b9c57600080fd5b505af1158015613bb0573d6000803e3d6000fd5b505050505b60025460408051633444fbf160e21b81526001600160a01b0384811660048301529151620100009093049091169163d113efc491602480820192602092909190829003018186803b158015613c0957600080fd5b505afa158015613c1d573d6000803e3d6000fd5b505050506040513d6020811015613c3357600080fd5b50519392505050565b6000806000613c4a33613909565b15613c5757859250613d9c565b8315613cb557600254869350613cae908490613ca290613c84906127109061ffff1663ffffffff614a9c16565b613c968761271063ffffffff614b7d16565b9063ffffffff614bd616565b9063ffffffff614a9c16565b9150613cea565b600254613cd59061271090613c9690899061ffff1663ffffffff614b7d16565b9150613ce7868363ffffffff614a9c16565b92505b6001600160a01b03851615801590613d0b5750600554600160b01b900460ff165b15613d98576001600160a01b03851660009081526006602052604081205461ffff16613d4457600554600160a01b900461ffff16613d62565b6001600160a01b03861660009081526006602052604090205461ffff165b9050613d7e612710613c968561ffff851663ffffffff614b7d16565b9150613d90838363ffffffff614a9c16565b925050613d9c565b5060005b93509350939050565b600082820183811015613dff576040805162461bcd60e51b815260206004820152601b60248201527f536166654d6174683a206164646974696f6e206f766572666c6f770000000000604482015290519081900360640190fd5b90505b92915050565b6060600282511015613e4f576040805162461bcd60e51b815260206004820152601960248201526000805160206151b3833981519152604482015290519081900360640190fd5b815167ffffffffffffffff81118015613e6757600080fd5b50604051908082528060200260200182016040528015613e91578160200160208202803683370190505b5090508281600183510381518110613ea557fe5b60209081029190910101528151600019015b8015613f3b57600080613ef487866001860381518110613ed357fe5b6020026020010151878681518110613ee757fe5b6020026020010151614c3d565b91509150613f16848481518110613f0757fe5b60200260200101518383614d04565b846001850381518110613f2557fe5b6020908102919091010152505060001901613eb7565b509392505050565b6000806000613f528585614df4565b9150915085828260405160200180836001600160a01b03166001600160a01b031660601b8152601401826001600160a01b03166001600160a01b031660601b8152601401925050506040516020818303038152906040528051906020012060086000896001600160a01b03166001600160a01b0316815260200190815260200160002060405160200180806001600160f81b0319815250600101846001600160a01b03166001600160a01b031660601b8152601401838152602001828054600181600116156101000203166002900480156140645780601f10614042576101008083540402835291820191614064565b820191906000526020600020905b815481529060010190602001808311614050575b505060408051601f1981840301815291905280516020909101209a9950505050505050505050565b604080516001600160a01b0385811660248301528481166044830152606480830185905283518084039091018152608490920183526020820180516001600160e01b03166323b872dd60e01b17815292518251600094606094938a169392918291908083835b602083106141115780518252601f1990920191602091820191016140f2565b6001836020036101000a0380198251168184511680821785525050505050509050019150506000604051808303816000865af19150503d8060008114614173576040519150601f19603f3d011682016040523d82523d6000602084013e614178565b606091505b50915091508180156141a65750805115806141a657508080602001905160208110156141a357600080fd5b50515b6141e15760405162461bcd60e51b81526004018080602001828103825260248152602001806152366024913960400191505060405180910390fd5b505050505050565b60005b60018351038110156143e95760008084838151811061420757fe5b602002602001015185846001018151811061421e57fe5b60200260200101519150915060006142368383614df4565b509050600087856001018151811061424a57fe5b60200260200101519050600080836001600160a01b0316866001600160a01b0316146142785782600061427c565b6000835b91509150600060028a5103881061429357886142b4565b6142b48c878c8b600201815181106142a757fe5b6020026020010151613f43565b90506142c18c8888613f43565b6001600160a01b031663022c0d9f84848460006040519080825280601f01601f1916602001820160405280156142fe576020820181803683370190505b506040518563ffffffff1660e01b815260040180858152602001848152602001836001600160a01b03166001600160a01b0316815260200180602001828103825283818151815260200191508051906020019080838360005b8381101561436f578181015183820152602001614357565b50505050905090810190601f16801561439c5780820380516001836020036101000a031916815260200191505b5095505050505050600060405180830381600087803b1580156143be57600080fd5b505af11580156143d2573d6000803e3d6000fd5b5050600190990198506141ec975050505050505050565b5050505050565b604080516000808252602082019092526001600160a01b0384169083906040518082805190602001908083835b6020831061443c5780518252601f19909201916020918201910161441d565b6001836020036101000a03801982511681845116808217855250505050505090500191505060006040518083038185875af1925050503d806000811461449e576040519150601f19603f3d011682016040523d82523d6000602084013e6144a3565b606091505b50509050806144e35760405162461bcd60e51b81526004018080602001828103825260238152602001806151f36023913960400191505060405180910390fd5b505050565b6001600160a01b0385166145775760055461450c906001600160a01b0316836143f0565b80156145725761451c83826143f0565b604080513381526001600160a01b03868116602083015287811682840152606082018490529151918516917f84ff16114f882a54c4748006b5e4b0b7ac76bd911d135145a6d063fd76a38a409181900360800190a25b6143e9565b60055461459190869033906001600160a01b03168561408c565b80156143e9576145a38533858461408c565b604080513381526001600160a01b03868116602083015287811682840152606082018490529151918516917f84ff16114f882a54c4748006b5e4b0b7ac76bd911d135145a6d063fd76a38a409181900360800190a25050505050565b3390565b61460b611df7565b614653576040805162461bcd60e51b815260206004820152601460248201527314185d5cd8589b194e881b9bdd081c185d5cd95960621b604482015290519081900360640190fd5b6000805460ff60a01b191690557f5db9ee0a495bf2e6ff9c91a7834c1ba4fdd244a5e8aa4e537bd38aeae4b073aa6146896145ff565b604080516001600160a01b039092168252519081900360200190a1565b60606002825110156146ed576040805162461bcd60e51b815260206004820152601960248201526000805160206151b3833981519152604482015290519081900360640190fd5b815167ffffffffffffffff8111801561470557600080fd5b5060405190808252806020026020018201604052801561472f578160200160208202803683370190505b509050828160008151811061474057fe5b60200260200101818152505060005b6001835103811015613f3b576000806147858786858151811061476e57fe5b6020026020010151878660010181518110613ee757fe5b915091506147a784848151811061479857fe5b60200260200101518383614ed2565b8484600101815181106147b657fe5b6020908102919091010152505060010161474f565b60005b6001835103811015614a96576000808483815181106147e957fe5b602002602001015185846001018151811061480057fe5b60200260200101519150915060006148188383614df4565b5090506000614828888585613f43565b9050600080600080846001600160a01b0316630902f1ac6040518163ffffffff1660e01b815260040160606040518083038186803b15801561486957600080fd5b505afa15801561487d573d6000803e3d6000fd5b505050506040513d606081101561489357600080fd5b5080516020909101516001600160701b0391821693501690506000806001600160a01b038a8116908916146148c95782846148cc565b83835b9150915061492a828b6001600160a01b03166370a082318a6040518263ffffffff1660e01b815260040180826001600160a01b03166001600160a01b0316815260200191505060206040518083038186803b15801561207f57600080fd5b9550614937868383614ed2565b945050505050600080856001600160a01b0316886001600160a01b03161461496157826000614965565b6000835b91509150600060028c51038a1061497c578a614990565b6149908d898e8d600201815181106142a757fe5b604080516000808252602082019283905263022c0d9f60e01b835260248201878152604483018790526001600160a01b038086166064850152608060848501908152845160a48601819052969750908c169563022c0d9f958a958a958a9591949193919260c486019290918190849084905b83811015614a1a578181015183820152602001614a02565b50505050905090810190601f168015614a475780820380516001836020036101000a031916815260200191505b5095505050505050600060405180830381600087803b158015614a6957600080fd5b505af1158015614a7d573d6000803e3d6000fd5b50506001909b019a506147ce9950505050505050505050565b50505050565b600082821115614af3576040805162461bcd60e51b815260206004820152601e60248201527f536166654d6174683a207375627472616374696f6e206f766572666c6f770000604482015290519081900360640190fd5b50900390565b614b01611df7565b15614b41576040805162461bcd60e51b815260206004820152601060248201526000805160206151d3833981519152604482015290519081900360640190fd5b6000805460ff60a01b1916600160a01b1790557f62e78cea01bee320cd4e420270b5ea74000d11b0c9f74754ebdbfc544b05a2586146896145ff565b600082614b8c57506000613e02565b82820282848281614b9957fe5b0414613dff5760405162461bcd60e51b815260040180806020018281038252602181526020018061514f6021913960400191505060405180910390fd5b6000808211614c2c576040805162461bcd60e51b815260206004820152601a60248201527f536166654d6174683a206469766973696f6e206279207a65726f000000000000604482015290519081900360640190fd5b818381614c3557fe5b049392505050565b6000806000614c4c8585614df4565b509050600080614c5d888888613f43565b6001600160a01b0316630902f1ac6040518163ffffffff1660e01b815260040160606040518083038186803b158015614c9557600080fd5b505afa158015614ca9573d6000803e3d6000fd5b505050506040513d6060811015614cbf57600080fd5b5080516020909101516001600160701b0391821693501690506001600160a01b0387811690841614614cf2578082614cf5565b81815b90999098509650505050505050565b6000808411614d445760405162461bcd60e51b815260040180806020018281038252602781526020018061509b6027913960400191505060405180910390fd5b600083118015614d545750600082115b614d8f5760405162461bcd60e51b81526004018080602001828103825260238152602001806151906023913960400191505060405180910390fd5b6000614db3612710614da7868863ffffffff614b7d16565b9063ffffffff614b7d16565b90506000614dcd6126fc614da7868963ffffffff614a9c16565b9050614dea6001828481614ddd57fe5b049063ffffffff613da516565b9695505050505050565b600080826001600160a01b0316846001600160a01b03161415614e485760405162461bcd60e51b815260040180806020018281038252602381526020018061512c6023913960400191505060405180910390fd5b826001600160a01b0316846001600160a01b031610614e68578284614e6b565b83835b90925090506001600160a01b038216614ecb576040805162461bcd60e51b815260206004820152601c60248201527f50616e63616b654c6962726172793a205a45524f5f4144445245535300000000604482015290519081900360640190fd5b9250929050565b6000808411614f125760405162461bcd60e51b815260040180806020018281038252602681526020018061504f6026913960400191505060405180910390fd5b600083118015614f225750600082115b614f5d5760405162461bcd60e51b81526004018080602001828103825260238152602001806151906023913960400191505060405180910390fd5b6000614f71856126fc63ffffffff614b7d16565b90506000614f85828563ffffffff614b7d16565b90506000614f9f836112438861271063ffffffff614b7d16565b9050808281614faa57fe5b04979650505050505050565b828054600181600116156101000203166002900490600052602060002090601f016020900481019282601f10614ff75782800160ff19823516178555615024565b82800160010185558215615024579182015b82811115615024578235825591602001919060010190615009565b50615030929150615034565b5090565b611e0591905b80821115615030576000815560010161503a56fe466c6f6f7a526f757465723a20494e53554646494349454e545f494e5055545f414d4f554e544f776e61626c653a206e6577206f776e657220697320746865207a65726f2061646472657373466c6f6f7a526f757465723a20494e53554646494349454e545f4f55545055545f414d4f554e54466c6f6f7a526f757465723a204558434553534956455f494e5055545f414d4f554e54466c6f6f7a526f757465723a2053454c465f524546455252414c000000000000466c6f6f7a526f757465723a20496e73756666696369656e74204f757470757420416d6f756e7450616e63616b654c6962726172793a204944454e544943414c5f414444524553534553536166654d6174683a206d756c7469706c69636174696f6e206f766572666c6f774f776e61626c653a2063616c6c6572206973206e6f7420746865206f776e6572466c6f6f7a526f757465723a20494e53554646494349454e545f4c4951554944495459466c6f6f7a526f757465723a20494e56414c49445f50415448000000000000005061757361626c653a20706175736564000000000000000000000000000000005472616e7366657248656c7065723a204554485f5452414e534645525f4641494c4544466c6f6f7a526f757465723a20494e56414c49445f464143544f5259000000005472616e7366657248656c7065723a205452414e534645525f46524f4d5f4641494c4544a2646970667358221220f0f2b6e9339b1d76bc5133e7ffe4a4745f35248a2a62ac3faa09acb75762232164736f6c63430006060033",
  "devdoc": {
    "methods": {
      "constructor": {
        "details": "construct this contract",
        "params": {
          "_WETH": "address of WETH.",
          "_balanceThreshold": "balance threshold of SYA tokens which actives feeless swapping",
          "_feeReceiver": "address that receives protocol fees",
          "_oneInch": "address of 1inch contract to forward swaps",
          "_referralRegistry": "address of referral registry that stores referral anchors",
          "_referralRewardRate": "percentage of swapFee that are paid out as rewards",
          "_saveYourAssetsToken": "address of SYA token",
          "_swapFee": "nominator for swapFee. Denominator = 10000",
          "_zeroEx": "address of zeroX proxy contract to forward swaps"
        }
      },
      "getUserFee(address)": {
        "details": "returns the fee nominator for a given user"
      },
      "owner()": {
        "details": "Returns the address of the current owner."
      },
      "pause()": {
        "details": "lets the admin pause this contract"
      },
      "paused()": {
        "details": "Returns true if the contract is paused, and false otherwise."
      },
      "renounceOwnership()": {
        "details": "Leaves the contract without owner. It will not be possible to call `onlyOwner` functions anymore. Can only be called by the current owner.     * NOTE: Renouncing ownership will leave the contract without an owner, thereby removing any functionality that is only available to the owner."
      },
      "swapETHForExactTokens(address,uint256,address[],address)": {
        "details": "execute swap directly on Uniswap/Pancake/...",
        "params": {
          "amountOut": "expected amount of tokens out",
          "fork": "fork used to execute swap",
          "path": "Sell path.",
          "referee": "address of referee for msg.sender, 0x adress if none"
        },
        "returns": {
          "amounts": "amounts"
        }
      },
      "swapExactETHForTokens(address,uint256,address[],address)": {
        "details": "execute swap directly on Uniswap/Pancake & simular forks",
        "params": {
          "amountOutMin": "minimum tokens to receive",
          "fork": "fork used to execute swap",
          "path": "Sell path.",
          "referee": "address of referee for msg.sender, 0x adress if none"
        },
        "returns": {
          "amounts": "amounts"
        }
      },
      "swapExactETHForTokensSupportingFeeOnTransferTokens(address,uint256,address[],address)": {
        "details": "execute swap directly on Uniswap/Pancake/...",
        "params": {
          "amountOutMin": "minimum expected tokens to receive",
          "fork": "fork used to execute swap",
          "path": "Sell path.",
          "referee": "address of referee for msg.sender, 0x adress if none"
        }
      },
      "swapExactTokensForETH(address,uint256,uint256,address[],address)": {
        "details": "execute swap directly on Uniswap/Pancake/...",
        "params": {
          "amountIn": "amount if tokens In",
          "amountOutMin": "minimum tokens to receive",
          "fork": "fork used to execute swap",
          "path": "Sell path.",
          "referee": "address of referee for msg.sender, 0x adress if none"
        },
        "returns": {
          "amounts": "amounts"
        }
      },
      "swapExactTokensForETHSupportingFeeOnTransferTokens(address,uint256,uint256,address[],address)": {
        "details": "execute swap directly on Uniswap/Pancake/...",
        "params": {
          "amountIn": "amount of tokensIn",
          "amountOutMin": "minimum tokens to receive",
          "fork": "fork used to execute swap",
          "path": "Sell path.",
          "referee": "address of referee for msg.sender, 0x adress if none"
        }
      },
      "swapExactTokensForTokens(address,uint256,uint256,address[],address)": {
        "details": "execute swap directly on Uniswap/Pancake/...",
        "params": {
          "amountIn": "amount if tokens In",
          "amountOutMin": "minimum tokens to receive",
          "fork": "fork used to execute swap",
          "path": "Sell path.",
          "referee": "address of referee for msg.sender, 0x adress if none"
        },
        "returns": {
          "amounts": "amounts"
        }
      },
      "swapExactTokensForTokensSupportingFeeOnTransferTokens(address,uint256,uint256,address[],address)": {
        "details": "execute swap directly on Uniswap/Pancake/...",
        "params": {
          "amountIn": "amount if tokens In",
          "amountOutMin": "minimum tokens to receive",
          "fork": "fork used to execute swap",
          "path": "Sell path.",
          "referee": "address of referee for msg.sender, 0x adress if none"
        }
      },
      "swapTokensForExactETH(address,uint256,uint256,address[],address)": {
        "details": "execute swap directly on Uniswap/Pancake/...",
        "params": {
          "amountInMax": "maximum tokens to send",
          "amountOut": "expected tokens to receive",
          "fork": "fork used to execute swap",
          "path": "Sell path.",
          "referee": "address of referee for msg.sender, 0x adress if none"
        },
        "returns": {
          "amounts": "amounts"
        }
      },
      "swapTokensForExactTokens(address,uint256,uint256,address[],address)": {
        "details": "execute swap directly on Uniswap/Pancake/...",
        "params": {
          "amountInMax": "maximum tokens to send",
          "amountOut": "expected tokens to receive",
          "fork": "fork used to execute swap",
          "path": "Sell path.",
          "referee": "address of referee for msg.sender, 0x adress if none"
        },
        "returns": {
          "amounts": "amounts"
        }
      },
      "transferOwnership(address)": {
        "details": "Transfers ownership of the contract to a new account (`newOwner`). Can only be called by the current owner."
      },
      "unpause()": {
        "details": "lets the admin unpause this contract"
      },
      "updateFork(address,bytes,bool)": {
        "details": "lets the admin update an Uniswap style fork"
      },
      "userAboveBalanceThreshold(address)": {
        "details": "returns if a users is above the SYA threshold and can swap without fees"
      }
    }
  },
  "userdoc": {
    "methods": {}
  },
  "storageLayout": {
    "storage": [
      {
        "astId": 592,
        "contract": "contracts/FloozRouter.sol:FloozRouter",
        "label": "_owner",
        "offset": 0,
        "slot": "0",
        "type": "t_address"
      },
      {
        "astId": 1168,
        "contract": "contracts/FloozRouter.sol:FloozRouter",
        "label": "_paused",
        "offset": 20,
        "slot": "0",
        "type": "t_bool"
      },
      {
        "astId": 1253,
        "contract": "contracts/FloozRouter.sol:FloozRouter",
        "label": "_status",
        "offset": 0,
        "slot": "1",
        "type": "t_uint256"
      },
      {
        "astId": 4824,
        "contract": "contracts/FloozRouter.sol:FloozRouter",
        "label": "swapFee",
        "offset": 0,
        "slot": "2",
        "type": "t_uint16"
      },
      {
        "astId": 4832,
        "contract": "contracts/FloozRouter.sol:FloozRouter",
        "label": "referralRegistry",
        "offset": 2,
        "slot": "2",
        "type": "t_contract(IReferralRegistry)7972"
      },
      {
        "astId": 4834,
        "contract": "contracts/FloozRouter.sol:FloozRouter",
        "label": "saveYourAssetsToken",
        "offset": 0,
        "slot": "3",
        "type": "t_contract(IERC20)1127"
      },
      {
        "astId": 4836,
        "contract": "contracts/FloozRouter.sol:FloozRouter",
        "label": "balanceThreshold",
        "offset": 0,
        "slot": "4",
        "type": "t_uint256"
      },
      {
        "astId": 4838,
        "contract": "contracts/FloozRouter.sol:FloozRouter",
        "label": "feeReceiver",
        "offset": 0,
        "slot": "5",
        "type": "t_address_payable"
      },
      {
        "astId": 4840,
        "contract": "contracts/FloozRouter.sol:FloozRouter",
        "label": "referralRewardRate",
        "offset": 20,
        "slot": "5",
        "type": "t_uint16"
      },
      {
        "astId": 4842,
        "contract": "contracts/FloozRouter.sol:FloozRouter",
        "label": "referralsActivated",
        "offset": 22,
        "slot": "5",
        "type": "t_bool"
      },
      {
        "astId": 4846,
        "contract": "contracts/FloozRouter.sol:FloozRouter",
        "label": "customReferralRewardRate",
        "offset": 0,
        "slot": "6",
        "type": "t_mapping(t_address,t_uint16)"
      },
      {
        "astId": 4850,
        "contract": "contracts/FloozRouter.sol:FloozRouter",
        "label": "forkActivated",
        "offset": 0,
        "slot": "7",
        "type": "t_mapping(t_address,t_bool)"
      },
      {
        "astId": 4854,
        "contract": "contracts/FloozRouter.sol:FloozRouter",
        "label": "forkInitCode",
        "offset": 0,
        "slot": "8",
        "type": "t_mapping(t_address,t_bytes_storage)"
      }
    ],
    "types": {
      "t_address": {
        "encoding": "inplace",
        "label": "address",
        "numberOfBytes": "20"
      },
      "t_address_payable": {
        "encoding": "inplace",
        "label": "address payable",
        "numberOfBytes": "20"
      },
      "t_bool": {
        "encoding": "inplace",
        "label": "bool",
        "numberOfBytes": "1"
      },
      "t_bytes_storage": {
        "encoding": "bytes",
        "label": "bytes",
        "numberOfBytes": "32"
      },
      "t_contract(IERC20)1127": {
        "encoding": "inplace",
        "label": "contract IERC20",
        "numberOfBytes": "20"
      },
      "t_contract(IReferralRegistry)7972": {
        "encoding": "inplace",
        "label": "contract IReferralRegistry",
        "numberOfBytes": "20"
      },
      "t_mapping(t_address,t_bool)": {
        "encoding": "mapping",
        "key": "t_address",
        "label": "mapping(address => bool)",
        "numberOfBytes": "32",
        "value": "t_bool"
      },
      "t_mapping(t_address,t_bytes_storage)": {
        "encoding": "mapping",
        "key": "t_address",
        "label": "mapping(address => bytes)",
        "numberOfBytes": "32",
        "value": "t_bytes_storage"
      },
      "t_mapping(t_address,t_uint16)": {
        "encoding": "mapping",
        "key": "t_address",
        "label": "mapping(address => uint16)",
        "numberOfBytes": "32",
        "value": "t_uint16"
      },
      "t_uint16": {
        "encoding": "inplace",
        "label": "uint16",
        "numberOfBytes": "2"
      },
      "t_uint256": {
        "encoding": "inplace",
        "label": "uint256",
        "numberOfBytes": "32"
      }
    }
  }
}