{
  "address": "0x3CCE409C651B07317e6e5a3b87368cAAC9B277A0",
  "abi": [
    {
      "inputs": [
        {
          "internalType": "address",
          "name": "_WETH",
          "type": "address"
        },
        {
          "internalType": "uint16",
          "name": "_swapFee",
          "type": "uint16"
        },
        {
          "internalType": "uint16",
          "name": "_referralRewardRate",
          "type": "uint16"
        },
        {
          "internalType": "address payable",
          "name": "_feeReceiver",
          "type": "address"
        },
        {
          "internalType": "uint256",
          "name": "_balanceThreshold",
          "type": "uint256"
        },
        {
          "internalType": "contract IERC20",
          "name": "_saveYourAssetsToken",
          "type": "address"
        },
        {
          "internalType": "contract IReferralRegistry",
          "name": "_referralRegistry",
          "type": "address"
        },
        {
          "internalType": "address payable",
          "name": "_zeroEx",
          "type": "address"
        },
        {
          "internalType": "address payable",
          "name": "_oneInch",
          "type": "address"
        }
      ],
      "stateMutability": "nonpayable",
      "type": "constructor"
    },
    {
      "anonymous": false,
      "inputs": [
        {
          "indexed": false,
          "internalType": "uint256",
          "name": "balanceThreshold",
          "type": "uint256"
        }
      ],
      "name": "BalanceThresholdUpdated",
      "type": "event"
    },
    {
      "anonymous": false,
      "inputs": [
        {
          "indexed": true,
          "internalType": "address",
          "name": "account",
          "type": "address"
        },
        {
          "indexed": false,
          "internalType": "uint16",
          "name": "referralRate",
          "type": "uint16"
        }
      ],
      "name": "CustomReferralRewardRateUpdated",
      "type": "event"
    },
    {
      "anonymous": false,
      "inputs": [
        {
          "indexed": false,
          "internalType": "address payable",
          "name": "feeReceiver",
          "type": "address"
        }
      ],
      "name": "FeeReceiverUpdated",
      "type": "event"
    },
    {
      "anonymous": false,
      "inputs": [
        {
          "indexed": false,
          "internalType": "address",
          "name": "factory",
          "type": "address"
        }
      ],
      "name": "ForkUpdated",
      "type": "event"
    },
    {
      "anonymous": false,
      "inputs": [
        {
          "indexed": true,
          "internalType": "address",
          "name": "previousOwner",
          "type": "address"
        },
        {
          "indexed": true,
          "internalType": "address",
          "name": "newOwner",
          "type": "address"
        }
      ],
      "name": "OwnershipTransferred",
      "type": "event"
    },
    {
      "anonymous": false,
      "inputs": [
        {
          "indexed": false,
          "internalType": "address",
          "name": "account",
          "type": "address"
        }
      ],
      "name": "Paused",
      "type": "event"
    },
    {
      "anonymous": false,
      "inputs": [
        {
          "indexed": false,
          "internalType": "address",
          "name": "referralRegistry",
          "type": "address"
        }
      ],
      "name": "ReferralRegistryUpdated",
      "type": "event"
    },
    {
      "anonymous": false,
      "inputs": [
        {
          "indexed": false,
          "internalType": "address",
          "name": "from",
          "type": "address"
        },
        {
          "indexed": true,
          "internalType": "address",
          "name": "to",
          "type": "address"
        },
        {
          "indexed": false,
          "internalType": "address",
          "name": "tokenOut",
          "type": "address"
        },
        {
          "indexed": false,
          "internalType": "address",
          "name": "tokenReward",
          "type": "address"
        },
        {
          "indexed": false,
          "internalType": "uint256",
          "name": "amount",
          "type": "uint256"
        }
      ],
      "name": "ReferralRewardPaid",
      "type": "event"
    },
    {
      "anonymous": false,
      "inputs": [
        {
          "indexed": false,
          "internalType": "uint16",
          "name": "referralRewardRate",
          "type": "uint16"
        }
      ],
      "name": "ReferralRewardRateUpdated",
      "type": "event"
    },
    {
      "anonymous": false,
      "inputs": [
        {
          "indexed": false,
          "internalType": "bool",
          "name": "activated",
          "type": "bool"
        }
      ],
      "name": "ReferralsActivatedUpdated",
      "type": "event"
    },
    {
      "anonymous": false,
      "inputs": [
        {
          "indexed": false,
          "internalType": "uint16",
          "name": "swapFee",
          "type": "uint16"
        }
      ],
      "name": "SwapFeeUpdated",
      "type": "event"
    },
    {
      "anonymous": false,
      "inputs": [
        {
          "indexed": false,
          "internalType": "address",
          "name": "account",
          "type": "address"
        }
      ],
      "name": "Unpaused",
      "type": "event"
    },
    {
      "inputs": [],
      "name": "FEE_DENOMINATOR",
      "outputs": [
        {
          "internalType": "uint256",
          "name": "",
          "type": "uint256"
        }
      ],
      "stateMutability": "view",
      "type": "function"
    },
    {
      "inputs": [],
      "name": "WETH",
      "outputs": [
        {
          "internalType": "address",
          "name": "",
          "type": "address"
        }
      ],
      "stateMutability": "view",
      "type": "function"
    },
    {
      "inputs": [],
      "name": "balanceThreshold",
      "outputs": [
        {
          "internalType": "uint256",
          "name": "",
          "type": "uint256"
        }
      ],
      "stateMutability": "view",
      "type": "function"
    },
    {
      "inputs": [
        {
          "internalType": "address",
          "name": "",
          "type": "address"
        }
      ],
      "name": "customReferralRewardRate",
      "outputs": [
        {
          "internalType": "uint16",
          "name": "",
          "type": "uint16"
        }
      ],
      "stateMutability": "view",
      "type": "function"
    },
    {
      "inputs": [
        {
          "internalType": "bytes",
          "name": "data",
          "type": "bytes"
        },
        {
          "internalType": "address",
          "name": "fromToken",
          "type": "address"
        },
        {
          "internalType": "address",
          "name": "toToken",
          "type": "address"
        },
        {
          "internalType": "uint256",
          "name": "amountFrom",
          "type": "uint256"
        },
        {
          "internalType": "address",
          "name": "referee",
          "type": "address"
        },
        {
          "internalType": "uint256",
          "name": "minOut",
          "type": "uint256"
        }
      ],
      "name": "execute1InchSwap",
      "outputs": [],
      "stateMutability": "payable",
      "type": "function"
    },
    {
      "inputs": [
        {
          "internalType": "bytes",
          "name": "data",
          "type": "bytes"
        },
        {
          "internalType": "address",
          "name": "fromToken",
          "type": "address"
        },
        {
          "internalType": "address",
          "name": "toToken",
          "type": "address"
        },
        {
          "internalType": "uint256",
          "name": "amountFrom",
          "type": "uint256"
        },
        {
          "internalType": "address",
          "name": "referee",
          "type": "address"
        }
      ],
      "name": "executeZeroExSwap",
      "outputs": [],
      "stateMutability": "payable",
      "type": "function"
    },
    {
      "inputs": [],
      "name": "feeReceiver",
      "outputs": [
        {
          "internalType": "address payable",
          "name": "",
          "type": "address"
        }
      ],
      "stateMutability": "view",
      "type": "function"
    },
    {
      "inputs": [
        {
          "internalType": "address",
          "name": "",
          "type": "address"
        }
      ],
      "name": "forkActivated",
      "outputs": [
        {
          "internalType": "bool",
          "name": "",
          "type": "bool"
        }
      ],
      "stateMutability": "view",
      "type": "function"
    },
    {
      "inputs": [
        {
          "internalType": "address",
          "name": "",
          "type": "address"
        }
      ],
      "name": "forkInitCode",
      "outputs": [
        {
          "internalType": "bytes",
          "name": "",
          "type": "bytes"
        }
      ],
      "stateMutability": "view",
      "type": "function"
    },
    {
      "inputs": [
        {
          "internalType": "address",
          "name": "user",
          "type": "address"
        }
      ],
      "name": "getUserFee",
      "outputs": [
        {
          "internalType": "uint256",
          "name": "",
          "type": "uint256"
        }
      ],
      "stateMutability": "view",
      "type": "function"
    },
    {
      "inputs": [],
      "name": "oneInch",
      "outputs": [
        {
          "internalType": "address payable",
          "name": "",
          "type": "address"
        }
      ],
      "stateMutability": "view",
      "type": "function"
    },
    {
      "inputs": [],
      "name": "owner",
      "outputs": [
        {
          "internalType": "address",
          "name": "",
          "type": "address"
        }
      ],
      "stateMutability": "view",
      "type": "function"
    },
    {
      "inputs": [],
      "name": "pause",
      "outputs": [],
      "stateMutability": "nonpayable",
      "type": "function"
    },
    {
      "inputs": [],
      "name": "paused",
      "outputs": [
        {
          "internalType": "bool",
          "name": "",
          "type": "bool"
        }
      ],
      "stateMutability": "view",
      "type": "function"
    },
    {
      "inputs": [],
      "name": "referralRegistry",
      "outputs": [
        {
          "internalType": "contract IReferralRegistry",
          "name": "",
          "type": "address"
        }
      ],
      "stateMutability": "view",
      "type": "function"
    },
    {
      "inputs": [],
      "name": "referralRewardRate",
      "outputs": [
        {
          "internalType": "uint16",
          "name": "",
          "type": "uint16"
        }
      ],
      "stateMutability": "view",
      "type": "function"
    },
    {
      "inputs": [],
      "name": "referralsActivated",
      "outputs": [
        {
          "internalType": "bool",
          "name": "",
          "type": "bool"
        }
      ],
      "stateMutability": "view",
      "type": "function"
    },
    {
      "inputs": [],
      "name": "renounceOwnership",
      "outputs": [],
      "stateMutability": "nonpayable",
      "type": "function"
    },
    {
      "inputs": [],
      "name": "saveYourAssetsToken",
      "outputs": [
        {
          "internalType": "contract IERC20",
          "name": "",
          "type": "address"
        }
      ],
      "stateMutability": "view",
      "type": "function"
    },
    {
      "inputs": [
        {
          "internalType": "address",
          "name": "fork",
          "type": "address"
        },
        {
          "internalType": "uint256",
          "name": "amountOut",
          "type": "uint256"
        },
        {
          "internalType": "address[]",
          "name": "path",
          "type": "address[]"
        },
        {
          "internalType": "address",
          "name": "referee",
          "type": "address"
        }
      ],
      "name": "swapETHForExactTokens",
      "outputs": [
        {
          "internalType": "uint256[]",
          "name": "amounts",
          "type": "uint256[]"
        }
      ],
      "stateMutability": "payable",
      "type": "function"
    },
    {
      "inputs": [
        {
          "internalType": "address",
          "name": "fork",
          "type": "address"
        },
        {
          "internalType": "uint256",
          "name": "amountOutMin",
          "type": "uint256"
        },
        {
          "internalType": "address[]",
          "name": "path",
          "type": "address[]"
        },
        {
          "internalType": "address",
          "name": "referee",
          "type": "address"
        }
      ],
      "name": "swapExactETHForTokens",
      "outputs": [
        {
          "internalType": "uint256[]",
          "name": "amounts",
          "type": "uint256[]"
        }
      ],
      "stateMutability": "payable",
      "type": "function"
    },
    {
      "inputs": [
        {
          "internalType": "address",
          "name": "fork",
          "type": "address"
        },
        {
          "internalType": "uint256",
          "name": "amountOutMin",
          "type": "uint256"
        },
        {
          "internalType": "address[]",
          "name": "path",
          "type": "address[]"
        },
        {
          "internalType": "address",
          "name": "referee",
          "type": "address"
        }
      ],
      "name": "swapExactETHForTokensSupportingFeeOnTransferTokens",
      "outputs": [],
      "stateMutability": "payable",
      "type": "function"
    },
    {
      "inputs": [
        {
          "internalType": "address",
          "name": "fork",
          "type": "address"
        },
        {
          "internalType": "uint256",
          "name": "amountIn",
          "type": "uint256"
        },
        {
          "internalType": "uint256",
          "name": "amountOutMin",
          "type": "uint256"
        },
        {
          "internalType": "address[]",
          "name": "path",
          "type": "address[]"
        },
        {
          "internalType": "address",
          "name": "referee",
          "type": "address"
        }
      ],
      "name": "swapExactTokensForETH",
      "outputs": [
        {
          "internalType": "uint256[]",
          "name": "amounts",
          "type": "uint256[]"
        }
      ],
      "stateMutability": "nonpayable",
      "type": "function"
    },
    {
      "inputs": [
        {
          "internalType": "address",
          "name": "fork",
          "type": "address"
        },
        {
          "internalType": "uint256",
          "name": "amountIn",
          "type": "uint256"
        },
        {
          "internalType": "uint256",
          "name": "amountOutMin",
          "type": "uint256"
        },
        {
          "internalType": "address[]",
          "name": "path",
          "type": "address[]"
        },
        {
          "internalType": "address",
          "name": "referee",
          "type": "address"
        }
      ],
      "name": "swapExactTokensForETHSupportingFeeOnTransferTokens",
      "outputs": [],
      "stateMutability": "nonpayable",
      "type": "function"
    },
    {
      "inputs": [
        {
          "internalType": "address",
          "name": "fork",
          "type": "address"
        },
        {
          "internalType": "uint256",
          "name": "amountIn",
          "type": "uint256"
        },
        {
          "internalType": "uint256",
          "name": "amountOutMin",
          "type": "uint256"
        },
        {
          "internalType": "address[]",
          "name": "path",
          "type": "address[]"
        },
        {
          "internalType": "address",
          "name": "referee",
          "type": "address"
        }
      ],
      "name": "swapExactTokensForTokens",
      "outputs": [
        {
          "internalType": "uint256[]",
          "name": "amounts",
          "type": "uint256[]"
        }
      ],
      "stateMutability": "nonpayable",
      "type": "function"
    },
    {
      "inputs": [
        {
          "internalType": "address",
          "name": "fork",
          "type": "address"
        },
        {
          "internalType": "uint256",
          "name": "amountIn",
          "type": "uint256"
        },
        {
          "internalType": "uint256",
          "name": "amountOutMin",
          "type": "uint256"
        },
        {
          "internalType": "address[]",
          "name": "path",
          "type": "address[]"
        },
        {
          "internalType": "address",
          "name": "referee",
          "type": "address"
        }
      ],
      "name": "swapExactTokensForTokensSupportingFeeOnTransferTokens",
      "outputs": [],
      "stateMutability": "nonpayable",
      "type": "function"
    },
    {
      "inputs": [],
      "name": "swapFee",
      "outputs": [
        {
          "internalType": "uint16",
          "name": "",
          "type": "uint16"
        }
      ],
      "stateMutability": "view",
      "type": "function"
    },
    {
      "inputs": [
        {
          "internalType": "address",
          "name": "fork",
          "type": "address"
        },
        {
          "internalType": "uint256",
          "name": "amountOut",
          "type": "uint256"
        },
        {
          "internalType": "uint256",
          "name": "amountInMax",
          "type": "uint256"
        },
        {
          "internalType": "address[]",
          "name": "path",
          "type": "address[]"
        },
        {
          "internalType": "address",
          "name": "referee",
          "type": "address"
        }
      ],
      "name": "swapTokensForExactETH",
      "outputs": [
        {
          "internalType": "uint256[]",
          "name": "amounts",
          "type": "uint256[]"
        }
      ],
      "stateMutability": "nonpayable",
      "type": "function"
    },
    {
      "inputs": [
        {
          "internalType": "address",
          "name": "fork",
          "type": "address"
        },
        {
          "internalType": "uint256",
          "name": "amountOut",
          "type": "uint256"
        },
        {
          "internalType": "uint256",
          "name": "amountInMax",
          "type": "uint256"
        },
        {
          "internalType": "address[]",
          "name": "path",
          "type": "address[]"
        },
        {
          "internalType": "address",
          "name": "referee",
          "type": "address"
        }
      ],
      "name": "swapTokensForExactTokens",
      "outputs": [
        {
          "internalType": "uint256[]",
          "name": "amounts",
          "type": "uint256[]"
        }
      ],
      "stateMutability": "nonpayable",
      "type": "function"
    },
    {
      "inputs": [
        {
          "internalType": "address",
          "name": "newOwner",
          "type": "address"
        }
      ],
      "name": "transferOwnership",
      "outputs": [],
      "stateMutability": "nonpayable",
      "type": "function"
    },
    {
      "inputs": [],
      "name": "unpause",
      "outputs": [],
      "stateMutability": "nonpayable",
      "type": "function"
    },
    {
      "inputs": [
        {
          "internalType": "address",
          "name": "_factory",
          "type": "address"
        },
        {
          "internalType": "bytes",
          "name": "_initCode",
          "type": "bytes"
        },
        {
          "internalType": "bool",
          "name": "_activated",
          "type": "bool"
        }
      ],
      "name": "updateFork",
      "outputs": [],
      "stateMutability": "nonpayable",
      "type": "function"
    },
    {
      "inputs": [
        {
          "internalType": "address",
          "name": "_account",
          "type": "address"
        }
      ],
      "name": "userAboveBalanceThreshold",
      "outputs": [
        {
          "internalType": "bool",
          "name": "",
          "type": "bool"
        }
      ],
      "stateMutability": "view",
      "type": "function"
    },
    {
      "inputs": [],
      "name": "zeroEx",
      "outputs": [
        {
          "internalType": "address payable",
          "name": "",
          "type": "address"
        }
      ],
      "stateMutability": "view",
      "type": "function"
    },
    {
      "stateMutability": "payable",
      "type": "receive"
    }
  ],
  "transactionHash": "0x2ecff2b77c1e155d5e05506d1bc9b6900cfb1b7c6d9c5600352a493713f32016",
  "args": [
    "0xae13d989dac2f0debff460ac112a837c89baa7cd",
    50,
    1000,
    "0x12b61B82f441bAD5A6E4dD86d74b92E8F15b930B",
    "50000000000000000000",
    "0x8884ccE491A4a1b5E7A73CB850c28ec6C6394944",
    "0x491AcC56B46B09b91CEA690C3D5c7be17e390fbB",
    "0xdef1c0ded9bec7f1a1670819833240f027b25eff",
    "0x1111111254fb6c44bac0bed2854e76f90643097d"
  ],
  "solcInputHash": "643004d49a90286eb9c690daa2b380f9",
  "bytecode": "0x60e06040523480156200001157600080fd5b50604051620054dc380380620054dc83398181016040526101208110156200003857600080fd5b508051602082015160408301516060840151608085015160a086015160c087015160e0880151610100909801519697959694959394929391929091906000620000896001600160e01b036200019916565b600080546001600160a01b0319166001600160a01b0383169081178255604051929350917f8be0079c531659141344cd1fd0a4f28419497f9722a3daafe3b4186f6b6457e0908290a3506000805460ff60a01b19169055600180556001600160601b03196060998a1b81166080526002805460058054600380546001600160a01b039a8b166001600160a01b03199182161790915560049a909a55968816620100000262010000600160b01b031961ffff9d8e1661ffff19909416939093179290921691909117909155928a1b811660a052981b90971660c05260ff60b01b199390911693909416600160a01b0261ffff60a01b1990941693909317929092161716600160b01b1790556200019d565b3390565b60805160601c60a05160601c60c05160601c6152a56200023760003980610c805280610ee45280610f7252508061199a5280611b6b5280611bf752508061118c52806113be528061161852806117f75280612782528061298b5280612a3d5280612ab15280612de05280612f285280612fb052806131f5528061333052806133b8528061363e5280613789528061382052506152a56000f3fe6080604052600436106101bd5760003560e01c80638456cb59116100ed578063c317377411610090578063c317377414610995578063cd685618146109aa578063d73792a914610a36578063d758bcc614610a4b578063db12c8e714610ad7578063e229357114610b63578063e94265c414610c03578063f2fde38b14610c36578063fe4ad44614610c69576101c4565b80638456cb591461075f578063882f3b85146107745780638da5cb5b1461081457806393228dda14610829578063a3a4bc9a1461083e578063ad5c4648146108de578063b3f00674146108f3578063c00a315914610908576101c4565b80634e627e62116101605780634e627e62146104d75780634fb5df08146104ec57806352ab413b1461059457806354cf2aeb146105a95780635b6fbead146105d55780635c975abb146106625780636553b71214610677578063715018a6146107175780637cde0c741461072c576101c4565b8063045c08d5146101c9578063060f58c3146101fa578063242054ce1461023f578063279f3291146102d65780632f912005146102ff57806337166709146103325780633f4ba83a146104225780633f4e48bb14610437576101c4565b366101c457005b600080fd5b3480156101d557600080fd5b506101de610c7e565b604080516001600160a01b039092168252519081900360200190f35b34801561020657600080fd5b5061022d6004803603602081101561021d57600080fd5b50356001600160a01b0316610ca2565b60408051918252519081900360200190f35b6102d4600480360360c081101561025557600080fd5b810190602081018135600160201b81111561026f57600080fd5b82018360208201111561028157600080fd5b803590602001918460018302840111600160201b831117156102a257600080fd5b91935091506001600160a01b038135811691602081013582169160408201359160608101359091169060800135610d3f565b005b3480156102e257600080fd5b506102eb611069565b604080519115158252519081900360200190f35b34801561030b57600080fd5b506102eb6004803603602081101561032257600080fd5b50356001600160a01b0316611079565b34801561033e57600080fd5b506103d2600480360360a081101561035557600080fd5b6001600160a01b038235169160208101359160408201359190810190608081016060820135600160201b81111561038b57600080fd5b82018360208201111561039d57600080fd5b803590602001918460208302840111600160201b831117156103be57600080fd5b9193509150356001600160a01b031661108e565b60408051602080825283518183015283519192839290830191858101910280838360005b8381101561040e5781810151838201526020016103f6565b505050509050019250505060405180910390f35b34801561042e57600080fd5b506102d46114ae565b34801561044357600080fd5b506103d2600480360360a081101561045a57600080fd5b6001600160a01b038235169160208101359160408201359190810190608081016060820135600160201b81111561049057600080fd5b8201836020820111156104a257600080fd5b803590602001918460208302840111600160201b831117156104c357600080fd5b9193509150356001600160a01b031661151a565b3480156104e357600080fd5b506101de6118e8565b3480156104f857600080fd5b5061051f6004803603602081101561050f57600080fd5b50356001600160a01b03166118fd565b6040805160208082528351818301528351919283929083019185019080838360005b83811015610559578181015183820152602001610541565b50505050905090810190601f1680156105865780820380516001836020036101000a031916815260200191505b509250505060405180910390f35b3480156105a057600080fd5b506101de611998565b3480156105b557600080fd5b506105be6119bc565b6040805161ffff9092168252519081900360200190f35b6102d4600480360360a08110156105eb57600080fd5b810190602081018135600160201b81111561060557600080fd5b82018360208201111561061757600080fd5b803590602001918460018302840111600160201b8311171561063857600080fd5b91935091506001600160a01b038135811691602081013582169160408201359160600135166119c6565b34801561066e57600080fd5b506102eb611e0d565b34801561068357600080fd5b506102d4600480360360a081101561069a57600080fd5b6001600160a01b038235169160208101359160408201359190810190608081016060820135600160201b8111156106d057600080fd5b8201836020820111156106e257600080fd5b803590602001918460208302840111600160201b8311171561070357600080fd5b9193509150356001600160a01b0316611e1e565b34801561072357600080fd5b506102d461217a565b34801561073857600080fd5b506105be6004803603602081101561074f57600080fd5b50356001600160a01b0316612226565b34801561076b57600080fd5b506102d461223c565b34801561078057600080fd5b506103d2600480360360a081101561079757600080fd5b6001600160a01b038235169160208101359160408201359190810190608081016060820135600160201b8111156107cd57600080fd5b8201836020820111156107df57600080fd5b803590602001918460208302840111600160201b8311171561080057600080fd5b9193509150356001600160a01b03166122a6565b34801561082057600080fd5b506101de6124fa565b34801561083557600080fd5b506101de612509565b34801561084a57600080fd5b506103d2600480360360a081101561086157600080fd5b6001600160a01b038235169160208101359160408201359190810190608081016060820135600160201b81111561089757600080fd5b8201836020820111156108a957600080fd5b803590602001918460208302840111600160201b831117156108ca57600080fd5b9193509150356001600160a01b0316612518565b3480156108ea57600080fd5b506101de612780565b3480156108ff57600080fd5b506101de6127a4565b34801561091457600080fd5b506102d46004803603606081101561092b57600080fd5b6001600160a01b038235169190810190604081016020820135600160201b81111561095557600080fd5b82018360208201111561096757600080fd5b803590602001918460018302840111600160201b8311171561098857600080fd5b91935091503515156127b3565b3480156109a157600080fd5b5061022d612891565b6102d4600480360360808110156109c057600080fd5b6001600160a01b0382351691602081013591810190606081016040820135600160201b8111156109ef57600080fd5b820183602082011115610a0157600080fd5b803590602001918460208302840111600160201b83111715610a2257600080fd5b9193509150356001600160a01b0316612897565b348015610a4257600080fd5b5061022d612ce4565b6103d260048036036080811015610a6157600080fd5b6001600160a01b0382351691602081013591810190606081016040820135600160201b811115610a9057600080fd5b820183602082011115610aa257600080fd5b803590602001918460208302840111600160201b83111715610ac357600080fd5b9193509150356001600160a01b0316612cea565b6103d260048036036080811015610aed57600080fd5b6001600160a01b0382351691602081013591810190606081016040820135600160201b811115610b1c57600080fd5b820183602082011115610b2e57600080fd5b803590602001918460208302840111600160201b83111715610b4f57600080fd5b9193509150356001600160a01b03166130ff565b348015610b6f57600080fd5b506102d4600480360360a0811015610b8657600080fd5b6001600160a01b038235169160208101359160408201359190810190608081016060820135600160201b811115610bbc57600080fd5b820183602082011115610bce57600080fd5b803590602001918460208302840111600160201b83111715610bef57600080fd5b9193509150356001600160a01b0316613542565b348015610c0f57600080fd5b506102eb60048036036020811015610c2657600080fd5b50356001600160a01b031661391f565b348015610c4257600080fd5b506102d460048036036020811015610c5957600080fd5b50356001600160a01b03166139a9565b348015610c7557600080fd5b506105be613aab565b7f000000000000000000000000000000000000000000000000000000000000000081565b60048054600354604080516370a0823160e01b81526001600160a01b03868116958201959095529051600094909216916370a0823191602480820192602092909190829003018186803b158015610cf857600080fd5b505afa158015610d0c573d6000803e3d6000fd5b505050506040513d6020811015610d2257600080fd5b50511015610d365760025461ffff16610d39565b60005b50919050565b60026001541415610d97576040805162461bcd60e51b815260206004820152601f60248201527f5265656e7472616e637947756172643a207265656e7472616e742063616c6c00604482015290519081900360640190fd5b6002600155610da4611e0d565b15610de4576040805162461bcd60e51b815260206004820152601060248201526000805160206151e9833981519152604482015290519081900360640190fd5b81336001600160a01b0382161415610e31576040805162461bcd60e51b815260206004820152601a60248201526000805160206150fb833981519152604482015290519081900360640190fd5b610e3a83613abc565b92506001600160a01b03861615610f6c57604080516323b872dd60e01b81523360048201523060248201526044810186905290516001600160a01b038816916323b872dd9160648083019260209291908290030181600087803b158015610ea057600080fd5b505af1158015610eb4573d6000803e3d6000fd5b505050506040513d6020811015610eca57600080fd5b50506040805163095ea7b360e01b81526001600160a01b037f0000000000000000000000000000000000000000000000000000000000000000811660048301526024820187905291519188169163095ea7b3916044808201926020929091908290030181600087803b158015610f3f57600080fd5b505af1158015610f53573d6000803e3d6000fd5b505050506040513d6020811015610f6957600080fd5b50505b600060607f00000000000000000000000000000000000000000000000000000000000000006001600160a01b0316348b8b604051808383808284376040519201945060009350909150508083038185875af1925050503d8060008114610fee576040519150601f19603f3d011682016040523d82523d6000602084013e610ff3565b606091505b509150915081156101c457600081806020019051604081101561101557600080fd5b50519050848110156110585760405162461bcd60e51b815260040180806020018281038252602781526020018061511b6027913960400191505060405180910390fd5b505050600180555050505050505050565b600554600160b01b900460ff1681565b60076020526000908152604090205460ff1681565b6060611098611e0d565b156110d8576040805162461bcd60e51b815260206004820152601060248201526000805160206151e9833981519152604482015290519081900360640190fd5b6001600160a01b038716600090815260076020526040902054879060ff16611135576040805162461bcd60e51b815260206004820152601c602482015260008051602061522c833981519152604482015290519081900360640190fd5b82336001600160a01b0382161415611182576040805162461bcd60e51b815260206004820152601a60248201526000805160206150fb833981519152604482015290519081900360640190fd5b6001600160a01b037f000000000000000000000000000000000000000000000000000000000000000016868660001981018181106111bc57fe5b905060200201356001600160a01b03166001600160a01b031614611215576040805162461bcd60e51b815260206004820152601960248201526000805160206151c9833981519152604482015290519081900360640190fd5b61121e84613abc565b935060008061122f8a876001613c52565b909350915061129390508b61125a8361124e8e8763ffffffff613dbb16565b9063ffffffff613dbb16565b8a8a80806020026020016040519081016040528093929190818152602001838360200280828437600092019190915250613e1e92505050565b9450886112c18261124e85896000815181106112ab57fe5b6020026020010151613dbb90919063ffffffff16565b11156112fe5760405162461bcd60e51b81526004018080602001828103825260238152602001806150d86023913960400191505060405180910390fd5b61137c8888600081811061130e57fe5b905060200201356001600160a01b0316336113628e8c8c600081811061133057fe5b905060200201356001600160a01b03168d8d600181811061134d57fe5b905060200201356001600160a01b0316613f59565b8860008151811061136f57fe5b60200260200101516140a2565b6113bc8b868a8a808060200260200160405190810160405280939291908181526020018383602002808284376000920191909152503092506141ff915050565b7f00000000000000000000000000000000000000000000000000000000000000006001600160a01b0316632e1a7d4d866001885103815181106113fb57fe5b60200260200101516040518263ffffffff1660e01b815260040180828152602001915050600060405180830381600087803b15801561143957600080fd5b505af115801561144d573d6000803e3d6000fd5b5050505061145b338b614406565b600061146d838363ffffffff613dbb16565b11156114a0576114a060008989600019810181811061148857fe5b905060200201356001600160a01b03168885856144fe565b505050509695505050505050565b6114b6614615565b6001600160a01b03166114c76124fa565b6001600160a01b031614611510576040805162461bcd60e51b81526020600482018190526024820152600080516020615186833981519152604482015290519081900360640190fd5b611518614619565b565b6060611524611e0d565b15611564576040805162461bcd60e51b815260206004820152601060248201526000805160206151e9833981519152604482015290519081900360640190fd5b6001600160a01b038716600090815260076020526040902054879060ff166115c1576040805162461bcd60e51b815260206004820152601c602482015260008051602061522c833981519152604482015290519081900360640190fd5b82336001600160a01b038216141561160e576040805162461bcd60e51b815260206004820152601a60248201526000805160206150fb833981519152604482015290519081900360640190fd5b6001600160a01b037f0000000000000000000000000000000000000000000000000000000000000000168686600019810181811061164857fe5b905060200201356001600160a01b03166001600160a01b0316146116a1576040805162461bcd60e51b815260206004820152601960248201526000805160206151c9833981519152604482015290519081900360640190fd5b6116aa84613abc565b93506116ea89898888808060200260200160405190810160405280939291908181526020018383602002808284376000920191909152506146bc92505050565b925060008060006117148660018851038151811061170457fe5b6020026020010151886000613c52565b925092509250898310156117595760405162461bcd60e51b81526004018080602001828103825260278152602001806150b16027913960400191505060405180910390fd5b6117b58989600081811061176957fe5b905060200201356001600160a01b0316336117a88f8d8d600081811061178b57fe5b905060200201356001600160a01b03168e8e600181811061134d57fe5b8960008151811061136f57fe5b6117f58c878b8b808060200260200160405190810160405280939291908181526020018383602002808284376000920191909152503092506141ff915050565b7f00000000000000000000000000000000000000000000000000000000000000006001600160a01b0316632e1a7d4d8760018951038151811061183457fe5b60200260200101516040518263ffffffff1660e01b815260040180828152602001915050600060405180830381600087803b15801561187257600080fd5b505af1158015611886573d6000803e3d6000fd5b505050506118943384614406565b60006118a6838363ffffffff613dbb16565b11156118d9576118d960008a8a60001981018181106118c157fe5b905060200201356001600160a01b03168985856144fe565b50505050509695505050505050565b6002546201000090046001600160a01b031681565b60086020908152600091825260409182902080548351601f6002600019610100600186161502019093169290920491820184900484028101840190945280845290918301828280156119905780601f1061196557610100808354040283529160200191611990565b820191906000526020600020905b81548152906001019060200180831161197357829003601f168201915b505050505081565b7f000000000000000000000000000000000000000000000000000000000000000081565b60025461ffff1681565b60026001541415611a1e576040805162461bcd60e51b815260206004820152601f60248201527f5265656e7472616e637947756172643a207265656e7472616e742063616c6c00604482015290519081900360640190fd5b6002600155611a2b611e0d565b15611a6b576040805162461bcd60e51b815260206004820152601060248201526000805160206151e9833981519152604482015290519081900360640190fd5b80336001600160a01b0382161415611ab8576040805162461bcd60e51b815260206004820152601a60248201526000805160206150fb833981519152604482015290519081900360640190fd5b611ac182613abc565b91506001600160a01b03851615611bf357604080516323b872dd60e01b81523360048201523060248201526044810185905290516001600160a01b038716916323b872dd9160648083019260209291908290030181600087803b158015611b2757600080fd5b505af1158015611b3b573d6000803e3d6000fd5b505050506040513d6020811015611b5157600080fd5b50506040805163095ea7b360e01b81526001600160a01b037f0000000000000000000000000000000000000000000000000000000000000000811660048301526024820186905291519187169163095ea7b3916044808201926020929091908290030181600087803b158015611bc657600080fd5b505af1158015611bda573d6000803e3d6000fd5b505050506040513d6020811015611bf057600080fd5b50505b60007f00000000000000000000000000000000000000000000000000000000000000006001600160a01b0316348989604051808383808284376040519201945060009350909150508083038185875af1925050503d8060008114611c73576040519150601f19603f3d011682016040523d82523d6000602084013e611c78565b606091505b5050905080611cc6576040805162461bcd60e51b8152602060048201526015602482015274119b1bdbde949bdd5d195c8e881491559154951151605a1b604482015290519081900360640190fd5b6001600160a01b03861615611dd157604080516370a0823160e01b815230600482015290516000916001600160a01b038816916370a0823191602480820192602092909190829003018186803b158015611d1f57600080fd5b505afa158015611d33573d6000803e3d6000fd5b505050506040513d6020811015611d4957600080fd5b50516040805163a9059cbb60e01b81523360048201526024810183905290519192506001600160a01b0388169163a9059cbb916044808201926020929091908290030181600087803b158015611d9e57600080fd5b505af1158015611db2573d6000803e3d6000fd5b505050506040513d6020811015611dc857600080fd5b50611dff915050565b60405133904780156108fc02916000818181858888f19350505050158015611dfd573d6000803e3d6000fd5b505b505060018055505050505050565b600054600160a01b900460ff165b90565b611e26611e0d565b15611e66576040805162461bcd60e51b815260206004820152601060248201526000805160206151e9833981519152604482015290519081900360640190fd5b6001600160a01b038616600090815260076020526040902054869060ff16611ec3576040805162461bcd60e51b815260206004820152601c602482015260008051602061522c833981519152604482015290519081900360640190fd5b81336001600160a01b0382161415611f10576040805162461bcd60e51b815260206004820152601a60248201526000805160206150fb833981519152604482015290519081900360640190fd5b611f1983613abc565b92506000806000611f2c8a876000613c52565b925092509250611f6a88886000818110611f4257fe5b905060200201356001600160a01b031633611f648e8c8c600081811061133057fe5b866140a2565b600088886000198101818110611f7c57fe5b604080516370a0823160e01b81523360048201529051602092830294909401356001600160a01b0316936370a08231935060248083019392829003018186803b158015611fc857600080fd5b505afa158015611fdc573d6000803e3d6000fd5b505050506040513d6020811015611ff257600080fd5b50516040805160208b810282810182019093528b8252929350612034928f928d918d9182918501908490808284376000920191909152503392506147e1915050565b896120cd828b8b600019810181811061204957fe5b604080516370a0823160e01b81523360048201529051602092830294909401356001600160a01b0316936370a08231935060248083019392829003018186803b15801561209557600080fd5b505afa1580156120a9573d6000803e3d6000fd5b505050506040513d60208110156120bf57600080fd5b50519063ffffffff614ab216565b101561210a5760405162461bcd60e51b81526004018080602001828103825260278152602001806150b16027913960400191505060405180910390fd5b600061211c848463ffffffff613dbb16565b111561216c5761216c8989600081811061213257fe5b905060200201356001600160a01b03168a8a60018d8d90500381811061215457fe5b905060200201356001600160a01b03168986866144fe565b505050505050505050505050565b612182614615565b6001600160a01b03166121936124fa565b6001600160a01b0316146121dc576040805162461bcd60e51b81526020600482018190526024820152600080516020615186833981519152604482015290519081900360640190fd5b600080546040516001600160a01b03909116907f8be0079c531659141344cd1fd0a4f28419497f9722a3daafe3b4186f6b6457e0908390a3600080546001600160a01b0319169055565b60066020526000908152604090205461ffff1681565b612244614615565b6001600160a01b03166122556124fa565b6001600160a01b03161461229e576040805162461bcd60e51b81526020600482018190526024820152600080516020615186833981519152604482015290519081900360640190fd5b611518614b0f565b60606122b0611e0d565b156122f0576040805162461bcd60e51b815260206004820152601060248201526000805160206151e9833981519152604482015290519081900360640190fd5b6001600160a01b038716600090815260076020526040902054879060ff1661234d576040805162461bcd60e51b815260206004820152601c602482015260008051602061522c833981519152604482015290519081900360640190fd5b82336001600160a01b038216141561239a576040805162461bcd60e51b815260206004820152601a60248201526000805160206150fb833981519152604482015290519081900360640190fd5b6123a384613abc565b93506123e38989888880806020026020016040519081016040528093929190818152602001838360200280828437600092019190915250613e1e92505050565b9250600080612408856000815181106123f857fe5b6020026020010151876001613c52565b9250925050886124238261124e85896000815181106112ab57fe5b11156124605760405162461bcd60e51b81526004018080602001828103825260238152602001806150d86023913960400191505060405180910390fd5b6124708888600081811061130e57fe5b6124b08b868a8a808060200260200160405190810160405280939291908181526020018383602002808284376000920191909152503392506141ff915050565b60006124c2838363ffffffff613dbb16565b11156114a0576114a0888860008181106124d857fe5b905060200201356001600160a01b0316898960018c8c90500381811061148857fe5b6000546001600160a01b031690565b6003546001600160a01b031681565b6060612522611e0d565b15612562576040805162461bcd60e51b815260206004820152601060248201526000805160206151e9833981519152604482015290519081900360640190fd5b6001600160a01b038716600090815260076020526040902054879060ff166125bf576040805162461bcd60e51b815260206004820152601c602482015260008051602061522c833981519152604482015290519081900360640190fd5b82336001600160a01b038216141561260c576040805162461bcd60e51b815260206004820152601a60248201526000805160206150fb833981519152604482015290519081900360640190fd5b61261584613abc565b935060008060006126288b886000613c52565b92509250925061266c8c848b8b808060200260200160405190810160405280939291908181526020018383602002808284376000920191909152506146bc92505050565b9550898660018851038151811061267f57fe5b602002602001015110156126c45760405162461bcd60e51b81526004018080602001828103825260278152602001806150b16027913960400191505060405180910390fd5b6126f6898960008181106126d457fe5b905060200201356001600160a01b031633611f648f8d8d600081811061178b57fe5b6127368c878b8b808060200260200160405190810160405280939291908181526020018383602002808284376000920191909152503392506141ff915050565b6000612748838363ffffffff613dbb16565b11156118d9576118d98989600081811061275e57fe5b905060200201356001600160a01b03168a8a60018d8d9050038181106118c157fe5b7f000000000000000000000000000000000000000000000000000000000000000081565b6005546001600160a01b031681565b6127bb614615565b6001600160a01b03166127cc6124fa565b6001600160a01b031614612815576040805162461bcd60e51b81526020600482018190526024820152600080516020615186833981519152604482015290519081900360640190fd5b6001600160a01b0384166000908152600760209081526040808320805460ff19168515151790556008909152902061284e908484614fcc565b50604080516001600160a01b038616815290517fd3e17274581b648825e308eb9fca7b795aa9ca651ee0953b1f66dd35cbc099789181900360200190a150505050565b60045481565b61289f611e0d565b156128df576040805162461bcd60e51b815260206004820152601060248201526000805160206151e9833981519152604482015290519081900360640190fd5b6001600160a01b038516600090815260076020526040902054859060ff1661293c576040805162461bcd60e51b815260206004820152601c602482015260008051602061522c833981519152604482015290519081900360640190fd5b81336001600160a01b0382161415612989576040805162461bcd60e51b815260206004820152601a60248201526000805160206150fb833981519152604482015290519081900360640190fd5b7f00000000000000000000000000000000000000000000000000000000000000006001600160a01b0316858560008181106129c057fe5b905060200201356001600160a01b03166001600160a01b031614612a19576040805162461bcd60e51b815260206004820152601960248201526000805160206151c9833981519152604482015290519081900360640190fd5b612a2283613abc565b92506000806000612a3534876000613c52565b9250925092507f00000000000000000000000000000000000000000000000000000000000000006001600160a01b031663d0e30db0846040518263ffffffff1660e01b81526004016000604051808303818588803b158015612a9657600080fd5b505af1158015612aaa573d6000803e3d6000fd5b50505050507f00000000000000000000000000000000000000000000000000000000000000006001600160a01b031663a9059cbb612b0c8c8b8b6000818110612aef57fe5b905060200201356001600160a01b03168c8c600181811061134d57fe5b856040518363ffffffff1660e01b815260040180836001600160a01b03166001600160a01b0316815260200182815260200192505050602060405180830381600087803b158015612b5c57600080fd5b505af1158015612b70573d6000803e3d6000fd5b505050506040513d6020811015612b8657600080fd5b5051612b8e57fe5b600088886000198101818110612ba057fe5b604080516370a0823160e01b81523360048201529051602092830294909401356001600160a01b0316936370a08231935060248083019392829003018186803b158015612bec57600080fd5b505afa158015612c00573d6000803e3d6000fd5b505050506040513d6020811015612c1657600080fd5b50516040805160208b810282810182019093528b8252929350612c58928e928d918d9182918501908490808284376000920191909152503392506147e1915050565b89612c6d828b8b600019810181811061204957fe5b1015612caa5760405162461bcd60e51b81526004018080602001828103825260278152602001806150b16027913960400191505060405180910390fd5b6000612cbc848463ffffffff613dbb16565b1115612cd757612cd760008a8a600019810181811061215457fe5b5050505050505050505050565b61271081565b6060612cf4611e0d565b15612d34576040805162461bcd60e51b815260206004820152601060248201526000805160206151e9833981519152604482015290519081900360640190fd5b6001600160a01b038616600090815260076020526040902054869060ff16612d91576040805162461bcd60e51b815260206004820152601c602482015260008051602061522c833981519152604482015290519081900360640190fd5b82336001600160a01b0382161415612dde576040805162461bcd60e51b815260206004820152601a60248201526000805160206150fb833981519152604482015290519081900360640190fd5b7f00000000000000000000000000000000000000000000000000000000000000006001600160a01b031686866000818110612e1557fe5b905060200201356001600160a01b03166001600160a01b031614612e6e576040805162461bcd60e51b815260206004820152601960248201526000805160206151c9833981519152604482015290519081900360640190fd5b612e7784613abc565b93506000806000612e8a34886000613c52565b925092509250612ece8b848b8b808060200260200160405190810160405280939291908181526020018383602002808284376000920191909152506146bc92505050565b95508986600188510381518110612ee157fe5b60200260200101511015612f265760405162461bcd60e51b81526004018080602001828103825260278152602001806150b16027913960400191505060405180910390fd5b7f00000000000000000000000000000000000000000000000000000000000000006001600160a01b031663d0e30db087600081518110612f6257fe5b60200260200101516040518263ffffffff1660e01b81526004016000604051808303818588803b158015612f9557600080fd5b505af1158015612fa9573d6000803e3d6000fd5b50505050507f00000000000000000000000000000000000000000000000000000000000000006001600160a01b031663a9059cbb612fee8d8c8c600081811061133057fe5b88600081518110612ffb57fe5b60200260200101516040518363ffffffff1660e01b815260040180836001600160a01b03166001600160a01b0316815260200182815260200192505050602060405180830381600087803b15801561305257600080fd5b505af1158015613066573d6000803e3d6000fd5b505050506040513d602081101561307c57600080fd5b505161308457fe5b6130c48b878b8b808060200260200160405190810160405280939291908181526020018383602002808284376000920191909152503392506141ff915050565b60006130d6838363ffffffff613dbb16565b11156130f1576130f160008a8a60001981018181106118c157fe5b505050505095945050505050565b6060613109611e0d565b15613149576040805162461bcd60e51b815260206004820152601060248201526000805160206151e9833981519152604482015290519081900360640190fd5b6001600160a01b038616600090815260076020526040902054869060ff166131a6576040805162461bcd60e51b815260206004820152601c602482015260008051602061522c833981519152604482015290519081900360640190fd5b82336001600160a01b03821614156131f3576040805162461bcd60e51b815260206004820152601a60248201526000805160206150fb833981519152604482015290519081900360640190fd5b7f00000000000000000000000000000000000000000000000000000000000000006001600160a01b03168686600081811061322a57fe5b905060200201356001600160a01b03166001600160a01b031614613283576040805162461bcd60e51b815260206004820152601960248201526000805160206151c9833981519152604482015290519081900360640190fd5b6132c18888888880806020026020016040519081016040528093929190818152602001838360200280828437600092019190915250613e1e92505050565b92506000806132d6856000815181106123f857fe5b9250925050346132f18261124e85896000815181106112ab57fe5b111561332e5760405162461bcd60e51b81526004018080602001828103825260238152602001806150d86023913960400191505060405180910390fd5b7f00000000000000000000000000000000000000000000000000000000000000006001600160a01b031663d0e30db08660008151811061336a57fe5b60200260200101516040518263ffffffff1660e01b81526004016000604051808303818588803b15801561339d57600080fd5b505af11580156133b1573d6000803e3d6000fd5b50505050507f00000000000000000000000000000000000000000000000000000000000000006001600160a01b031663a9059cbb6133f68c8b8b6000818110612aef57fe5b8760008151811061340357fe5b60200260200101516040518363ffffffff1660e01b815260040180836001600160a01b03166001600160a01b0316815260200182815260200192505050602060405180830381600087803b15801561345a57600080fd5b505af115801561346e573d6000803e3d6000fd5b505050506040513d602081101561348457600080fd5b505161348c57fe5b6134cc8a868a8a808060200260200160405190810160405280939291908181526020018383602002808284376000920191909152503392506141ff915050565b6134e18161124e84886000815181106112ab57fe5b34111561350857613508336135018361124e868a6000815181106112ab57fe5b3403614406565b600061351a838363ffffffff613dbb16565b11156135355761353560008989600019810181811061148857fe5b5050505095945050505050565b61354a611e0d565b1561358a576040805162461bcd60e51b815260206004820152601060248201526000805160206151e9833981519152604482015290519081900360640190fd5b6001600160a01b038616600090815260076020526040902054869060ff166135e7576040805162461bcd60e51b815260206004820152601c602482015260008051602061522c833981519152604482015290519081900360640190fd5b81336001600160a01b0382161415613634576040805162461bcd60e51b815260206004820152601a60248201526000805160206150fb833981519152604482015290519081900360640190fd5b6001600160a01b037f0000000000000000000000000000000000000000000000000000000000000000168585600019810181811061366e57fe5b905060200201356001600160a01b03166001600160a01b0316146136c7576040805162461bcd60e51b815260206004820152601960248201526000805160206151c9833981519152604482015290519081900360640190fd5b6136d083613abc565b9250613727858560008181106136e257fe5b905060200201356001600160a01b0316336137218b8989600081811061370457fe5b905060200201356001600160a01b03168a8a600181811061134d57fe5b8a6140a2565b613766888686808060200260200160405190810160405280939291908181526020018383602002808284376000920191909152503092506147e1915050565b604080516370a0823160e01b815230600482015290516000916001600160a01b037f000000000000000000000000000000000000000000000000000000000000000016916370a0823191602480820192602092909190829003018186803b1580156137d057600080fd5b505afa1580156137e4573d6000803e3d6000fd5b505050506040513d60208110156137fa57600080fd5b505160408051632e1a7d4d60e01b81526004810183905290519192506001600160a01b037f00000000000000000000000000000000000000000000000000000000000000001691632e1a7d4d9160248082019260009290919082900301818387803b15801561386857600080fd5b505af115801561387c573d6000803e3d6000fd5b50505050600080600061389184886000613c52565b925092509250898310156138e8576040805162461bcd60e51b8152602060048201526019602482015278466c6f6f7a526f757465723a204c4f575f534c49505041474560381b604482015290519081900360640190fd5b6138f23384614406565b6000613904838363ffffffff613dbb16565b111561216c5761216c60008a8a60001981018181106118c157fe5b60048054600354604080516370a0823160e01b81526001600160a01b03868116958201959095529051600094909216916370a0823191602480820192602092909190829003018186803b15801561397557600080fd5b505afa158015613989573d6000803e3d6000fd5b505050506040513d602081101561399f57600080fd5b5051101592915050565b6139b1614615565b6001600160a01b03166139c26124fa565b6001600160a01b031614613a0b576040805162461bcd60e51b81526020600482018190526024820152600080516020615186833981519152604482015290519081900360640190fd5b6001600160a01b038116613a505760405162461bcd60e51b815260040180806020018281038252602681526020018061508b6026913960400191505060405180910390fd5b600080546040516001600160a01b03808516939216917f8be0079c531659141344cd1fd0a4f28419497f9722a3daafe3b4186f6b6457e091a3600080546001600160a01b0319166001600160a01b0392909216919091179055565b600554600160a01b900461ffff1681565b6002546040805163493f44bd60e11b8152336004820181905291516000936201000090046001600160a01b03169163927e897a916024808301926020929190829003018186803b158015613b0f57600080fd5b505afa158015613b23573d6000803e3d6000fd5b505050506040513d6020811015613b3957600080fd5b5051158015613b5057506001600160a01b03831615155b15613bcb57600254604080516364e0b15960e01b81526001600160a01b0384811660048301528681166024830152915162010000909304909116916364e0b1599160448082019260009290919082900301818387803b158015613bb257600080fd5b505af1158015613bc6573d6000803e3d6000fd5b505050505b60025460408051633444fbf160e21b81526001600160a01b0384811660048301529151620100009093049091169163d113efc491602480820192602092909190829003018186803b158015613c1f57600080fd5b505afa158015613c33573d6000803e3d6000fd5b505050506040513d6020811015613c4957600080fd5b50519392505050565b6000806000613c603361391f565b15613c6d57859250613db2565b8315613ccb57600254869350613cc4908490613cb890613c9a906127109061ffff1663ffffffff614ab216565b613cac8761271063ffffffff614b9316565b9063ffffffff614bec16565b9063ffffffff614ab216565b9150613d00565b600254613ceb9061271090613cac90899061ffff1663ffffffff614b9316565b9150613cfd868363ffffffff614ab216565b92505b6001600160a01b03851615801590613d215750600554600160b01b900460ff165b15613dae576001600160a01b03851660009081526006602052604081205461ffff16613d5a57600554600160a01b900461ffff16613d78565b6001600160a01b03861660009081526006602052604090205461ffff165b9050613d94612710613cac8561ffff851663ffffffff614b9316565b9150613da6838363ffffffff614ab216565b925050613db2565b5060005b93509350939050565b600082820183811015613e15576040805162461bcd60e51b815260206004820152601b60248201527f536166654d6174683a206164646974696f6e206f766572666c6f770000000000604482015290519081900360640190fd5b90505b92915050565b6060600282511015613e65576040805162461bcd60e51b815260206004820152601960248201526000805160206151c9833981519152604482015290519081900360640190fd5b815167ffffffffffffffff81118015613e7d57600080fd5b50604051908082528060200260200182016040528015613ea7578160200160208202803683370190505b5090508281600183510381518110613ebb57fe5b60209081029190910101528151600019015b8015613f5157600080613f0a87866001860381518110613ee957fe5b6020026020010151878681518110613efd57fe5b6020026020010151614c53565b91509150613f2c848481518110613f1d57fe5b60200260200101518383614d1a565b846001850381518110613f3b57fe5b6020908102919091010152505060001901613ecd565b509392505050565b6000806000613f688585614e0a565b9150915085828260405160200180836001600160a01b03166001600160a01b031660601b8152601401826001600160a01b03166001600160a01b031660601b8152601401925050506040516020818303038152906040528051906020012060086000896001600160a01b03166001600160a01b0316815260200190815260200160002060405160200180806001600160f81b0319815250600101846001600160a01b03166001600160a01b031660601b81526014018381526020018280546001816001161561010002031660029004801561407a5780601f1061405857610100808354040283529182019161407a565b820191906000526020600020905b815481529060010190602001808311614066575b505060408051601f1981840301815291905280516020909101209a9950505050505050505050565b604080516001600160a01b0385811660248301528481166044830152606480830185905283518084039091018152608490920183526020820180516001600160e01b03166323b872dd60e01b17815292518251600094606094938a169392918291908083835b602083106141275780518252601f199092019160209182019101614108565b6001836020036101000a0380198251168184511680821785525050505050509050019150506000604051808303816000865af19150503d8060008114614189576040519150601f19603f3d011682016040523d82523d6000602084013e61418e565b606091505b50915091508180156141bc5750805115806141bc57508080602001905160208110156141b957600080fd5b50515b6141f75760405162461bcd60e51b815260040180806020018281038252602481526020018061524c6024913960400191505060405180910390fd5b505050505050565b60005b60018351038110156143ff5760008084838151811061421d57fe5b602002602001015185846001018151811061423457fe5b602002602001015191509150600061424c8383614e0a565b509050600087856001018151811061426057fe5b60200260200101519050600080836001600160a01b0316866001600160a01b03161461428e57826000614292565b6000835b91509150600060028a510388106142a957886142ca565b6142ca8c878c8b600201815181106142bd57fe5b6020026020010151613f59565b90506142d78c8888613f59565b6001600160a01b031663022c0d9f84848460006040519080825280601f01601f191660200182016040528015614314576020820181803683370190505b506040518563ffffffff1660e01b815260040180858152602001848152602001836001600160a01b03166001600160a01b0316815260200180602001828103825283818151815260200191508051906020019080838360005b8381101561438557818101518382015260200161436d565b50505050905090810190601f1680156143b25780820380516001836020036101000a031916815260200191505b5095505050505050600060405180830381600087803b1580156143d457600080fd5b505af11580156143e8573d6000803e3d6000fd5b505060019099019850614202975050505050505050565b5050505050565b604080516000808252602082019092526001600160a01b0384169083906040518082805190602001908083835b602083106144525780518252601f199092019160209182019101614433565b6001836020036101000a03801982511681845116808217855250505050505090500191505060006040518083038185875af1925050503d80600081146144b4576040519150601f19603f3d011682016040523d82523d6000602084013e6144b9565b606091505b50509050806144f95760405162461bcd60e51b81526004018080602001828103825260238152602001806152096023913960400191505060405180910390fd5b505050565b6001600160a01b03851661458d57600554614522906001600160a01b031683614406565b8015614588576145328382614406565b604080513381526001600160a01b03868116602083015287811682840152606082018490529151918516917f84ff16114f882a54c4748006b5e4b0b7ac76bd911d135145a6d063fd76a38a409181900360800190a25b6143ff565b6005546145a790869033906001600160a01b0316856140a2565b80156143ff576145b9853385846140a2565b604080513381526001600160a01b03868116602083015287811682840152606082018490529151918516917f84ff16114f882a54c4748006b5e4b0b7ac76bd911d135145a6d063fd76a38a409181900360800190a25050505050565b3390565b614621611e0d565b614669576040805162461bcd60e51b815260206004820152601460248201527314185d5cd8589b194e881b9bdd081c185d5cd95960621b604482015290519081900360640190fd5b6000805460ff60a01b191690557f5db9ee0a495bf2e6ff9c91a7834c1ba4fdd244a5e8aa4e537bd38aeae4b073aa61469f614615565b604080516001600160a01b039092168252519081900360200190a1565b6060600282511015614703576040805162461bcd60e51b815260206004820152601960248201526000805160206151c9833981519152604482015290519081900360640190fd5b815167ffffffffffffffff8111801561471b57600080fd5b50604051908082528060200260200182016040528015614745578160200160208202803683370190505b509050828160008151811061475657fe5b60200260200101818152505060005b6001835103811015613f515760008061479b8786858151811061478457fe5b6020026020010151878660010181518110613efd57fe5b915091506147bd8484815181106147ae57fe5b60200260200101518383614ee8565b8484600101815181106147cc57fe5b60209081029190910101525050600101614765565b60005b6001835103811015614aac576000808483815181106147ff57fe5b602002602001015185846001018151811061481657fe5b602002602001015191509150600061482e8383614e0a565b509050600061483e888585613f59565b9050600080600080846001600160a01b0316630902f1ac6040518163ffffffff1660e01b815260040160606040518083038186803b15801561487f57600080fd5b505afa158015614893573d6000803e3d6000fd5b505050506040513d60608110156148a957600080fd5b5080516020909101516001600160701b0391821693501690506000806001600160a01b038a8116908916146148df5782846148e2565b83835b91509150614940828b6001600160a01b03166370a082318a6040518263ffffffff1660e01b815260040180826001600160a01b03166001600160a01b0316815260200191505060206040518083038186803b15801561209557600080fd5b955061494d868383614ee8565b945050505050600080856001600160a01b0316886001600160a01b0316146149775782600061497b565b6000835b91509150600060028c51038a10614992578a6149a6565b6149a68d898e8d600201815181106142bd57fe5b604080516000808252602082019283905263022c0d9f60e01b835260248201878152604483018790526001600160a01b038086166064850152608060848501908152845160a48601819052969750908c169563022c0d9f958a958a958a9591949193919260c486019290918190849084905b83811015614a30578181015183820152602001614a18565b50505050905090810190601f168015614a5d5780820380516001836020036101000a031916815260200191505b5095505050505050600060405180830381600087803b158015614a7f57600080fd5b505af1158015614a93573d6000803e3d6000fd5b50506001909b019a506147e49950505050505050505050565b50505050565b600082821115614b09576040805162461bcd60e51b815260206004820152601e60248201527f536166654d6174683a207375627472616374696f6e206f766572666c6f770000604482015290519081900360640190fd5b50900390565b614b17611e0d565b15614b57576040805162461bcd60e51b815260206004820152601060248201526000805160206151e9833981519152604482015290519081900360640190fd5b6000805460ff60a01b1916600160a01b1790557f62e78cea01bee320cd4e420270b5ea74000d11b0c9f74754ebdbfc544b05a25861469f614615565b600082614ba257506000613e18565b82820282848281614baf57fe5b0414613e155760405162461bcd60e51b81526004018080602001828103825260218152602001806151656021913960400191505060405180910390fd5b6000808211614c42576040805162461bcd60e51b815260206004820152601a60248201527f536166654d6174683a206469766973696f6e206279207a65726f000000000000604482015290519081900360640190fd5b818381614c4b57fe5b049392505050565b6000806000614c628585614e0a565b509050600080614c73888888613f59565b6001600160a01b0316630902f1ac6040518163ffffffff1660e01b815260040160606040518083038186803b158015614cab57600080fd5b505afa158015614cbf573d6000803e3d6000fd5b505050506040513d6060811015614cd557600080fd5b5080516020909101516001600160701b0391821693501690506001600160a01b0387811690841614614d08578082614d0b565b81815b90999098509650505050505050565b6000808411614d5a5760405162461bcd60e51b81526004018080602001828103825260278152602001806150b16027913960400191505060405180910390fd5b600083118015614d6a5750600082115b614da55760405162461bcd60e51b81526004018080602001828103825260238152602001806151a66023913960400191505060405180910390fd5b6000614dc9612710614dbd868863ffffffff614b9316565b9063ffffffff614b9316565b90506000614de36126fc614dbd868963ffffffff614ab216565b9050614e006001828481614df357fe5b049063ffffffff613dbb16565b9695505050505050565b600080826001600160a01b0316846001600160a01b03161415614e5e5760405162461bcd60e51b81526004018080602001828103825260238152602001806151426023913960400191505060405180910390fd5b826001600160a01b0316846001600160a01b031610614e7e578284614e81565b83835b90925090506001600160a01b038216614ee1576040805162461bcd60e51b815260206004820152601c60248201527f50616e63616b654c6962726172793a205a45524f5f4144445245535300000000604482015290519081900360640190fd5b9250929050565b6000808411614f285760405162461bcd60e51b81526004018080602001828103825260268152602001806150656026913960400191505060405180910390fd5b600083118015614f385750600082115b614f735760405162461bcd60e51b81526004018080602001828103825260238152602001806151a66023913960400191505060405180910390fd5b6000614f87856126fc63ffffffff614b9316565b90506000614f9b828563ffffffff614b9316565b90506000614fb58361124e8861271063ffffffff614b9316565b9050808281614fc057fe5b04979650505050505050565b828054600181600116156101000203166002900490600052602060002090601f016020900481019282601f1061500d5782800160ff1982351617855561503a565b8280016001018555821561503a579182015b8281111561503a57823582559160200191906001019061501f565b5061504692915061504a565b5090565b611e1b91905b80821115615046576000815560010161505056fe466c6f6f7a526f757465723a20494e53554646494349454e545f494e5055545f414d4f554e544f776e61626c653a206e6577206f776e657220697320746865207a65726f2061646472657373466c6f6f7a526f757465723a20494e53554646494349454e545f4f55545055545f414d4f554e54466c6f6f7a526f757465723a204558434553534956455f494e5055545f414d4f554e54466c6f6f7a526f757465723a2053454c465f524546455252414c000000000000466c6f6f7a526f757465723a20496e73756666696369656e74204f757470757420416d6f756e7450616e63616b654c6962726172793a204944454e544943414c5f414444524553534553536166654d6174683a206d756c7469706c69636174696f6e206f766572666c6f774f776e61626c653a2063616c6c6572206973206e6f7420746865206f776e6572466c6f6f7a526f757465723a20494e53554646494349454e545f4c4951554944495459466c6f6f7a526f757465723a20494e56414c49445f50415448000000000000005061757361626c653a20706175736564000000000000000000000000000000005472616e7366657248656c7065723a204554485f5452414e534645525f4641494c4544466c6f6f7a526f757465723a20494e56414c49445f464143544f5259000000005472616e7366657248656c7065723a205452414e534645525f46524f4d5f4641494c4544a2646970667358221220a8800ac613eb8454f72ed9180d05f07e362558bcb5c6e5eaddc0e58aa307ab0764736f6c63430006060033",
  "devdoc": {
    "methods": {
      "constructor": {
        "details": "construct this contract",
        "params": {
          "_WETH": "address of WETH.",
          "_balanceThreshold": "balance threshold of SYA tokens which actives feeless swapping",
          "_feeReceiver": "address that receives protocol fees",
          "_oneInch": "address of 1inch contract to forward swaps",
          "_referralRegistry": "address of referral registry that stores referral anchors",
          "_referralRewardRate": "percentage of swapFee that are paid out as rewards",
          "_saveYourAssetsToken": "address of SYA token",
          "_swapFee": "nominator for swapFee. Denominator = 10000",
          "_zeroEx": "address of zeroX proxy contract to forward swaps"
        }
      },
      "getUserFee(address)": {
        "details": "returns the fee nominator for a given user"
      },
      "owner()": {
        "details": "Returns the address of the current owner."
      },
      "pause()": {
        "details": "lets the admin pause this contract"
      },
      "paused()": {
        "details": "Returns true if the contract is paused, and false otherwise."
      },
      "renounceOwnership()": {
        "details": "Leaves the contract without owner. It will not be possible to call `onlyOwner` functions anymore. Can only be called by the current owner.     * NOTE: Renouncing ownership will leave the contract without an owner, thereby removing any functionality that is only available to the owner."
      },
      "swapETHForExactTokens(address,uint256,address[],address)": {
        "details": "execute swap directly on Uniswap/Pancake/...",
        "params": {
          "amountOut": "expected amount of tokens out",
          "fork": "fork used to execute swap",
          "path": "Sell path.",
          "referee": "address of referee for msg.sender, 0x adress if none"
        },
        "returns": {
          "amounts": "amounts"
        }
      },
      "swapExactETHForTokens(address,uint256,address[],address)": {
        "details": "execute swap directly on Uniswap/Pancake & simular forks",
        "params": {
          "amountOutMin": "minimum tokens to receive",
          "fork": "fork used to execute swap",
          "path": "Sell path.",
          "referee": "address of referee for msg.sender, 0x adress if none"
        },
        "returns": {
          "amounts": "amounts"
        }
      },
      "swapExactETHForTokensSupportingFeeOnTransferTokens(address,uint256,address[],address)": {
        "details": "execute swap directly on Uniswap/Pancake/...",
        "params": {
          "amountOutMin": "minimum expected tokens to receive",
          "fork": "fork used to execute swap",
          "path": "Sell path.",
          "referee": "address of referee for msg.sender, 0x adress if none"
        }
      },
      "swapExactTokensForETH(address,uint256,uint256,address[],address)": {
        "details": "execute swap directly on Uniswap/Pancake/...",
        "params": {
          "amountIn": "amount if tokens In",
          "amountOutMin": "minimum tokens to receive",
          "fork": "fork used to execute swap",
          "path": "Sell path.",
          "referee": "address of referee for msg.sender, 0x adress if none"
        },
        "returns": {
          "amounts": "amounts"
        }
      },
      "swapExactTokensForETHSupportingFeeOnTransferTokens(address,uint256,uint256,address[],address)": {
        "details": "execute swap directly on Uniswap/Pancake/...",
        "params": {
          "amountIn": "amount of tokensIn",
          "amountOutMin": "minimum tokens to receive",
          "fork": "fork used to execute swap",
          "path": "Sell path.",
          "referee": "address of referee for msg.sender, 0x adress if none"
        }
      },
      "swapExactTokensForTokens(address,uint256,uint256,address[],address)": {
        "details": "execute swap directly on Uniswap/Pancake/...",
        "params": {
          "amountIn": "amount if tokens In",
          "amountOutMin": "minimum tokens to receive",
          "fork": "fork used to execute swap",
          "path": "Sell path.",
          "referee": "address of referee for msg.sender, 0x adress if none"
        },
        "returns": {
          "amounts": "amounts"
        }
      },
      "swapExactTokensForTokensSupportingFeeOnTransferTokens(address,uint256,uint256,address[],address)": {
        "details": "execute swap directly on Uniswap/Pancake/...",
        "params": {
          "amountIn": "amount if tokens In",
          "amountOutMin": "minimum tokens to receive",
          "fork": "fork used to execute swap",
          "path": "Sell path.",
          "referee": "address of referee for msg.sender, 0x adress if none"
        }
      },
      "swapTokensForExactETH(address,uint256,uint256,address[],address)": {
        "details": "execute swap directly on Uniswap/Pancake/...",
        "params": {
          "amountInMax": "maximum tokens to send",
          "amountOut": "expected tokens to receive",
          "fork": "fork used to execute swap",
          "path": "Sell path.",
          "referee": "address of referee for msg.sender, 0x adress if none"
        },
        "returns": {
          "amounts": "amounts"
        }
      },
      "swapTokensForExactTokens(address,uint256,uint256,address[],address)": {
        "details": "execute swap directly on Uniswap/Pancake/...",
        "params": {
          "amountInMax": "maximum tokens to send",
          "amountOut": "expected tokens to receive",
          "fork": "fork used to execute swap",
          "path": "Sell path.",
          "referee": "address of referee for msg.sender, 0x adress if none"
        },
        "returns": {
          "amounts": "amounts"
        }
      },
      "transferOwnership(address)": {
        "details": "Transfers ownership of the contract to a new account (`newOwner`). Can only be called by the current owner."
      },
      "unpause()": {
        "details": "lets the admin unpause this contract"
      },
      "updateFork(address,bytes,bool)": {
        "details": "lets the admin update an Uniswap style fork"
      },
      "userAboveBalanceThreshold(address)": {
        "details": "returns if a users is above the SYA threshold and can swap without fees"
      }
    }
  },
  "userdoc": {
    "methods": {}
  },
  "storageLayout": {
    "storage": [
      {
        "astId": 592,
        "contract": "contracts/FloozRouter.sol:FloozRouter",
        "label": "_owner",
        "offset": 0,
        "slot": "0",
        "type": "t_address"
      },
      {
        "astId": 1168,
        "contract": "contracts/FloozRouter.sol:FloozRouter",
        "label": "_paused",
        "offset": 20,
        "slot": "0",
        "type": "t_bool"
      },
      {
        "astId": 1253,
        "contract": "contracts/FloozRouter.sol:FloozRouter",
        "label": "_status",
        "offset": 0,
        "slot": "1",
        "type": "t_uint256"
      },
      {
        "astId": 4824,
        "contract": "contracts/FloozRouter.sol:FloozRouter",
        "label": "swapFee",
        "offset": 0,
        "slot": "2",
        "type": "t_uint16"
      },
      {
        "astId": 4832,
        "contract": "contracts/FloozRouter.sol:FloozRouter",
        "label": "referralRegistry",
        "offset": 2,
        "slot": "2",
        "type": "t_contract(IReferralRegistry)7984"
      },
      {
        "astId": 4834,
        "contract": "contracts/FloozRouter.sol:FloozRouter",
        "label": "saveYourAssetsToken",
        "offset": 0,
        "slot": "3",
        "type": "t_contract(IERC20)1127"
      },
      {
        "astId": 4836,
        "contract": "contracts/FloozRouter.sol:FloozRouter",
        "label": "balanceThreshold",
        "offset": 0,
        "slot": "4",
        "type": "t_uint256"
      },
      {
        "astId": 4838,
        "contract": "contracts/FloozRouter.sol:FloozRouter",
        "label": "feeReceiver",
        "offset": 0,
        "slot": "5",
        "type": "t_address_payable"
      },
      {
        "astId": 4840,
        "contract": "contracts/FloozRouter.sol:FloozRouter",
        "label": "referralRewardRate",
        "offset": 20,
        "slot": "5",
        "type": "t_uint16"
      },
      {
        "astId": 4842,
        "contract": "contracts/FloozRouter.sol:FloozRouter",
        "label": "referralsActivated",
        "offset": 22,
        "slot": "5",
        "type": "t_bool"
      },
      {
        "astId": 4846,
        "contract": "contracts/FloozRouter.sol:FloozRouter",
        "label": "customReferralRewardRate",
        "offset": 0,
        "slot": "6",
        "type": "t_mapping(t_address,t_uint16)"
      },
      {
        "astId": 4850,
        "contract": "contracts/FloozRouter.sol:FloozRouter",
        "label": "forkActivated",
        "offset": 0,
        "slot": "7",
        "type": "t_mapping(t_address,t_bool)"
      },
      {
        "astId": 4854,
        "contract": "contracts/FloozRouter.sol:FloozRouter",
        "label": "forkInitCode",
        "offset": 0,
        "slot": "8",
        "type": "t_mapping(t_address,t_bytes_storage)"
      }
    ],
    "types": {
      "t_address": {
        "encoding": "inplace",
        "label": "address",
        "numberOfBytes": "20"
      },
      "t_address_payable": {
        "encoding": "inplace",
        "label": "address payable",
        "numberOfBytes": "20"
      },
      "t_bool": {
        "encoding": "inplace",
        "label": "bool",
        "numberOfBytes": "1"
      },
      "t_bytes_storage": {
        "encoding": "bytes",
        "label": "bytes",
        "numberOfBytes": "32"
      },
      "t_contract(IERC20)1127": {
        "encoding": "inplace",
        "label": "contract IERC20",
        "numberOfBytes": "20"
      },
      "t_contract(IReferralRegistry)7984": {
        "encoding": "inplace",
        "label": "contract IReferralRegistry",
        "numberOfBytes": "20"
      },
      "t_mapping(t_address,t_bool)": {
        "encoding": "mapping",
        "key": "t_address",
        "label": "mapping(address => bool)",
        "numberOfBytes": "32",
        "value": "t_bool"
      },
      "t_mapping(t_address,t_bytes_storage)": {
        "encoding": "mapping",
        "key": "t_address",
        "label": "mapping(address => bytes)",
        "numberOfBytes": "32",
        "value": "t_bytes_storage"
      },
      "t_mapping(t_address,t_uint16)": {
        "encoding": "mapping",
        "key": "t_address",
        "label": "mapping(address => uint16)",
        "numberOfBytes": "32",
        "value": "t_uint16"
      },
      "t_uint16": {
        "encoding": "inplace",
        "label": "uint16",
        "numberOfBytes": "2"
      },
      "t_uint256": {
        "encoding": "inplace",
        "label": "uint256",
        "numberOfBytes": "32"
      }
    }
  }
}