{
  "address": "0xb83ecc5748316831f62fcA2e0D9033Cf58018cd6",
  "abi": [
    {
      "inputs": [
        {
          "internalType": "contract IPancakeRouter02",
          "name": "_pancakeRouterV2",
          "type": "address"
        },
        {
          "internalType": "address",
          "name": "_SYA",
          "type": "address"
        },
        {
          "internalType": "address",
          "name": "_WBNB",
          "type": "address"
        },
        {
          "internalType": "address payable",
          "name": "_revenueReceiver",
          "type": "address"
        },
        {
          "internalType": "uint256",
          "name": "_buybackRate",
          "type": "uint256"
        }
      ],
      "stateMutability": "nonpayable",
      "type": "constructor"
    },
    {
      "anonymous": false,
      "inputs": [
        {
          "indexed": false,
          "internalType": "uint256",
          "name": "amountBuyback",
          "type": "uint256"
        },
        {
          "indexed": false,
          "internalType": "uint256",
          "name": "amountRevenue",
          "type": "uint256"
        }
      ],
      "name": "BuybackExecuted",
      "type": "event"
    },
    {
      "anonymous": false,
      "inputs": [
        {
          "indexed": false,
          "internalType": "uint256",
          "name": "newBuybackRate",
          "type": "uint256"
        }
      ],
      "name": "BuybackRateUpdated",
      "type": "event"
    },
    {
      "anonymous": false,
      "inputs": [
        {
          "indexed": true,
          "internalType": "address",
          "name": "previousOwner",
          "type": "address"
        },
        {
          "indexed": true,
          "internalType": "address",
          "name": "newOwner",
          "type": "address"
        }
      ],
      "name": "OwnershipTransferred",
      "type": "event"
    },
    {
      "anonymous": false,
      "inputs": [
        {
          "indexed": false,
          "internalType": "address",
          "name": "account",
          "type": "address"
        }
      ],
      "name": "Paused",
      "type": "event"
    },
    {
      "anonymous": false,
      "inputs": [
        {
          "indexed": false,
          "internalType": "address",
          "name": "newRevenueReceiver",
          "type": "address"
        }
      ],
      "name": "RevenueReceiverUpdated",
      "type": "event"
    },
    {
      "anonymous": false,
      "inputs": [
        {
          "indexed": false,
          "internalType": "address",
          "name": "router",
          "type": "address"
        },
        {
          "indexed": false,
          "internalType": "bool",
          "name": "status",
          "type": "bool"
        }
      ],
      "name": "RouterWhitelistUpdated",
      "type": "event"
    },
    {
      "anonymous": false,
      "inputs": [
        {
          "indexed": false,
          "internalType": "address",
          "name": "account",
          "type": "address"
        }
      ],
      "name": "Unpaused",
      "type": "event"
    },
    {
      "inputs": [],
      "name": "FEE_DENOMINATOR",
      "outputs": [
        {
          "internalType": "uint256",
          "name": "",
          "type": "uint256"
        }
      ],
      "stateMutability": "view",
      "type": "function"
    },
    {
      "inputs": [],
      "name": "SYA",
      "outputs": [
        {
          "internalType": "address",
          "name": "",
          "type": "address"
        }
      ],
      "stateMutability": "view",
      "type": "function"
    },
    {
      "inputs": [],
      "name": "WBNB",
      "outputs": [
        {
          "internalType": "address",
          "name": "",
          "type": "address"
        }
      ],
      "stateMutability": "view",
      "type": "function"
    },
    {
      "inputs": [
        {
          "internalType": "address",
          "name": "_router",
          "type": "address"
        },
        {
          "internalType": "contract IERC20",
          "name": "_token",
          "type": "address"
        },
        {
          "internalType": "bool",
          "name": "_fee",
          "type": "bool"
        }
      ],
      "name": "convertToBnb",
      "outputs": [],
      "stateMutability": "nonpayable",
      "type": "function"
    },
    {
      "inputs": [],
      "name": "executeBuyback",
      "outputs": [],
      "stateMutability": "nonpayable",
      "type": "function"
    },
    {
      "inputs": [],
      "name": "owner",
      "outputs": [
        {
          "internalType": "address",
          "name": "",
          "type": "address"
        }
      ],
      "stateMutability": "view",
      "type": "function"
    },
    {
      "inputs": [],
      "name": "pancakeRouter",
      "outputs": [
        {
          "internalType": "contract IPancakeRouter02",
          "name": "",
          "type": "address"
        }
      ],
      "stateMutability": "view",
      "type": "function"
    },
    {
      "inputs": [],
      "name": "pause",
      "outputs": [],
      "stateMutability": "nonpayable",
      "type": "function"
    },
    {
      "inputs": [],
      "name": "paused",
      "outputs": [
        {
          "internalType": "bool",
          "name": "",
          "type": "bool"
        }
      ],
      "stateMutability": "view",
      "type": "function"
    },
    {
      "inputs": [],
      "name": "renounceOwnership",
      "outputs": [],
      "stateMutability": "nonpayable",
      "type": "function"
    },
    {
      "inputs": [],
      "name": "revenueReceiver",
      "outputs": [
        {
          "internalType": "address payable",
          "name": "",
          "type": "address"
        }
      ],
      "stateMutability": "view",
      "type": "function"
    },
    {
      "inputs": [
        {
          "internalType": "address",
          "name": "",
          "type": "address"
        }
      ],
      "name": "routerWhitelist",
      "outputs": [
        {
          "internalType": "bool",
          "name": "",
          "type": "bool"
        }
      ],
      "stateMutability": "view",
      "type": "function"
    },
    {
      "inputs": [
        {
          "internalType": "address",
          "name": "newOwner",
          "type": "address"
        }
      ],
      "name": "transferOwnership",
      "outputs": [],
      "stateMutability": "nonpayable",
      "type": "function"
    },
    {
      "inputs": [],
      "name": "unpause",
      "outputs": [],
      "stateMutability": "nonpayable",
      "type": "function"
    },
    {
      "inputs": [],
      "name": "unwrapWBNB",
      "outputs": [],
      "stateMutability": "nonpayable",
      "type": "function"
    },
    {
      "inputs": [
        {
          "internalType": "uint256",
          "name": "_newBuybackRate",
          "type": "uint256"
        }
      ],
      "name": "updateBuybackRate",
      "outputs": [],
      "stateMutability": "nonpayable",
      "type": "function"
    },
    {
      "inputs": [
        {
          "internalType": "address payable",
          "name": "_newRevenueReceiver",
          "type": "address"
        }
      ],
      "name": "updateRevenueReceiver",
      "outputs": [],
      "stateMutability": "nonpayable",
      "type": "function"
    },
    {
      "inputs": [
        {
          "internalType": "address",
          "name": "_router",
          "type": "address"
        },
        {
          "internalType": "bool",
          "name": "_status",
          "type": "bool"
        }
      ],
      "name": "updateRouterWhiteliste",
      "outputs": [],
      "stateMutability": "nonpayable",
      "type": "function"
    },
    {
      "inputs": [
        {
          "internalType": "address payable",
          "name": "to",
          "type": "address"
        },
        {
          "internalType": "uint256",
          "name": "amount",
          "type": "uint256"
        }
      ],
      "name": "withdrawBnb",
      "outputs": [],
      "stateMutability": "nonpayable",
      "type": "function"
    },
    {
      "inputs": [
        {
          "internalType": "address",
          "name": "token",
          "type": "address"
        },
        {
          "internalType": "address",
          "name": "to",
          "type": "address"
        },
        {
          "internalType": "uint256",
          "name": "amount",
          "type": "uint256"
        }
      ],
      "name": "withdrawErc20Token",
      "outputs": [],
      "stateMutability": "nonpayable",
      "type": "function"
    },
    {
      "stateMutability": "payable",
      "type": "receive"
    }
  ],
  "transactionHash": "0x7658890acfde310a643d1fd3ffadf98a632296af8455e8947c423de09b9acbe3",
  "args": [
    "0x10ED43C718714eb63d5aA57B78B54704E256024E",
    "0x83A86adf1a7c56e77d36d585B808052e0a2aAD0e",
    "0xbb4cdb9cbd36b01bd1cbaebf2de08d9173bc095c",
    "0x616b9E8ebf9cAc11E751713f3d765Cc22cC7d1D5",
    5000
  ],
  "solcInputHash": "b1684689b78d2da65c15f89409d36773",
  "bytecode": "0x608060405234801561001057600080fd5b506040516119af3803806119af833981810160405260a081101561003357600080fd5b5080516020820151604083015160608401516080909401516000805460ff191681559394929391929161006d6001600160e01b0361013516565b60008054610100600160a81b0319166101006001600160a01b038416908102919091178255604051929350917f8be0079c531659141344cd1fd0a4f28419497f9722a3daafe3b4186f6b6457e0908290a350600180546001600160a01b03199081166001600160a01b03978816178083556003805483169789169790971790965560048054821695881695909517909455600280549094169286169290921790925560059190915591166000908152600660205260409020805460ff19169091179055610139565b3390565b611867806101486000396000f3fe6080604052600436106101235760003560e01c80638dd95002116100a0578063c21ebd0711610064578063c21ebd0714610377578063cb4bef571461038c578063d73792a9146103bf578063e6146ad4146103e6578063f2fde38b146103fb5761012a565b80638dd95002146102c45780638e10e77a146102d9578063a12cff49146102ee578063ae52e04a14610327578063ae5ab6421461033c5761012a565b806363cbb145116100e757806363cbb14514610221578063715018a6146102545780638456cb59146102695780638b01919a1461027e5780638da5cb5b146102935761012a565b80630d9122d31461012f5780632b5e948c1461015b5780632d079734146101a05780633f4ba83a146101e35780635c975abb146101f85761012a565b3661012a57005b600080fd5b34801561013b57600080fd5b506101596004803603602081101561015257600080fd5b503561042e565b005b34801561016757600080fd5b506101596004803603606081101561017e57600080fd5b506001600160a01b0381358116916020810135909116906040013515156104cb565b3480156101ac57600080fd5b50610159600480360360608110156101c357600080fd5b506001600160a01b038135811691602081013590911690604001356108c9565b3480156101ef57600080fd5b506101596109b5565b34801561020457600080fd5b5061020d610a21565b604080519115158252519081900360200190f35b34801561022d57600080fd5b5061020d6004803603602081101561024457600080fd5b50356001600160a01b0316610a2a565b34801561026057600080fd5b50610159610a3f565b34801561027557600080fd5b50610159610af0565b34801561028a57600080fd5b50610159610b5a565b34801561029f57600080fd5b506102a8610cd5565b604080516001600160a01b039092168252519081900360200190f35b3480156102d057600080fd5b506102a8610ce9565b3480156102e557600080fd5b50610159610cf8565b3480156102fa57600080fd5b506101596004803603604081101561031157600080fd5b506001600160a01b038135169060200135610f65565b34801561033357600080fd5b506102a8611002565b34801561034857600080fd5b506101596004803603604081101561035f57600080fd5b506001600160a01b0381351690602001351515611011565b34801561038357600080fd5b506102a86110d7565b34801561039857600080fd5b50610159600480360360208110156103af57600080fd5b50356001600160a01b03166110e6565b3480156103cb57600080fd5b506103d461119c565b60408051918252519081900360200190f35b3480156103f257600080fd5b506102a86111a2565b34801561040757600080fd5b506101596004803603602081101561041e57600080fd5b50356001600160a01b03166111b1565b6104366112be565b6001600160a01b0316610447610cd5565b6001600160a01b031614610490576040805162461bcd60e51b815260206004820181905260248201526000805160206117cc833981519152604482015290519081900360640190fd5b60058190556040805182815290517fcc694eb069971c6c91f6c905b0f66a7a6322a90a42f3904b7508e7b9336a7dfe9181900360200190a150565b6104d3610a21565b15610518576040805162461bcd60e51b815260206004820152601060248201526f14185d5cd8589b194e881c185d5cd95960821b604482015290519081900360640190fd5b6001600160a01b03831660009081526006602052604090205460ff1661056f5760405162461bcd60e51b81526004018080602001828103825260238152602001806117886023913960400191505060405180910390fd5b6040805160028082526060808301845292602083019080368337019050509050828160008151811061059d57fe5b6001600160a01b0392831660209182029290920101526004548251911690829060019081106105c857fe5b6001600160a01b03928316602091820292909201810191909152604080516370a0823160e01b815230600482015290516000938716926370a082319260248082019391829003018186803b15801561061f57600080fd5b505afa158015610633573d6000803e3d6000fd5b505050506040513d602081101561064957600080fd5b50516001549091506106669085906001600160a01b0316836112c2565b821561074057846001600160a01b031663791ac9478260008530426040518663ffffffff1660e01b81526004018086815260200185815260200180602001846001600160a01b03166001600160a01b03168152602001838152602001828103825285818151815260200191508051906020019060200280838360005b838110156106fa5781810151838201526020016106e2565b505050509050019650505050505050600060405180830381600087803b15801561072357600080fd5b505af1158015610737573d6000803e3d6000fd5b505050506108c2565b846001600160a01b03166318cbafe58260008530426040518663ffffffff1660e01b81526004018086815260200185815260200180602001846001600160a01b03166001600160a01b03168152602001838152602001828103825285818151815260200191508051906020019060200280838360005b838110156107ce5781810151838201526020016107b6565b505050509050019650505050505050600060405180830381600087803b1580156107f757600080fd5b505af115801561080b573d6000803e3d6000fd5b505050506040513d6000823e601f3d908101601f19168201604052602081101561083457600080fd5b810190808051604051939291908464010000000082111561085457600080fd5b90830190602082018581111561086957600080fd5b825186602082028301116401000000008211171561088657600080fd5b82525081516020918201928201910280838360005b838110156108b357818101518382015260200161089b565b50505050905001604052505050505b5050505050565b6108d16112be565b6001600160a01b03166108e2610cd5565b6001600160a01b03161461092b576040805162461bcd60e51b815260206004820181905260248201526000805160206117cc833981519152604482015290519081900360640190fd5b826001600160a01b031663a9059cbb83836040518363ffffffff1660e01b815260040180836001600160a01b03166001600160a01b0316815260200182815260200192505050602060405180830381600087803b15801561098b57600080fd5b505af115801561099f573d6000803e3d6000fd5b505050506040513d60208110156108c257600080fd5b6109bd6112be565b6001600160a01b03166109ce610cd5565b6001600160a01b031614610a17576040805162461bcd60e51b815260206004820181905260248201526000805160206117cc833981519152604482015290519081900360640190fd5b610a1f611425565b565b60005460ff1690565b60066020526000908152604090205460ff1681565b610a476112be565b6001600160a01b0316610a58610cd5565b6001600160a01b031614610aa1576040805162461bcd60e51b815260206004820181905260248201526000805160206117cc833981519152604482015290519081900360640190fd5b600080546040516101009091046001600160a01b0316907f8be0079c531659141344cd1fd0a4f28419497f9722a3daafe3b4186f6b6457e0908390a360008054610100600160a81b0319169055565b610af86112be565b6001600160a01b0316610b09610cd5565b6001600160a01b031614610b52576040805162461bcd60e51b815260206004820181905260248201526000805160206117cc833981519152604482015290519081900360640190fd5b610a1f6114c5565b610b62610a21565b15610ba7576040805162461bcd60e51b815260206004820152601060248201526f14185d5cd8589b194e881c185d5cd95960821b604482015290519081900360640190fd5b60048054604080516370a0823160e01b81523093810193909352516000926001600160a01b03909216916370a08231916024808301926020929190829003018186803b158015610bf657600080fd5b505afa158015610c0a573d6000803e3d6000fd5b505050506040513d6020811015610c2057600080fd5b5051905080610c76576040805162461bcd60e51b815260206004820152601e60248201527f46656552656365697665723a204e6f7468696e6720746f20756e777261700000604482015290519081900360640190fd5b6004805460408051632e1a7d4d60e01b8152928301849052516001600160a01b0390911691632e1a7d4d91602480830192600092919082900301818387803b158015610cc157600080fd5b505af11580156108c2573d6000803e3d6000fd5b60005461010090046001600160a01b031690565b6004546001600160a01b031681565b610d00610a21565b15610d45576040805162461bcd60e51b815260206004820152601060248201526f14185d5cd8589b194e881c185d5cd95960821b604482015290519081900360640190fd5b60004711610d845760405162461bcd60e51b815260040180806020018281038252602381526020018061180f6023913960400191505060405180910390fd5b6040805160028082526060808301845292602083019080368337505060045482519293506001600160a01b031691839150600090610dbe57fe5b6001600160a01b039283166020918202929092010152600354825191169082906001908110610de957fe5b60200260200101906001600160a01b031690816001600160a01b03168152505060004790506000610e37612710610e2b6005548561154890919063ffffffff16565b9063ffffffff6115aa16565b90506000610e4b838363ffffffff61161116565b60015460405163b6f9de9560e01b815260006004820181815261dead6044840181905242606485018190526080602486019081528b5160848701528b519798506001600160a01b039096169663b6f9de95968a968d959260a490910190602080880191028083838b5b83811015610ecc578181015183820152602001610eb4565b50505050905001955050505050506000604051808303818588803b158015610ef357600080fd5b505af1158015610f07573d6000803e3d6000fd5b5050600254610f2493506001600160a01b0316915083905061166e565b604080518381526020810183905281517f8e8412cac6b961b95ef832e2bac486977bbd29eb9725f9eddd97f3380c31f649929181900390910190a150505050565b610f6d6112be565b6001600160a01b0316610f7e610cd5565b6001600160a01b031614610fc7576040805162461bcd60e51b815260206004820181905260248201526000805160206117cc833981519152604482015290519081900360640190fd5b6040516001600160a01b0383169082156108fc029083906000818181858888f19350505050158015610ffd573d6000803e3d6000fd5b505050565b6002546001600160a01b031681565b6110196112be565b6001600160a01b031661102a610cd5565b6001600160a01b031614611073576040805162461bcd60e51b815260206004820181905260248201526000805160206117cc833981519152604482015290519081900360640190fd5b6001600160a01b038216600081815260066020908152604091829020805460ff191685151590811790915582519384529083015280517f7dfa5a39e8d4ab2d330416cdd5102e73066069ba1c76ec335cc47727a07fe7989281900390910190a15050565b6001546001600160a01b031681565b6110ee6112be565b6001600160a01b03166110ff610cd5565b6001600160a01b031614611148576040805162461bcd60e51b815260206004820181905260248201526000805160206117cc833981519152604482015290519081900360640190fd5b600280546001600160a01b0383166001600160a01b0319909116811790915560408051918252517f08dac497db2e0e95e33c25bcfe70ee26183653b113f9bdc563104589c5e90d369181900360200190a150565b61271081565b6003546001600160a01b031681565b6111b96112be565b6001600160a01b03166111ca610cd5565b6001600160a01b031614611213576040805162461bcd60e51b815260206004820181905260248201526000805160206117cc833981519152604482015290519081900360640190fd5b6001600160a01b0381166112585760405162461bcd60e51b81526004018080602001828103825260268152602001806117626026913960400191505060405180910390fd5b600080546040516001600160a01b038085169361010090930416917f8be0079c531659141344cd1fd0a4f28419497f9722a3daafe3b4186f6b6457e091a3600080546001600160a01b0390921661010002610100600160a81b0319909216919091179055565b3390565b604080516001600160a01b038481166024830152604480830185905283518084039091018152606490920183526020820180516001600160e01b031663095ea7b360e01b178152925182516000946060949389169392918291908083835b6020831061133f5780518252601f199092019160209182019101611320565b6001836020036101000a0380198251168184511680821785525050505050509050019150506000604051808303816000865af19150503d80600081146113a1576040519150601f19603f3d011682016040523d82523d6000602084013e6113a6565b606091505b50915091508180156113d45750805115806113d457508080602001905160208110156113d157600080fd5b50515b6108c2576040805162461bcd60e51b815260206004820152601e60248201527f5472616e7366657248656c7065723a20415050524f56455f4641494c45440000604482015290519081900360640190fd5b61142d610a21565b611475576040805162461bcd60e51b815260206004820152601460248201527314185d5cd8589b194e881b9bdd081c185d5cd95960621b604482015290519081900360640190fd5b6000805460ff191690557f5db9ee0a495bf2e6ff9c91a7834c1ba4fdd244a5e8aa4e537bd38aeae4b073aa6114a86112be565b604080516001600160a01b039092168252519081900360200190a1565b6114cd610a21565b15611512576040805162461bcd60e51b815260206004820152601060248201526f14185d5cd8589b194e881c185d5cd95960821b604482015290519081900360640190fd5b6000805460ff191660011790557f62e78cea01bee320cd4e420270b5ea74000d11b0c9f74754ebdbfc544b05a2586114a86112be565b600082611557575060006115a4565b8282028284828161156457fe5b04146115a15760405162461bcd60e51b81526004018080602001828103825260218152602001806117ab6021913960400191505060405180910390fd5b90505b92915050565b6000808211611600576040805162461bcd60e51b815260206004820152601a60248201527f536166654d6174683a206469766973696f6e206279207a65726f000000000000604482015290519081900360640190fd5b81838161160957fe5b049392505050565b600082821115611668576040805162461bcd60e51b815260206004820152601e60248201527f536166654d6174683a207375627472616374696f6e206f766572666c6f770000604482015290519081900360640190fd5b50900390565b604080516000808252602082019092526001600160a01b0384169083906040518082805190602001908083835b602083106116ba5780518252601f19909201916020918201910161169b565b6001836020036101000a03801982511681845116808217855250505050505090500191505060006040518083038185875af1925050503d806000811461171c576040519150601f19603f3d011682016040523d82523d6000602084013e611721565b606091505b5050905080610ffd5760405162461bcd60e51b81526004018080602001828103825260238152602001806117ec6023913960400191505060405180910390fdfe4f776e61626c653a206e6577206f776e657220697320746865207a65726f206164647265737346656552656365697665723a20526f75746572206e6f742077686974656c6973746564536166654d6174683a206d756c7469706c69636174696f6e206f766572666c6f774f776e61626c653a2063616c6c6572206973206e6f7420746865206f776e65725472616e7366657248656c7065723a204554485f5452414e534645525f4641494c454446656552656365697665723a204e6f2062616c616e636520666f72206275796261636ba26469706673582212206b1a400411e4b9067097d851d1f004fe08bd9a85d71c41a486aff8c2b402cd1e64736f6c63430006060033",
  "devdoc": {
    "methods": {
      "convertToBnb(address,address,bool)": {
        "details": "converts collected tokens from fees to BNB to execute buybacks"
      },
      "executeBuyback()": {
        "details": "executes the buyback, buys SYA & sends revenue to the revenueReceiver by the defined rate"
      },
      "owner()": {
        "details": "Returns the address of the current owner."
      },
      "paused()": {
        "details": "Returns true if the contract is paused, and false otherwise."
      },
      "renounceOwnership()": {
        "details": "Leaves the contract without owner. It will not be possible to call `onlyOwner` functions anymore. Can only be called by the current owner.     * NOTE: Renouncing ownership will leave the contract without an owner, thereby removing any functionality that is only available to the owner."
      },
      "transferOwnership(address)": {
        "details": "Transfers ownership of the contract to a new account (`newOwner`). Can only be called by the current owner."
      },
      "unwrapWBNB()": {
        "details": "converts WBNB to BNB"
      },
      "updateBuybackRate(uint256)": {
        "details": "lets the owner update the buyback rate"
      },
      "updateRevenueReceiver(address)": {
        "details": "lets the owner update the buyback rate"
      },
      "updateRouterWhiteliste(address,bool)": {
        "details": "lets the owner update update the router whitelist"
      },
      "withdrawBnb(address,uint256)": {
        "details": "Withdraw BNB that somehow ended up in the contract."
      },
      "withdrawErc20Token(address,address,uint256)": {
        "details": "Withdraw any erc20 compliant tokens that somehow ended up in the contract."
      }
    }
  },
  "userdoc": {
    "methods": {}
  },
  "storageLayout": {
    "storage": [
      {
        "astId": 1168,
        "contract": "contracts/FeeReceiver.sol:FeeReceiver",
        "label": "_paused",
        "offset": 0,
        "slot": "0",
        "type": "t_bool"
      },
      {
        "astId": 592,
        "contract": "contracts/FeeReceiver.sol:FeeReceiver",
        "label": "_owner",
        "offset": 1,
        "slot": "0",
        "type": "t_address"
      },
      {
        "astId": 1289,
        "contract": "contracts/FeeReceiver.sol:FeeReceiver",
        "label": "pancakeRouter",
        "offset": 0,
        "slot": "1",
        "type": "t_contract(IPancakeRouter02)4757"
      },
      {
        "astId": 1291,
        "contract": "contracts/FeeReceiver.sol:FeeReceiver",
        "label": "revenueReceiver",
        "offset": 0,
        "slot": "2",
        "type": "t_address_payable"
      },
      {
        "astId": 1293,
        "contract": "contracts/FeeReceiver.sol:FeeReceiver",
        "label": "SYA",
        "offset": 0,
        "slot": "3",
        "type": "t_address"
      },
      {
        "astId": 1295,
        "contract": "contracts/FeeReceiver.sol:FeeReceiver",
        "label": "WBNB",
        "offset": 0,
        "slot": "4",
        "type": "t_address"
      },
      {
        "astId": 1297,
        "contract": "contracts/FeeReceiver.sol:FeeReceiver",
        "label": "buybackRate",
        "offset": 0,
        "slot": "5",
        "type": "t_uint256"
      },
      {
        "astId": 1301,
        "contract": "contracts/FeeReceiver.sol:FeeReceiver",
        "label": "routerWhitelist",
        "offset": 0,
        "slot": "6",
        "type": "t_mapping(t_address,t_bool)"
      }
    ],
    "types": {
      "t_address": {
        "encoding": "inplace",
        "label": "address",
        "numberOfBytes": "20"
      },
      "t_address_payable": {
        "encoding": "inplace",
        "label": "address payable",
        "numberOfBytes": "20"
      },
      "t_bool": {
        "encoding": "inplace",
        "label": "bool",
        "numberOfBytes": "1"
      },
      "t_contract(IPancakeRouter02)4757": {
        "encoding": "inplace",
        "label": "contract IPancakeRouter02",
        "numberOfBytes": "20"
      },
      "t_mapping(t_address,t_bool)": {
        "encoding": "mapping",
        "key": "t_address",
        "label": "mapping(address => bool)",
        "numberOfBytes": "32",
        "value": "t_bool"
      },
      "t_uint256": {
        "encoding": "inplace",
        "label": "uint256",
        "numberOfBytes": "32"
      }
    }
  }
}