{
  "address": "0xA54753448FCf94c521635F69504F5eE744bd7940",
  "abi": [
    {
      "inputs": [
        {
          "internalType": "address",
          "name": "_WETH",
          "type": "address"
        },
        {
          "internalType": "uint16",
          "name": "_swapFee",
          "type": "uint16"
        },
        {
          "internalType": "uint16",
          "name": "_referralRewardRate",
          "type": "uint16"
        },
        {
          "internalType": "address payable",
          "name": "_feeReceiver",
          "type": "address"
        },
        {
          "internalType": "uint256",
          "name": "_balanceThreshold",
          "type": "uint256"
        },
        {
          "internalType": "contract IERC20",
          "name": "_saveYourAssetsToken",
          "type": "address"
        },
        {
          "internalType": "contract IReferralRegistry",
          "name": "_referralRegistry",
          "type": "address"
        },
        {
          "internalType": "address payable",
          "name": "_zeroEx",
          "type": "address"
        }
      ],
      "stateMutability": "nonpayable",
      "type": "constructor"
    },
    {
      "anonymous": false,
      "inputs": [
        {
          "indexed": false,
          "internalType": "uint256",
          "name": "balanceThreshold",
          "type": "uint256"
        }
      ],
      "name": "BalanceThresholdUpdated",
      "type": "event"
    },
    {
      "anonymous": false,
      "inputs": [
        {
          "indexed": true,
          "internalType": "address",
          "name": "account",
          "type": "address"
        },
        {
          "indexed": false,
          "internalType": "uint16",
          "name": "referralRate",
          "type": "uint16"
        }
      ],
      "name": "CustomReferralRewardRateUpdated",
      "type": "event"
    },
    {
      "anonymous": false,
      "inputs": [
        {
          "indexed": false,
          "internalType": "address payable",
          "name": "feeReceiver",
          "type": "address"
        }
      ],
      "name": "FeeReceiverUpdated",
      "type": "event"
    },
    {
      "anonymous": false,
      "inputs": [
        {
          "indexed": false,
          "internalType": "address",
          "name": "factory",
          "type": "address"
        }
      ],
      "name": "ForkUpdated",
      "type": "event"
    },
    {
      "anonymous": false,
      "inputs": [
        {
          "indexed": true,
          "internalType": "address",
          "name": "previousOwner",
          "type": "address"
        },
        {
          "indexed": true,
          "internalType": "address",
          "name": "newOwner",
          "type": "address"
        }
      ],
      "name": "OwnershipTransferred",
      "type": "event"
    },
    {
      "anonymous": false,
      "inputs": [
        {
          "indexed": false,
          "internalType": "address",
          "name": "account",
          "type": "address"
        }
      ],
      "name": "Paused",
      "type": "event"
    },
    {
      "anonymous": false,
      "inputs": [
        {
          "indexed": false,
          "internalType": "address",
          "name": "referralRegistry",
          "type": "address"
        }
      ],
      "name": "ReferralRegistryUpdated",
      "type": "event"
    },
    {
      "anonymous": false,
      "inputs": [
        {
          "indexed": false,
          "internalType": "address",
          "name": "from",
          "type": "address"
        },
        {
          "indexed": true,
          "internalType": "address",
          "name": "to",
          "type": "address"
        },
        {
          "indexed": false,
          "internalType": "address",
          "name": "tokenOut",
          "type": "address"
        },
        {
          "indexed": false,
          "internalType": "address",
          "name": "tokenReward",
          "type": "address"
        },
        {
          "indexed": false,
          "internalType": "uint256",
          "name": "amount",
          "type": "uint256"
        }
      ],
      "name": "ReferralRewardPaid",
      "type": "event"
    },
    {
      "anonymous": false,
      "inputs": [
        {
          "indexed": false,
          "internalType": "uint16",
          "name": "referralRewardRate",
          "type": "uint16"
        }
      ],
      "name": "ReferralRewardRateUpdated",
      "type": "event"
    },
    {
      "anonymous": false,
      "inputs": [
        {
          "indexed": false,
          "internalType": "bool",
          "name": "activated",
          "type": "bool"
        }
      ],
      "name": "ReferralsActivatedUpdated",
      "type": "event"
    },
    {
      "anonymous": false,
      "inputs": [
        {
          "indexed": false,
          "internalType": "uint16",
          "name": "swapFee",
          "type": "uint16"
        }
      ],
      "name": "SwapFeeUpdated",
      "type": "event"
    },
    {
      "anonymous": false,
      "inputs": [
        {
          "indexed": false,
          "internalType": "address",
          "name": "account",
          "type": "address"
        }
      ],
      "name": "Unpaused",
      "type": "event"
    },
    {
      "stateMutability": "payable",
      "type": "fallback"
    },
    {
      "inputs": [],
      "name": "FEE_DENOMINATOR",
      "outputs": [
        {
          "internalType": "uint256",
          "name": "",
          "type": "uint256"
        }
      ],
      "stateMutability": "view",
      "type": "function"
    },
    {
      "inputs": [],
      "name": "WETH",
      "outputs": [
        {
          "internalType": "address",
          "name": "",
          "type": "address"
        }
      ],
      "stateMutability": "view",
      "type": "function"
    },
    {
      "inputs": [],
      "name": "balanceThreshold",
      "outputs": [
        {
          "internalType": "uint256",
          "name": "",
          "type": "uint256"
        }
      ],
      "stateMutability": "view",
      "type": "function"
    },
    {
      "inputs": [
        {
          "internalType": "address",
          "name": "",
          "type": "address"
        }
      ],
      "name": "customReferralRewardRate",
      "outputs": [
        {
          "internalType": "uint16",
          "name": "",
          "type": "uint16"
        }
      ],
      "stateMutability": "view",
      "type": "function"
    },
    {
      "inputs": [
        {
          "internalType": "bytes",
          "name": "data",
          "type": "bytes"
        },
        {
          "internalType": "address",
          "name": "tokenOut",
          "type": "address"
        },
        {
          "internalType": "address",
          "name": "tokenIn",
          "type": "address"
        },
        {
          "internalType": "address",
          "name": "referee",
          "type": "address"
        }
      ],
      "name": "executeZeroExSwap",
      "outputs": [],
      "stateMutability": "payable",
      "type": "function"
    },
    {
      "inputs": [],
      "name": "feeReceiver",
      "outputs": [
        {
          "internalType": "address payable",
          "name": "",
          "type": "address"
        }
      ],
      "stateMutability": "view",
      "type": "function"
    },
    {
      "inputs": [
        {
          "internalType": "address",
          "name": "",
          "type": "address"
        }
      ],
      "name": "forkActivated",
      "outputs": [
        {
          "internalType": "bool",
          "name": "",
          "type": "bool"
        }
      ],
      "stateMutability": "view",
      "type": "function"
    },
    {
      "inputs": [
        {
          "internalType": "address",
          "name": "",
          "type": "address"
        }
      ],
      "name": "forkInitCode",
      "outputs": [
        {
          "internalType": "bytes",
          "name": "",
          "type": "bytes"
        }
      ],
      "stateMutability": "view",
      "type": "function"
    },
    {
      "inputs": [
        {
          "internalType": "address",
          "name": "user",
          "type": "address"
        }
      ],
      "name": "getUserFee",
      "outputs": [
        {
          "internalType": "uint256",
          "name": "",
          "type": "uint256"
        }
      ],
      "stateMutability": "view",
      "type": "function"
    },
    {
      "inputs": [
        {
          "internalType": "address",
          "name": "user",
          "type": "address"
        }
      ],
      "name": "getUserReferee",
      "outputs": [
        {
          "internalType": "address",
          "name": "",
          "type": "address"
        }
      ],
      "stateMutability": "view",
      "type": "function"
    },
    {
      "inputs": [
        {
          "internalType": "address",
          "name": "user",
          "type": "address"
        }
      ],
      "name": "hasUserReferee",
      "outputs": [
        {
          "internalType": "bool",
          "name": "",
          "type": "bool"
        }
      ],
      "stateMutability": "view",
      "type": "function"
    },
    {
      "inputs": [],
      "name": "owner",
      "outputs": [
        {
          "internalType": "address",
          "name": "",
          "type": "address"
        }
      ],
      "stateMutability": "view",
      "type": "function"
    },
    {
      "inputs": [],
      "name": "pause",
      "outputs": [],
      "stateMutability": "nonpayable",
      "type": "function"
    },
    {
      "inputs": [],
      "name": "paused",
      "outputs": [
        {
          "internalType": "bool",
          "name": "",
          "type": "bool"
        }
      ],
      "stateMutability": "view",
      "type": "function"
    },
    {
      "inputs": [],
      "name": "referralRegistry",
      "outputs": [
        {
          "internalType": "contract IReferralRegistry",
          "name": "",
          "type": "address"
        }
      ],
      "stateMutability": "view",
      "type": "function"
    },
    {
      "inputs": [],
      "name": "referralRewardRate",
      "outputs": [
        {
          "internalType": "uint16",
          "name": "",
          "type": "uint16"
        }
      ],
      "stateMutability": "view",
      "type": "function"
    },
    {
      "inputs": [],
      "name": "referralsActivated",
      "outputs": [
        {
          "internalType": "bool",
          "name": "",
          "type": "bool"
        }
      ],
      "stateMutability": "view",
      "type": "function"
    },
    {
      "inputs": [],
      "name": "renounceOwnership",
      "outputs": [],
      "stateMutability": "nonpayable",
      "type": "function"
    },
    {
      "inputs": [],
      "name": "saveYourAssetsToken",
      "outputs": [
        {
          "internalType": "contract IERC20",
          "name": "",
          "type": "address"
        }
      ],
      "stateMutability": "view",
      "type": "function"
    },
    {
      "inputs": [
        {
          "internalType": "address",
          "name": "fork",
          "type": "address"
        },
        {
          "internalType": "uint256",
          "name": "amountOut",
          "type": "uint256"
        },
        {
          "internalType": "address[]",
          "name": "path",
          "type": "address[]"
        },
        {
          "internalType": "address",
          "name": "referee",
          "type": "address"
        }
      ],
      "name": "swapETHForExactTokens",
      "outputs": [
        {
          "internalType": "uint256[]",
          "name": "amounts",
          "type": "uint256[]"
        }
      ],
      "stateMutability": "payable",
      "type": "function"
    },
    {
      "inputs": [
        {
          "internalType": "address",
          "name": "fork",
          "type": "address"
        },
        {
          "internalType": "uint256",
          "name": "amountOutMin",
          "type": "uint256"
        },
        {
          "internalType": "address[]",
          "name": "path",
          "type": "address[]"
        },
        {
          "internalType": "address",
          "name": "referee",
          "type": "address"
        }
      ],
      "name": "swapExactETHForTokens",
      "outputs": [
        {
          "internalType": "uint256[]",
          "name": "amounts",
          "type": "uint256[]"
        }
      ],
      "stateMutability": "payable",
      "type": "function"
    },
    {
      "inputs": [
        {
          "internalType": "address",
          "name": "fork",
          "type": "address"
        },
        {
          "internalType": "uint256",
          "name": "amountOutMin",
          "type": "uint256"
        },
        {
          "internalType": "address[]",
          "name": "path",
          "type": "address[]"
        },
        {
          "internalType": "address",
          "name": "referee",
          "type": "address"
        }
      ],
      "name": "swapExactETHForTokensSupportingFeeOnTransferTokens",
      "outputs": [],
      "stateMutability": "payable",
      "type": "function"
    },
    {
      "inputs": [
        {
          "internalType": "address",
          "name": "fork",
          "type": "address"
        },
        {
          "internalType": "uint256",
          "name": "amountIn",
          "type": "uint256"
        },
        {
          "internalType": "uint256",
          "name": "amountOutMin",
          "type": "uint256"
        },
        {
          "internalType": "address[]",
          "name": "path",
          "type": "address[]"
        },
        {
          "internalType": "address",
          "name": "referee",
          "type": "address"
        }
      ],
      "name": "swapExactTokensForETH",
      "outputs": [
        {
          "internalType": "uint256[]",
          "name": "amounts",
          "type": "uint256[]"
        }
      ],
      "stateMutability": "nonpayable",
      "type": "function"
    },
    {
      "inputs": [
        {
          "internalType": "address",
          "name": "fork",
          "type": "address"
        },
        {
          "internalType": "uint256",
          "name": "amountIn",
          "type": "uint256"
        },
        {
          "internalType": "uint256",
          "name": "amountOutMin",
          "type": "uint256"
        },
        {
          "internalType": "address[]",
          "name": "path",
          "type": "address[]"
        },
        {
          "internalType": "address",
          "name": "referee",
          "type": "address"
        }
      ],
      "name": "swapExactTokensForETHSupportingFeeOnTransferTokens",
      "outputs": [],
      "stateMutability": "nonpayable",
      "type": "function"
    },
    {
      "inputs": [
        {
          "internalType": "address",
          "name": "fork",
          "type": "address"
        },
        {
          "internalType": "uint256",
          "name": "amountIn",
          "type": "uint256"
        },
        {
          "internalType": "uint256",
          "name": "amountOutMin",
          "type": "uint256"
        },
        {
          "internalType": "address[]",
          "name": "path",
          "type": "address[]"
        },
        {
          "internalType": "address",
          "name": "referee",
          "type": "address"
        }
      ],
      "name": "swapExactTokensForTokens",
      "outputs": [
        {
          "internalType": "uint256[]",
          "name": "amounts",
          "type": "uint256[]"
        }
      ],
      "stateMutability": "nonpayable",
      "type": "function"
    },
    {
      "inputs": [
        {
          "internalType": "address",
          "name": "fork",
          "type": "address"
        },
        {
          "internalType": "uint256",
          "name": "amountIn",
          "type": "uint256"
        },
        {
          "internalType": "uint256",
          "name": "amountOutMin",
          "type": "uint256"
        },
        {
          "internalType": "address[]",
          "name": "path",
          "type": "address[]"
        },
        {
          "internalType": "address",
          "name": "referee",
          "type": "address"
        }
      ],
      "name": "swapExactTokensForTokensSupportingFeeOnTransferTokens",
      "outputs": [],
      "stateMutability": "nonpayable",
      "type": "function"
    },
    {
      "inputs": [],
      "name": "swapFee",
      "outputs": [
        {
          "internalType": "uint16",
          "name": "",
          "type": "uint16"
        }
      ],
      "stateMutability": "view",
      "type": "function"
    },
    {
      "inputs": [
        {
          "internalType": "address",
          "name": "fork",
          "type": "address"
        },
        {
          "internalType": "uint256",
          "name": "amountOut",
          "type": "uint256"
        },
        {
          "internalType": "uint256",
          "name": "amountInMax",
          "type": "uint256"
        },
        {
          "internalType": "address[]",
          "name": "path",
          "type": "address[]"
        },
        {
          "internalType": "address",
          "name": "referee",
          "type": "address"
        }
      ],
      "name": "swapTokensForExactETH",
      "outputs": [
        {
          "internalType": "uint256[]",
          "name": "amounts",
          "type": "uint256[]"
        }
      ],
      "stateMutability": "nonpayable",
      "type": "function"
    },
    {
      "inputs": [
        {
          "internalType": "address",
          "name": "fork",
          "type": "address"
        },
        {
          "internalType": "uint256",
          "name": "amountOut",
          "type": "uint256"
        },
        {
          "internalType": "uint256",
          "name": "amountInMax",
          "type": "uint256"
        },
        {
          "internalType": "address[]",
          "name": "path",
          "type": "address[]"
        },
        {
          "internalType": "address",
          "name": "referee",
          "type": "address"
        }
      ],
      "name": "swapTokensForExactTokens",
      "outputs": [
        {
          "internalType": "uint256[]",
          "name": "amounts",
          "type": "uint256[]"
        }
      ],
      "stateMutability": "nonpayable",
      "type": "function"
    },
    {
      "inputs": [
        {
          "internalType": "address",
          "name": "newOwner",
          "type": "address"
        }
      ],
      "name": "transferOwnership",
      "outputs": [],
      "stateMutability": "nonpayable",
      "type": "function"
    },
    {
      "inputs": [],
      "name": "unpause",
      "outputs": [],
      "stateMutability": "nonpayable",
      "type": "function"
    },
    {
      "inputs": [
        {
          "internalType": "uint256",
          "name": "newBalanceThreshold",
          "type": "uint256"
        }
      ],
      "name": "updateBalanceThreshold",
      "outputs": [],
      "stateMutability": "nonpayable",
      "type": "function"
    },
    {
      "inputs": [
        {
          "internalType": "address",
          "name": "account",
          "type": "address"
        },
        {
          "internalType": "uint16",
          "name": "referralRate",
          "type": "uint16"
        }
      ],
      "name": "updateCustomReferralRewardRate",
      "outputs": [
        {
          "internalType": "uint256",
          "name": "",
          "type": "uint256"
        }
      ],
      "stateMutability": "nonpayable",
      "type": "function"
    },
    {
      "inputs": [
        {
          "internalType": "address payable",
          "name": "newFeeReceiver",
          "type": "address"
        }
      ],
      "name": "updateFeeReceiver",
      "outputs": [],
      "stateMutability": "nonpayable",
      "type": "function"
    },
    {
      "inputs": [
        {
          "internalType": "address",
          "name": "_factory",
          "type": "address"
        },
        {
          "internalType": "bytes",
          "name": "_initCode",
          "type": "bytes"
        },
        {
          "internalType": "bool",
          "name": "_activated",
          "type": "bool"
        }
      ],
      "name": "updateFork",
      "outputs": [],
      "stateMutability": "nonpayable",
      "type": "function"
    },
    {
      "inputs": [
        {
          "internalType": "address",
          "name": "newReferralRegistry",
          "type": "address"
        }
      ],
      "name": "updateReferralRegistry",
      "outputs": [],
      "stateMutability": "nonpayable",
      "type": "function"
    },
    {
      "inputs": [
        {
          "internalType": "uint16",
          "name": "newReferralRewardRate",
          "type": "uint16"
        }
      ],
      "name": "updateReferralRewardRate",
      "outputs": [],
      "stateMutability": "nonpayable",
      "type": "function"
    },
    {
      "inputs": [
        {
          "internalType": "bool",
          "name": "newReferralsActivated",
          "type": "bool"
        }
      ],
      "name": "updateReferralsActivated",
      "outputs": [],
      "stateMutability": "nonpayable",
      "type": "function"
    },
    {
      "inputs": [
        {
          "internalType": "uint16",
          "name": "newSwapFee",
          "type": "uint16"
        }
      ],
      "name": "updateSwapFee",
      "outputs": [],
      "stateMutability": "nonpayable",
      "type": "function"
    },
    {
      "inputs": [
        {
          "internalType": "address",
          "name": "_account",
          "type": "address"
        }
      ],
      "name": "userAboveBalanceThreshold",
      "outputs": [
        {
          "internalType": "bool",
          "name": "",
          "type": "bool"
        }
      ],
      "stateMutability": "view",
      "type": "function"
    },
    {
      "inputs": [
        {
          "internalType": "address",
          "name": "token",
          "type": "address"
        },
        {
          "internalType": "address",
          "name": "to",
          "type": "address"
        },
        {
          "internalType": "uint256",
          "name": "amount",
          "type": "uint256"
        }
      ],
      "name": "withdrawERC20Token",
      "outputs": [],
      "stateMutability": "nonpayable",
      "type": "function"
    },
    {
      "inputs": [
        {
          "internalType": "address payable",
          "name": "to",
          "type": "address"
        },
        {
          "internalType": "uint256",
          "name": "amount",
          "type": "uint256"
        }
      ],
      "name": "withdrawETH",
      "outputs": [],
      "stateMutability": "nonpayable",
      "type": "function"
    },
    {
      "inputs": [],
      "name": "zeroEx",
      "outputs": [
        {
          "internalType": "address payable",
          "name": "",
          "type": "address"
        }
      ],
      "stateMutability": "view",
      "type": "function"
    },
    {
      "stateMutability": "payable",
      "type": "receive"
    }
  ],
  "transactionHash": "0x2b67c17bbb0d0bc89696ea4d9237c52cb8ae14f01700113dcf4650acb4a0cc4e",
  "args": [
    "0xbb4cdb9cbd36b01bd1cbaebf2de08d9173bc095c",
    50,
    1000,
    "0x12b61B82f441bAD5A6E4dD86d74b92E8F15b930B",
    "50000000000000000000",
    "0x83A86adf1a7c56e77d36d585B808052e0a2aAD0e",
    "0x491AcC56B46B09b91CEA690C3D5c7be17e390fbB",
    "0xdef1c0ded9bec7f1a1670819833240f027b25eff"
  ],
  "solcInputHash": "d3b0571164c71133e495a74deb537650",
  "bytecode": "0x60c06040523480156200001157600080fd5b50604051620061c4380380620061c483398181016040526101008110156200003857600080fd5b508051602082015160408301516060840151608085015160a086015160c087015160e0909701519596949593949293919290916000620000806001600160e01b036200018a16565b600080546001600160a01b0319166001600160a01b0383169081178255604051929350917f8be0079c531659141344cd1fd0a4f28419497f9722a3daafe3b4186f6b6457e0908290a3506000805460ff60a01b19169055600180556001600160601b0319606098891b81166080526002805460058054600380546001600160a01b03998a166001600160a01b031991821617909155600499909955958716620100000262010000600160b01b031961ffff9c8d1661ffff199094169390931792909216919091179091559190981b90971660a05260ff60b01b199390911693909416600160a01b0261ffff60a01b1990941693909317929092161716600160b01b1790556200018e565b3390565b60805160601c60a05160601c615fb262000212600039806103365280611ccf52806140e752508061144c528061167e52806118dd5280611abc52806128995280612ca65280612d585280612dcc5280613156528061329e5280613326528061357052806136ab528061373352806139be5280613b095280613ba05250615fb26000f3fe6080604052600436106102605760003560e01c8063927e897a11610144578063d113efc4116100b6578063e5ae0c321161007a578063e5ae0c3214610f9c578063e94265c414610fca578063e96b2f5014610ffd578063f2fde38b14611029578063fe1b194e1461105c578063fe4ad446146110e557610267565b8063d113efc414610d9c578063d73792a914610dcf578063d758bcc614610de4578063db12c8e714610e70578063e229357114610efc57610267565b8063c00a315911610108578063c00a315914610be3578063c317377414610c70578063c69bebe414610c85578063caa9b5cb14610cb8578063cacb6d4314610ce6578063cd68561814610d1057610267565b8063927e897a14610ad157806393228dda14610b04578063a3a4bc9a14610b19578063ad5c464814610bb9578063b3f0067414610bce57610267565b806352ab413b116101dd578063692247c3116101a1578063692247c314610982578063715018a6146109bf5780637cde0c74146109d45780638456cb5914610a07578063882f3b8514610a1c5780638da5cb5b14610abc57610267565b806352ab413b1461084957806354cf2aeb1461085e57806357d1b31b1461088a5780635c975abb146108cd5780636553b712146108e257610267565b80633f4ba83a116102245780633f4ba83a146106825780633f4e48bb146106975780634782f779146107375780634e627e62146107705780634fb5df08146107a157610267565b8063060f58c3146104bc578063279f3291146105015780632def48b11461052a5780632f9120051461055f578063371667091461059257610267565b3661026757005b610270336110fa565b6102ba576040805162461bcd60e51b8152602060048201526016602482015275233637b7bd2937baba32b91d102327a92124a22222a760511b604482015290519081900360640190fd5b6000610306600080368080601f016020809104026020016040519081016040528093929190818152602001838380828437600092019190915250929392505063ffffffff611184169050565b60408051634b97ee9360e11b81526001600160e01b03198316600482015290519192506000916001600160a01b037f0000000000000000000000000000000000000000000000000000000000000000169163972fdd2691602480830192602092919082900301818787803b15801561037d57600080fd5b505af1158015610391573d6000803e3d6000fd5b505050506040513d60208110156103a757600080fd5b505190506001600160a01b038116610406576040805162461bcd60e51b815260206004820152601e60248201527f466c6f6f7a526f757465723a204e4f5f494d504c454d454e544154494f4e0000604482015290519081900360640190fd5b6000816001600160a01b03166000366040518083838082843760405192019450600093509091505080830381855af49150503d8060008114610464576040519150601f19603f3d011682016040523d82523d6000602084013e610469565b606091505b50509050806104b7576040805162461bcd60e51b8152602060048201526015602482015274119b1bdbde949bdd5d195c8e881491559154951151605a1b604482015290519081900360640190fd5b505050005b3480156104c857600080fd5b506104ef600480360360208110156104df57600080fd5b50356001600160a01b03166111c7565b60408051918252519081900360200190f35b34801561050d57600080fd5b50610516611264565b604080519115158252519081900360200190f35b34801561053657600080fd5b5061055d6004803603602081101561054d57600080fd5b50356001600160a01b0316611274565b005b34801561056b57600080fd5b506105166004803603602081101561058257600080fd5b50356001600160a01b0316611334565b34801561059e57600080fd5b50610632600480360360a08110156105b557600080fd5b6001600160a01b038235169160208101359160408201359190810190608081016060820135600160201b8111156105eb57600080fd5b8201836020820111156105fd57600080fd5b803590602001918460208302840111600160201b8311171561061e57600080fd5b9193509150356001600160a01b0316611349565b60408051602080825283518183015283519192839290830191858101910280838360005b8381101561066e578181015183820152602001610656565b505050509050019250505060405180910390f35b34801561068e57600080fd5b5061055d61176e565b3480156106a357600080fd5b50610632600480360360a08110156106ba57600080fd5b6001600160a01b038235169160208101359160408201359190810190608081016060820135600160201b8111156106f057600080fd5b82018360208201111561070257600080fd5b803590602001918460208302840111600160201b8311171561072357600080fd5b9193509150356001600160a01b03166117da565b34801561074357600080fd5b5061055d6004803603604081101561075a57600080fd5b506001600160a01b038135169060200135611bad565b34801561077c57600080fd5b50610785611c1d565b604080516001600160a01b039092168252519081900360200190f35b3480156107ad57600080fd5b506107d4600480360360208110156107c457600080fd5b50356001600160a01b0316611c32565b6040805160208082528351818301528351919283929083019185019080838360005b8381101561080e5781810151838201526020016107f6565b50505050905090810190601f16801561083b5780820380516001836020036101000a031916815260200191505b509250505060405180910390f35b34801561085557600080fd5b50610785611ccd565b34801561086a57600080fd5b50610873611cf1565b6040805161ffff9092168252519081900360200190f35b34801561089657600080fd5b5061055d600480360360608110156108ad57600080fd5b506001600160a01b03813581169160208101359091169060400135611cfb565b3480156108d957600080fd5b50610516611d6d565b3480156108ee57600080fd5b5061055d600480360360a081101561090557600080fd5b6001600160a01b038235169160208101359160408201359190810190608081016060820135600160201b81111561093b57600080fd5b82018360208201111561094d57600080fd5b803590602001918460208302840111600160201b8311171561096e57600080fd5b9193509150356001600160a01b0316611d7e565b34801561098e57600080fd5b506104ef600480360360408110156109a557600080fd5b5080356001600160a01b0316906020013561ffff166120df565b3480156109cb57600080fd5b5061055d6121ff565b3480156109e057600080fd5b50610873600480360360208110156109f757600080fd5b50356001600160a01b03166122ab565b348015610a1357600080fd5b5061055d6122c1565b348015610a2857600080fd5b50610632600480360360a0811015610a3f57600080fd5b6001600160a01b038235169160208101359160408201359190810190608081016060820135600160201b811115610a7557600080fd5b820183602082011115610a8757600080fd5b803590602001918460208302840111600160201b83111715610aa857600080fd5b9193509150356001600160a01b031661232b565b348015610ac857600080fd5b50610785612584565b348015610add57600080fd5b5061051660048036036020811015610af457600080fd5b50356001600160a01b0316612593565b348015610b1057600080fd5b5061078561261b565b348015610b2557600080fd5b50610632600480360360a0811015610b3c57600080fd5b6001600160a01b038235169160208101359160408201359190810190608081016060820135600160201b811115610b7257600080fd5b820183602082011115610b8457600080fd5b803590602001918460208302840111600160201b83111715610ba557600080fd5b9193509150356001600160a01b031661262a565b348015610bc557600080fd5b50610785612897565b348015610bda57600080fd5b506107856128bb565b348015610bef57600080fd5b5061055d60048036036060811015610c0657600080fd5b6001600160a01b038235169190810190604081016020820135600160201b811115610c3057600080fd5b820183602082011115610c4257600080fd5b803590602001918460018302840111600160201b83111715610c6357600080fd5b91935091503515156128ca565b348015610c7c57600080fd5b506104ef6129a8565b348015610c9157600080fd5b5061055d60048036036020811015610ca857600080fd5b50356001600160a01b03166129ae565b348015610cc457600080fd5b5061055d60048036036020811015610cdb57600080fd5b503561ffff16612a64565b348015610cf257600080fd5b5061055d60048036036020811015610d0957600080fd5b5035612b10565b61055d60048036036080811015610d2657600080fd5b6001600160a01b0382351691602081013591810190606081016040820135600160201b811115610d5557600080fd5b820183602082011115610d6757600080fd5b803590602001918460208302840111600160201b83111715610d8857600080fd5b9193509150356001600160a01b0316612bad565b348015610da857600080fd5b5061078560048036036020811015610dbf57600080fd5b50356001600160a01b0316612fff565b348015610ddb57600080fd5b506104ef613055565b61063260048036036080811015610dfa57600080fd5b6001600160a01b0382351691602081013591810190606081016040820135600160201b811115610e2957600080fd5b820183602082011115610e3b57600080fd5b803590602001918460208302840111600160201b83111715610e5c57600080fd5b9193509150356001600160a01b031661305b565b61063260048036036080811015610e8657600080fd5b6001600160a01b0382351691602081013591810190606081016040820135600160201b811115610eb557600080fd5b820183602082011115610ec757600080fd5b803590602001918460208302840111600160201b83111715610ee857600080fd5b9193509150356001600160a01b0316613475565b348015610f0857600080fd5b5061055d600480360360a0811015610f1f57600080fd5b6001600160a01b038235169160208101359160408201359190810190608081016060820135600160201b811115610f5557600080fd5b820183602082011115610f6757600080fd5b803590602001918460208302840111600160201b83111715610f8857600080fd5b9193509150356001600160a01b03166138bd565b348015610fa857600080fd5b5061055d60048036036020811015610fbf57600080fd5b503561ffff16613ca3565b348015610fd657600080fd5b5061051660048036036020811015610fed57600080fd5b50356001600160a01b03166110fa565b34801561100957600080fd5b5061055d6004803603602081101561102057600080fd5b50351515613db2565b34801561103557600080fd5b5061055d6004803603602081101561104c57600080fd5b50356001600160a01b0316613e67565b61055d6004803603608081101561107257600080fd5b810190602081018135600160201b81111561108c57600080fd5b82018360208201111561109e57600080fd5b803590602001918460018302840111600160201b831117156110bf57600080fd5b91935091506001600160a01b038135811691602081013582169160409091013516613f69565b3480156110f157600080fd5b50610873614621565b60048054600354604080516370a0823160e01b81526001600160a01b03868116958201959095529051600094909216916370a0823191602480820192602092909190829003018186803b15801561115057600080fd5b505afa158015611164573d6000803e3d6000fd5b505050506040513d602081101561117a57600080fd5b5051101592915050565b600081600401835110156111aa576111aa6111a56003855185600401614632565b6146a7565b5060208183018101519101906001600160e01b0319165b92915050565b60048054600354604080516370a0823160e01b81526001600160a01b03868116958201959095529051600094909216916370a0823191602480820192602092909190829003018186803b15801561121d57600080fd5b505afa158015611231573d6000803e3d6000fd5b505050506040513d602081101561124757600080fd5b5051101561125b5760025461ffff1661125e565b60005b50919050565b600554600160b01b900460ff1681565b61127c6146af565b6001600160a01b031661128d612584565b6001600160a01b0316146112d6576040805162461bcd60e51b81526020600482018190526024820152600080516020615eb3833981519152604482015290519081900360640190fd5b600280546001600160a01b03831662010000810262010000600160b01b03199092169190911790915560408051918252517f9d4414af8d61d821c1ad25f0aadfa28aa386c452716a31fc1f7fdbd9b9d364dc9181900360200190a150565b60076020526000908152604090205460ff1681565b6060611353611d6d565b15611398576040805162461bcd60e51b815260206004820152601060248201526f14185d5cd8589b194e881c185d5cd95960821b604482015290519081900360640190fd5b6001600160a01b038716600090815260076020526040902054879060ff166113f5576040805162461bcd60e51b815260206004820152601c6024820152600080516020615f39833981519152604482015290519081900360640190fd5b82336001600160a01b0382161415611442576040805162461bcd60e51b815260206004820152601a6024820152600080516020615e4f833981519152604482015290519081900360640190fd5b6001600160a01b037f0000000000000000000000000000000000000000000000000000000000000000168686600019810181811061147c57fe5b905060200201356001600160a01b03166001600160a01b0316146114d5576040805162461bcd60e51b81526020600482015260196024820152600080516020615ef6833981519152604482015290519081900360640190fd5b6114de846146b3565b93506000806114ef8a876001614849565b909350915061155390508b61151a8361150e8e8763ffffffff6149b216565b9063ffffffff6149b216565b8a8a80806020026020016040519081016040528093929190818152602001838360200280828437600092019190915250614a1392505050565b9450886115818261150e858960008151811061156b57fe5b60200260200101516149b290919063ffffffff16565b11156115be5760405162461bcd60e51b8152600401808060200182810382526023815260200180615e2c6023913960400191505060405180910390fd5b61163c888860008181106115ce57fe5b905060200201356001600160a01b0316336116228e8c8c60008181106115f057fe5b905060200201356001600160a01b03168d8d600181811061160d57fe5b905060200201356001600160a01b0316614b4e565b8860008151811061162f57fe5b6020026020010151614c97565b61167c8b868a8a80806020026020016040519081016040528093929190818152602001838360200280828437600092019190915250309250614df4915050565b7f00000000000000000000000000000000000000000000000000000000000000006001600160a01b0316632e1a7d4d866001885103815181106116bb57fe5b60200260200101516040518263ffffffff1660e01b815260040180828152602001915050600060405180830381600087803b1580156116f957600080fd5b505af115801561170d573d6000803e3d6000fd5b5050505061171b338b614ffb565b600061172d838363ffffffff6149b216565b11156117605761176060008989600019810181811061174857fe5b905060200201356001600160a01b03168885856150ee565b505050509695505050505050565b6117766146af565b6001600160a01b0316611787612584565b6001600160a01b0316146117d0576040805162461bcd60e51b81526020600482018190526024820152600080516020615eb3833981519152604482015290519081900360640190fd5b6117d8615205565b565b60606117e4611d6d565b15611829576040805162461bcd60e51b815260206004820152601060248201526f14185d5cd8589b194e881c185d5cd95960821b604482015290519081900360640190fd5b6001600160a01b038716600090815260076020526040902054879060ff16611886576040805162461bcd60e51b815260206004820152601c6024820152600080516020615f39833981519152604482015290519081900360640190fd5b82336001600160a01b03821614156118d3576040805162461bcd60e51b815260206004820152601a6024820152600080516020615e4f833981519152604482015290519081900360640190fd5b6001600160a01b037f0000000000000000000000000000000000000000000000000000000000000000168686600019810181811061190d57fe5b905060200201356001600160a01b03166001600160a01b031614611966576040805162461bcd60e51b81526020600482015260196024820152600080516020615ef6833981519152604482015290519081900360640190fd5b61196f846146b3565b93506119af89898888808060200260200160405190810160405280939291908181526020018383602002808284376000920191909152506152a892505050565b925060008060006119d9866001885103815181106119c957fe5b6020026020010151886000614849565b92509250925089831015611a1e5760405162461bcd60e51b8152600401808060200182810382526027815260200180615e056027913960400191505060405180910390fd5b611a7a89896000818110611a2e57fe5b905060200201356001600160a01b031633611a6d8f8d8d6000818110611a5057fe5b905060200201356001600160a01b03168e8e600181811061160d57fe5b8960008151811061162f57fe5b611aba8c878b8b80806020026020016040519081016040528093929190818152602001838360200280828437600092019190915250309250614df4915050565b7f00000000000000000000000000000000000000000000000000000000000000006001600160a01b0316632e1a7d4d87600189510381518110611af957fe5b60200260200101516040518263ffffffff1660e01b815260040180828152602001915050600060405180830381600087803b158015611b3757600080fd5b505af1158015611b4b573d6000803e3d6000fd5b50505050611b593384614ffb565b6000611b6b838363ffffffff6149b216565b1115611b9e57611b9e60008a8a6000198101818110611b8657fe5b905060200201356001600160a01b03168985856150ee565b50505050509695505050505050565b611bb56146af565b6001600160a01b0316611bc6612584565b6001600160a01b031614611c0f576040805162461bcd60e51b81526020600482018190526024820152600080516020615eb3833981519152604482015290519081900360640190fd5b611c198282614ffb565b5050565b6002546201000090046001600160a01b031681565b60086020908152600091825260409182902080548351601f600260001961010060018616150201909316929092049182018490048402810184019094528084529091830182828015611cc55780601f10611c9a57610100808354040283529160200191611cc5565b820191906000526020600020905b815481529060010190602001808311611ca857829003601f168201915b505050505081565b7f000000000000000000000000000000000000000000000000000000000000000081565b60025461ffff1681565b611d036146af565b6001600160a01b0316611d14612584565b6001600160a01b031614611d5d576040805162461bcd60e51b81526020600482018190526024820152600080516020615eb3833981519152604482015290519081900360640190fd5b611d688383836153cd565b505050565b600054600160a01b900460ff165b90565b611d86611d6d565b15611dcb576040805162461bcd60e51b815260206004820152601060248201526f14185d5cd8589b194e881c185d5cd95960821b604482015290519081900360640190fd5b6001600160a01b038616600090815260076020526040902054869060ff16611e28576040805162461bcd60e51b815260206004820152601c6024820152600080516020615f39833981519152604482015290519081900360640190fd5b81336001600160a01b0382161415611e75576040805162461bcd60e51b815260206004820152601a6024820152600080516020615e4f833981519152604482015290519081900360640190fd5b611e7e836146b3565b92506000806000611e918a876000614849565b925092509250611ecf88886000818110611ea757fe5b905060200201356001600160a01b031633611ec98e8c8c60008181106115f057fe5b86614c97565b600088886000198101818110611ee157fe5b604080516370a0823160e01b81523360048201529051602092830294909401356001600160a01b0316936370a08231935060248083019392829003018186803b158015611f2d57600080fd5b505afa158015611f41573d6000803e3d6000fd5b505050506040513d6020811015611f5757600080fd5b50516040805160208b810282810182019093528b8252929350611f99928f928d918d918291850190849080828437600092019190915250339250615530915050565b89612032828b8b6000198101818110611fae57fe5b604080516370a0823160e01b81523360048201529051602092830294909401356001600160a01b0316936370a08231935060248083019392829003018186803b158015611ffa57600080fd5b505afa15801561200e573d6000803e3d6000fd5b505050506040513d602081101561202457600080fd5b50519063ffffffff61580116565b101561206f5760405162461bcd60e51b8152600401808060200182810382526027815260200180615e056027913960400191505060405180910390fd5b6000612081848463ffffffff6149b216565b11156120d1576120d18989600081811061209757fe5b905060200201356001600160a01b03168a8a60018d8d9050038181106120b957fe5b905060200201356001600160a01b03168986866150ee565b505050505050505050505050565b60006120e96146af565b6001600160a01b03166120fa612584565b6001600160a01b031614612143576040805162461bcd60e51b81526020600482018190526024820152600080516020615eb3833981519152604482015290519081900360640190fd5b6127108261ffff16111561219a576040805162461bcd60e51b8152602060048201526019602482015278466c6f6f7a526f757465723a20494e56414c49445f5241544560381b604482015290519081900360640190fd5b6001600160a01b038316600081815260066020908152604091829020805461ffff191661ffff8716908117909155825190815291517f9b182573c5f49d27d10ab506c71acd90f3b44f15c35eb906f9a40d9c35412e419281900390910190a292915050565b6122076146af565b6001600160a01b0316612218612584565b6001600160a01b031614612261576040805162461bcd60e51b81526020600482018190526024820152600080516020615eb3833981519152604482015290519081900360640190fd5b600080546040516001600160a01b03909116907f8be0079c531659141344cd1fd0a4f28419497f9722a3daafe3b4186f6b6457e0908390a3600080546001600160a01b0319169055565b60066020526000908152604090205461ffff1681565b6122c96146af565b6001600160a01b03166122da612584565b6001600160a01b031614612323576040805162461bcd60e51b81526020600482018190526024820152600080516020615eb3833981519152604482015290519081900360640190fd5b6117d861585e565b6060612335611d6d565b1561237a576040805162461bcd60e51b815260206004820152601060248201526f14185d5cd8589b194e881c185d5cd95960821b604482015290519081900360640190fd5b6001600160a01b038716600090815260076020526040902054879060ff166123d7576040805162461bcd60e51b815260206004820152601c6024820152600080516020615f39833981519152604482015290519081900360640190fd5b82336001600160a01b0382161415612424576040805162461bcd60e51b815260206004820152601a6024820152600080516020615e4f833981519152604482015290519081900360640190fd5b61242d846146b3565b935061246d8989888880806020026020016040519081016040528093929190818152602001838360200280828437600092019190915250614a1392505050565b92506000806124928560008151811061248257fe5b6020026020010151876001614849565b9250925050886124ad8261150e858960008151811061156b57fe5b11156124ea5760405162461bcd60e51b8152600401808060200182810382526023815260200180615e2c6023913960400191505060405180910390fd5b6124fa888860008181106115ce57fe5b61253a8b868a8a80806020026020016040519081016040528093929190818152602001838360200280828437600092019190915250339250614df4915050565b600061254c838363ffffffff6149b216565b1115611760576117608888600081811061256257fe5b905060200201356001600160a01b0316898960018c8c90500381811061174857fe5b6000546001600160a01b031690565b6002546040805163493f44bd60e11b81526001600160a01b03848116600483015291516000936201000090049092169163927e897a91602480820192602092909190829003018186803b1580156125e957600080fd5b505afa1580156125fd573d6000803e3d6000fd5b505050506040513d602081101561261357600080fd5b505192915050565b6003546001600160a01b031681565b6060612634611d6d565b15612679576040805162461bcd60e51b815260206004820152601060248201526f14185d5cd8589b194e881c185d5cd95960821b604482015290519081900360640190fd5b6001600160a01b038716600090815260076020526040902054879060ff166126d6576040805162461bcd60e51b815260206004820152601c6024820152600080516020615f39833981519152604482015290519081900360640190fd5b82336001600160a01b0382161415612723576040805162461bcd60e51b815260206004820152601a6024820152600080516020615e4f833981519152604482015290519081900360640190fd5b61272c846146b3565b9350600080600061273f8b886000614849565b9250925092506127838c848b8b808060200260200160405190810160405280939291908181526020018383602002808284376000920191909152506152a892505050565b9550898660018851038151811061279657fe5b602002602001015110156127db5760405162461bcd60e51b8152600401808060200182810382526027815260200180615e056027913960400191505060405180910390fd5b61280d898960008181106127eb57fe5b905060200201356001600160a01b031633611ec98f8d8d6000818110611a5057fe5b61284d8c878b8b80806020026020016040519081016040528093929190818152602001838360200280828437600092019190915250339250614df4915050565b600061285f838363ffffffff6149b216565b1115611b9e57611b9e8989600081811061287557fe5b905060200201356001600160a01b03168a8a60018d8d905003818110611b8657fe5b7f000000000000000000000000000000000000000000000000000000000000000081565b6005546001600160a01b031681565b6128d26146af565b6001600160a01b03166128e3612584565b6001600160a01b03161461292c576040805162461bcd60e51b81526020600482018190526024820152600080516020615eb3833981519152604482015290519081900360640190fd5b6001600160a01b0384166000908152600760209081526040808320805460ff191685151517905560089091529020612965908484615d20565b50604080516001600160a01b038616815290517fd3e17274581b648825e308eb9fca7b795aa9ca651ee0953b1f66dd35cbc099789181900360200190a150505050565b60045481565b6129b66146af565b6001600160a01b03166129c7612584565b6001600160a01b031614612a10576040805162461bcd60e51b81526020600482018190526024820152600080516020615eb3833981519152604482015290519081900360640190fd5b600580546001600160a01b0383166001600160a01b0319909116811790915560408051918252517f27aae5db36d94179909d019ae0b1ac7c16d96d953148f63c0f6a0a9c8ead79ee9181900360200190a150565b612a6c6146af565b6001600160a01b0316612a7d612584565b6001600160a01b031614612ac6576040805162461bcd60e51b81526020600482018190526024820152600080516020615eb3833981519152604482015290519081900360640190fd5b6002805461ffff831661ffff19909116811790915560408051918252517fc8d25ca8616825eb60e022dde2d5ec038bdac6dd1bd8bba3fb5f74de553d06289181900360200190a150565b612b186146af565b6001600160a01b0316612b29612584565b6001600160a01b031614612b72576040805162461bcd60e51b81526020600482018190526024820152600080516020615eb3833981519152604482015290519081900360640190fd5b60048190556040805182815290517fc86ab5ae638c0e95d21e0d47f77aa3a65ded219f7b70bc6ea894107f437d56369181900360200190a150565b612bb5611d6d565b15612bfa576040805162461bcd60e51b815260206004820152601060248201526f14185d5cd8589b194e881c185d5cd95960821b604482015290519081900360640190fd5b6001600160a01b038516600090815260076020526040902054859060ff16612c57576040805162461bcd60e51b815260206004820152601c6024820152600080516020615f39833981519152604482015290519081900360640190fd5b81336001600160a01b0382161415612ca4576040805162461bcd60e51b815260206004820152601a6024820152600080516020615e4f833981519152604482015290519081900360640190fd5b7f00000000000000000000000000000000000000000000000000000000000000006001600160a01b031685856000818110612cdb57fe5b905060200201356001600160a01b03166001600160a01b031614612d34576040805162461bcd60e51b81526020600482015260196024820152600080516020615ef6833981519152604482015290519081900360640190fd5b612d3d836146b3565b92506000806000612d5034876000614849565b9250925092507f00000000000000000000000000000000000000000000000000000000000000006001600160a01b031663d0e30db0846040518263ffffffff1660e01b81526004016000604051808303818588803b158015612db157600080fd5b505af1158015612dc5573d6000803e3d6000fd5b50505050507f00000000000000000000000000000000000000000000000000000000000000006001600160a01b031663a9059cbb612e278c8b8b6000818110612e0a57fe5b905060200201356001600160a01b03168c8c600181811061160d57fe5b856040518363ffffffff1660e01b815260040180836001600160a01b03166001600160a01b0316815260200182815260200192505050602060405180830381600087803b158015612e7757600080fd5b505af1158015612e8b573d6000803e3d6000fd5b505050506040513d6020811015612ea157600080fd5b5051612ea957fe5b600088886000198101818110612ebb57fe5b604080516370a0823160e01b81523360048201529051602092830294909401356001600160a01b0316936370a08231935060248083019392829003018186803b158015612f0757600080fd5b505afa158015612f1b573d6000803e3d6000fd5b505050506040513d6020811015612f3157600080fd5b50516040805160208b810282810182019093528b8252929350612f73928e928d918d918291850190849080828437600092019190915250339250615530915050565b89612f88828b8b6000198101818110611fae57fe5b1015612fc55760405162461bcd60e51b8152600401808060200182810382526027815260200180615e056027913960400191505060405180910390fd5b6000612fd7848463ffffffff6149b216565b1115612ff257612ff260008a8a60001981018181106120b957fe5b5050505050505050505050565b60025460408051633444fbf160e21b81526001600160a01b03848116600483015291516000936201000090049092169163d113efc491602480820192602092909190829003018186803b1580156125e957600080fd5b61271081565b6060613065611d6d565b156130aa576040805162461bcd60e51b815260206004820152601060248201526f14185d5cd8589b194e881c185d5cd95960821b604482015290519081900360640190fd5b6001600160a01b038616600090815260076020526040902054869060ff16613107576040805162461bcd60e51b815260206004820152601c6024820152600080516020615f39833981519152604482015290519081900360640190fd5b82336001600160a01b0382161415613154576040805162461bcd60e51b815260206004820152601a6024820152600080516020615e4f833981519152604482015290519081900360640190fd5b7f00000000000000000000000000000000000000000000000000000000000000006001600160a01b03168686600081811061318b57fe5b905060200201356001600160a01b03166001600160a01b0316146131e4576040805162461bcd60e51b81526020600482015260196024820152600080516020615ef6833981519152604482015290519081900360640190fd5b6131ed846146b3565b9350600080600061320034886000614849565b9250925092506132448b848b8b808060200260200160405190810160405280939291908181526020018383602002808284376000920191909152506152a892505050565b9550898660018851038151811061325757fe5b6020026020010151101561329c5760405162461bcd60e51b8152600401808060200182810382526027815260200180615e056027913960400191505060405180910390fd5b7f00000000000000000000000000000000000000000000000000000000000000006001600160a01b031663d0e30db0876000815181106132d857fe5b60200260200101516040518263ffffffff1660e01b81526004016000604051808303818588803b15801561330b57600080fd5b505af115801561331f573d6000803e3d6000fd5b50505050507f00000000000000000000000000000000000000000000000000000000000000006001600160a01b031663a9059cbb6133648d8c8c60008181106115f057fe5b8860008151811061337157fe5b60200260200101516040518363ffffffff1660e01b815260040180836001600160a01b03166001600160a01b0316815260200182815260200192505050602060405180830381600087803b1580156133c857600080fd5b505af11580156133dc573d6000803e3d6000fd5b505050506040513d60208110156133f257600080fd5b50516133fa57fe5b61343a8b878b8b80806020026020016040519081016040528093929190818152602001838360200280828437600092019190915250339250614df4915050565b600061344c838363ffffffff6149b216565b11156134675761346760008a8a6000198101818110611b8657fe5b505050505095945050505050565b606061347f611d6d565b156134c4576040805162461bcd60e51b815260206004820152601060248201526f14185d5cd8589b194e881c185d5cd95960821b604482015290519081900360640190fd5b6001600160a01b038616600090815260076020526040902054869060ff16613521576040805162461bcd60e51b815260206004820152601c6024820152600080516020615f39833981519152604482015290519081900360640190fd5b82336001600160a01b038216141561356e576040805162461bcd60e51b815260206004820152601a6024820152600080516020615e4f833981519152604482015290519081900360640190fd5b7f00000000000000000000000000000000000000000000000000000000000000006001600160a01b0316868660008181106135a557fe5b905060200201356001600160a01b03166001600160a01b0316146135fe576040805162461bcd60e51b81526020600482015260196024820152600080516020615ef6833981519152604482015290519081900360640190fd5b61363c8888888880806020026020016040519081016040528093929190818152602001838360200280828437600092019190915250614a1392505050565b92506000806136518560008151811061248257fe5b92509250503461366c8261150e858960008151811061156b57fe5b11156136a95760405162461bcd60e51b8152600401808060200182810382526023815260200180615e2c6023913960400191505060405180910390fd5b7f00000000000000000000000000000000000000000000000000000000000000006001600160a01b031663d0e30db0866000815181106136e557fe5b60200260200101516040518263ffffffff1660e01b81526004016000604051808303818588803b15801561371857600080fd5b505af115801561372c573d6000803e3d6000fd5b50505050507f00000000000000000000000000000000000000000000000000000000000000006001600160a01b031663a9059cbb6137718c8b8b6000818110612e0a57fe5b8760008151811061377e57fe5b60200260200101516040518363ffffffff1660e01b815260040180836001600160a01b03166001600160a01b0316815260200182815260200192505050602060405180830381600087803b1580156137d557600080fd5b505af11580156137e9573d6000803e3d6000fd5b505050506040513d60208110156137ff57600080fd5b505161380757fe5b6138478a868a8a80806020026020016040519081016040528093929190818152602001838360200280828437600092019190915250339250614df4915050565b61385c8161150e848860008151811061156b57fe5b341115613883576138833361387c8361150e868a60008151811061156b57fe5b3403614ffb565b6000613895838363ffffffff6149b216565b11156138b0576138b060008989600019810181811061174857fe5b5050505095945050505050565b6138c5611d6d565b1561390a576040805162461bcd60e51b815260206004820152601060248201526f14185d5cd8589b194e881c185d5cd95960821b604482015290519081900360640190fd5b6001600160a01b038616600090815260076020526040902054869060ff16613967576040805162461bcd60e51b815260206004820152601c6024820152600080516020615f39833981519152604482015290519081900360640190fd5b81336001600160a01b03821614156139b4576040805162461bcd60e51b815260206004820152601a6024820152600080516020615e4f833981519152604482015290519081900360640190fd5b6001600160a01b037f000000000000000000000000000000000000000000000000000000000000000016858560001981018181106139ee57fe5b905060200201356001600160a01b03166001600160a01b031614613a47576040805162461bcd60e51b81526020600482015260196024820152600080516020615ef6833981519152604482015290519081900360640190fd5b613a50836146b3565b9250613aa785856000818110613a6257fe5b905060200201356001600160a01b031633613aa18b89896000818110613a8457fe5b905060200201356001600160a01b03168a8a600181811061160d57fe5b8a614c97565b613ae688868680806020026020016040519081016040528093929190818152602001838360200280828437600092019190915250309250615530915050565b604080516370a0823160e01b815230600482015290516000916001600160a01b037f000000000000000000000000000000000000000000000000000000000000000016916370a0823191602480820192602092909190829003018186803b158015613b5057600080fd5b505afa158015613b64573d6000803e3d6000fd5b505050506040513d6020811015613b7a57600080fd5b505160408051632e1a7d4d60e01b81526004810183905290519192506001600160a01b037f00000000000000000000000000000000000000000000000000000000000000001691632e1a7d4d9160248082019260009290919082900301818387803b158015613be857600080fd5b505af1158015613bfc573d6000803e3d6000fd5b505050506000806000613c1184886000614849565b92509250925089831015613c6c576040805162461bcd60e51b815260206004820152601960248201527f466c6f6f7a526f757465723a204c4f575f534c49505041474500000000000000604482015290519081900360640190fd5b613c763384614ffb565b6000613c88838363ffffffff6149b216565b11156120d1576120d160008a8a6000198101818110611b8657fe5b613cab6146af565b6001600160a01b0316613cbc612584565b6001600160a01b031614613d05576040805162461bcd60e51b81526020600482018190526024820152600080516020615eb3833981519152604482015290519081900360640190fd5b6127108161ffff161115613d5c576040805162461bcd60e51b8152602060048201526019602482015278466c6f6f7a526f757465723a20494e56414c49445f5241544560381b604482015290519081900360640190fd5b6005805461ffff8316600160a01b810261ffff60a01b199092169190911790915560408051918252517f2e8b87e2b3dff0b7b11ce73a61e3bb94498159c531480d9abf1307014b650af99181900360200190a150565b613dba6146af565b6001600160a01b0316613dcb612584565b6001600160a01b031614613e14576040805162461bcd60e51b81526020600482018190526024820152600080516020615eb3833981519152604482015290519081900360640190fd5b60058054821515600160b01b810260ff60b01b199092169190911790915560408051918252517f13a5d968457cb650b136b77bb4a3ff25f31b92939f2d8df0010911117b7ba9e09181900360200190a150565b613e6f6146af565b6001600160a01b0316613e80612584565b6001600160a01b031614613ec9576040805162461bcd60e51b81526020600482018190526024820152600080516020615eb3833981519152604482015290519081900360640190fd5b6001600160a01b038116613f0e5760405162461bcd60e51b8152600401808060200182810382526026815260200180615ddf6026913960400191505060405180910390fd5b600080546040516001600160a01b03808516939216917f8be0079c531659141344cd1fd0a4f28419497f9722a3daafe3b4186f6b6457e091a3600080546001600160a01b0319166001600160a01b0392909216919091179055565b60026001541415613fc1576040805162461bcd60e51b815260206004820152601f60248201527f5265656e7472616e637947756172643a207265656e7472616e742063616c6c00604482015290519081900360640190fd5b6002600155613fce611d6d565b15614013576040805162461bcd60e51b815260206004820152601060248201526f14185d5cd8589b194e881c185d5cd95960821b604482015290519081900360640190fd5b80336001600160a01b0382161415614060576040805162461bcd60e51b815260206004820152601a6024820152600080516020615e4f833981519152604482015290519081900360640190fd5b614069826146b3565b915060006140b7600088888080601f016020809104026020016040519081016040528093929190818152602001838380828437600092019190915250929392505063ffffffff611184169050565b60408051634b97ee9360e11b81526001600160e01b03198316600482015290519192506000916001600160a01b037f0000000000000000000000000000000000000000000000000000000000000000169163972fdd2691602480830192602092919082900301818787803b15801561412e57600080fd5b505af1158015614142573d6000803e3d6000fd5b505050506040513d602081101561415857600080fd5b505190506001600160a01b0381166141b7576040805162461bcd60e51b815260206004820152601e60248201527f466c6f6f7a526f757465723a204e4f5f494d504c454d454e544154494f4e0000604482015290519081900360640190fd5b60006141c2336110fa565b90508015614280576000826001600160a01b03168a8a6040518083838082843760405192019450600093509091505080830381855af49150503d8060008114614227576040519150601f19603f3d011682016040523d82523d6000602084013e61422c565b606091505b505090508061427a576040805162461bcd60e51b8152602060048201526015602482015274119b1bdbde949bdd5d195c8e881491559154951151605a1b604482015290519081900360640190fd5b50614612565b34156143f357600080600061429734896000614849565b9250925092506000856001600160a01b0316848e8e604051808383808284376040519201945060009350909150508083038185875af1925050503d80600081146142fd576040519150601f19603f3d011682016040523d82523d6000602084013e614302565b606091505b5050905080614350576040805162461bcd60e51b8152602060048201526015602482015274119b1bdbde949bdd5d195c8e881491559154951151605a1b604482015290519081900360640190fd5b6143dc8a338c6001600160a01b03166370a08231306040518263ffffffff1660e01b815260040180826001600160a01b03166001600160a01b0316815260200191505060206040518083038186803b1580156143ab57600080fd5b505afa1580156143bf573d6000803e3d6000fd5b505050506040513d60208110156143d557600080fd5b50516153cd565b6143ea60008b8b86866150ee565b50505050614612565b604080516370a0823160e01b815233600482015290516000916001600160a01b038a16916370a0823191602480820192602092909190829003018186803b15801561443d57600080fd5b505afa158015614451573d6000803e3d6000fd5b505050506040513d602081101561446757600080fd5b50516040519091506000906001600160a01b038516908c908c908083838082843760405192019450600093509091505080830381855af49150503d80600081146144cd576040519150601f19603f3d011682016040523d82523d6000602084013e6144d2565b606091505b5050905080614520576040805162461bcd60e51b8152602060048201526015602482015274119b1bdbde949bdd5d195c8e881491559154951151605a1b604482015290519081900360640190fd5b604080516370a0823160e01b815233600482015290516000916001600160a01b038c16916370a0823191602480820192602092909190829003018186803b15801561456a57600080fd5b505afa15801561457e573d6000803e3d6000fd5b505050506040513d602081101561459457600080fd5b505190508083116145dc576040805162461bcd60e51b815260206004820152600d60248201526c24a72b20a624a22faa27a5a2a760991b604482015290519081900360640190fd5b6000806145fa6145f2868563ffffffff61580116565b8b6001614849565b925092505061460c8c8c8c85856150ee565b50505050505b50506001805550505050505050565b600554600160a01b900461ffff1681565b6060632800659560e01b8484846040516024018084600781111561465257fe5b60ff1681526020018381526020018281526020019350505050604051602081830303815290604052906001600160e01b0319166020820180516001600160e01b03838183161783525050505090509392505050565b805160208201fd5b3390565b6002546040805163493f44bd60e11b8152336004820181905291516000936201000090046001600160a01b03169163927e897a916024808301926020929190829003018186803b15801561470657600080fd5b505afa15801561471a573d6000803e3d6000fd5b505050506040513d602081101561473057600080fd5b505115801561474757506001600160a01b03831615155b156147c257600254604080516364e0b15960e01b81526001600160a01b0384811660048301528681166024830152915162010000909304909116916364e0b1599160448082019260009290919082900301818387803b1580156147a957600080fd5b505af11580156147bd573d6000803e3d6000fd5b505050505b60025460408051633444fbf160e21b81526001600160a01b0384811660048301529151620100009093049091169163d113efc491602480820192602092909190829003018186803b15801561481657600080fd5b505afa15801561482a573d6000803e3d6000fd5b505050506040513d602081101561484057600080fd5b50519392505050565b6000806000614857336110fa565b15614864578592506149a9565b83156148c2576002548693506148bb9084906148af90614891906127109061ffff1663ffffffff61580116565b6148a38761271063ffffffff6158e716565b9063ffffffff61594016565b9063ffffffff61580116565b91506148f7565b6002546148e290612710906148a390899061ffff1663ffffffff6158e716565b91506148f4868363ffffffff61580116565b92505b6001600160a01b038516158015906149185750600554600160b01b900460ff165b156149a5576001600160a01b03851660009081526006602052604081205461ffff1661495157600554600160a01b900461ffff1661496f565b6001600160a01b03861660009081526006602052604090205461ffff165b905061498b6127106148a38561ffff851663ffffffff6158e716565b915061499d838363ffffffff61580116565b9250506149a9565b5060005b93509350939050565b600082820183811015614a0c576040805162461bcd60e51b815260206004820152601b60248201527f536166654d6174683a206164646974696f6e206f766572666c6f770000000000604482015290519081900360640190fd5b9392505050565b6060600282511015614a5a576040805162461bcd60e51b81526020600482015260196024820152600080516020615ef6833981519152604482015290519081900360640190fd5b815167ffffffffffffffff81118015614a7257600080fd5b50604051908082528060200260200182016040528015614a9c578160200160208202803683370190505b5090508281600183510381518110614ab057fe5b60209081029190910101528151600019015b8015614b4657600080614aff87866001860381518110614ade57fe5b6020026020010151878681518110614af257fe5b60200260200101516159a7565b91509150614b21848481518110614b1257fe5b60200260200101518383615a6e565b846001850381518110614b3057fe5b6020908102919091010152505060001901614ac2565b509392505050565b6000806000614b5d8585615b5e565b9150915085828260405160200180836001600160a01b03166001600160a01b031660601b8152601401826001600160a01b03166001600160a01b031660601b8152601401925050506040516020818303038152906040528051906020012060086000896001600160a01b03166001600160a01b0316815260200190815260200160002060405160200180806001600160f81b0319815250600101846001600160a01b03166001600160a01b031660601b815260140183815260200182805460018160011615610100020316600290048015614c6f5780601f10614c4d576101008083540402835291820191614c6f565b820191906000526020600020905b815481529060010190602001808311614c5b575b505060408051601f1981840301815291905280516020909101209a9950505050505050505050565b604080516001600160a01b0385811660248301528481166044830152606480830185905283518084039091018152608490920183526020820180516001600160e01b03166323b872dd60e01b17815292518251600094606094938a169392918291908083835b60208310614d1c5780518252601f199092019160209182019101614cfd565b6001836020036101000a0380198251168184511680821785525050505050509050019150506000604051808303816000865af19150503d8060008114614d7e576040519150601f19603f3d011682016040523d82523d6000602084013e614d83565b606091505b5091509150818015614db1575080511580614db15750808060200190516020811015614dae57600080fd5b50515b614dec5760405162461bcd60e51b8152600401808060200182810382526024815260200180615f596024913960400191505060405180910390fd5b505050505050565b60005b6001835103811015614ff457600080848381518110614e1257fe5b6020026020010151858460010181518110614e2957fe5b6020026020010151915091506000614e418383615b5e565b5090506000878560010181518110614e5557fe5b60200260200101519050600080836001600160a01b0316866001600160a01b031614614e8357826000614e87565b6000835b91509150600060028a51038810614e9e5788614ebf565b614ebf8c878c8b60020181518110614eb257fe5b6020026020010151614b4e565b9050614ecc8c8888614b4e565b6001600160a01b031663022c0d9f84848460006040519080825280601f01601f191660200182016040528015614f09576020820181803683370190505b506040518563ffffffff1660e01b815260040180858152602001848152602001836001600160a01b03166001600160a01b0316815260200180602001828103825283818151815260200191508051906020019080838360005b83811015614f7a578181015183820152602001614f62565b50505050905090810190601f168015614fa75780820380516001836020036101000a031916815260200191505b5095505050505050600060405180830381600087803b158015614fc957600080fd5b505af1158015614fdd573d6000803e3d6000fd5b505060019099019850614df7975050505050505050565b5050505050565b604080516000808252602082019092526001600160a01b0384169083906040518082805190602001908083835b602083106150475780518252601f199092019160209182019101615028565b6001836020036101000a03801982511681845116808217855250505050505090500191505060006040518083038185875af1925050503d80600081146150a9576040519150601f19603f3d011682016040523d82523d6000602084013e6150ae565b606091505b5050905080611d685760405162461bcd60e51b8152600401808060200182810382526023815260200180615f166023913960400191505060405180910390fd5b6001600160a01b03851661517d57600554615112906001600160a01b031683614ffb565b8015615178576151228382614ffb565b604080513381526001600160a01b03868116602083015287811682840152606082018490529151918516917f84ff16114f882a54c4748006b5e4b0b7ac76bd911d135145a6d063fd76a38a409181900360800190a25b614ff4565b60055461519790869033906001600160a01b031685614c97565b8015614ff4576151a985338584614c97565b604080513381526001600160a01b03868116602083015287811682840152606082018490529151918516917f84ff16114f882a54c4748006b5e4b0b7ac76bd911d135145a6d063fd76a38a409181900360800190a25050505050565b61520d611d6d565b615255576040805162461bcd60e51b815260206004820152601460248201527314185d5cd8589b194e881b9bdd081c185d5cd95960621b604482015290519081900360640190fd5b6000805460ff60a01b191690557f5db9ee0a495bf2e6ff9c91a7834c1ba4fdd244a5e8aa4e537bd38aeae4b073aa61528b6146af565b604080516001600160a01b039092168252519081900360200190a1565b60606002825110156152ef576040805162461bcd60e51b81526020600482015260196024820152600080516020615ef6833981519152604482015290519081900360640190fd5b815167ffffffffffffffff8111801561530757600080fd5b50604051908082528060200260200182016040528015615331578160200160208202803683370190505b509050828160008151811061534257fe5b60200260200101818152505060005b6001835103811015614b46576000806153878786858151811061537057fe5b6020026020010151878660010181518110614af257fe5b915091506153a984848151811061539a57fe5b60200260200101518383615c3c565b8484600101815181106153b857fe5b60209081029190910101525050600101615351565b604080516001600160a01b038481166024830152604480830185905283518084039091018152606490920183526020820180516001600160e01b031663a9059cbb60e01b178152925182516000946060949389169392918291908083835b6020831061544a5780518252601f19909201916020918201910161542b565b6001836020036101000a0380198251168184511680821785525050505050509050019150506000604051808303816000865af19150503d80600081146154ac576040519150601f19603f3d011682016040523d82523d6000602084013e6154b1565b606091505b50915091508180156154df5750805115806154df57508080602001905160208110156154dc57600080fd5b50515b614ff4576040805162461bcd60e51b815260206004820152601f60248201527f5472616e7366657248656c7065723a205452414e534645525f4641494c454400604482015290519081900360640190fd5b60005b60018351038110156157fb5760008084838151811061554e57fe5b602002602001015185846001018151811061556557fe5b602002602001015191509150600061557d8383615b5e565b509050600061558d888585614b4e565b9050600080600080846001600160a01b0316630902f1ac6040518163ffffffff1660e01b815260040160606040518083038186803b1580156155ce57600080fd5b505afa1580156155e2573d6000803e3d6000fd5b505050506040513d60608110156155f857600080fd5b5080516020909101516001600160701b0391821693501690506000806001600160a01b038a81169089161461562e578284615631565b83835b9150915061568f828b6001600160a01b03166370a082318a6040518263ffffffff1660e01b815260040180826001600160a01b03166001600160a01b0316815260200191505060206040518083038186803b158015611ffa57600080fd5b955061569c868383615c3c565b945050505050600080856001600160a01b0316886001600160a01b0316146156c6578260006156ca565b6000835b91509150600060028c51038a106156e1578a6156f5565b6156f58d898e8d60020181518110614eb257fe5b604080516000808252602082019283905263022c0d9f60e01b835260248201878152604483018790526001600160a01b038086166064850152608060848501908152845160a48601819052969750908c169563022c0d9f958a958a958a9591949193919260c486019290918190849084905b8381101561577f578181015183820152602001615767565b50505050905090810190601f1680156157ac5780820380516001836020036101000a031916815260200191505b5095505050505050600060405180830381600087803b1580156157ce57600080fd5b505af11580156157e2573d6000803e3d6000fd5b50506001909b019a506155339950505050505050505050565b50505050565b600082821115615858576040805162461bcd60e51b815260206004820152601e60248201527f536166654d6174683a207375627472616374696f6e206f766572666c6f770000604482015290519081900360640190fd5b50900390565b615866611d6d565b156158ab576040805162461bcd60e51b815260206004820152601060248201526f14185d5cd8589b194e881c185d5cd95960821b604482015290519081900360640190fd5b6000805460ff60a01b1916600160a01b1790557f62e78cea01bee320cd4e420270b5ea74000d11b0c9f74754ebdbfc544b05a25861528b6146af565b6000826158f6575060006111c1565b8282028284828161590357fe5b0414614a0c5760405162461bcd60e51b8152600401808060200182810382526021815260200180615e926021913960400191505060405180910390fd5b6000808211615996576040805162461bcd60e51b815260206004820152601a60248201527f536166654d6174683a206469766973696f6e206279207a65726f000000000000604482015290519081900360640190fd5b81838161599f57fe5b049392505050565b60008060006159b68585615b5e565b5090506000806159c7888888614b4e565b6001600160a01b0316630902f1ac6040518163ffffffff1660e01b815260040160606040518083038186803b1580156159ff57600080fd5b505afa158015615a13573d6000803e3d6000fd5b505050506040513d6060811015615a2957600080fd5b5080516020909101516001600160701b0391821693501690506001600160a01b0387811690841614615a5c578082615a5f565b81815b90999098509650505050505050565b6000808411615aae5760405162461bcd60e51b8152600401808060200182810382526027815260200180615e056027913960400191505060405180910390fd5b600083118015615abe5750600082115b615af95760405162461bcd60e51b8152600401808060200182810382526023815260200180615ed36023913960400191505060405180910390fd5b6000615b1d612710615b11868863ffffffff6158e716565b9063ffffffff6158e716565b90506000615b376126fc615b11868963ffffffff61580116565b9050615b546001828481615b4757fe5b049063ffffffff6149b216565b9695505050505050565b600080826001600160a01b0316846001600160a01b03161415615bb25760405162461bcd60e51b8152600401808060200182810382526023815260200180615e6f6023913960400191505060405180910390fd5b826001600160a01b0316846001600160a01b031610615bd2578284615bd5565b83835b90925090506001600160a01b038216615c35576040805162461bcd60e51b815260206004820152601c60248201527f50616e63616b654c6962726172793a205a45524f5f4144445245535300000000604482015290519081900360640190fd5b9250929050565b6000808411615c7c5760405162461bcd60e51b8152600401808060200182810382526026815260200180615db96026913960400191505060405180910390fd5b600083118015615c8c5750600082115b615cc75760405162461bcd60e51b8152600401808060200182810382526023815260200180615ed36023913960400191505060405180910390fd5b6000615cdb856126fc63ffffffff6158e716565b90506000615cef828563ffffffff6158e716565b90506000615d098361150e8861271063ffffffff6158e716565b9050808281615d1457fe5b04979650505050505050565b828054600181600116156101000203166002900490600052602060002090601f016020900481019282601f10615d615782800160ff19823516178555615d8e565b82800160010185558215615d8e579182015b82811115615d8e578235825591602001919060010190615d73565b50615d9a929150615d9e565b5090565b611d7b91905b80821115615d9a5760008155600101615da456fe466c6f6f7a526f757465723a20494e53554646494349454e545f494e5055545f414d4f554e544f776e61626c653a206e6577206f776e657220697320746865207a65726f2061646472657373466c6f6f7a526f757465723a20494e53554646494349454e545f4f55545055545f414d4f554e54466c6f6f7a526f757465723a204558434553534956455f494e5055545f414d4f554e54466c6f6f7a526f757465723a2053454c465f524546455252414c00000000000050616e63616b654c6962726172793a204944454e544943414c5f414444524553534553536166654d6174683a206d756c7469706c69636174696f6e206f766572666c6f774f776e61626c653a2063616c6c6572206973206e6f7420746865206f776e6572466c6f6f7a526f757465723a20494e53554646494349454e545f4c4951554944495459466c6f6f7a526f757465723a20494e56414c49445f50415448000000000000005472616e7366657248656c7065723a204554485f5452414e534645525f4641494c4544466c6f6f7a526f757465723a20494e56414c49445f464143544f5259000000005472616e7366657248656c7065723a205452414e534645525f46524f4d5f4641494c4544a2646970667358221220467a0632ea16f5395515509f76be4551edda254f6f290d568205a9b3112f44e964736f6c63430006060033",
  "devdoc": {
    "methods": {
      "constructor": {
        "details": "construct this contract",
        "params": {
          "_WETH": "address of WETH.",
          "_balanceThreshold": "balance threshold of SYA tokens which actives feeless swapping",
          "_feeReceiver": "address that receives protocol fees",
          "_referralRegistry": "address of referral registry that stores referral anchors",
          "_referralRewardRate": "percentage of swapFee that are paid out as rewards",
          "_saveYourAssetsToken": "address of SYA token",
          "_swapFee": "nominator for swapFee. Denominator = 10000",
          "_zeroEx": "address of zeroX proxy contract to forward swaps"
        }
      },
      "executeZeroExSwap(bytes,address,address,address)": {
        "details": "Executes a swap on 0x API",
        "params": {
          "data": "calldata expected by data field on 0x API (https://0x.org/docs/api#response-1)",
          "referee": "address of referee for msg.sender, 0x adress if none",
          "tokenIn": "the address of currency to buy  0x address for ETH",
          "tokenOut": "the address of currency to sell  0x address for ETH"
        }
      },
      "getUserFee(address)": {
        "details": "returns the fee nominator for a given user"
      },
      "getUserReferee(address)": {
        "details": "returns the referee for a given user  0x address if none"
      },
      "hasUserReferee(address)": {
        "details": "returns if the given user has been referred or not"
      },
      "owner()": {
        "details": "Returns the address of the current owner."
      },
      "pause()": {
        "details": "lets the admin pause this contract"
      },
      "paused()": {
        "details": "Returns true if the contract is paused, and false otherwise."
      },
      "renounceOwnership()": {
        "details": "Leaves the contract without owner. It will not be possible to call `onlyOwner` functions anymore. Can only be called by the current owner.     * NOTE: Renouncing ownership will leave the contract without an owner, thereby removing any functionality that is only available to the owner."
      },
      "swapETHForExactTokens(address,uint256,address[],address)": {
        "details": "execute swap directly on Uniswap/Pancake/...",
        "params": {
          "amountOut": "expected amount of tokens out",
          "fork": "fork used to execute swap",
          "path": "Sell path.",
          "referee": "address of referee for msg.sender, 0x adress if none"
        },
        "returns": {
          "amounts": "amounts"
        }
      },
      "swapExactETHForTokens(address,uint256,address[],address)": {
        "details": "execute swap directly on Uniswap/Pancake & simular forks",
        "params": {
          "amountOutMin": "minimum tokens to receive",
          "fork": "fork used to execute swap",
          "path": "Sell path.",
          "referee": "address of referee for msg.sender, 0x adress if none"
        },
        "returns": {
          "amounts": "amounts"
        }
      },
      "swapExactETHForTokensSupportingFeeOnTransferTokens(address,uint256,address[],address)": {
        "details": "execute swap directly on Uniswap/Pancake/...",
        "params": {
          "amountOutMin": "minimum expected tokens to receive",
          "fork": "fork used to execute swap",
          "path": "Sell path.",
          "referee": "address of referee for msg.sender, 0x adress if none"
        }
      },
      "swapExactTokensForETH(address,uint256,uint256,address[],address)": {
        "details": "execute swap directly on Uniswap/Pancake/...",
        "params": {
          "amountIn": "amount if tokens In",
          "amountOutMin": "minimum tokens to receive",
          "fork": "fork used to execute swap",
          "path": "Sell path.",
          "referee": "address of referee for msg.sender, 0x adress if none"
        },
        "returns": {
          "amounts": "amounts"
        }
      },
      "swapExactTokensForETHSupportingFeeOnTransferTokens(address,uint256,uint256,address[],address)": {
        "details": "execute swap directly on Uniswap/Pancake/...",
        "params": {
          "amountIn": "amount of tokensIn",
          "amountOutMin": "minimum tokens to receive",
          "fork": "fork used to execute swap",
          "path": "Sell path.",
          "referee": "address of referee for msg.sender, 0x adress if none"
        }
      },
      "swapExactTokensForTokens(address,uint256,uint256,address[],address)": {
        "details": "execute swap directly on Uniswap/Pancake/...",
        "params": {
          "amountIn": "amount if tokens In",
          "amountOutMin": "minimum tokens to receive",
          "fork": "fork used to execute swap",
          "path": "Sell path.",
          "referee": "address of referee for msg.sender, 0x adress if none"
        },
        "returns": {
          "amounts": "amounts"
        }
      },
      "swapExactTokensForTokensSupportingFeeOnTransferTokens(address,uint256,uint256,address[],address)": {
        "details": "execute swap directly on Uniswap/Pancake/...",
        "params": {
          "amountIn": "amount if tokens In",
          "amountOutMin": "minimum tokens to receive",
          "fork": "fork used to execute swap",
          "path": "Sell path.",
          "referee": "address of referee for msg.sender, 0x adress if none"
        }
      },
      "swapTokensForExactETH(address,uint256,uint256,address[],address)": {
        "details": "execute swap directly on Uniswap/Pancake/...",
        "params": {
          "amountInMax": "maximum tokens to send",
          "amountOut": "expected tokens to receive",
          "fork": "fork used to execute swap",
          "path": "Sell path.",
          "referee": "address of referee for msg.sender, 0x adress if none"
        },
        "returns": {
          "amounts": "amounts"
        }
      },
      "swapTokensForExactTokens(address,uint256,uint256,address[],address)": {
        "details": "execute swap directly on Uniswap/Pancake/...",
        "params": {
          "amountInMax": "maximum tokens to send",
          "amountOut": "expected tokens to receive",
          "fork": "fork used to execute swap",
          "path": "Sell path.",
          "referee": "address of referee for msg.sender, 0x adress if none"
        },
        "returns": {
          "amounts": "amounts"
        }
      },
      "transferOwnership(address)": {
        "details": "Transfers ownership of the contract to a new account (`newOwner`). Can only be called by the current owner."
      },
      "unpause()": {
        "details": "lets the admin unpause this contract"
      },
      "updateBalanceThreshold(uint256)": {
        "details": "lets the admin update the SYA balance threshold, which activates feeless trading for users"
      },
      "updateCustomReferralRewardRate(address,uint16)": {
        "details": "lets the admin set a custom referral rate"
      },
      "updateFeeReceiver(address)": {
        "details": "lets the admin update which address receives the protocol fees"
      },
      "updateFork(address,bytes,bool)": {
        "details": "lets the admin update an Uniswap style fork"
      },
      "updateReferralRegistry(address)": {
        "details": "lets the admin set a new referral registry"
      },
      "updateReferralRewardRate(uint16)": {
        "details": "lets the admin update the referral reward rate"
      },
      "updateReferralsActivated(bool)": {
        "details": "lets the admin update the status of the referral system"
      },
      "updateSwapFee(uint16)": {
        "details": "lets the admin update the swapFee nominator"
      },
      "userAboveBalanceThreshold(address)": {
        "details": "returns if a users is above the SYA threshold and can swap without fees"
      },
      "withdrawERC20Token(address,address,uint256)": {
        "details": "lets the admin withdraw ERC20s from the contract."
      },
      "withdrawETH(address,uint256)": {
        "details": "lets the admin withdraw ETH from the contract."
      }
    }
  },
  "userdoc": {
    "methods": {}
  },
  "storageLayout": {
    "storage": [
      {
        "astId": 592,
        "contract": "contracts/FloozRouter.sol:FloozRouter",
        "label": "_owner",
        "offset": 0,
        "slot": "0",
        "type": "t_address"
      },
      {
        "astId": 1168,
        "contract": "contracts/FloozRouter.sol:FloozRouter",
        "label": "_paused",
        "offset": 20,
        "slot": "0",
        "type": "t_bool"
      },
      {
        "astId": 1253,
        "contract": "contracts/FloozRouter.sol:FloozRouter",
        "label": "_status",
        "offset": 0,
        "slot": "1",
        "type": "t_uint256"
      },
      {
        "astId": 1807,
        "contract": "contracts/FloozRouter.sol:FloozRouter",
        "label": "swapFee",
        "offset": 0,
        "slot": "2",
        "type": "t_uint16"
      },
      {
        "astId": 1813,
        "contract": "contracts/FloozRouter.sol:FloozRouter",
        "label": "referralRegistry",
        "offset": 2,
        "slot": "2",
        "type": "t_contract(IReferralRegistry)5203"
      },
      {
        "astId": 1815,
        "contract": "contracts/FloozRouter.sol:FloozRouter",
        "label": "saveYourAssetsToken",
        "offset": 0,
        "slot": "3",
        "type": "t_contract(IERC20)1127"
      },
      {
        "astId": 1817,
        "contract": "contracts/FloozRouter.sol:FloozRouter",
        "label": "balanceThreshold",
        "offset": 0,
        "slot": "4",
        "type": "t_uint256"
      },
      {
        "astId": 1819,
        "contract": "contracts/FloozRouter.sol:FloozRouter",
        "label": "feeReceiver",
        "offset": 0,
        "slot": "5",
        "type": "t_address_payable"
      },
      {
        "astId": 1821,
        "contract": "contracts/FloozRouter.sol:FloozRouter",
        "label": "referralRewardRate",
        "offset": 20,
        "slot": "5",
        "type": "t_uint16"
      },
      {
        "astId": 1823,
        "contract": "contracts/FloozRouter.sol:FloozRouter",
        "label": "referralsActivated",
        "offset": 22,
        "slot": "5",
        "type": "t_bool"
      },
      {
        "astId": 1827,
        "contract": "contracts/FloozRouter.sol:FloozRouter",
        "label": "customReferralRewardRate",
        "offset": 0,
        "slot": "6",
        "type": "t_mapping(t_address,t_uint16)"
      },
      {
        "astId": 1831,
        "contract": "contracts/FloozRouter.sol:FloozRouter",
        "label": "forkActivated",
        "offset": 0,
        "slot": "7",
        "type": "t_mapping(t_address,t_bool)"
      },
      {
        "astId": 1835,
        "contract": "contracts/FloozRouter.sol:FloozRouter",
        "label": "forkInitCode",
        "offset": 0,
        "slot": "8",
        "type": "t_mapping(t_address,t_bytes_storage)"
      }
    ],
    "types": {
      "t_address": {
        "encoding": "inplace",
        "label": "address",
        "numberOfBytes": "20"
      },
      "t_address_payable": {
        "encoding": "inplace",
        "label": "address payable",
        "numberOfBytes": "20"
      },
      "t_bool": {
        "encoding": "inplace",
        "label": "bool",
        "numberOfBytes": "1"
      },
      "t_bytes_storage": {
        "encoding": "bytes",
        "label": "bytes",
        "numberOfBytes": "32"
      },
      "t_contract(IERC20)1127": {
        "encoding": "inplace",
        "label": "contract IERC20",
        "numberOfBytes": "20"
      },
      "t_contract(IReferralRegistry)5203": {
        "encoding": "inplace",
        "label": "contract IReferralRegistry",
        "numberOfBytes": "20"
      },
      "t_mapping(t_address,t_bool)": {
        "encoding": "mapping",
        "key": "t_address",
        "label": "mapping(address => bool)",
        "numberOfBytes": "32",
        "value": "t_bool"
      },
      "t_mapping(t_address,t_bytes_storage)": {
        "encoding": "mapping",
        "key": "t_address",
        "label": "mapping(address => bytes)",
        "numberOfBytes": "32",
        "value": "t_bytes_storage"
      },
      "t_mapping(t_address,t_uint16)": {
        "encoding": "mapping",
        "key": "t_address",
        "label": "mapping(address => uint16)",
        "numberOfBytes": "32",
        "value": "t_uint16"
      },
      "t_uint16": {
        "encoding": "inplace",
        "label": "uint16",
        "numberOfBytes": "2"
      },
      "t_uint256": {
        "encoding": "inplace",
        "label": "uint256",
        "numberOfBytes": "32"
      }
    }
  }
}