{
  "address": "0x5709aBBaA2bF415D20d0B9109Bf4360937398b63",
  "abi": [
    {
      "inputs": [],
      "stateMutability": "nonpayable",
      "type": "constructor"
    },
    {
      "anonymous": false,
      "inputs": [
        {
          "indexed": true,
          "internalType": "address",
          "name": "previousOwner",
          "type": "address"
        },
        {
          "indexed": true,
          "internalType": "address",
          "name": "newOwner",
          "type": "address"
        }
      ],
      "name": "OwnershipTransferred",
      "type": "event"
    },
    {
      "anonymous": false,
      "inputs": [
        {
          "indexed": false,
          "internalType": "address",
          "name": "account",
          "type": "address"
        }
      ],
      "name": "Paused",
      "type": "event"
    },
    {
      "anonymous": false,
      "inputs": [
        {
          "indexed": false,
          "internalType": "uint256",
          "name": "buyAmount",
          "type": "uint256"
        }
      ],
      "name": "ReturnValues",
      "type": "event"
    },
    {
      "anonymous": false,
      "inputs": [
        {
          "indexed": false,
          "internalType": "address",
          "name": "account",
          "type": "address"
        }
      ],
      "name": "Unpaused",
      "type": "event"
    },
    {
      "stateMutability": "payable",
      "type": "fallback"
    },
    {
      "inputs": [
        {
          "internalType": "address",
          "name": "_token",
          "type": "address"
        },
        {
          "internalType": "bytes",
          "name": "_data",
          "type": "bytes"
        }
      ],
      "name": "approveToken",
      "outputs": [],
      "stateMutability": "nonpayable",
      "type": "function"
    },
    {
      "inputs": [
        {
          "internalType": "address payable",
          "name": "_to",
          "type": "address"
        },
        {
          "internalType": "bytes",
          "name": "_data",
          "type": "bytes"
        }
      ],
      "name": "executeTo",
      "outputs": [],
      "stateMutability": "payable",
      "type": "function"
    },
    {
      "inputs": [
        {
          "internalType": "bytes",
          "name": "_data",
          "type": "bytes"
        }
      ],
      "name": "executeTrade",
      "outputs": [],
      "stateMutability": "payable",
      "type": "function"
    },
    {
      "inputs": [
        {
          "internalType": "bytes",
          "name": "_data",
          "type": "bytes"
        }
      ],
      "name": "executeTrade2",
      "outputs": [],
      "stateMutability": "payable",
      "type": "function"
    },
    {
      "inputs": [],
      "name": "owner",
      "outputs": [
        {
          "internalType": "address",
          "name": "",
          "type": "address"
        }
      ],
      "stateMutability": "view",
      "type": "function"
    },
    {
      "inputs": [],
      "name": "pause",
      "outputs": [],
      "stateMutability": "nonpayable",
      "type": "function"
    },
    {
      "inputs": [],
      "name": "paused",
      "outputs": [
        {
          "internalType": "bool",
          "name": "",
          "type": "bool"
        }
      ],
      "stateMutability": "view",
      "type": "function"
    },
    {
      "inputs": [],
      "name": "renounceOwnership",
      "outputs": [],
      "stateMutability": "nonpayable",
      "type": "function"
    },
    {
      "inputs": [
        {
          "internalType": "address",
          "name": "newOwner",
          "type": "address"
        }
      ],
      "name": "transferOwnership",
      "outputs": [],
      "stateMutability": "nonpayable",
      "type": "function"
    },
    {
      "inputs": [],
      "name": "unpause",
      "outputs": [],
      "stateMutability": "nonpayable",
      "type": "function"
    },
    {
      "inputs": [],
      "name": "zerox",
      "outputs": [
        {
          "internalType": "address payable",
          "name": "",
          "type": "address"
        }
      ],
      "stateMutability": "view",
      "type": "function"
    },
    {
      "stateMutability": "payable",
      "type": "receive"
    }
  ],
  "transactionHash": "0x5790f5290c7199fa8e311e97fc4a832a41ecf1611d4fee614295e9a0989d1f9f",
  "args": [],
  "solcInputHash": "be4b89bef59d777d0a060f1450c67c9d",
  "bytecode": "0x60a060405234801561001057600080fd5b5060006100246001600160e01b036100a416565b600080546001600160a01b0319166001600160a01b0383169081178255604051929350917f8be0079c531659141344cd1fd0a4f28419497f9722a3daafe3b4186f6b6457e0908290a3506000805460ff60a01b191690557fdef1c0ded9bec7f1a1670819833240f027b25eff0000000000000000000000006080526100a8565b3390565b60805160601c610dd16100d460003980610123528061087c52806109c75280610a8c5250610dd16000f3fe6080604052600436106100a05760003560e01c80638456cb59116100645780638456cb591461036c578063885ab48c146103815780638da5cb5b14610427578063b279aeda14610458578063f0ca6b15146104fe578063f2fde38b14610513576100a7565b80630ba8c8c71461023e5780631f7ea881146102f65780633f4ba83a146103195780635c975abb1461032e578063715018a614610357576100a7565b366100a757005b60006100f3600080368080601f016020809104026020016040519081016040528093929190818152602001838380828437600092019190915250929392505063ffffffff610546169050565b60408051634b97ee9360e11b81526001600160e01b03198316600482015290519192506000916001600160a01b037f0000000000000000000000000000000000000000000000000000000000000000169163972fdd2691602480830192602092919082900301818787803b15801561016a57600080fd5b505af115801561017e573d6000803e3d6000fd5b505050506040513d602081101561019457600080fd5b505190506001600160a01b0381166101b7576101b76101b28361057a565b6105f2565b60006060826001600160a01b03166000366040518083838082843760405192019450600093509091505080830381855af49150503d8060008114610217576040519150601f19603f3d011682016040523d82523d6000602084013e61021c565b606091505b50915091508161022f5761022f816105f2565b610238816105fa565b50505050005b6102f46004803603604081101561025457600080fd5b6001600160a01b03823516919081019060408101602082013564010000000081111561027f57600080fd5b82018360208201111561029157600080fd5b803590602001918460018302840111640100000000831117156102b357600080fd5b91908080601f016020809104026020016040519081016040528093929190818152602001838380828437600092019190915250929550610602945050505050565b005b34801561030257600080fd5b506102f46004803603604081101561025457600080fd5b34801561032557600080fd5b506102f46106a8565b34801561033a57600080fd5b50610343610714565b604080519115158252519081900360200190f35b34801561036357600080fd5b506102f4610724565b34801561037857600080fd5b506102f46107d0565b6102f46004803603602081101561039757600080fd5b8101906020810181356401000000008111156103b257600080fd5b8201836020820111156103c457600080fd5b803590602001918460018302840111640100000000831117156103e657600080fd5b91908080601f01602080910402602001604051908101604052809392919081815260200183838082843760009201919091525092955061083a945050505050565b34801561043357600080fd5b5061043c6109b6565b604080516001600160a01b039092168252519081900360200190f35b6102f46004803603602081101561046e57600080fd5b81019060208101813564010000000081111561048957600080fd5b82018360208201111561049b57600080fd5b803590602001918460018302840111640100000000831117156104bd57600080fd5b91908080601f0160208091040260200160405190810160405280939291908181526020018383808284376000920191909152509295506109c5945050505050565b34801561050a57600080fd5b5061043c610a8a565b34801561051f57600080fd5b506102f46004803603602081101561053657600080fd5b50356001600160a01b0316610aae565b60008160040183511015610567576105676101b26003855185600401610bb0565b5001602001516001600160e01b03191690565b604080517f4e6f74496d706c656d656e7465644572726f72286279746573342900000000008152815190819003601b0181206001600160e01b03198085166024808501919091528451808503909101815260449093019093526020820180516001600160e01b03169390911692909217909152919050565b805160208201fd5b805160208201f35b816001600160a01b0316816040518082805190602001908083835b6020831061063c5780518252601f19909201916020918201910161061d565b6001836020036101000a038019825116818451168082178552505050505050905001915050600060405180830381855af49150503d806000811461069c576040519150601f19603f3d011682016040523d82523d6000602084013e6106a1565b606091505b5050505050565b6106b0610c25565b6001600160a01b03166106c16109b6565b6001600160a01b03161461070a576040805162461bcd60e51b81526020600482018190526024820152600080516020610d7c833981519152604482015290519081900360640190fd5b610712610c29565b565b600054600160a01b900460ff1690565b61072c610c25565b6001600160a01b031661073d6109b6565b6001600160a01b031614610786576040805162461bcd60e51b81526020600482018190526024820152600080516020610d7c833981519152604482015290519081900360640190fd5b600080546040516001600160a01b03909116907f8be0079c531659141344cd1fd0a4f28419497f9722a3daafe3b4186f6b6457e0908390a3600080546001600160a01b0319169055565b6107d8610c25565b6001600160a01b03166107e96109b6565b6001600160a01b031614610832576040805162461bcd60e51b81526020600482018190526024820152600080516020610d7c833981519152604482015290519081900360640190fd5b610712610ccc565b600061084c828263ffffffff61054616565b60408051634b97ee9360e11b81526001600160e01b03198316600482015290519192506000916001600160a01b037f0000000000000000000000000000000000000000000000000000000000000000169163972fdd2691602480830192602092919082900301818787803b1580156108c357600080fd5b505af11580156108d7573d6000803e3d6000fd5b505050506040513d60208110156108ed57600080fd5b505160405184519192506000916060916001600160a01b03851691879190819060208401908083835b602083106109355780518252601f199092019160209182019101610916565b6001836020036101000a038019825116818451168082178552505050505050905001915050600060405180830381855af49150503d8060008114610995576040519150601f19603f3d011682016040523d82523d6000602084013e61099a565b606091505b5091509150816109ad576109ad816105f2565b6106a1816105fa565b6000546001600160a01b031690565b7f00000000000000000000000000000000000000000000000000000000000000006001600160a01b0316816040518082805190602001908083835b60208310610a1f5780518252601f199092019160209182019101610a00565b6001836020036101000a038019825116818451168082178552505050505050905001915050600060405180830381855af49150503d8060008114610a7f576040519150601f19603f3d011682016040523d82523d6000602084013e610a84565b606091505b50505050565b7f000000000000000000000000000000000000000000000000000000000000000081565b610ab6610c25565b6001600160a01b0316610ac76109b6565b6001600160a01b031614610b10576040805162461bcd60e51b81526020600482018190526024820152600080516020610d7c833981519152604482015290519081900360640190fd5b6001600160a01b038116610b555760405162461bcd60e51b8152600401808060200182810382526026815260200180610d566026913960400191505060405180910390fd5b600080546040516001600160a01b03808516939216917f8be0079c531659141344cd1fd0a4f28419497f9722a3daafe3b4186f6b6457e091a3600080546001600160a01b0319166001600160a01b0392909216919091179055565b6060632800659560e01b84848460405160240180846007811115610bd057fe5b60ff1681526020018381526020018281526020019350505050604051602081830303815290604052906001600160e01b0319166020820180516001600160e01b03838183161783525050505090509392505050565b3390565b610c31610714565b610c79576040805162461bcd60e51b815260206004820152601460248201527314185d5cd8589b194e881b9bdd081c185d5cd95960621b604482015290519081900360640190fd5b6000805460ff60a01b191690557f5db9ee0a495bf2e6ff9c91a7834c1ba4fdd244a5e8aa4e537bd38aeae4b073aa610caf610c25565b604080516001600160a01b039092168252519081900360200190a1565b610cd4610714565b15610d19576040805162461bcd60e51b815260206004820152601060248201526f14185d5cd8589b194e881c185d5cd95960821b604482015290519081900360640190fd5b6000805460ff60a01b1916600160a01b1790557f62e78cea01bee320cd4e420270b5ea74000d11b0c9f74754ebdbfc544b05a258610caf610c2556fe4f776e61626c653a206e6577206f776e657220697320746865207a65726f20616464726573734f776e61626c653a2063616c6c6572206973206e6f7420746865206f776e6572a26469706673582212200b5f1b413118eda27ed41288ec1508d00127e4b9c08d7c4d53f8416a676361a564736f6c63430006060033",
  "devdoc": {
    "methods": {
      "owner()": {
        "details": "Returns the address of the current owner."
      },
      "paused()": {
        "details": "Returns true if the contract is paused, and false otherwise."
      },
      "renounceOwnership()": {
        "details": "Leaves the contract without owner. It will not be possible to call `onlyOwner` functions anymore. Can only be called by the current owner.     * NOTE: Renouncing ownership will leave the contract without an owner, thereby removing any functionality that is only available to the owner."
      },
      "transferOwnership(address)": {
        "details": "Transfers ownership of the contract to a new account (`newOwner`). Can only be called by the current owner."
      }
    }
  },
  "userdoc": {
    "methods": {}
  },
  "storageLayout": {
    "storage": [
      {
        "astId": 592,
        "contract": "contracts/FloozRouterV2.sol:FloozRouterV2",
        "label": "_owner",
        "offset": 0,
        "slot": "0",
        "type": "t_address"
      },
      {
        "astId": 1168,
        "contract": "contracts/FloozRouterV2.sol:FloozRouterV2",
        "label": "_paused",
        "offset": 20,
        "slot": "0",
        "type": "t_bool"
      }
    ],
    "types": {
      "t_address": {
        "encoding": "inplace",
        "label": "address",
        "numberOfBytes": "20"
      },
      "t_bool": {
        "encoding": "inplace",
        "label": "bool",
        "numberOfBytes": "1"
      }
    }
  }
}