{
  "address": "0xe6897991384C11af1903F5E8FA1cB667a8D93862",
  "abi": [
    {
      "inputs": [
        {
          "internalType": "address",
          "name": "to",
          "type": "address"
        },
        {
          "internalType": "uint256",
          "name": "value",
          "type": "uint256"
        },
        {
          "internalType": "bytes",
          "name": "data",
          "type": "bytes"
        },
        {
          "internalType": "address",
          "name": "approvalToken",
          "type": "address"
        },
        {
          "internalType": "address",
          "name": "approvalTarget",
          "type": "address"
        }
      ],
      "name": "simulate",
      "outputs": [
        {
          "internalType": "bool",
          "name": "success",
          "type": "bool"
        },
        {
          "internalType": "bytes",
          "name": "returnValue",
          "type": "bytes"
        }
      ],
      "stateMutability": "nonpayable",
      "type": "function"
    }
  ],
  "transactionHash": "0x14b1329411e0e37975488471eb718a5dfef32b30814226faa715c19089cd9f28",
  "args": [],
  "solcInputHash": "57f589b5e35f3298fd2c9b708ea9235b",
  "bytecode": "0x608060405260fd60005534801561001557600080fd5b50610288806100256000396000f3fe608060405234801561001057600080fd5b506004361061002b5760003560e01c806371fc4ee514610030575b600080fd5b6100c6600480360360a081101561004657600080fd5b6001600160a01b038235169160208101359181019060608101604082013564010000000081111561007657600080fd5b82018360208201111561008857600080fd5b803590602001918460018302840111640100000000831117156100aa57600080fd5b91935091506001600160a01b0381358116916020013516610149565b604051808315151515815260200180602001828103825283818151815260200191508051906020019080838360005b8381101561010d5781810151838201526020016100f5565b50505050905090810190601f16801561013a5780820380516001836020036101000a031916815260200191505b50935050505060405180910390f35b60006060836001600160a01b031663095ea7b3846000546040518363ffffffff1660e01b815260040180836001600160a01b03166001600160a01b0316815260200182815260200192505050602060405180830381600087803b1580156101af57600080fd5b505af11580156101c3573d6000803e3d6000fd5b505050506040513d60208110156101d957600080fd5b50506040516001600160a01b03891690889088908890808383808284376040519201945060009350909150508083038185875af1925050503d806000811461023d576040519150601f19603f3d011682016040523d82523d6000602084013e610242565b606091505b509099909850965050505050505056fea264697066735822122059bcca1ed94004a54887169d5662516001281a970737ff1cca85494608f9576164736f6c63430006060033",
  "devdoc": {
    "methods": {}
  },
  "userdoc": {
    "methods": {}
  },
  "storageLayout": {
    "storage": [
      {
        "astId": 3662,
        "contract": "contracts/FloozSimulator.sol:FloozSimulator",
        "label": "MAX_AMOUNT",
        "offset": 0,
        "slot": "0",
        "type": "t_uint256"
      }
    ],
    "types": {
      "t_uint256": {
        "encoding": "inplace",
        "label": "uint256",
        "numberOfBytes": "32"
      }
    }
  }
}