{
  "address": "0xE24BFB69B67DdbE564BcA19140bb116E41799fcA",
  "abi": [
    {
      "inputs": [
        {
          "internalType": "address",
          "name": "_WETH",
          "type": "address"
        },
        {
          "internalType": "uint16",
          "name": "_swapFee",
          "type": "uint16"
        },
        {
          "internalType": "uint16",
          "name": "_referralRewardRate",
          "type": "uint16"
        },
        {
          "internalType": "address payable",
          "name": "_feeReceiver",
          "type": "address"
        },
        {
          "internalType": "uint256",
          "name": "_balanceThreshold",
          "type": "uint256"
        },
        {
          "internalType": "contract IERC20",
          "name": "_saveYourAssetsToken",
          "type": "address"
        },
        {
          "internalType": "contract IReferralRegistry",
          "name": "_referralRegistry",
          "type": "address"
        },
        {
          "internalType": "address payable",
          "name": "_zeroEx",
          "type": "address"
        }
      ],
      "stateMutability": "nonpayable",
      "type": "constructor"
    },
    {
      "anonymous": false,
      "inputs": [
        {
          "indexed": false,
          "internalType": "uint256",
          "name": "balanceThreshold",
          "type": "uint256"
        }
      ],
      "name": "BalanceThresholdUpdated",
      "type": "event"
    },
    {
      "anonymous": false,
      "inputs": [
        {
          "indexed": true,
          "internalType": "address",
          "name": "account",
          "type": "address"
        },
        {
          "indexed": false,
          "internalType": "uint16",
          "name": "referralRate",
          "type": "uint16"
        }
      ],
      "name": "CustomReferralRewardRateUpdated",
      "type": "event"
    },
    {
      "anonymous": false,
      "inputs": [
        {
          "indexed": false,
          "internalType": "address",
          "name": "token",
          "type": "address"
        },
        {
          "indexed": false,
          "internalType": "uint256",
          "name": "amount",
          "type": "uint256"
        }
      ],
      "name": "FeePaid",
      "type": "event"
    },
    {
      "anonymous": false,
      "inputs": [
        {
          "indexed": false,
          "internalType": "address payable",
          "name": "feeReceiver",
          "type": "address"
        }
      ],
      "name": "FeeReceiverUpdated",
      "type": "event"
    },
    {
      "anonymous": false,
      "inputs": [
        {
          "indexed": false,
          "internalType": "address",
          "name": "factory",
          "type": "address"
        }
      ],
      "name": "ForkCreated",
      "type": "event"
    },
    {
      "anonymous": false,
      "inputs": [
        {
          "indexed": false,
          "internalType": "address",
          "name": "factory",
          "type": "address"
        }
      ],
      "name": "ForkUpdated",
      "type": "event"
    },
    {
      "anonymous": false,
      "inputs": [
        {
          "indexed": true,
          "internalType": "address",
          "name": "previousOwner",
          "type": "address"
        },
        {
          "indexed": true,
          "internalType": "address",
          "name": "newOwner",
          "type": "address"
        }
      ],
      "name": "OwnershipTransferred",
      "type": "event"
    },
    {
      "anonymous": false,
      "inputs": [
        {
          "indexed": false,
          "internalType": "address",
          "name": "account",
          "type": "address"
        }
      ],
      "name": "Paused",
      "type": "event"
    },
    {
      "anonymous": false,
      "inputs": [
        {
          "indexed": false,
          "internalType": "address",
          "name": "referralRegistry",
          "type": "address"
        }
      ],
      "name": "ReferralRegistryUpdated",
      "type": "event"
    },
    {
      "anonymous": false,
      "inputs": [
        {
          "indexed": false,
          "internalType": "address",
          "name": "from",
          "type": "address"
        },
        {
          "indexed": true,
          "internalType": "address",
          "name": "to",
          "type": "address"
        },
        {
          "indexed": false,
          "internalType": "address",
          "name": "tokenOut",
          "type": "address"
        },
        {
          "indexed": false,
          "internalType": "address",
          "name": "tokenReward",
          "type": "address"
        },
        {
          "indexed": false,
          "internalType": "uint256",
          "name": "amount",
          "type": "uint256"
        }
      ],
      "name": "ReferralRewardPaid",
      "type": "event"
    },
    {
      "anonymous": false,
      "inputs": [
        {
          "indexed": false,
          "internalType": "uint16",
          "name": "referralRewardRate",
          "type": "uint16"
        }
      ],
      "name": "ReferralRewardRateUpdated",
      "type": "event"
    },
    {
      "anonymous": false,
      "inputs": [
        {
          "indexed": false,
          "internalType": "bool",
          "name": "activated",
          "type": "bool"
        }
      ],
      "name": "ReferralsActivatedUpdated",
      "type": "event"
    },
    {
      "anonymous": false,
      "inputs": [
        {
          "indexed": false,
          "internalType": "uint16",
          "name": "swapFee",
          "type": "uint16"
        }
      ],
      "name": "SwapFeeUpdated",
      "type": "event"
    },
    {
      "anonymous": false,
      "inputs": [
        {
          "indexed": false,
          "internalType": "address",
          "name": "account",
          "type": "address"
        }
      ],
      "name": "Unpaused",
      "type": "event"
    },
    {
      "stateMutability": "payable",
      "type": "fallback"
    },
    {
      "inputs": [],
      "name": "FEE_DENOMINATOR",
      "outputs": [
        {
          "internalType": "uint256",
          "name": "",
          "type": "uint256"
        }
      ],
      "stateMutability": "view",
      "type": "function"
    },
    {
      "inputs": [],
      "name": "WETH",
      "outputs": [
        {
          "internalType": "address",
          "name": "",
          "type": "address"
        }
      ],
      "stateMutability": "view",
      "type": "function"
    },
    {
      "inputs": [],
      "name": "balanceThreshold",
      "outputs": [
        {
          "internalType": "uint256",
          "name": "",
          "type": "uint256"
        }
      ],
      "stateMutability": "view",
      "type": "function"
    },
    {
      "inputs": [
        {
          "internalType": "address",
          "name": "",
          "type": "address"
        }
      ],
      "name": "customReferralRewardRate",
      "outputs": [
        {
          "internalType": "uint16",
          "name": "",
          "type": "uint16"
        }
      ],
      "stateMutability": "view",
      "type": "function"
    },
    {
      "inputs": [
        {
          "internalType": "bytes",
          "name": "data",
          "type": "bytes"
        },
        {
          "internalType": "address",
          "name": "tokenOut",
          "type": "address"
        },
        {
          "internalType": "address",
          "name": "tokenIn",
          "type": "address"
        },
        {
          "internalType": "address",
          "name": "referee",
          "type": "address"
        }
      ],
      "name": "executeZeroExSwap",
      "outputs": [],
      "stateMutability": "payable",
      "type": "function"
    },
    {
      "inputs": [],
      "name": "feeReceiver",
      "outputs": [
        {
          "internalType": "address payable",
          "name": "",
          "type": "address"
        }
      ],
      "stateMutability": "view",
      "type": "function"
    },
    {
      "inputs": [
        {
          "internalType": "address",
          "name": "",
          "type": "address"
        }
      ],
      "name": "forkActivated",
      "outputs": [
        {
          "internalType": "bool",
          "name": "",
          "type": "bool"
        }
      ],
      "stateMutability": "view",
      "type": "function"
    },
    {
      "inputs": [
        {
          "internalType": "address",
          "name": "",
          "type": "address"
        }
      ],
      "name": "forkInitCode",
      "outputs": [
        {
          "internalType": "bytes",
          "name": "",
          "type": "bytes"
        }
      ],
      "stateMutability": "view",
      "type": "function"
    },
    {
      "inputs": [
        {
          "internalType": "address",
          "name": "user",
          "type": "address"
        }
      ],
      "name": "getUserFee",
      "outputs": [
        {
          "internalType": "uint256",
          "name": "",
          "type": "uint256"
        }
      ],
      "stateMutability": "view",
      "type": "function"
    },
    {
      "inputs": [
        {
          "internalType": "address",
          "name": "user",
          "type": "address"
        }
      ],
      "name": "getUserReferee",
      "outputs": [
        {
          "internalType": "address",
          "name": "",
          "type": "address"
        }
      ],
      "stateMutability": "view",
      "type": "function"
    },
    {
      "inputs": [
        {
          "internalType": "address",
          "name": "user",
          "type": "address"
        }
      ],
      "name": "hasUserReferee",
      "outputs": [
        {
          "internalType": "bool",
          "name": "",
          "type": "bool"
        }
      ],
      "stateMutability": "view",
      "type": "function"
    },
    {
      "inputs": [],
      "name": "owner",
      "outputs": [
        {
          "internalType": "address",
          "name": "",
          "type": "address"
        }
      ],
      "stateMutability": "view",
      "type": "function"
    },
    {
      "inputs": [],
      "name": "pause",
      "outputs": [],
      "stateMutability": "nonpayable",
      "type": "function"
    },
    {
      "inputs": [],
      "name": "paused",
      "outputs": [
        {
          "internalType": "bool",
          "name": "",
          "type": "bool"
        }
      ],
      "stateMutability": "view",
      "type": "function"
    },
    {
      "inputs": [],
      "name": "referralRegistry",
      "outputs": [
        {
          "internalType": "contract IReferralRegistry",
          "name": "",
          "type": "address"
        }
      ],
      "stateMutability": "view",
      "type": "function"
    },
    {
      "inputs": [],
      "name": "referralRewardRate",
      "outputs": [
        {
          "internalType": "uint16",
          "name": "",
          "type": "uint16"
        }
      ],
      "stateMutability": "view",
      "type": "function"
    },
    {
      "inputs": [],
      "name": "referralsActivated",
      "outputs": [
        {
          "internalType": "bool",
          "name": "",
          "type": "bool"
        }
      ],
      "stateMutability": "view",
      "type": "function"
    },
    {
      "inputs": [
        {
          "internalType": "address",
          "name": "_factory",
          "type": "address"
        },
        {
          "internalType": "bytes",
          "name": "_initCode",
          "type": "bytes"
        }
      ],
      "name": "registerFork",
      "outputs": [],
      "stateMutability": "nonpayable",
      "type": "function"
    },
    {
      "inputs": [],
      "name": "renounceOwnership",
      "outputs": [],
      "stateMutability": "nonpayable",
      "type": "function"
    },
    {
      "inputs": [],
      "name": "saveYourAssetsToken",
      "outputs": [
        {
          "internalType": "contract IERC20",
          "name": "",
          "type": "address"
        }
      ],
      "stateMutability": "view",
      "type": "function"
    },
    {
      "inputs": [
        {
          "internalType": "address",
          "name": "fork",
          "type": "address"
        },
        {
          "internalType": "uint256",
          "name": "amountOut",
          "type": "uint256"
        },
        {
          "internalType": "address[]",
          "name": "path",
          "type": "address[]"
        },
        {
          "internalType": "address",
          "name": "referee",
          "type": "address"
        }
      ],
      "name": "swapETHForExactTokens",
      "outputs": [
        {
          "internalType": "uint256[]",
          "name": "amounts",
          "type": "uint256[]"
        }
      ],
      "stateMutability": "payable",
      "type": "function"
    },
    {
      "inputs": [
        {
          "internalType": "address",
          "name": "fork",
          "type": "address"
        },
        {
          "internalType": "uint256",
          "name": "amountOutMin",
          "type": "uint256"
        },
        {
          "internalType": "address[]",
          "name": "path",
          "type": "address[]"
        },
        {
          "internalType": "address",
          "name": "referee",
          "type": "address"
        }
      ],
      "name": "swapExactETHForTokens",
      "outputs": [
        {
          "internalType": "uint256[]",
          "name": "amounts",
          "type": "uint256[]"
        }
      ],
      "stateMutability": "payable",
      "type": "function"
    },
    {
      "inputs": [
        {
          "internalType": "address",
          "name": "fork",
          "type": "address"
        },
        {
          "internalType": "uint256",
          "name": "amountOutMin",
          "type": "uint256"
        },
        {
          "internalType": "address[]",
          "name": "path",
          "type": "address[]"
        },
        {
          "internalType": "address",
          "name": "referee",
          "type": "address"
        }
      ],
      "name": "swapExactETHForTokensSupportingFeeOnTransferTokens",
      "outputs": [],
      "stateMutability": "payable",
      "type": "function"
    },
    {
      "inputs": [
        {
          "internalType": "address",
          "name": "fork",
          "type": "address"
        },
        {
          "internalType": "uint256",
          "name": "amountIn",
          "type": "uint256"
        },
        {
          "internalType": "uint256",
          "name": "amountOutMin",
          "type": "uint256"
        },
        {
          "internalType": "address[]",
          "name": "path",
          "type": "address[]"
        },
        {
          "internalType": "address",
          "name": "referee",
          "type": "address"
        }
      ],
      "name": "swapExactTokensForETH",
      "outputs": [
        {
          "internalType": "uint256[]",
          "name": "amounts",
          "type": "uint256[]"
        }
      ],
      "stateMutability": "nonpayable",
      "type": "function"
    },
    {
      "inputs": [
        {
          "internalType": "address",
          "name": "fork",
          "type": "address"
        },
        {
          "internalType": "uint256",
          "name": "amountIn",
          "type": "uint256"
        },
        {
          "internalType": "uint256",
          "name": "amountOutMin",
          "type": "uint256"
        },
        {
          "internalType": "address[]",
          "name": "path",
          "type": "address[]"
        },
        {
          "internalType": "address",
          "name": "referee",
          "type": "address"
        }
      ],
      "name": "swapExactTokensForETHSupportingFeeOnTransferTokens",
      "outputs": [],
      "stateMutability": "nonpayable",
      "type": "function"
    },
    {
      "inputs": [
        {
          "internalType": "address",
          "name": "fork",
          "type": "address"
        },
        {
          "internalType": "uint256",
          "name": "amountIn",
          "type": "uint256"
        },
        {
          "internalType": "uint256",
          "name": "amountOutMin",
          "type": "uint256"
        },
        {
          "internalType": "address[]",
          "name": "path",
          "type": "address[]"
        },
        {
          "internalType": "address",
          "name": "referee",
          "type": "address"
        }
      ],
      "name": "swapExactTokensForTokensSupportingFeeOnTransferTokens",
      "outputs": [],
      "stateMutability": "nonpayable",
      "type": "function"
    },
    {
      "inputs": [],
      "name": "swapFee",
      "outputs": [
        {
          "internalType": "uint16",
          "name": "",
          "type": "uint16"
        }
      ],
      "stateMutability": "view",
      "type": "function"
    },
    {
      "inputs": [
        {
          "internalType": "address",
          "name": "fork",
          "type": "address"
        },
        {
          "internalType": "uint256",
          "name": "amountOut",
          "type": "uint256"
        },
        {
          "internalType": "uint256",
          "name": "amountInMax",
          "type": "uint256"
        },
        {
          "internalType": "address[]",
          "name": "path",
          "type": "address[]"
        },
        {
          "internalType": "address",
          "name": "referee",
          "type": "address"
        }
      ],
      "name": "swapTokensForExactETH",
      "outputs": [
        {
          "internalType": "uint256[]",
          "name": "amounts",
          "type": "uint256[]"
        }
      ],
      "stateMutability": "nonpayable",
      "type": "function"
    },
    {
      "inputs": [
        {
          "internalType": "address",
          "name": "newOwner",
          "type": "address"
        }
      ],
      "name": "transferOwnership",
      "outputs": [],
      "stateMutability": "nonpayable",
      "type": "function"
    },
    {
      "inputs": [],
      "name": "unpause",
      "outputs": [],
      "stateMutability": "nonpayable",
      "type": "function"
    },
    {
      "inputs": [
        {
          "internalType": "uint256",
          "name": "newBalanceThreshold",
          "type": "uint256"
        }
      ],
      "name": "updateBalanceThreshold",
      "outputs": [],
      "stateMutability": "nonpayable",
      "type": "function"
    },
    {
      "inputs": [
        {
          "internalType": "address",
          "name": "account",
          "type": "address"
        },
        {
          "internalType": "uint16",
          "name": "referralRate",
          "type": "uint16"
        }
      ],
      "name": "updateCustomReferralRewardRate",
      "outputs": [
        {
          "internalType": "uint256",
          "name": "",
          "type": "uint256"
        }
      ],
      "stateMutability": "nonpayable",
      "type": "function"
    },
    {
      "inputs": [
        {
          "internalType": "address payable",
          "name": "newFeeReceiver",
          "type": "address"
        }
      ],
      "name": "updateFeeReceiver",
      "outputs": [],
      "stateMutability": "nonpayable",
      "type": "function"
    },
    {
      "inputs": [
        {
          "internalType": "address",
          "name": "_factory",
          "type": "address"
        },
        {
          "internalType": "bytes",
          "name": "_initCode",
          "type": "bytes"
        },
        {
          "internalType": "bool",
          "name": "_activated",
          "type": "bool"
        }
      ],
      "name": "updateFork",
      "outputs": [],
      "stateMutability": "nonpayable",
      "type": "function"
    },
    {
      "inputs": [
        {
          "internalType": "address",
          "name": "newReferralRegistry",
          "type": "address"
        }
      ],
      "name": "updateReferralRegistry",
      "outputs": [],
      "stateMutability": "nonpayable",
      "type": "function"
    },
    {
      "inputs": [
        {
          "internalType": "uint16",
          "name": "newReferralRewardRate",
          "type": "uint16"
        }
      ],
      "name": "updateReferralRewardRate",
      "outputs": [],
      "stateMutability": "nonpayable",
      "type": "function"
    },
    {
      "inputs": [
        {
          "internalType": "bool",
          "name": "newReferralsActivated",
          "type": "bool"
        }
      ],
      "name": "updateReferralsActivated",
      "outputs": [],
      "stateMutability": "nonpayable",
      "type": "function"
    },
    {
      "inputs": [
        {
          "internalType": "uint16",
          "name": "newSwapFee",
          "type": "uint16"
        }
      ],
      "name": "updateSwapFee",
      "outputs": [],
      "stateMutability": "nonpayable",
      "type": "function"
    },
    {
      "inputs": [
        {
          "internalType": "address",
          "name": "_account",
          "type": "address"
        }
      ],
      "name": "userAboveBalanceThreshold",
      "outputs": [
        {
          "internalType": "bool",
          "name": "",
          "type": "bool"
        }
      ],
      "stateMutability": "view",
      "type": "function"
    },
    {
      "inputs": [
        {
          "internalType": "address",
          "name": "token",
          "type": "address"
        },
        {
          "internalType": "address",
          "name": "to",
          "type": "address"
        },
        {
          "internalType": "uint256",
          "name": "amount",
          "type": "uint256"
        }
      ],
      "name": "withdrawERC20Token",
      "outputs": [],
      "stateMutability": "nonpayable",
      "type": "function"
    },
    {
      "inputs": [
        {
          "internalType": "address payable",
          "name": "to",
          "type": "address"
        },
        {
          "internalType": "uint256",
          "name": "amount",
          "type": "uint256"
        }
      ],
      "name": "withdrawETH",
      "outputs": [],
      "stateMutability": "nonpayable",
      "type": "function"
    },
    {
      "inputs": [],
      "name": "zeroEx",
      "outputs": [
        {
          "internalType": "address payable",
          "name": "",
          "type": "address"
        }
      ],
      "stateMutability": "view",
      "type": "function"
    },
    {
      "stateMutability": "payable",
      "type": "receive"
    }
  ],
  "transactionHash": "0x41a2137dd170f9d21aa1e7a5c310a25fb1edd28b92157169ecd4d6d5e6518afa",
  "args": [
    "0xbb4cdb9cbd36b01bd1cbaebf2de08d9173bc095c",
    50,
    1000,
    "0x067002853C4Edf4016A476fD5dB9b8Ae3890F9d8",
    "5000000000000000000",
    "0x83A86adf1a7c56e77d36d585B808052e0a2aAD0e",
    "0x9c9E1430F19c603BeB8e118F32f2fB25Da027576",
    "0xdef1c0ded9bec7f1a1670819833240f027b25eff"
  ],
  "solcInputHash": "dcabbc1a28647d783f20c45da224565a",
  "bytecode": "0x60c06040523480156200001157600080fd5b5060405162005d2838038062005d2883398181016040526101008110156200003857600080fd5b508051602082015160408301516060840151608085015160a086015160c087015160e0909701519596949593949293919290916000620000806001600160e01b036200017716565b600080546001600160a01b0319166001600160a01b0383169081178255604051929350917f8be0079c531659141344cd1fd0a4f28419497f9722a3daafe3b4186f6b6457e0908290a350600080546060998a1b6001600160601b031990811660805262ffffff60a01b19909116600160a81b61ffff9a8b16021790915560048054600280546001600160a01b03199081166001600160a01b0398891617909155600397909755600180548816958716959095179094559190981b90971660a052600160b01b61ffff60a01b19909116600160a01b9590961694909402949094171692169190911760ff60b01b19161790556200017b565b3390565b60805160601c60a05160601c615b29620001ff600039806103525280611c2b5280613c305250806113ae52806115e0528061183f5280611a1e52806123355280612898528061294a52806129be5280612d435280612e8b5280612f13528061315d52806132a8528061333052806135bb5280613706528061379d5250615b296000f3fe6080604052600436106102755760003560e01c806393228dda11610149578063d113efc4116100c6578063e5ae0c321161008a578063f2fde38b11610064578063f2fde38b14610f90578063fe1b194e14610fc3578063fe4ad4461461104c5761027c565b8063e5ae0c3214610f03578063e94265c414610f31578063e96b2f5014610f645761027c565b8063d113efc414610d03578063d73792a914610d36578063d758bcc614610d4b578063db12c8e714610dd7578063e229357114610e635761027c565b8063c31737741161010d578063c317377414610bd7578063c69bebe414610bec578063caa9b5cb14610c1f578063cacb6d4314610c4d578063cd68561814610c775761027c565b806393228dda14610a80578063ad5c464814610a95578063b3f0067414610aaa578063bdf7710814610abf578063c00a315914610b4a5761027c565b806352ab413b116101f2578063692247c3116101b65780638456cb59116101905780638456cb5914610a235780638da5cb5b14610a38578063927e897a14610a4d5761027c565b8063692247c31461099e578063715018a6146109db5780637cde0c74146109f05761027c565b806352ab413b1461086557806354cf2aeb1461087a57806357d1b31b146108a65780635c975abb146108e95780636553b712146108fe5761027c565b80633f4ba83a116102395780633f4ba83a1461069e5780633f4e48bb146106b35780634782f779146107535780634e627e621461078c5780634fb5df08146107bd5761027c565b8063060f58c3146104d8578063279f32911461051d5780632def48b1146105465780632f9120051461057b57806337166709146105ae5761027c565b3661027c57005b61028533611061565b6102d6576040805162461bcd60e51b815260206004820152601660248201527f466c6f6f7a526f757465723a20464f5242494444454e00000000000000000000604482015290519081900360640190fd5b6000610322600080368080601f016020809104026020016040519081016040528093929190818152602001838380828437600092019190915250929392505063ffffffff6110ea169050565b60408051634b97ee9360e11b81526001600160e01b03198316600482015290519192506000916001600160a01b037f0000000000000000000000000000000000000000000000000000000000000000169163972fdd2691602480830192602092919082900301818787803b15801561039957600080fd5b505af11580156103ad573d6000803e3d6000fd5b505050506040513d60208110156103c357600080fd5b505190506001600160a01b038116610422576040805162461bcd60e51b815260206004820152601e60248201527f466c6f6f7a526f757465723a204e4f5f494d504c454d454e544154494f4e0000604482015290519081900360640190fd5b6000816001600160a01b03166000366040518083838082843760405192019450600093509091505080830381855af49150503d8060008114610480576040519150601f19603f3d011682016040523d82523d6000602084013e610485565b606091505b50509050806104d3576040805162461bcd60e51b8152602060048201526015602482015274119b1bdbde949bdd5d195c8e881491559154951151605a1b604482015290519081900360640190fd5b505050005b3480156104e457600080fd5b5061050b600480360360208110156104fb57600080fd5b50356001600160a01b031661112d565b60408051918252519081900360200190f35b34801561052957600080fd5b506105326111d0565b604080519115158252519081900360200190f35b34801561055257600080fd5b506105796004803603602081101561056957600080fd5b50356001600160a01b03166111e0565b005b34801561058757600080fd5b506105326004803603602081101561059e57600080fd5b50356001600160a01b0316611296565b3480156105ba57600080fd5b5061064e600480360360a08110156105d157600080fd5b6001600160a01b038235169160208101359160408201359190810190608081016060820135600160201b81111561060757600080fd5b82018360208201111561061957600080fd5b803590602001918460208302840111600160201b8311171561063a57600080fd5b9193509150356001600160a01b03166112ab565b60408051602080825283518183015283519192839290830191858101910280838360005b8381101561068a578181015183820152602001610672565b505050509050019250505060405180910390f35b3480156106aa57600080fd5b506105796116d0565b3480156106bf57600080fd5b5061064e600480360360a08110156106d657600080fd5b6001600160a01b038235169160208101359160408201359190810190608081016060820135600160201b81111561070c57600080fd5b82018360208201111561071e57600080fd5b803590602001918460208302840111600160201b8311171561073f57600080fd5b9193509150356001600160a01b031661173c565b34801561075f57600080fd5b506105796004803603604081101561077657600080fd5b506001600160a01b038135169060200135611b0f565b34801561079857600080fd5b506107a1611b7f565b604080516001600160a01b039092168252519081900360200190f35b3480156107c957600080fd5b506107f0600480360360208110156107e057600080fd5b50356001600160a01b0316611b8e565b6040805160208082528351818301528351919283929083019185019080838360005b8381101561082a578181015183820152602001610812565b50505050905090810190601f1680156108575780820380516001836020036101000a031916815260200191505b509250505060405180910390f35b34801561087157600080fd5b506107a1611c29565b34801561088657600080fd5b5061088f611c4d565b6040805161ffff9092168252519081900360200190f35b3480156108b257600080fd5b50610579600480360360608110156108c957600080fd5b506001600160a01b03813581169160208101359091169060400135611c5e565b3480156108f557600080fd5b50610532611cd0565b34801561090a57600080fd5b50610579600480360360a081101561092157600080fd5b6001600160a01b038235169160208101359160408201359190810190608081016060820135600160201b81111561095757600080fd5b82018360208201111561096957600080fd5b803590602001918460208302840111600160201b8311171561098a57600080fd5b9193509150356001600160a01b0316611ce1565b3480156109aa57600080fd5b5061050b600480360360408110156109c157600080fd5b5080356001600160a01b0316906020013561ffff16612042565b3480156109e757600080fd5b50610579612166565b3480156109fc57600080fd5b5061088f60048036036020811015610a1357600080fd5b50356001600160a01b0316612212565b348015610a2f57600080fd5b50610579612228565b348015610a4457600080fd5b506107a1612292565b348015610a5957600080fd5b5061053260048036036020811015610a7057600080fd5b50356001600160a01b03166122a1565b348015610a8c57600080fd5b506107a1612324565b348015610aa157600080fd5b506107a1612333565b348015610ab657600080fd5b506107a1612357565b348015610acb57600080fd5b5061057960048036036040811015610ae257600080fd5b6001600160a01b038235169190810190604081016020820135600160201b811115610b0c57600080fd5b820183602082011115610b1e57600080fd5b803590602001918460018302840111600160201b83111715610b3f57600080fd5b509092509050612366565b348015610b5657600080fd5b5061057960048036036060811015610b6d57600080fd5b6001600160a01b038235169190810190604081016020820135600160201b811115610b9757600080fd5b820183602082011115610ba957600080fd5b803590602001918460018302840111600160201b83111715610bca57600080fd5b91935091503515156124b0565b348015610be357600080fd5b5061050b61258e565b348015610bf857600080fd5b5061057960048036036020811015610c0f57600080fd5b50356001600160a01b0316612594565b348015610c2b57600080fd5b5061057960048036036020811015610c4257600080fd5b503561ffff1661264a565b348015610c5957600080fd5b5061057960048036036020811015610c7057600080fd5b5035612702565b61057960048036036080811015610c8d57600080fd5b6001600160a01b0382351691602081013591810190606081016040820135600160201b811115610cbc57600080fd5b820183602082011115610cce57600080fd5b803590602001918460208302840111600160201b83111715610cef57600080fd5b9193509150356001600160a01b031661279f565b348015610d0f57600080fd5b506107a160048036036020811015610d2657600080fd5b50356001600160a01b0316612bf1565b348015610d4257600080fd5b5061050b612c42565b61064e60048036036080811015610d6157600080fd5b6001600160a01b0382351691602081013591810190606081016040820135600160201b811115610d9057600080fd5b820183602082011115610da257600080fd5b803590602001918460208302840111600160201b83111715610dc357600080fd5b9193509150356001600160a01b0316612c48565b61064e60048036036080811015610ded57600080fd5b6001600160a01b0382351691602081013591810190606081016040820135600160201b811115610e1c57600080fd5b820183602082011115610e2e57600080fd5b803590602001918460208302840111600160201b83111715610e4f57600080fd5b9193509150356001600160a01b0316613062565b348015610e6f57600080fd5b50610579600480360360a0811015610e8657600080fd5b6001600160a01b038235169160208101359160408201359190810190608081016060820135600160201b811115610ebc57600080fd5b820183602082011115610ece57600080fd5b803590602001918460208302840111600160201b83111715610eef57600080fd5b9193509150356001600160a01b03166134ba565b348015610f0f57600080fd5b5061057960048036036020811015610f2657600080fd5b503561ffff166138a0565b348015610f3d57600080fd5b5061053260048036036020811015610f5457600080fd5b50356001600160a01b0316611061565b348015610f7057600080fd5b5061057960048036036020811015610f8757600080fd5b50351515613958565b348015610f9c57600080fd5b5061057960048036036020811015610fb357600080fd5b50356001600160a01b0316613a0d565b61057960048036036080811015610fd957600080fd5b810190602081018135600160201b811115610ff357600080fd5b82018360208201111561100557600080fd5b803590602001918460018302840111600160201b8311171561102657600080fd5b91935091506001600160a01b038135811691602081013582169160409091013516613b0f565b34801561105857600080fd5b5061088f614166565b600354600254604080516370a0823160e01b81526001600160a01b03858116600483015291516000949392909216916370a0823191602480820192602092909190829003018186803b1580156110b657600080fd5b505afa1580156110ca573d6000803e3d6000fd5b505050506040513d60208110156110e057600080fd5b5051101592915050565b600081600401835110156111105761111061110b6003855185600401614177565b6141ec565b5060208183018101519101906001600160e01b0319165b92915050565b600354600254604080516370a0823160e01b81526001600160a01b03858116600483015291516000949392909216916370a0823191602480820192602092909190829003018186803b15801561118257600080fd5b505afa158015611196573d6000803e3d6000fd5b505050506040513d60208110156111ac57600080fd5b505110156111c757600054600160a81b900461ffff166111ca565b60005b50919050565b600454600160b01b900460ff1681565b6111e86141f4565b6001600160a01b03166111f9612292565b6001600160a01b031614611242576040805162461bcd60e51b81526020600482018190526024820152600080516020615a2a833981519152604482015290519081900360640190fd5b600180546001600160a01b0383166001600160a01b0319909116811790915560408051918252517f9d4414af8d61d821c1ad25f0aadfa28aa386c452716a31fc1f7fdbd9b9d364dc9181900360200190a150565b60066020526000908152604090205460ff1681565b60606112b5611cd0565b156112fa576040805162461bcd60e51b815260206004820152601060248201526f14185d5cd8589b194e881c185d5cd95960821b604482015290519081900360640190fd5b6001600160a01b038716600090815260066020526040902054879060ff16611357576040805162461bcd60e51b815260206004820152601c6024820152600080516020615ab0833981519152604482015290519081900360640190fd5b82336001600160a01b03821614156113a4576040805162461bcd60e51b815260206004820152601a60248201526000805160206159c6833981519152604482015290519081900360640190fd5b6001600160a01b037f000000000000000000000000000000000000000000000000000000000000000016868660001981018181106113de57fe5b905060200201356001600160a01b03166001600160a01b031614611437576040805162461bcd60e51b81526020600482015260196024820152600080516020615a6d833981519152604482015290519081900360640190fd5b611440846141f8565b93506000806114518a87600161437a565b90935091506114b590508b61147c836114708e8763ffffffff6144e516565b9063ffffffff6144e516565b8a8a8080602002602001604051908101604052809392919081815260200183836020028082843760009201919091525061454692505050565b9450886114e38261147085896000815181106114cd57fe5b60200260200101516144e590919063ffffffff16565b11156115205760405162461bcd60e51b81526004018080602001828103825260238152602001806159a36023913960400191505060405180910390fd5b61159e8888600081811061153057fe5b905060200201356001600160a01b0316336115848e8c8c600081811061155257fe5b905060200201356001600160a01b03168d8d600181811061156f57fe5b905060200201356001600160a01b0316614681565b8860008151811061159157fe5b60200260200101516147e2565b6115de8b868a8a8080602002602001604051908101604052809392919081815260200183836020028082843760009201919091525030925061493f915050565b7f00000000000000000000000000000000000000000000000000000000000000006001600160a01b0316632e1a7d4d8660018851038151811061161d57fe5b60200260200101516040518263ffffffff1660e01b815260040180828152602001915050600060405180830381600087803b15801561165b57600080fd5b505af115801561166f573d6000803e3d6000fd5b5050505061167d338b614b46565b600061168f838363ffffffff6144e516565b11156116c2576116c26000898960001981018181106116aa57fe5b905060200201356001600160a01b0316888585614c39565b505050509695505050505050565b6116d86141f4565b6001600160a01b03166116e9612292565b6001600160a01b031614611732576040805162461bcd60e51b81526020600482018190526024820152600080516020615a2a833981519152604482015290519081900360640190fd5b61173a614d50565b565b6060611746611cd0565b1561178b576040805162461bcd60e51b815260206004820152601060248201526f14185d5cd8589b194e881c185d5cd95960821b604482015290519081900360640190fd5b6001600160a01b038716600090815260066020526040902054879060ff166117e8576040805162461bcd60e51b815260206004820152601c6024820152600080516020615ab0833981519152604482015290519081900360640190fd5b82336001600160a01b0382161415611835576040805162461bcd60e51b815260206004820152601a60248201526000805160206159c6833981519152604482015290519081900360640190fd5b6001600160a01b037f0000000000000000000000000000000000000000000000000000000000000000168686600019810181811061186f57fe5b905060200201356001600160a01b03166001600160a01b0316146118c8576040805162461bcd60e51b81526020600482015260196024820152600080516020615a6d833981519152604482015290519081900360640190fd5b6118d1846141f8565b93506119118989888880806020026020016040519081016040528093929190818152602001838360200280828437600092019190915250614dfc92505050565b9250600080600061193b8660018851038151811061192b57fe5b602002602001015188600061437a565b925092509250898310156119805760405162461bcd60e51b815260040180806020018281038252602781526020018061597c6027913960400191505060405180910390fd5b6119dc8989600081811061199057fe5b905060200201356001600160a01b0316336119cf8f8d8d60008181106119b257fe5b905060200201356001600160a01b03168e8e600181811061156f57fe5b8960008151811061159157fe5b611a1c8c878b8b8080602002602001604051908101604052809392919081815260200183836020028082843760009201919091525030925061493f915050565b7f00000000000000000000000000000000000000000000000000000000000000006001600160a01b0316632e1a7d4d87600189510381518110611a5b57fe5b60200260200101516040518263ffffffff1660e01b815260040180828152602001915050600060405180830381600087803b158015611a9957600080fd5b505af1158015611aad573d6000803e3d6000fd5b50505050611abb3384614b46565b6000611acd838363ffffffff6144e516565b1115611b0057611b0060008a8a6000198101818110611ae857fe5b905060200201356001600160a01b0316898585614c39565b50505050509695505050505050565b611b176141f4565b6001600160a01b0316611b28612292565b6001600160a01b031614611b71576040805162461bcd60e51b81526020600482018190526024820152600080516020615a2a833981519152604482015290519081900360640190fd5b611b7b8282614b46565b5050565b6001546001600160a01b031681565b60076020908152600091825260409182902080548351601f600260001961010060018616150201909316929092049182018490048402810184019094528084529091830182828015611c215780601f10611bf657610100808354040283529160200191611c21565b820191906000526020600020905b815481529060010190602001808311611c0457829003601f168201915b505050505081565b7f000000000000000000000000000000000000000000000000000000000000000081565b600054600160a81b900461ffff1681565b611c666141f4565b6001600160a01b0316611c77612292565b6001600160a01b031614611cc0576040805162461bcd60e51b81526020600482018190526024820152600080516020615a2a833981519152604482015290519081900360640190fd5b611ccb838383614f21565b505050565b600054600160a01b900460ff165b90565b611ce9611cd0565b15611d2e576040805162461bcd60e51b815260206004820152601060248201526f14185d5cd8589b194e881c185d5cd95960821b604482015290519081900360640190fd5b6001600160a01b038616600090815260066020526040902054869060ff16611d8b576040805162461bcd60e51b815260206004820152601c6024820152600080516020615ab0833981519152604482015290519081900360640190fd5b81336001600160a01b0382161415611dd8576040805162461bcd60e51b815260206004820152601a60248201526000805160206159c6833981519152604482015290519081900360640190fd5b611de1836141f8565b92506000806000611df48a87600061437a565b925092509250611e3288886000818110611e0a57fe5b905060200201356001600160a01b031633611e2c8e8c8c600081811061155257fe5b866147e2565b600088886000198101818110611e4457fe5b604080516370a0823160e01b81523360048201529051602092830294909401356001600160a01b0316936370a08231935060248083019392829003018186803b158015611e9057600080fd5b505afa158015611ea4573d6000803e3d6000fd5b505050506040513d6020811015611eba57600080fd5b50516040805160208b810282810182019093528b8252929350611efc928f928d918d918291850190849080828437600092019190915250339250615084915050565b89611f95828b8b6000198101818110611f1157fe5b604080516370a0823160e01b81523360048201529051602092830294909401356001600160a01b0316936370a08231935060248083019392829003018186803b158015611f5d57600080fd5b505afa158015611f71573d6000803e3d6000fd5b505050506040513d6020811015611f8757600080fd5b50519063ffffffff61535c16565b1015611fd25760405162461bcd60e51b815260040180806020018281038252602781526020018061597c6027913960400191505060405180910390fd5b6000611fe4848463ffffffff6144e516565b11156120345761203489896000818110611ffa57fe5b905060200201356001600160a01b03168a8a60018d8d90500381811061201c57fe5b905060200201356001600160a01b0316898686614c39565b505050505050505050505050565b600061204c6141f4565b6001600160a01b031661205d612292565b6001600160a01b0316146120a6576040805162461bcd60e51b81526020600482018190526024820152600080516020615a2a833981519152604482015290519081900360640190fd5b6127108261ffff161115612101576040805162461bcd60e51b815260206004820152601960248201527f466c6f6f7a526f757465723a20494e56414c49445f5241544500000000000000604482015290519081900360640190fd5b6001600160a01b038316600081815260056020908152604091829020805461ffff191661ffff8716908117909155825190815291517f9b182573c5f49d27d10ab506c71acd90f3b44f15c35eb906f9a40d9c35412e419281900390910190a292915050565b61216e6141f4565b6001600160a01b031661217f612292565b6001600160a01b0316146121c8576040805162461bcd60e51b81526020600482018190526024820152600080516020615a2a833981519152604482015290519081900360640190fd5b600080546040516001600160a01b03909116907f8be0079c531659141344cd1fd0a4f28419497f9722a3daafe3b4186f6b6457e0908390a3600080546001600160a01b0319169055565b60056020526000908152604090205461ffff1681565b6122306141f4565b6001600160a01b0316612241612292565b6001600160a01b03161461228a576040805162461bcd60e51b81526020600482018190526024820152600080516020615a2a833981519152604482015290519081900360640190fd5b61173a6153b9565b6000546001600160a01b031690565b6001546040805163493f44bd60e11b81526001600160a01b0384811660048301529151600093929092169163927e897a91602480820192602092909190829003018186803b1580156122f257600080fd5b505afa158015612306573d6000803e3d6000fd5b505050506040513d602081101561231c57600080fd5b505192915050565b6002546001600160a01b031681565b7f000000000000000000000000000000000000000000000000000000000000000081565b6004546001600160a01b031681565b61236e6141f4565b6001600160a01b031661237f612292565b6001600160a01b0316146123c8576040805162461bcd60e51b81526020600482018190526024820152600080516020615a2a833981519152604482015290519081900360640190fd5b6001600160a01b03831660009081526006602052604090205460ff1615612436576040805162461bcd60e51b815260206004820152601860248201527f466c6f6f7a526f757465723a204143544956455f464f524b0000000000000000604482015290519081900360640190fd5b6001600160a01b0383166000908152600660209081526040808320805460ff191660011790556007909152902061246e908383615897565b50604080516001600160a01b038516815290517f18191c6cb9d1bb0cd78a863c5efffb51200f41513b93a678d368156b26d7cc949181900360200190a1505050565b6124b86141f4565b6001600160a01b03166124c9612292565b6001600160a01b031614612512576040805162461bcd60e51b81526020600482018190526024820152600080516020615a2a833981519152604482015290519081900360640190fd5b6001600160a01b0384166000908152600660209081526040808320805460ff19168515151790556007909152902061254b908484615897565b50604080516001600160a01b038616815290517fd3e17274581b648825e308eb9fca7b795aa9ca651ee0953b1f66dd35cbc099789181900360200190a150505050565b60035481565b61259c6141f4565b6001600160a01b03166125ad612292565b6001600160a01b0316146125f6576040805162461bcd60e51b81526020600482018190526024820152600080516020615a2a833981519152604482015290519081900360640190fd5b600480546001600160a01b0383166001600160a01b0319909116811790915560408051918252517f27aae5db36d94179909d019ae0b1ac7c16d96d953148f63c0f6a0a9c8ead79ee9181900360200190a150565b6126526141f4565b6001600160a01b0316612663612292565b6001600160a01b0316146126ac576040805162461bcd60e51b81526020600482018190526024820152600080516020615a2a833981519152604482015290519081900360640190fd5b6000805461ffff8316600160a81b810261ffff60a81b199092169190911790915560408051918252517fc8d25ca8616825eb60e022dde2d5ec038bdac6dd1bd8bba3fb5f74de553d06289181900360200190a150565b61270a6141f4565b6001600160a01b031661271b612292565b6001600160a01b031614612764576040805162461bcd60e51b81526020600482018190526024820152600080516020615a2a833981519152604482015290519081900360640190fd5b60038190556040805182815290517fc86ab5ae638c0e95d21e0d47f77aa3a65ded219f7b70bc6ea894107f437d56369181900360200190a150565b6127a7611cd0565b156127ec576040805162461bcd60e51b815260206004820152601060248201526f14185d5cd8589b194e881c185d5cd95960821b604482015290519081900360640190fd5b6001600160a01b038516600090815260066020526040902054859060ff16612849576040805162461bcd60e51b815260206004820152601c6024820152600080516020615ab0833981519152604482015290519081900360640190fd5b81336001600160a01b0382161415612896576040805162461bcd60e51b815260206004820152601a60248201526000805160206159c6833981519152604482015290519081900360640190fd5b7f00000000000000000000000000000000000000000000000000000000000000006001600160a01b0316858560008181106128cd57fe5b905060200201356001600160a01b03166001600160a01b031614612926576040805162461bcd60e51b81526020600482015260196024820152600080516020615a6d833981519152604482015290519081900360640190fd5b61292f836141f8565b925060008060006129423487600061437a565b9250925092507f00000000000000000000000000000000000000000000000000000000000000006001600160a01b031663d0e30db0846040518263ffffffff1660e01b81526004016000604051808303818588803b1580156129a357600080fd5b505af11580156129b7573d6000803e3d6000fd5b50505050507f00000000000000000000000000000000000000000000000000000000000000006001600160a01b031663a9059cbb612a198c8b8b60008181106129fc57fe5b905060200201356001600160a01b03168c8c600181811061156f57fe5b856040518363ffffffff1660e01b815260040180836001600160a01b03166001600160a01b0316815260200182815260200192505050602060405180830381600087803b158015612a6957600080fd5b505af1158015612a7d573d6000803e3d6000fd5b505050506040513d6020811015612a9357600080fd5b5051612a9b57fe5b600088886000198101818110612aad57fe5b604080516370a0823160e01b81523360048201529051602092830294909401356001600160a01b0316936370a08231935060248083019392829003018186803b158015612af957600080fd5b505afa158015612b0d573d6000803e3d6000fd5b505050506040513d6020811015612b2357600080fd5b50516040805160208b810282810182019093528b8252929350612b65928e928d918d918291850190849080828437600092019190915250339250615084915050565b89612b7a828b8b6000198101818110611f1157fe5b1015612bb75760405162461bcd60e51b815260040180806020018281038252602781526020018061597c6027913960400191505060405180910390fd5b6000612bc9848463ffffffff6144e516565b1115612be457612be460008a8a600019810181811061201c57fe5b5050505050505050505050565b60015460408051633444fbf160e21b81526001600160a01b0384811660048301529151600093929092169163d113efc491602480820192602092909190829003018186803b1580156122f257600080fd5b61271081565b6060612c52611cd0565b15612c97576040805162461bcd60e51b815260206004820152601060248201526f14185d5cd8589b194e881c185d5cd95960821b604482015290519081900360640190fd5b6001600160a01b038616600090815260066020526040902054869060ff16612cf4576040805162461bcd60e51b815260206004820152601c6024820152600080516020615ab0833981519152604482015290519081900360640190fd5b82336001600160a01b0382161415612d41576040805162461bcd60e51b815260206004820152601a60248201526000805160206159c6833981519152604482015290519081900360640190fd5b7f00000000000000000000000000000000000000000000000000000000000000006001600160a01b031686866000818110612d7857fe5b905060200201356001600160a01b03166001600160a01b031614612dd1576040805162461bcd60e51b81526020600482015260196024820152600080516020615a6d833981519152604482015290519081900360640190fd5b612dda846141f8565b93506000806000612ded3488600061437a565b925092509250612e318b848b8b80806020026020016040519081016040528093929190818152602001838360200280828437600092019190915250614dfc92505050565b95508986600188510381518110612e4457fe5b60200260200101511015612e895760405162461bcd60e51b815260040180806020018281038252602781526020018061597c6027913960400191505060405180910390fd5b7f00000000000000000000000000000000000000000000000000000000000000006001600160a01b031663d0e30db087600081518110612ec557fe5b60200260200101516040518263ffffffff1660e01b81526004016000604051808303818588803b158015612ef857600080fd5b505af1158015612f0c573d6000803e3d6000fd5b50505050507f00000000000000000000000000000000000000000000000000000000000000006001600160a01b031663a9059cbb612f518d8c8c600081811061155257fe5b88600081518110612f5e57fe5b60200260200101516040518363ffffffff1660e01b815260040180836001600160a01b03166001600160a01b0316815260200182815260200192505050602060405180830381600087803b158015612fb557600080fd5b505af1158015612fc9573d6000803e3d6000fd5b505050506040513d6020811015612fdf57600080fd5b5051612fe757fe5b6130278b878b8b8080602002602001604051908101604052809392919081815260200183836020028082843760009201919091525033925061493f915050565b6000613039838363ffffffff6144e516565b11156130545761305460008a8a6000198101818110611ae857fe5b505050505095945050505050565b606061306c611cd0565b156130b1576040805162461bcd60e51b815260206004820152601060248201526f14185d5cd8589b194e881c185d5cd95960821b604482015290519081900360640190fd5b6001600160a01b038616600090815260066020526040902054869060ff1661310e576040805162461bcd60e51b815260206004820152601c6024820152600080516020615ab0833981519152604482015290519081900360640190fd5b82336001600160a01b038216141561315b576040805162461bcd60e51b815260206004820152601a60248201526000805160206159c6833981519152604482015290519081900360640190fd5b7f00000000000000000000000000000000000000000000000000000000000000006001600160a01b03168686600081811061319257fe5b905060200201356001600160a01b03166001600160a01b0316146131eb576040805162461bcd60e51b81526020600482015260196024820152600080516020615a6d833981519152604482015290519081900360640190fd5b613229888888888080602002602001604051908101604052809392919081815260200183836020028082843760009201919091525061454692505050565b925060008061324e8560008151811061323e57fe5b602002602001015187600161437a565b9250925050346132698261147085896000815181106114cd57fe5b11156132a65760405162461bcd60e51b81526004018080602001828103825260238152602001806159a36023913960400191505060405180910390fd5b7f00000000000000000000000000000000000000000000000000000000000000006001600160a01b031663d0e30db0866000815181106132e257fe5b60200260200101516040518263ffffffff1660e01b81526004016000604051808303818588803b15801561331557600080fd5b505af1158015613329573d6000803e3d6000fd5b50505050507f00000000000000000000000000000000000000000000000000000000000000006001600160a01b031663a9059cbb61336e8c8b8b60008181106129fc57fe5b8760008151811061337b57fe5b60200260200101516040518363ffffffff1660e01b815260040180836001600160a01b03166001600160a01b0316815260200182815260200192505050602060405180830381600087803b1580156133d257600080fd5b505af11580156133e6573d6000803e3d6000fd5b505050506040513d60208110156133fc57600080fd5b505161340457fe5b6134448a868a8a8080602002602001604051908101604052809392919081815260200183836020028082843760009201919091525033925061493f915050565b6000613456838363ffffffff6144e516565b1115613471576134716000898960001981018181106116aa57fe5b6134868161147084886000815181106114cd57fe5b3411156134ad576134ad336134a683611470868a6000815181106114cd57fe5b3403614b46565b5050505095945050505050565b6134c2611cd0565b15613507576040805162461bcd60e51b815260206004820152601060248201526f14185d5cd8589b194e881c185d5cd95960821b604482015290519081900360640190fd5b6001600160a01b038616600090815260066020526040902054869060ff16613564576040805162461bcd60e51b815260206004820152601c6024820152600080516020615ab0833981519152604482015290519081900360640190fd5b81336001600160a01b03821614156135b1576040805162461bcd60e51b815260206004820152601a60248201526000805160206159c6833981519152604482015290519081900360640190fd5b6001600160a01b037f000000000000000000000000000000000000000000000000000000000000000016858560001981018181106135eb57fe5b905060200201356001600160a01b03166001600160a01b031614613644576040805162461bcd60e51b81526020600482015260196024820152600080516020615a6d833981519152604482015290519081900360640190fd5b61364d836141f8565b92506136a48585600081811061365f57fe5b905060200201356001600160a01b03163361369e8b8989600081811061368157fe5b905060200201356001600160a01b03168a8a600181811061156f57fe5b8a6147e2565b6136e388868680806020026020016040519081016040528093929190818152602001838360200280828437600092019190915250309250615084915050565b604080516370a0823160e01b815230600482015290516000916001600160a01b037f000000000000000000000000000000000000000000000000000000000000000016916370a0823191602480820192602092909190829003018186803b15801561374d57600080fd5b505afa158015613761573d6000803e3d6000fd5b505050506040513d602081101561377757600080fd5b505160408051632e1a7d4d60e01b81526004810183905290519192506001600160a01b037f00000000000000000000000000000000000000000000000000000000000000001691632e1a7d4d9160248082019260009290919082900301818387803b1580156137e557600080fd5b505af11580156137f9573d6000803e3d6000fd5b50505050600080600061380e8488600061437a565b92509250925089831015613869576040805162461bcd60e51b815260206004820152601960248201527f466c6f6f7a526f757465723a204c4f575f534c49505041474500000000000000604482015290519081900360640190fd5b6138733384614b46565b6000613885838363ffffffff6144e516565b11156120345761203460008a8a6000198101818110611ae857fe5b6138a86141f4565b6001600160a01b03166138b9612292565b6001600160a01b031614613902576040805162461bcd60e51b81526020600482018190526024820152600080516020615a2a833981519152604482015290519081900360640190fd5b6004805461ffff8316600160a01b810261ffff60a01b199092169190911790915560408051918252517f2e8b87e2b3dff0b7b11ce73a61e3bb94498159c531480d9abf1307014b650af99181900360200190a150565b6139606141f4565b6001600160a01b0316613971612292565b6001600160a01b0316146139ba576040805162461bcd60e51b81526020600482018190526024820152600080516020615a2a833981519152604482015290519081900360640190fd5b60048054821515600160b01b810260ff60b01b199092169190911790915560408051918252517f13a5d968457cb650b136b77bb4a3ff25f31b92939f2d8df0010911117b7ba9e09181900360200190a150565b613a156141f4565b6001600160a01b0316613a26612292565b6001600160a01b031614613a6f576040805162461bcd60e51b81526020600482018190526024820152600080516020615a2a833981519152604482015290519081900360640190fd5b6001600160a01b038116613ab45760405162461bcd60e51b81526004018080602001828103825260268152602001806159566026913960400191505060405180910390fd5b600080546040516001600160a01b03808516939216917f8be0079c531659141344cd1fd0a4f28419497f9722a3daafe3b4186f6b6457e091a3600080546001600160a01b0319166001600160a01b0392909216919091179055565b613b17611cd0565b15613b5c576040805162461bcd60e51b815260206004820152601060248201526f14185d5cd8589b194e881c185d5cd95960821b604482015290519081900360640190fd5b80336001600160a01b0382161415613ba9576040805162461bcd60e51b815260206004820152601a60248201526000805160206159c6833981519152604482015290519081900360640190fd5b613bb2826141f8565b91506000613c00600088888080601f016020809104026020016040519081016040528093929190818152602001838380828437600092019190915250929392505063ffffffff6110ea169050565b60408051634b97ee9360e11b81526001600160e01b03198316600482015290519192506000916001600160a01b037f0000000000000000000000000000000000000000000000000000000000000000169163972fdd2691602480830192602092919082900301818787803b158015613c7757600080fd5b505af1158015613c8b573d6000803e3d6000fd5b505050506040513d6020811015613ca157600080fd5b505190506001600160a01b038116613d00576040805162461bcd60e51b815260206004820152601e60248201527f466c6f6f7a526f757465723a204e4f5f494d504c454d454e544154494f4e0000604482015290519081900360640190fd5b6000613d0b33611061565b90508015613dc9576000826001600160a01b03168a8a6040518083838082843760405192019450600093509091505080830381855af49150503d8060008114613d70576040519150601f19603f3d011682016040523d82523d6000602084013e613d75565b606091505b5050905080613dc3576040805162461bcd60e51b8152602060048201526015602482015274119b1bdbde949bdd5d195c8e881491559154951151605a1b604482015290519081900360640190fd5b5061415b565b3415613f3c576000806000613de03489600061437a565b925092509250613df460008a8a8585614c39565b6000856001600160a01b0316848e8e604051808383808284376040519201945060009350909150508083038185875af1925050503d8060008114613e54576040519150601f19603f3d011682016040523d82523d6000602084013e613e59565b606091505b5050905080613ea7576040805162461bcd60e51b8152602060048201526015602482015274119b1bdbde949bdd5d195c8e881491559154951151605a1b604482015290519081900360640190fd5b613f338a338c6001600160a01b03166370a08231306040518263ffffffff1660e01b815260040180826001600160a01b03166001600160a01b0316815260200191505060206040518083038186803b158015613f0257600080fd5b505afa158015613f16573d6000803e3d6000fd5b505050506040513d6020811015613f2c57600080fd5b5051614f21565b5050505061415b565b604080516370a0823160e01b815233600482015290516000916001600160a01b038a16916370a0823191602480820192602092909190829003018186803b158015613f8657600080fd5b505afa158015613f9a573d6000803e3d6000fd5b505050506040513d6020811015613fb057600080fd5b50516040519091506000906001600160a01b038516908c908c908083838082843760405192019450600093509091505080830381855af49150503d8060008114614016576040519150601f19603f3d011682016040523d82523d6000602084013e61401b565b606091505b5050905080614069576040805162461bcd60e51b8152602060048201526015602482015274119b1bdbde949bdd5d195c8e881491559154951151605a1b604482015290519081900360640190fd5b604080516370a0823160e01b815233600482015290516000916001600160a01b038c16916370a0823191602480820192602092909190829003018186803b1580156140b357600080fd5b505afa1580156140c7573d6000803e3d6000fd5b505050506040513d60208110156140dd57600080fd5b50519050808311614125576040805162461bcd60e51b815260206004820152600d60248201526c24a72b20a624a22faa27a5a2a760991b604482015290519081900360640190fd5b60008061414361413b868563ffffffff61535c16565b8b600161437a565b92509250506141558c8c8c8585614c39565b50505050505b505050505050505050565b600454600160a01b900461ffff1681565b6060632800659560e01b8484846040516024018084600781111561419757fe5b60ff1681526020018381526020018281526020019350505050604051602081830303815290604052906001600160e01b0319166020820180516001600160e01b03838183161783525050505090509392505050565b805160208201fd5b3390565b6001546040805163493f44bd60e11b8152336004820181905291516000936001600160a01b03169163927e897a916024808301926020929190829003018186803b15801561424557600080fd5b505afa158015614259573d6000803e3d6000fd5b505050506040513d602081101561426f57600080fd5b505115801561428657506001600160a01b03831615155b156142fa57600154604080516364e0b15960e01b81526001600160a01b0384811660048301528681166024830152915191909216916364e0b15991604480830192600092919082900301818387803b1580156142e157600080fd5b505af11580156142f5573d6000803e3d6000fd5b505050505b60015460408051633444fbf160e21b81526001600160a01b0384811660048301529151919092169163d113efc4916024808301926020929190829003018186803b15801561434757600080fd5b505afa15801561435b573d6000803e3d6000fd5b505050506040513d602081101561437157600080fd5b50519392505050565b600080600061438833611061565b15614395578592506144dc565b83156143f4576000548693506143ed9084906143e1906143c39061271090600160a81b900461ffff1661535c565b6143d58761271063ffffffff61544216565b9063ffffffff61549b16565b9063ffffffff61535c16565b915061442a565b60005461441590612710906143d5908990600160a81b900461ffff16615442565b9150614427868363ffffffff61535c16565b92505b6001600160a01b0385161580159061444b5750600454600160b01b900460ff165b156144d8576001600160a01b03851660009081526005602052604081205461ffff1661448457600454600160a01b900461ffff166144a2565b6001600160a01b03861660009081526005602052604090205461ffff165b90506144be6127106143d58561ffff851663ffffffff61544216565b91506144d0838363ffffffff61535c16565b9250506144dc565b5060005b93509350939050565b60008282018381101561453f576040805162461bcd60e51b815260206004820152601b60248201527f536166654d6174683a206164646974696f6e206f766572666c6f770000000000604482015290519081900360640190fd5b9392505050565b606060028251101561458d576040805162461bcd60e51b81526020600482015260196024820152600080516020615a6d833981519152604482015290519081900360640190fd5b815167ffffffffffffffff811180156145a557600080fd5b506040519080825280602002602001820160405280156145cf578160200160208202803683370190505b50905082816001835103815181106145e357fe5b60209081029190910101528151600019015b8015614679576000806146328786600186038151811061461157fe5b602002602001015187868151811061462557fe5b6020026020010151615502565b9150915061465484848151811061464557fe5b602002602001015183836155d0565b84600185038151811061466357fe5b60209081029190910101525050600019016145f5565b509392505050565b600080600061469085856156ca565b9150915085828260405160200180836001600160a01b03166001600160a01b031660601b8152601401826001600160a01b03166001600160a01b031660601b8152601401925050506040516020818303038152906040528051906020012060076000896001600160a01b03166001600160a01b0316815260200190815260200160002060405160200180807fff00000000000000000000000000000000000000000000000000000000000000815250600101846001600160a01b03166001600160a01b031660601b8152601401838152602001828054600181600116156101000203166002900480156147ba5780601f106147985761010080835404028352918201916147ba565b820191906000526020600020905b8154815290600101906020018083116147a6575b505060408051601f1981840301815291905280516020909101209a9950505050505050505050565b604080516001600160a01b0385811660248301528481166044830152606480830185905283518084039091018152608490920183526020820180516001600160e01b03166323b872dd60e01b17815292518251600094606094938a169392918291908083835b602083106148675780518252601f199092019160209182019101614848565b6001836020036101000a0380198251168184511680821785525050505050509050019150506000604051808303816000865af19150503d80600081146148c9576040519150601f19603f3d011682016040523d82523d6000602084013e6148ce565b606091505b50915091508180156148fc5750805115806148fc57508080602001905160208110156148f957600080fd5b50515b6149375760405162461bcd60e51b8152600401808060200182810382526024815260200180615ad06024913960400191505060405180910390fd5b505050505050565b60005b6001835103811015614b3f5760008084838151811061495d57fe5b602002602001015185846001018151811061497457fe5b602002602001015191509150600061498c83836156ca565b50905060008785600101815181106149a057fe5b60200260200101519050600080836001600160a01b0316866001600160a01b0316146149ce578260006149d2565b6000835b91509150600060028a510388106149e95788614a0a565b614a0a8c878c8b600201815181106149fd57fe5b6020026020010151614681565b9050614a178c8888614681565b6001600160a01b031663022c0d9f84848460006040519080825280601f01601f191660200182016040528015614a54576020820181803683370190505b506040518563ffffffff1660e01b815260040180858152602001848152602001836001600160a01b03166001600160a01b0316815260200180602001828103825283818151815260200191508051906020019080838360005b83811015614ac5578181015183820152602001614aad565b50505050905090810190601f168015614af25780820380516001836020036101000a031916815260200191505b5095505050505050600060405180830381600087803b158015614b1457600080fd5b505af1158015614b28573d6000803e3d6000fd5b505060019099019850614942975050505050505050565b5050505050565b604080516000808252602082019092526001600160a01b0384169083906040518082805190602001908083835b60208310614b925780518252601f199092019160209182019101614b73565b6001836020036101000a03801982511681845116808217855250505050505090500191505060006040518083038185875af1925050503d8060008114614bf4576040519150601f19603f3d011682016040523d82523d6000602084013e614bf9565b606091505b5050905080611ccb5760405162461bcd60e51b8152600401808060200182810382526023815260200180615a8d6023913960400191505060405180910390fd5b6001600160a01b038516614cc857600454614c5d906001600160a01b031683614b46565b8015614cc357614c6d8382614b46565b604080513381526001600160a01b03868116602083015287811682840152606082018490529151918516917f84ff16114f882a54c4748006b5e4b0b7ac76bd911d135145a6d063fd76a38a409181900360800190a25b614b3f565b600454614ce290869033906001600160a01b0316856147e2565b8015614b3f57614cf4853385846147e2565b604080513381526001600160a01b03868116602083015287811682840152606082018490529151918516917f84ff16114f882a54c4748006b5e4b0b7ac76bd911d135145a6d063fd76a38a409181900360800190a25050505050565b614d58611cd0565b614da9576040805162461bcd60e51b815260206004820152601460248201527f5061757361626c653a206e6f7420706175736564000000000000000000000000604482015290519081900360640190fd5b6000805460ff60a01b191690557f5db9ee0a495bf2e6ff9c91a7834c1ba4fdd244a5e8aa4e537bd38aeae4b073aa614ddf6141f4565b604080516001600160a01b039092168252519081900360200190a1565b6060600282511015614e43576040805162461bcd60e51b81526020600482015260196024820152600080516020615a6d833981519152604482015290519081900360640190fd5b815167ffffffffffffffff81118015614e5b57600080fd5b50604051908082528060200260200182016040528015614e85578160200160208202803683370190505b5090508281600081518110614e9657fe5b60200260200101818152505060005b600183510381101561467957600080614edb87868581518110614ec457fe5b602002602001015187866001018151811061462557fe5b91509150614efd848481518110614eee57fe5b602002602001015183836157a8565b848460010181518110614f0c57fe5b60209081029190910101525050600101614ea5565b604080516001600160a01b038481166024830152604480830185905283518084039091018152606490920183526020820180516001600160e01b031663a9059cbb60e01b178152925182516000946060949389169392918291908083835b60208310614f9e5780518252601f199092019160209182019101614f7f565b6001836020036101000a0380198251168184511680821785525050505050509050019150506000604051808303816000865af19150503d8060008114615000576040519150601f19603f3d011682016040523d82523d6000602084013e615005565b606091505b5091509150818015615033575080511580615033575080806020019051602081101561503057600080fd5b50515b614b3f576040805162461bcd60e51b815260206004820152601f60248201527f5472616e7366657248656c7065723a205452414e534645525f4641494c454400604482015290519081900360640190fd5b60005b6001835103811015615356576000808483815181106150a257fe5b60200260200101518584600101815181106150b957fe5b60200260200101519150915060006150d183836156ca565b50905060006150e1888585614681565b9050600080600080846001600160a01b0316630902f1ac6040518163ffffffff1660e01b815260040160606040518083038186803b15801561512257600080fd5b505afa158015615136573d6000803e3d6000fd5b505050506040513d606081101561514c57600080fd5b5080516020909101516dffffffffffffffffffffffffffff91821693501690506000806001600160a01b038a81169089161461518957828461518c565b83835b915091506151ea828b6001600160a01b03166370a082318a6040518263ffffffff1660e01b815260040180826001600160a01b03166001600160a01b0316815260200191505060206040518083038186803b158015611f5d57600080fd5b95506151f78683836157a8565b945050505050600080856001600160a01b0316886001600160a01b03161461522157826000615225565b6000835b91509150600060028c51038a1061523c578a615250565b6152508d898e8d600201815181106149fd57fe5b604080516000808252602082019283905263022c0d9f60e01b835260248201878152604483018790526001600160a01b038086166064850152608060848501908152845160a48601819052969750908c169563022c0d9f958a958a958a9591949193919260c486019290918190849084905b838110156152da5781810151838201526020016152c2565b50505050905090810190601f1680156153075780820380516001836020036101000a031916815260200191505b5095505050505050600060405180830381600087803b15801561532957600080fd5b505af115801561533d573d6000803e3d6000fd5b50506001909b019a506150879950505050505050505050565b50505050565b6000828211156153b3576040805162461bcd60e51b815260206004820152601e60248201527f536166654d6174683a207375627472616374696f6e206f766572666c6f770000604482015290519081900360640190fd5b50900390565b6153c1611cd0565b15615406576040805162461bcd60e51b815260206004820152601060248201526f14185d5cd8589b194e881c185d5cd95960821b604482015290519081900360640190fd5b6000805460ff60a01b1916600160a01b1790557f62e78cea01bee320cd4e420270b5ea74000d11b0c9f74754ebdbfc544b05a258614ddf6141f4565b60008261545157506000611127565b8282028284828161545e57fe5b041461453f5760405162461bcd60e51b8152600401808060200182810382526021815260200180615a096021913960400191505060405180910390fd5b60008082116154f1576040805162461bcd60e51b815260206004820152601a60248201527f536166654d6174683a206469766973696f6e206279207a65726f000000000000604482015290519081900360640190fd5b8183816154fa57fe5b049392505050565b600080600061551185856156ca565b509050600080615522888888614681565b6001600160a01b0316630902f1ac6040518163ffffffff1660e01b815260040160606040518083038186803b15801561555a57600080fd5b505afa15801561556e573d6000803e3d6000fd5b505050506040513d606081101561558457600080fd5b5080516020909101516dffffffffffffffffffffffffffff91821693501690506001600160a01b03878116908416146155be5780826155c1565b81815b90999098509650505050505050565b60008084116156105760405162461bcd60e51b815260040180806020018281038252602781526020018061597c6027913960400191505060405180910390fd5b6000831180156156205750600082115b61565b5760405162461bcd60e51b8152600401808060200182810382526023815260200180615a4a6023913960400191505060405180910390fd5b600061567f612710615673868863ffffffff61544216565b9063ffffffff61544216565b905060006156a361568f3361112d565b6126f703615673868963ffffffff61535c16565b90506156c060018284816156b357fe5b049063ffffffff6144e516565b9695505050505050565b600080826001600160a01b0316846001600160a01b0316141561571e5760405162461bcd60e51b81526004018080602001828103825260238152602001806159e66023913960400191505060405180910390fd5b826001600160a01b0316846001600160a01b03161061573e578284615741565b83835b90925090506001600160a01b0382166157a1576040805162461bcd60e51b815260206004820152601c60248201527f50616e63616b654c6962726172793a205a45524f5f4144445245535300000000604482015290519081900360640190fd5b9250929050565b60008084116157e85760405162461bcd60e51b81526004018080602001828103825260268152602001806159306026913960400191505060405180910390fd5b6000831180156157f85750600082115b6158335760405162461bcd60e51b8152600401808060200182810382526023815260200180615a4a6023913960400191505060405180910390fd5b60006158526158413361112d565b86906126f70363ffffffff61544216565b90506000615866828563ffffffff61544216565b90506000615880836114708861271063ffffffff61544216565b905080828161588b57fe5b04979650505050505050565b828054600181600116156101000203166002900490600052602060002090601f016020900481019282601f106158d85782800160ff19823516178555615905565b82800160010185558215615905579182015b828111156159055782358255916020019190600101906158ea565b50615911929150615915565b5090565b611cde91905b80821115615911576000815560010161591b56fe466c6f6f7a526f757465723a20494e53554646494349454e545f494e5055545f414d4f554e544f776e61626c653a206e6577206f776e657220697320746865207a65726f2061646472657373466c6f6f7a526f757465723a20494e53554646494349454e545f4f55545055545f414d4f554e54466c6f6f7a526f757465723a204558434553534956455f494e5055545f414d4f554e54466c6f6f7a526f757465723a2053454c465f524546455252414c00000000000050616e63616b654c6962726172793a204944454e544943414c5f414444524553534553536166654d6174683a206d756c7469706c69636174696f6e206f766572666c6f774f776e61626c653a2063616c6c6572206973206e6f7420746865206f776e6572466c6f6f7a526f757465723a20494e53554646494349454e545f4c4951554944495459466c6f6f7a526f757465723a20494e56414c49445f50415448000000000000005472616e7366657248656c7065723a204554485f5452414e534645525f4641494c4544466c6f6f7a526f757465723a20494e56414c49445f464143544f5259000000005472616e7366657248656c7065723a205452414e534645525f46524f4d5f4641494c4544a26469706673582212207abe9b01007ce8b564f9a67a7dd37f388f17a0884b8351cfeb3ef1bdd7f9065d64736f6c63430006060033",
  "devdoc": {
    "methods": {
      "constructor": {
        "details": "construct this contract",
        "params": {
          "_WETH": "address of WETH.",
          "_balanceThreshold": "balance threshold of SYA tokens which actives feeless swapping",
          "_feeReceiver": "address that receives protocol fees",
          "_referralRegistry": "address of referral registry that stores referral anchors",
          "_referralRewardRate": "percentage of swapFee that are paid out as rewards",
          "_saveYourAssetsToken": "address of SYA token",
          "_swapFee": "nominator for swapFee. Denominator = 10000",
          "_zeroEx": "address of zeroX proxy contract to forward swaps"
        }
      },
      "executeZeroExSwap(bytes,address,address,address)": {
        "details": "Executes a swap on 0x API",
        "params": {
          "data": "calldata expected by data field on 0x API (https://0x.org/docs/api#response-1)",
          "referee": "address of referee for msg.sender, 0x adress if none",
          "tokenIn": "the address of currency to buy  0x address for ETH",
          "tokenOut": "the address of currency to sell  0x address for ETH"
        }
      },
      "getUserFee(address)": {
        "details": "returns the fee nominator for a given user"
      },
      "getUserReferee(address)": {
        "details": "returns the referee for a given user  0x address if none"
      },
      "hasUserReferee(address)": {
        "details": "returns if the given user has been referred or not"
      },
      "owner()": {
        "details": "Returns the address of the current owner."
      },
      "pause()": {
        "details": "lets the admin pause this contract"
      },
      "paused()": {
        "details": "Returns true if the contract is paused, and false otherwise."
      },
      "registerFork(address,bytes)": {
        "details": "lets the admin register an Uniswap style fork"
      },
      "renounceOwnership()": {
        "details": "Leaves the contract without owner. It will not be possible to call `onlyOwner` functions anymore. Can only be called by the current owner.     * NOTE: Renouncing ownership will leave the contract without an owner, thereby removing any functionality that is only available to the owner."
      },
      "swapETHForExactTokens(address,uint256,address[],address)": {
        "details": "execute swap directly on Uniswap/Pancake/...",
        "params": {
          "amountOut": "expected amount of tokens out",
          "fork": "fork used to execute swap",
          "path": "Sell path.",
          "referee": "address of referee for msg.sender, 0x adress if none"
        },
        "returns": {
          "amounts": "amounts"
        }
      },
      "swapExactETHForTokens(address,uint256,address[],address)": {
        "details": "execute swap directly on Uniswap/Pancake & simular forks",
        "params": {
          "amountOutMin": "minimum tokens to receive",
          "fork": "fork used to execute swap",
          "path": "Sell path.",
          "referee": "address of referee for msg.sender, 0x adress if none"
        },
        "returns": {
          "amounts": "amounts"
        }
      },
      "swapExactETHForTokensSupportingFeeOnTransferTokens(address,uint256,address[],address)": {
        "details": "execute swap directly on Uniswap/Pancake/...",
        "params": {
          "amountOutMin": "minimum expected tokens to receive",
          "fork": "fork used to execute swap",
          "path": "Sell path.",
          "referee": "address of referee for msg.sender, 0x adress if none"
        }
      },
      "swapExactTokensForETH(address,uint256,uint256,address[],address)": {
        "details": "execute swap directly on Uniswap/Pancake/...",
        "params": {
          "amountIn": "amount if tokens In",
          "amountOutMin": "minimum tokens to receive",
          "fork": "fork used to execute swap",
          "path": "Sell path.",
          "referee": "address of referee for msg.sender, 0x adress if none"
        },
        "returns": {
          "amounts": "amounts"
        }
      },
      "swapExactTokensForETHSupportingFeeOnTransferTokens(address,uint256,uint256,address[],address)": {
        "details": "execute swap directly on Uniswap/Pancake/...",
        "params": {
          "amountIn": "amount of tokensIn",
          "amountOutMin": "minimum tokens to receive",
          "fork": "fork used to execute swap",
          "path": "Sell path.",
          "referee": "address of referee for msg.sender, 0x adress if none"
        }
      },
      "swapExactTokensForTokensSupportingFeeOnTransferTokens(address,uint256,uint256,address[],address)": {
        "details": "execute swap directly on Uniswap/Pancake/...",
        "params": {
          "amountIn": "amount if tokens In",
          "amountOutMin": "minimum tokens to receive",
          "fork": "fork used to execute swap",
          "path": "Sell path.",
          "referee": "address of referee for msg.sender, 0x adress if none"
        }
      },
      "swapTokensForExactETH(address,uint256,uint256,address[],address)": {
        "details": "execute swap directly on Uniswap/Pancake/...",
        "params": {
          "amountInMax": "maximum tokens to send",
          "amountOut": "expected tokens to receive",
          "fork": "fork used to execute swap",
          "path": "Sell path.",
          "referee": "address of referee for msg.sender, 0x adress if none"
        },
        "returns": {
          "amounts": "amounts"
        }
      },
      "transferOwnership(address)": {
        "details": "Transfers ownership of the contract to a new account (`newOwner`). Can only be called by the current owner."
      },
      "unpause()": {
        "details": "lets the admin unpause this contract"
      },
      "updateBalanceThreshold(uint256)": {
        "details": "lets the admin update the SYA balance threshold, which activates feeless trading for users"
      },
      "updateCustomReferralRewardRate(address,uint16)": {
        "details": "lets the admin set a custom referral rate"
      },
      "updateFeeReceiver(address)": {
        "details": "lets the admin update which address receives the protocol fees"
      },
      "updateFork(address,bytes,bool)": {
        "details": "lets the admin update an Uniswap style fork"
      },
      "updateReferralRegistry(address)": {
        "details": "lets the admin set a new referral registry"
      },
      "updateReferralRewardRate(uint16)": {
        "details": "lets the admin update the referral reward rate"
      },
      "updateReferralsActivated(bool)": {
        "details": "lets the admin update the status of the referral system"
      },
      "updateSwapFee(uint16)": {
        "details": "lets the admin update the swapFee nominator"
      },
      "userAboveBalanceThreshold(address)": {
        "details": "returns if a users is above the SYA threshold and can swap without fees"
      },
      "withdrawERC20Token(address,address,uint256)": {
        "details": "lets the admin withdraw ERC20s from the contract."
      },
      "withdrawETH(address,uint256)": {
        "details": "lets the admin withdraw ETH from the contract."
      }
    }
  },
  "userdoc": {
    "methods": {}
  },
  "storageLayout": {
    "storage": [
      {
        "astId": 592,
        "contract": "contracts/FloozRouter.sol:TestRouter",
        "label": "_owner",
        "offset": 0,
        "slot": "0",
        "type": "t_address"
      },
      {
        "astId": 1168,
        "contract": "contracts/FloozRouter.sol:TestRouter",
        "label": "_paused",
        "offset": 20,
        "slot": "0",
        "type": "t_bool"
      },
      {
        "astId": 1774,
        "contract": "contracts/FloozRouter.sol:TestRouter",
        "label": "swapFee",
        "offset": 21,
        "slot": "0",
        "type": "t_uint16"
      },
      {
        "astId": 1780,
        "contract": "contracts/FloozRouter.sol:TestRouter",
        "label": "referralRegistry",
        "offset": 0,
        "slot": "1",
        "type": "t_contract(IReferralRegistry)4971"
      },
      {
        "astId": 1782,
        "contract": "contracts/FloozRouter.sol:TestRouter",
        "label": "saveYourAssetsToken",
        "offset": 0,
        "slot": "2",
        "type": "t_contract(IERC20)1127"
      },
      {
        "astId": 1784,
        "contract": "contracts/FloozRouter.sol:TestRouter",
        "label": "balanceThreshold",
        "offset": 0,
        "slot": "3",
        "type": "t_uint256"
      },
      {
        "astId": 1786,
        "contract": "contracts/FloozRouter.sol:TestRouter",
        "label": "feeReceiver",
        "offset": 0,
        "slot": "4",
        "type": "t_address_payable"
      },
      {
        "astId": 1788,
        "contract": "contracts/FloozRouter.sol:TestRouter",
        "label": "referralRewardRate",
        "offset": 20,
        "slot": "4",
        "type": "t_uint16"
      },
      {
        "astId": 1790,
        "contract": "contracts/FloozRouter.sol:TestRouter",
        "label": "referralsActivated",
        "offset": 22,
        "slot": "4",
        "type": "t_bool"
      },
      {
        "astId": 1794,
        "contract": "contracts/FloozRouter.sol:TestRouter",
        "label": "customReferralRewardRate",
        "offset": 0,
        "slot": "5",
        "type": "t_mapping(t_address,t_uint16)"
      },
      {
        "astId": 1798,
        "contract": "contracts/FloozRouter.sol:TestRouter",
        "label": "forkActivated",
        "offset": 0,
        "slot": "6",
        "type": "t_mapping(t_address,t_bool)"
      },
      {
        "astId": 1802,
        "contract": "contracts/FloozRouter.sol:TestRouter",
        "label": "forkInitCode",
        "offset": 0,
        "slot": "7",
        "type": "t_mapping(t_address,t_bytes_storage)"
      }
    ],
    "types": {
      "t_address": {
        "encoding": "inplace",
        "label": "address",
        "numberOfBytes": "20"
      },
      "t_address_payable": {
        "encoding": "inplace",
        "label": "address payable",
        "numberOfBytes": "20"
      },
      "t_bool": {
        "encoding": "inplace",
        "label": "bool",
        "numberOfBytes": "1"
      },
      "t_bytes_storage": {
        "encoding": "bytes",
        "label": "bytes",
        "numberOfBytes": "32"
      },
      "t_contract(IERC20)1127": {
        "encoding": "inplace",
        "label": "contract IERC20",
        "numberOfBytes": "20"
      },
      "t_contract(IReferralRegistry)4971": {
        "encoding": "inplace",
        "label": "contract IReferralRegistry",
        "numberOfBytes": "20"
      },
      "t_mapping(t_address,t_bool)": {
        "encoding": "mapping",
        "key": "t_address",
        "label": "mapping(address => bool)",
        "numberOfBytes": "32",
        "value": "t_bool"
      },
      "t_mapping(t_address,t_bytes_storage)": {
        "encoding": "mapping",
        "key": "t_address",
        "label": "mapping(address => bytes)",
        "numberOfBytes": "32",
        "value": "t_bytes_storage"
      },
      "t_mapping(t_address,t_uint16)": {
        "encoding": "mapping",
        "key": "t_address",
        "label": "mapping(address => uint16)",
        "numberOfBytes": "32",
        "value": "t_uint16"
      },
      "t_uint16": {
        "encoding": "inplace",
        "label": "uint16",
        "numberOfBytes": "2"
      },
      "t_uint256": {
        "encoding": "inplace",
        "label": "uint256",
        "numberOfBytes": "32"
      }
    }
  }
}