{
  "address": "0x0ab133509d6d6338b5a6a0d865b8ad8a9b583a3c",
  "abi": [
    {
      "inputs": [
        {
          "internalType": "address",
          "name": "_WETH",
          "type": "address"
        },
        {
          "internalType": "uint16",
          "name": "_swapFee",
          "type": "uint16"
        },
        {
          "internalType": "uint16",
          "name": "_referralRewardRate",
          "type": "uint16"
        },
        {
          "internalType": "address payable",
          "name": "_feeReceiver",
          "type": "address"
        },
        {
          "internalType": "uint256",
          "name": "_balanceThreshold",
          "type": "uint256"
        },
        {
          "internalType": "contract IERC20",
          "name": "_saveYourAssetsToken",
          "type": "address"
        },
        {
          "internalType": "contract IReferralRegistry",
          "name": "_referralRegistry",
          "type": "address"
        },
        {
          "internalType": "address payable",
          "name": "_zeroEx",
          "type": "address"
        }
      ],
      "stateMutability": "nonpayable",
      "type": "constructor"
    },
    {
      "anonymous": false,
      "inputs": [
        {
          "indexed": false,
          "internalType": "uint256",
          "name": "balanceThreshold",
          "type": "uint256"
        }
      ],
      "name": "BalanceThresholdUpdated",
      "type": "event"
    },
    {
      "anonymous": false,
      "inputs": [
        {
          "indexed": true,
          "internalType": "address",
          "name": "account",
          "type": "address"
        },
        {
          "indexed": false,
          "internalType": "uint16",
          "name": "referralRate",
          "type": "uint16"
        }
      ],
      "name": "CustomReferralRewardRateUpdated",
      "type": "event"
    },
    {
      "anonymous": false,
      "inputs": [
        {
          "indexed": false,
          "internalType": "address",
          "name": "token",
          "type": "address"
        },
        {
          "indexed": false,
          "internalType": "uint256",
          "name": "amount",
          "type": "uint256"
        }
      ],
      "name": "FeePaid",
      "type": "event"
    },
    {
      "anonymous": false,
      "inputs": [
        {
          "indexed": false,
          "internalType": "address payable",
          "name": "feeReceiver",
          "type": "address"
        }
      ],
      "name": "FeeReceiverUpdated",
      "type": "event"
    },
    {
      "anonymous": false,
      "inputs": [
        {
          "indexed": false,
          "internalType": "address",
          "name": "factory",
          "type": "address"
        }
      ],
      "name": "ForkCreated",
      "type": "event"
    },
    {
      "anonymous": false,
      "inputs": [
        {
          "indexed": false,
          "internalType": "address",
          "name": "factory",
          "type": "address"
        }
      ],
      "name": "ForkUpdated",
      "type": "event"
    },
    {
      "anonymous": false,
      "inputs": [
        {
          "indexed": true,
          "internalType": "address",
          "name": "previousOwner",
          "type": "address"
        },
        {
          "indexed": true,
          "internalType": "address",
          "name": "newOwner",
          "type": "address"
        }
      ],
      "name": "OwnershipTransferred",
      "type": "event"
    },
    {
      "anonymous": false,
      "inputs": [
        {
          "indexed": false,
          "internalType": "address",
          "name": "account",
          "type": "address"
        }
      ],
      "name": "Paused",
      "type": "event"
    },
    {
      "anonymous": false,
      "inputs": [
        {
          "indexed": false,
          "internalType": "address",
          "name": "referralRegistry",
          "type": "address"
        }
      ],
      "name": "ReferralRegistryUpdated",
      "type": "event"
    },
    {
      "anonymous": false,
      "inputs": [
        {
          "indexed": false,
          "internalType": "address",
          "name": "from",
          "type": "address"
        },
        {
          "indexed": true,
          "internalType": "address",
          "name": "to",
          "type": "address"
        },
        {
          "indexed": false,
          "internalType": "address",
          "name": "tokenOut",
          "type": "address"
        },
        {
          "indexed": false,
          "internalType": "address",
          "name": "tokenReward",
          "type": "address"
        },
        {
          "indexed": false,
          "internalType": "uint256",
          "name": "amount",
          "type": "uint256"
        }
      ],
      "name": "ReferralRewardPaid",
      "type": "event"
    },
    {
      "anonymous": false,
      "inputs": [
        {
          "indexed": false,
          "internalType": "uint16",
          "name": "referralRewardRate",
          "type": "uint16"
        }
      ],
      "name": "ReferralRewardRateUpdated",
      "type": "event"
    },
    {
      "anonymous": false,
      "inputs": [
        {
          "indexed": false,
          "internalType": "bool",
          "name": "activated",
          "type": "bool"
        }
      ],
      "name": "ReferralsActivatedUpdated",
      "type": "event"
    },
    {
      "anonymous": false,
      "inputs": [
        {
          "indexed": false,
          "internalType": "uint16",
          "name": "swapFee",
          "type": "uint16"
        }
      ],
      "name": "SwapFeeUpdated",
      "type": "event"
    },
    {
      "anonymous": false,
      "inputs": [
        {
          "indexed": false,
          "internalType": "address",
          "name": "account",
          "type": "address"
        }
      ],
      "name": "Unpaused",
      "type": "event"
    },
    {
      "stateMutability": "payable",
      "type": "fallback"
    },
    {
      "inputs": [],
      "name": "FEE_DENOMINATOR",
      "outputs": [
        {
          "internalType": "uint256",
          "name": "",
          "type": "uint256"
        }
      ],
      "stateMutability": "view",
      "type": "function"
    },
    {
      "inputs": [],
      "name": "WETH",
      "outputs": [
        {
          "internalType": "address",
          "name": "",
          "type": "address"
        }
      ],
      "stateMutability": "view",
      "type": "function"
    },
    {
      "inputs": [],
      "name": "balanceThreshold",
      "outputs": [
        {
          "internalType": "uint256",
          "name": "",
          "type": "uint256"
        }
      ],
      "stateMutability": "view",
      "type": "function"
    },
    {
      "inputs": [
        {
          "internalType": "address",
          "name": "",
          "type": "address"
        }
      ],
      "name": "customReferralRewardRate",
      "outputs": [
        {
          "internalType": "uint16",
          "name": "",
          "type": "uint16"
        }
      ],
      "stateMutability": "view",
      "type": "function"
    },
    {
      "inputs": [
        {
          "internalType": "bytes",
          "name": "data",
          "type": "bytes"
        },
        {
          "internalType": "address",
          "name": "tokenOut",
          "type": "address"
        },
        {
          "internalType": "address",
          "name": "tokenIn",
          "type": "address"
        },
        {
          "internalType": "address",
          "name": "referee",
          "type": "address"
        }
      ],
      "name": "executeZeroExSwap",
      "outputs": [],
      "stateMutability": "payable",
      "type": "function"
    },
    {
      "inputs": [],
      "name": "feeReceiver",
      "outputs": [
        {
          "internalType": "address payable",
          "name": "",
          "type": "address"
        }
      ],
      "stateMutability": "view",
      "type": "function"
    },
    {
      "inputs": [
        {
          "internalType": "address",
          "name": "",
          "type": "address"
        }
      ],
      "name": "forkActivated",
      "outputs": [
        {
          "internalType": "bool",
          "name": "",
          "type": "bool"
        }
      ],
      "stateMutability": "view",
      "type": "function"
    },
    {
      "inputs": [
        {
          "internalType": "address",
          "name": "",
          "type": "address"
        }
      ],
      "name": "forkInitCode",
      "outputs": [
        {
          "internalType": "bytes",
          "name": "",
          "type": "bytes"
        }
      ],
      "stateMutability": "view",
      "type": "function"
    },
    {
      "inputs": [
        {
          "internalType": "address",
          "name": "user",
          "type": "address"
        }
      ],
      "name": "getUserFee",
      "outputs": [
        {
          "internalType": "uint256",
          "name": "",
          "type": "uint256"
        }
      ],
      "stateMutability": "view",
      "type": "function"
    },
    {
      "inputs": [
        {
          "internalType": "address",
          "name": "user",
          "type": "address"
        }
      ],
      "name": "getUserReferee",
      "outputs": [
        {
          "internalType": "address",
          "name": "",
          "type": "address"
        }
      ],
      "stateMutability": "view",
      "type": "function"
    },
    {
      "inputs": [
        {
          "internalType": "address",
          "name": "user",
          "type": "address"
        }
      ],
      "name": "hasUserReferee",
      "outputs": [
        {
          "internalType": "bool",
          "name": "",
          "type": "bool"
        }
      ],
      "stateMutability": "view",
      "type": "function"
    },
    {
      "inputs": [],
      "name": "owner",
      "outputs": [
        {
          "internalType": "address",
          "name": "",
          "type": "address"
        }
      ],
      "stateMutability": "view",
      "type": "function"
    },
    {
      "inputs": [],
      "name": "pause",
      "outputs": [],
      "stateMutability": "nonpayable",
      "type": "function"
    },
    {
      "inputs": [],
      "name": "paused",
      "outputs": [
        {
          "internalType": "bool",
          "name": "",
          "type": "bool"
        }
      ],
      "stateMutability": "view",
      "type": "function"
    },
    {
      "inputs": [],
      "name": "referralRegistry",
      "outputs": [
        {
          "internalType": "contract IReferralRegistry",
          "name": "",
          "type": "address"
        }
      ],
      "stateMutability": "view",
      "type": "function"
    },
    {
      "inputs": [],
      "name": "referralRewardRate",
      "outputs": [
        {
          "internalType": "uint16",
          "name": "",
          "type": "uint16"
        }
      ],
      "stateMutability": "view",
      "type": "function"
    },
    {
      "inputs": [],
      "name": "referralsActivated",
      "outputs": [
        {
          "internalType": "bool",
          "name": "",
          "type": "bool"
        }
      ],
      "stateMutability": "view",
      "type": "function"
    },
    {
      "inputs": [
        {
          "internalType": "address",
          "name": "_factory",
          "type": "address"
        },
        {
          "internalType": "bytes",
          "name": "_initCode",
          "type": "bytes"
        }
      ],
      "name": "registerFork",
      "outputs": [],
      "stateMutability": "nonpayable",
      "type": "function"
    },
    {
      "inputs": [],
      "name": "renounceOwnership",
      "outputs": [],
      "stateMutability": "nonpayable",
      "type": "function"
    },
    {
      "inputs": [],
      "name": "saveYourAssetsToken",
      "outputs": [
        {
          "internalType": "contract IERC20",
          "name": "",
          "type": "address"
        }
      ],
      "stateMutability": "view",
      "type": "function"
    },
    {
      "inputs": [
        {
          "internalType": "address",
          "name": "fork",
          "type": "address"
        },
        {
          "internalType": "uint256",
          "name": "amountOut",
          "type": "uint256"
        },
        {
          "internalType": "address[]",
          "name": "path",
          "type": "address[]"
        },
        {
          "internalType": "address",
          "name": "referee",
          "type": "address"
        }
      ],
      "name": "swapETHForExactTokens",
      "outputs": [
        {
          "internalType": "uint256[]",
          "name": "amounts",
          "type": "uint256[]"
        }
      ],
      "stateMutability": "payable",
      "type": "function"
    },
    {
      "inputs": [
        {
          "internalType": "address",
          "name": "fork",
          "type": "address"
        },
        {
          "internalType": "uint256",
          "name": "amountOutMin",
          "type": "uint256"
        },
        {
          "internalType": "address[]",
          "name": "path",
          "type": "address[]"
        },
        {
          "internalType": "address",
          "name": "referee",
          "type": "address"
        }
      ],
      "name": "swapExactETHForTokens",
      "outputs": [
        {
          "internalType": "uint256[]",
          "name": "amounts",
          "type": "uint256[]"
        }
      ],
      "stateMutability": "payable",
      "type": "function"
    },
    {
      "inputs": [
        {
          "internalType": "address",
          "name": "fork",
          "type": "address"
        },
        {
          "internalType": "uint256",
          "name": "amountOutMin",
          "type": "uint256"
        },
        {
          "internalType": "address[]",
          "name": "path",
          "type": "address[]"
        },
        {
          "internalType": "address",
          "name": "referee",
          "type": "address"
        }
      ],
      "name": "swapExactETHForTokensSupportingFeeOnTransferTokens",
      "outputs": [],
      "stateMutability": "payable",
      "type": "function"
    },
    {
      "inputs": [
        {
          "internalType": "address",
          "name": "fork",
          "type": "address"
        },
        {
          "internalType": "uint256",
          "name": "amountIn",
          "type": "uint256"
        },
        {
          "internalType": "uint256",
          "name": "amountOutMin",
          "type": "uint256"
        },
        {
          "internalType": "address[]",
          "name": "path",
          "type": "address[]"
        },
        {
          "internalType": "address",
          "name": "referee",
          "type": "address"
        }
      ],
      "name": "swapExactTokensForETH",
      "outputs": [
        {
          "internalType": "uint256[]",
          "name": "amounts",
          "type": "uint256[]"
        }
      ],
      "stateMutability": "nonpayable",
      "type": "function"
    },
    {
      "inputs": [
        {
          "internalType": "address",
          "name": "fork",
          "type": "address"
        },
        {
          "internalType": "uint256",
          "name": "amountIn",
          "type": "uint256"
        },
        {
          "internalType": "uint256",
          "name": "amountOutMin",
          "type": "uint256"
        },
        {
          "internalType": "address[]",
          "name": "path",
          "type": "address[]"
        },
        {
          "internalType": "address",
          "name": "referee",
          "type": "address"
        }
      ],
      "name": "swapExactTokensForETHSupportingFeeOnTransferTokens",
      "outputs": [],
      "stateMutability": "nonpayable",
      "type": "function"
    },
    {
      "inputs": [
        {
          "internalType": "address",
          "name": "fork",
          "type": "address"
        },
        {
          "internalType": "uint256",
          "name": "amountIn",
          "type": "uint256"
        },
        {
          "internalType": "uint256",
          "name": "amountOutMin",
          "type": "uint256"
        },
        {
          "internalType": "address[]",
          "name": "path",
          "type": "address[]"
        },
        {
          "internalType": "address",
          "name": "referee",
          "type": "address"
        }
      ],
      "name": "swapExactTokensForTokens",
      "outputs": [
        {
          "internalType": "uint256[]",
          "name": "amounts",
          "type": "uint256[]"
        }
      ],
      "stateMutability": "nonpayable",
      "type": "function"
    },
    {
      "inputs": [
        {
          "internalType": "address",
          "name": "fork",
          "type": "address"
        },
        {
          "internalType": "uint256",
          "name": "amountIn",
          "type": "uint256"
        },
        {
          "internalType": "uint256",
          "name": "amountOutMin",
          "type": "uint256"
        },
        {
          "internalType": "address[]",
          "name": "path",
          "type": "address[]"
        },
        {
          "internalType": "address",
          "name": "referee",
          "type": "address"
        }
      ],
      "name": "swapExactTokensForTokensSupportingFeeOnTransferTokens",
      "outputs": [],
      "stateMutability": "nonpayable",
      "type": "function"
    },
    {
      "inputs": [],
      "name": "swapFee",
      "outputs": [
        {
          "internalType": "uint16",
          "name": "",
          "type": "uint16"
        }
      ],
      "stateMutability": "view",
      "type": "function"
    },
    {
      "inputs": [
        {
          "internalType": "address",
          "name": "fork",
          "type": "address"
        },
        {
          "internalType": "uint256",
          "name": "amountOut",
          "type": "uint256"
        },
        {
          "internalType": "uint256",
          "name": "amountInMax",
          "type": "uint256"
        },
        {
          "internalType": "address[]",
          "name": "path",
          "type": "address[]"
        },
        {
          "internalType": "address",
          "name": "referee",
          "type": "address"
        }
      ],
      "name": "swapTokensForExactETH",
      "outputs": [
        {
          "internalType": "uint256[]",
          "name": "amounts",
          "type": "uint256[]"
        }
      ],
      "stateMutability": "nonpayable",
      "type": "function"
    },
    {
      "inputs": [
        {
          "internalType": "address",
          "name": "fork",
          "type": "address"
        },
        {
          "internalType": "uint256",
          "name": "amountOut",
          "type": "uint256"
        },
        {
          "internalType": "uint256",
          "name": "amountInMax",
          "type": "uint256"
        },
        {
          "internalType": "address[]",
          "name": "path",
          "type": "address[]"
        },
        {
          "internalType": "address",
          "name": "referee",
          "type": "address"
        }
      ],
      "name": "swapTokensForExactTokens",
      "outputs": [
        {
          "internalType": "uint256[]",
          "name": "amounts",
          "type": "uint256[]"
        }
      ],
      "stateMutability": "nonpayable",
      "type": "function"
    },
    {
      "inputs": [
        {
          "internalType": "address",
          "name": "newOwner",
          "type": "address"
        }
      ],
      "name": "transferOwnership",
      "outputs": [],
      "stateMutability": "nonpayable",
      "type": "function"
    },
    {
      "inputs": [],
      "name": "unpause",
      "outputs": [],
      "stateMutability": "nonpayable",
      "type": "function"
    },
    {
      "inputs": [
        {
          "internalType": "uint256",
          "name": "newBalanceThreshold",
          "type": "uint256"
        }
      ],
      "name": "updateBalanceThreshold",
      "outputs": [],
      "stateMutability": "nonpayable",
      "type": "function"
    },
    {
      "inputs": [
        {
          "internalType": "address",
          "name": "account",
          "type": "address"
        },
        {
          "internalType": "uint16",
          "name": "referralRate",
          "type": "uint16"
        }
      ],
      "name": "updateCustomReferralRewardRate",
      "outputs": [
        {
          "internalType": "uint256",
          "name": "",
          "type": "uint256"
        }
      ],
      "stateMutability": "nonpayable",
      "type": "function"
    },
    {
      "inputs": [
        {
          "internalType": "address payable",
          "name": "newFeeReceiver",
          "type": "address"
        }
      ],
      "name": "updateFeeReceiver",
      "outputs": [],
      "stateMutability": "nonpayable",
      "type": "function"
    },
    {
      "inputs": [
        {
          "internalType": "address",
          "name": "_factory",
          "type": "address"
        },
        {
          "internalType": "bytes",
          "name": "_initCode",
          "type": "bytes"
        },
        {
          "internalType": "bool",
          "name": "_activated",
          "type": "bool"
        }
      ],
      "name": "updateFork",
      "outputs": [],
      "stateMutability": "nonpayable",
      "type": "function"
    },
    {
      "inputs": [
        {
          "internalType": "address",
          "name": "newReferralRegistry",
          "type": "address"
        }
      ],
      "name": "updateReferralRegistry",
      "outputs": [],
      "stateMutability": "nonpayable",
      "type": "function"
    },
    {
      "inputs": [
        {
          "internalType": "uint16",
          "name": "newReferralRewardRate",
          "type": "uint16"
        }
      ],
      "name": "updateReferralRewardRate",
      "outputs": [],
      "stateMutability": "nonpayable",
      "type": "function"
    },
    {
      "inputs": [
        {
          "internalType": "bool",
          "name": "newReferralsActivated",
          "type": "bool"
        }
      ],
      "name": "updateReferralsActivated",
      "outputs": [],
      "stateMutability": "nonpayable",
      "type": "function"
    },
    {
      "inputs": [
        {
          "internalType": "uint16",
          "name": "newSwapFee",
          "type": "uint16"
        }
      ],
      "name": "updateSwapFee",
      "outputs": [],
      "stateMutability": "nonpayable",
      "type": "function"
    },
    {
      "inputs": [
        {
          "internalType": "address",
          "name": "_account",
          "type": "address"
        }
      ],
      "name": "userAboveBalanceThreshold",
      "outputs": [
        {
          "internalType": "bool",
          "name": "",
          "type": "bool"
        }
      ],
      "stateMutability": "view",
      "type": "function"
    },
    {
      "inputs": [
        {
          "internalType": "address",
          "name": "token",
          "type": "address"
        },
        {
          "internalType": "address",
          "name": "to",
          "type": "address"
        },
        {
          "internalType": "uint256",
          "name": "amount",
          "type": "uint256"
        }
      ],
      "name": "withdrawERC20Token",
      "outputs": [],
      "stateMutability": "nonpayable",
      "type": "function"
    },
    {
      "inputs": [
        {
          "internalType": "address payable",
          "name": "to",
          "type": "address"
        },
        {
          "internalType": "uint256",
          "name": "amount",
          "type": "uint256"
        }
      ],
      "name": "withdrawETH",
      "outputs": [],
      "stateMutability": "nonpayable",
      "type": "function"
    },
    {
      "inputs": [],
      "name": "zeroEx",
      "outputs": [
        {
          "internalType": "address payable",
          "name": "",
          "type": "address"
        }
      ],
      "stateMutability": "view",
      "type": "function"
    },
    {
      "stateMutability": "payable",
      "type": "receive"
    }
  ],
  "transactionHash": "0x2ed9be187cc4c3a2958f32461fccbb2373a17ddead5904d016a3a34bc20beae1",
  "args": [
    "0xbb4cdb9cbd36b01bd1cbaebf2de08d9173bc095c",
    50,
    1000,
    "0x02419fe9383D8fD96aF6B37e2804a2490F9BFD9f",
    {
      "type": "BigNumber",
      "hex": "0x4563918244f40000"
    },
    "0x83A86adf1a7c56e77d36d585B808052e0a2aAD0e",
    "0xCe2C25620eD8213c95C8eB9a9095bFa4Ab7Bf396",
    "0xdef1c0ded9bec7f1a1670819833240f027b25eff"
  ],
  "solcInputHash": "6686b3dd0e86f17e0af6334036e5b5fd",
  "bytecode": "0x60c06040523480156200001157600080fd5b506040516200617e3803806200617e83398181016040526101008110156200003857600080fd5b508051602082015160408301516060840151608085015160a086015160c087015160e0909701519596949593949293919290916000620000806001600160e01b036200018a16565b600080546001600160a01b0319166001600160a01b0383169081178255604051929350917f8be0079c531659141344cd1fd0a4f28419497f9722a3daafe3b4186f6b6457e0908290a3506000805460ff60a01b19169055600180556001600160601b0319606098891b81166080526002805460058054600380546001600160a01b03998a166001600160a01b031991821617909155600499909955958716620100000262010000600160b01b031961ffff9c8d1661ffff199094169390931792909216919091179091559190981b90971660a05260ff60b01b199390911693909416600160a01b0261ffff60a01b1990941693909317929092161716600160b01b1790556200018e565b3390565b60805160601c60a05160601c615f716200020d600039806103415280611c2a528061408c5250806114e2528061177b52806119c952806127525280612ca95280612d595280612dcd5280613145528061328b5280613313528061354b52806136b5528061373d52806139ce5280613b195280613bb05250615f716000f3fe60806040526004361061026b5760003560e01c806393228dda11610144578063d113efc4116100b6578063e5ae0c321161007a578063e5ae0c3214611032578063e94265c414611060578063e96b2f5014611093578063f2fde38b146110bf578063fe1b194e146110f2578063fe4ad4461461117b57610272565b8063d113efc414610e32578063d73792a914610e65578063d758bcc614610e7a578063db12c8e714610f06578063e229357114610f9257610272565b8063c00a315911610108578063c00a315914610c79578063c317377414610d06578063c69bebe414610d1b578063caa9b5cb14610d4e578063cacb6d4314610d7c578063cd68561814610da657610272565b806393228dda14610b0f578063a3a4bc9a14610b24578063ad5c464814610bc4578063b3f0067414610bd9578063bdf7710814610bee57610272565b806354cf2aeb116101dd578063715018a6116101a1578063715018a6146109ca5780637cde0c74146109df5780638456cb5914610a12578063882f3b8514610a275780638da5cb5b14610ac7578063927e897a14610adc57610272565b806354cf2aeb1461086957806357d1b31b146108955780635c975abb146108d85780636553b712146108ed578063692247c31461098d57610272565b80633f4ba83a1161022f5780633f4ba83a1461068d5780633f4e48bb146106a25780634782f779146107425780634e627e621461077b5780634fb5df08146107ac57806352ab413b1461085457610272565b8063060f58c3146104c7578063279f32911461050c5780632def48b1146105355780632f9120051461056a578063371667091461059d57610272565b3661027257005b61027b33611190565b6102c5576040805162461bcd60e51b8152602060048201526016602482015275233637b7bd2937baba32b91d102327a92124a22222a760511b604482015290519081900360640190fd5b6000610311600080368080601f016020809104026020016040519081016040528093929190818152602001838380828437600092019190915250929392505063ffffffff61121a169050565b60408051634b97ee9360e11b81526001600160e01b03198316600482015290519192506000916001600160a01b037f0000000000000000000000000000000000000000000000000000000000000000169163972fdd2691602480830192602092919082900301818787803b15801561038857600080fd5b505af115801561039c573d6000803e3d6000fd5b505050506040513d60208110156103b257600080fd5b505190506001600160a01b038116610411576040805162461bcd60e51b815260206004820152601e60248201527f466c6f6f7a526f757465723a204e4f5f494d504c454d454e544154494f4e0000604482015290519081900360640190fd5b6000816001600160a01b03166000366040518083838082843760405192019450600093509091505080830381855af49150503d806000811461046f576040519150601f19603f3d011682016040523d82523d6000602084013e610474565b606091505b50509050806104c2576040805162461bcd60e51b8152602060048201526015602482015274119b1bdbde949bdd5d195c8e881491559154951151605a1b604482015290519081900360640190fd5b505050005b3480156104d357600080fd5b506104fa600480360360208110156104ea57600080fd5b50356001600160a01b031661125d565b60408051918252519081900360200190f35b34801561051857600080fd5b506105216112fa565b604080519115158252519081900360200190f35b34801561054157600080fd5b506105686004803603602081101561055857600080fd5b50356001600160a01b031661130a565b005b34801561057657600080fd5b506105216004803603602081101561058d57600080fd5b50356001600160a01b03166113ca565b3480156105a957600080fd5b5061063d600480360360a08110156105c057600080fd5b6001600160a01b038235169160208101359160408201359190810190608081016060820135600160201b8111156105f657600080fd5b82018360208201111561060857600080fd5b803590602001918460208302840111600160201b8311171561062957600080fd5b9193509150356001600160a01b03166113df565b60408051602080825283518183015283519192839290830191858101910280838360005b83811015610679578181015183820152602001610661565b505050509050019250505060405180910390f35b34801561069957600080fd5b5061056861185a565b3480156106ae57600080fd5b5061063d600480360360a08110156106c557600080fd5b6001600160a01b038235169160208101359160408201359190810190608081016060820135600160201b8111156106fb57600080fd5b82018360208201111561070d57600080fd5b803590602001918460208302840111600160201b8311171561072e57600080fd5b9193509150356001600160a01b03166118c6565b34801561074e57600080fd5b506105686004803603604081101561076557600080fd5b506001600160a01b038135169060200135611b08565b34801561078757600080fd5b50610790611b78565b604080516001600160a01b039092168252519081900360200190f35b3480156107b857600080fd5b506107df600480360360208110156107cf57600080fd5b50356001600160a01b0316611b8d565b6040805160208082528351818301528351919283929083019185019080838360005b83811015610819578181015183820152602001610801565b50505050905090810190601f1680156108465780820380516001836020036101000a031916815260200191505b509250505060405180910390f35b34801561086057600080fd5b50610790611c28565b34801561087557600080fd5b5061087e611c4c565b6040805161ffff9092168252519081900360200190f35b3480156108a157600080fd5b50610568600480360360608110156108b857600080fd5b506001600160a01b03813581169160208101359091169060400135611c56565b3480156108e457600080fd5b50610521611cc8565b3480156108f957600080fd5b50610568600480360360a081101561091057600080fd5b6001600160a01b038235169160208101359160408201359190810190608081016060820135600160201b81111561094657600080fd5b82018360208201111561095857600080fd5b803590602001918460208302840111600160201b8311171561097957600080fd5b9193509150356001600160a01b0316611cd9565b34801561099957600080fd5b506104fa600480360360408110156109b057600080fd5b5080356001600160a01b0316906020013561ffff16612043565b3480156109d657600080fd5b50610568612167565b3480156109eb57600080fd5b5061087e60048036036020811015610a0257600080fd5b50356001600160a01b0316612213565b348015610a1e57600080fd5b50610568612229565b348015610a3357600080fd5b5061063d600480360360a0811015610a4a57600080fd5b6001600160a01b038235169160208101359160408201359190810190608081016060820135600160201b811115610a8057600080fd5b820183602082011115610a9257600080fd5b803590602001918460208302840111600160201b83111715610ab357600080fd5b9193509150356001600160a01b0316612293565b348015610ad357600080fd5b506107906124fb565b348015610ae857600080fd5b5061052160048036036020811015610aff57600080fd5b50356001600160a01b031661250a565b348015610b1b57600080fd5b50610790612592565b348015610b3057600080fd5b5061063d600480360360a0811015610b4757600080fd5b6001600160a01b038235169160208101359160408201359190810190608081016060820135600160201b811115610b7d57600080fd5b820183602082011115610b8f57600080fd5b803590602001918460208302840111600160201b83111715610bb057600080fd5b9193509150356001600160a01b03166125a1565b348015610bd057600080fd5b50610790612750565b348015610be557600080fd5b50610790612774565b348015610bfa57600080fd5b5061056860048036036040811015610c1157600080fd5b6001600160a01b038235169190810190604081016020820135600160201b811115610c3b57600080fd5b820183602082011115610c4d57600080fd5b803590602001918460018302840111600160201b83111715610c6e57600080fd5b509092509050612783565b348015610c8557600080fd5b5061056860048036036060811015610c9c57600080fd5b6001600160a01b038235169190810190604081016020820135600160201b811115610cc657600080fd5b820183602082011115610cd857600080fd5b803590602001918460018302840111600160201b83111715610cf957600080fd5b91935091503515156128cd565b348015610d1257600080fd5b506104fa6129ab565b348015610d2757600080fd5b5061056860048036036020811015610d3e57600080fd5b50356001600160a01b03166129b1565b348015610d5a57600080fd5b5061056860048036036020811015610d7157600080fd5b503561ffff16612a67565b348015610d8857600080fd5b5061056860048036036020811015610d9f57600080fd5b5035612b13565b61056860048036036080811015610dbc57600080fd5b6001600160a01b0382351691602081013591810190606081016040820135600160201b811115610deb57600080fd5b820183602082011115610dfd57600080fd5b803590602001918460208302840111600160201b83111715610e1e57600080fd5b9193509150356001600160a01b0316612bb0565b348015610e3e57600080fd5b5061079060048036036020811015610e5557600080fd5b50356001600160a01b0316612fee565b348015610e7157600080fd5b506104fa613044565b61063d60048036036080811015610e9057600080fd5b6001600160a01b0382351691602081013591810190606081016040820135600160201b811115610ebf57600080fd5b820183602082011115610ed157600080fd5b803590602001918460208302840111600160201b83111715610ef257600080fd5b9193509150356001600160a01b031661304a565b61063d60048036036080811015610f1c57600080fd5b6001600160a01b0382351691602081013591810190606081016040820135600160201b811115610f4b57600080fd5b820183602082011115610f5d57600080fd5b803590602001918460208302840111600160201b83111715610f7e57600080fd5b9193509150356001600160a01b0316613450565b348015610f9e57600080fd5b50610568600480360360a0811015610fb557600080fd5b6001600160a01b038235169160208101359160408201359190810190608081016060820135600160201b811115610feb57600080fd5b820183602082011115610ffd57600080fd5b803590602001918460208302840111600160201b8311171561101e57600080fd5b9193509150356001600160a01b03166138cd565b34801561103e57600080fd5b506105686004803603602081101561105557600080fd5b503561ffff16613c9f565b34801561106c57600080fd5b506105216004803603602081101561108357600080fd5b50356001600160a01b0316611190565b34801561109f57600080fd5b50610568600480360360208110156110b657600080fd5b50351515613d57565b3480156110cb57600080fd5b50610568600480360360208110156110e257600080fd5b50356001600160a01b0316613e0c565b6105686004803603608081101561110857600080fd5b810190602081018135600160201b81111561112257600080fd5b82018360208201111561113457600080fd5b803590602001918460018302840111600160201b8311171561115557600080fd5b91935091506001600160a01b038135811691602081013582169160409091013516613f0e565b34801561118757600080fd5b5061087e6145f5565b60048054600354604080516370a0823160e01b81526001600160a01b03868116958201959095529051600094909216916370a0823191602480820192602092909190829003018186803b1580156111e657600080fd5b505afa1580156111fa573d6000803e3d6000fd5b505050506040513d602081101561121057600080fd5b5051101592915050565b600081600401835110156112405761124061123b6003855185600401614606565b61467b565b5060208183018101519101906001600160e01b0319165b92915050565b60048054600354604080516370a0823160e01b81526001600160a01b03868116958201959095529051600094909216916370a0823191602480820192602092909190829003018186803b1580156112b357600080fd5b505afa1580156112c7573d6000803e3d6000fd5b505050506040513d60208110156112dd57600080fd5b505110156112f15760025461ffff166112f4565b60005b50919050565b600554600160b01b900460ff1681565b611312614683565b6001600160a01b03166113236124fb565b6001600160a01b03161461136c576040805162461bcd60e51b81526020600482018190526024820152600080516020615e4e833981519152604482015290519081900360640190fd5b600280546001600160a01b03831662010000810262010000600160b01b03199092169190911790915560408051918252517f9d4414af8d61d821c1ad25f0aadfa28aa386c452716a31fc1f7fdbd9b9d364dc9181900360200190a150565b60076020526000908152604090205460ff1681565b60606113e9611cc8565b1561142e576040805162461bcd60e51b815260206004820152601060248201526f14185d5cd8589b194e881c185d5cd95960821b604482015290519081900360640190fd5b6001600160a01b038716600090815260076020526040902054879060ff1661148b576040805162461bcd60e51b815260206004820152601c6024820152600080516020615ef8833981519152604482015290519081900360640190fd5b82336001600160a01b03821614156114d8576040805162461bcd60e51b815260206004820152601a6024820152600080516020615dea833981519152604482015290519081900360640190fd5b6001600160a01b037f0000000000000000000000000000000000000000000000000000000000000000168686600019810181811061151257fe5b905060200201356001600160a01b03166001600160a01b03161461156b576040805162461bcd60e51b81526020600482015260196024820152600080516020615e91833981519152604482015290519081900360640190fd5b61157484614687565b600254909450600090819081906115c4906115be906115a0906127109061ffff1663ffffffff61481d16565b6115b28e61271063ffffffff61487a16565b9063ffffffff6148da16565b88614941565b919450925090506116288c6115ef836115e3878763ffffffff614a6816565b9063ffffffff614a6816565b8b8b80806020026020016040519081016040528093929190818152602001838360200280828437600092019190915250614ac292505050565b95508a83146116685760405162461bcd60e51b8152600401808060200182810382526024815260200180615eb16024913960400191505060405180910390fd5b898660008151811061167657fe5b602002602001015111156116bb5760405162461bcd60e51b8152600401808060200182810382526023815260200180615dc76023913960400191505060405180910390fd5b611739898960008181106116cb57fe5b905060200201356001600160a01b03163361171f8f8d8d60008181106116ed57fe5b905060200201356001600160a01b03168e8e600181811061170a57fe5b905060200201356001600160a01b0316614bfd565b8960008151811061172c57fe5b6020026020010151614d46565b6117798c878b8b80806020026020016040519081016040528093929190818152602001838360200280828437600092019190915250309250614ea3915050565b7f00000000000000000000000000000000000000000000000000000000000000006001600160a01b0316632e1a7d4d876001895103815181106117b857fe5b60200260200101516040518263ffffffff1660e01b815260040180828152602001915050600060405180830381600087803b1580156117f657600080fd5b505af115801561180a573d6000803e3d6000fd5b5050505061181833846150aa565b811561184b5761184b60008a8a600019810181811061183357fe5b905060200201356001600160a01b031689858561519d565b50505050509695505050505050565b611862614683565b6001600160a01b03166118736124fb565b6001600160a01b0316146118bc576040805162461bcd60e51b81526020600482018190526024820152600080516020615e4e833981519152604482015290519081900360640190fd5b6118c46152b4565b565b60606118d0611cc8565b15611915576040805162461bcd60e51b815260206004820152601060248201526f14185d5cd8589b194e881c185d5cd95960821b604482015290519081900360640190fd5b6001600160a01b038716600090815260076020526040902054879060ff16611972576040805162461bcd60e51b815260206004820152601c6024820152600080516020615ef8833981519152604482015290519081900360640190fd5b82336001600160a01b03821614156119bf576040805162461bcd60e51b815260206004820152601a6024820152600080516020615dea833981519152604482015290519081900360640190fd5b6001600160a01b037f000000000000000000000000000000000000000000000000000000000000000016868660001981018181106119f957fe5b905060200201356001600160a01b03166001600160a01b031614611a52576040805162461bcd60e51b81526020600482015260196024820152600080516020615e91833981519152604482015290519081900360640190fd5b611a5b84614687565b9350611a9b898988888080602002602001604051908101604052809392919081815260200183836020028082843760009201919091525061535792505050565b92506000806000611ac386600188510381518110611ab557fe5b602002602001015188614941565b925092509250898310156116bb5760405162461bcd60e51b8152600401808060200182810382526027815260200180615da06027913960400191505060405180910390fd5b611b10614683565b6001600160a01b0316611b216124fb565b6001600160a01b031614611b6a576040805162461bcd60e51b81526020600482018190526024820152600080516020615e4e833981519152604482015290519081900360640190fd5b611b7482826150aa565b5050565b6002546201000090046001600160a01b031681565b60086020908152600091825260409182902080548351601f600260001961010060018616150201909316929092049182018490048402810184019094528084529091830182828015611c205780601f10611bf557610100808354040283529160200191611c20565b820191906000526020600020905b815481529060010190602001808311611c0357829003601f168201915b505050505081565b7f000000000000000000000000000000000000000000000000000000000000000081565b60025461ffff1681565b611c5e614683565b6001600160a01b0316611c6f6124fb565b6001600160a01b031614611cb8576040805162461bcd60e51b81526020600482018190526024820152600080516020615e4e833981519152604482015290519081900360640190fd5b611cc383838361547c565b505050565b600054600160a01b900460ff165b90565b611ce1611cc8565b15611d26576040805162461bcd60e51b815260206004820152601060248201526f14185d5cd8589b194e881c185d5cd95960821b604482015290519081900360640190fd5b6001600160a01b038616600090815260076020526040902054869060ff16611d83576040805162461bcd60e51b815260206004820152601c6024820152600080516020615ef8833981519152604482015290519081900360640190fd5b81336001600160a01b0382161415611dd0576040805162461bcd60e51b815260206004820152601a6024820152600080516020615dea833981519152604482015290519081900360640190fd5b611dd983614687565b92506000806000611dea8a87614941565b925092509250611e4588886000818110611e0057fe5b905060200201356001600160a01b031633611e3f8e8c8c6000818110611e2257fe5b905060200201356001600160a01b03168d8d600181811061170a57fe5b86614d46565b600088886000198101818110611e5757fe5b604080516370a0823160e01b81523360048201529051602092830294909401356001600160a01b0316936370a08231935060248083019392829003018186803b158015611ea357600080fd5b505afa158015611eb7573d6000803e3d6000fd5b505050506040513d6020811015611ecd57600080fd5b50516040805160208b810282810182019093528b8252929350611f0f928f928d918d9182918501908490808284376000920191909152503392506155df915050565b89611fa8828b8b6000198101818110611f2457fe5b604080516370a0823160e01b81523360048201529051602092830294909401356001600160a01b0316936370a08231935060248083019392829003018186803b158015611f7057600080fd5b505afa158015611f84573d6000803e3d6000fd5b505050506040513d6020811015611f9a57600080fd5b50519063ffffffff61481d16565b1015611fe55760405162461bcd60e51b8152600401808060200182810382526027815260200180615da06027913960400191505060405180910390fd5b82156120355761203589896000818110611ffb57fe5b905060200201356001600160a01b03168a8a60018d8d90500381811061201d57fe5b905060200201356001600160a01b031689868661519d565b505050505050505050505050565b600061204d614683565b6001600160a01b031661205e6124fb565b6001600160a01b0316146120a7576040805162461bcd60e51b81526020600482018190526024820152600080516020615e4e833981519152604482015290519081900360640190fd5b6127108261ffff161115612102576040805162461bcd60e51b815260206004820152601960248201527f466c6f6f7a526f757465723a20494e56414c49445f5241544500000000000000604482015290519081900360640190fd5b6001600160a01b038316600081815260066020908152604091829020805461ffff191661ffff8716908117909155825190815291517f9b182573c5f49d27d10ab506c71acd90f3b44f15c35eb906f9a40d9c35412e419281900390910190a292915050565b61216f614683565b6001600160a01b03166121806124fb565b6001600160a01b0316146121c9576040805162461bcd60e51b81526020600482018190526024820152600080516020615e4e833981519152604482015290519081900360640190fd5b600080546040516001600160a01b03909116907f8be0079c531659141344cd1fd0a4f28419497f9722a3daafe3b4186f6b6457e0908390a3600080546001600160a01b0319169055565b60066020526000908152604090205461ffff1681565b612231614683565b6001600160a01b03166122426124fb565b6001600160a01b03161461228b576040805162461bcd60e51b81526020600482018190526024820152600080516020615e4e833981519152604482015290519081900360640190fd5b6118c46158b0565b606061229d611cc8565b156122e2576040805162461bcd60e51b815260206004820152601060248201526f14185d5cd8589b194e881c185d5cd95960821b604482015290519081900360640190fd5b6001600160a01b038716600090815260076020526040902054879060ff1661233f576040805162461bcd60e51b815260206004820152601c6024820152600080516020615ef8833981519152604482015290519081900360640190fd5b82336001600160a01b038216141561238c576040805162461bcd60e51b815260206004820152601a6024820152600080516020615dea833981519152604482015290519081900360640190fd5b61239584614687565b600254909450600090819081906123c1906115be906115a0906127109061ffff1663ffffffff61481d16565b919450925090506123e08c6115ef836115e3878763ffffffff614a6816565b95508a83146124205760405162461bcd60e51b8152600401808060200182810382526024815260200180615eb16024913960400191505060405180910390fd5b898660008151811061242e57fe5b602002602001015111156124735760405162461bcd60e51b8152600401808060200182810382526023815260200180615dc76023913960400191505060405180910390fd5b612483898960008181106116cb57fe5b6124c38c878b8b80806020026020016040519081016040528093929190818152602001838360200280828437600092019190915250339250614ea3915050565b811561184b5761184b898960008181106124d957fe5b905060200201356001600160a01b03168a8a60018d8d90500381811061183357fe5b6000546001600160a01b031690565b6002546040805163493f44bd60e11b81526001600160a01b03848116600483015291516000936201000090049092169163927e897a91602480820192602092909190829003018186803b15801561256057600080fd5b505afa158015612574573d6000803e3d6000fd5b505050506040513d602081101561258a57600080fd5b505192915050565b6003546001600160a01b031681565b60606125ab611cc8565b156125f0576040805162461bcd60e51b815260206004820152601060248201526f14185d5cd8589b194e881c185d5cd95960821b604482015290519081900360640190fd5b6001600160a01b038716600090815260076020526040902054879060ff1661264d576040805162461bcd60e51b815260206004820152601c6024820152600080516020615ef8833981519152604482015290519081900360640190fd5b82336001600160a01b038216141561269a576040805162461bcd60e51b815260206004820152601a6024820152600080516020615dea833981519152604482015290519081900360640190fd5b6126a384614687565b935060008060006126b48b88614941565b9250925092506126f88c848b8b8080602002602001604051908101604052809392919081815260200183836020028082843760009201919091525061535792505050565b9550898660018851038151811061270b57fe5b602002602001015110156124735760405162461bcd60e51b8152600401808060200182810382526027815260200180615da06027913960400191505060405180910390fd5b7f000000000000000000000000000000000000000000000000000000000000000081565b6005546001600160a01b031681565b61278b614683565b6001600160a01b031661279c6124fb565b6001600160a01b0316146127e5576040805162461bcd60e51b81526020600482018190526024820152600080516020615e4e833981519152604482015290519081900360640190fd5b6001600160a01b03831660009081526007602052604090205460ff1615612853576040805162461bcd60e51b815260206004820152601860248201527f466c6f6f7a526f757465723a204143544956455f464f524b0000000000000000604482015290519081900360640190fd5b6001600160a01b0383166000908152600760209081526040808320805460ff191660011790556008909152902061288b908383615cbb565b50604080516001600160a01b038516815290517f18191c6cb9d1bb0cd78a863c5efffb51200f41513b93a678d368156b26d7cc949181900360200190a1505050565b6128d5614683565b6001600160a01b03166128e66124fb565b6001600160a01b03161461292f576040805162461bcd60e51b81526020600482018190526024820152600080516020615e4e833981519152604482015290519081900360640190fd5b6001600160a01b0384166000908152600760209081526040808320805460ff191685151517905560089091529020612968908484615cbb565b50604080516001600160a01b038616815290517fd3e17274581b648825e308eb9fca7b795aa9ca651ee0953b1f66dd35cbc099789181900360200190a150505050565b60045481565b6129b9614683565b6001600160a01b03166129ca6124fb565b6001600160a01b031614612a13576040805162461bcd60e51b81526020600482018190526024820152600080516020615e4e833981519152604482015290519081900360640190fd5b600580546001600160a01b0383166001600160a01b0319909116811790915560408051918252517f27aae5db36d94179909d019ae0b1ac7c16d96d953148f63c0f6a0a9c8ead79ee9181900360200190a150565b612a6f614683565b6001600160a01b0316612a806124fb565b6001600160a01b031614612ac9576040805162461bcd60e51b81526020600482018190526024820152600080516020615e4e833981519152604482015290519081900360640190fd5b6002805461ffff831661ffff19909116811790915560408051918252517fc8d25ca8616825eb60e022dde2d5ec038bdac6dd1bd8bba3fb5f74de553d06289181900360200190a150565b612b1b614683565b6001600160a01b0316612b2c6124fb565b6001600160a01b031614612b75576040805162461bcd60e51b81526020600482018190526024820152600080516020615e4e833981519152604482015290519081900360640190fd5b60048190556040805182815290517fc86ab5ae638c0e95d21e0d47f77aa3a65ded219f7b70bc6ea894107f437d56369181900360200190a150565b612bb8611cc8565b15612bfd576040805162461bcd60e51b815260206004820152601060248201526f14185d5cd8589b194e881c185d5cd95960821b604482015290519081900360640190fd5b6001600160a01b038516600090815260076020526040902054859060ff16612c5a576040805162461bcd60e51b815260206004820152601c6024820152600080516020615ef8833981519152604482015290519081900360640190fd5b81336001600160a01b0382161415612ca7576040805162461bcd60e51b815260206004820152601a6024820152600080516020615dea833981519152604482015290519081900360640190fd5b7f00000000000000000000000000000000000000000000000000000000000000006001600160a01b031685856000818110612cde57fe5b905060200201356001600160a01b03166001600160a01b031614612d37576040805162461bcd60e51b81526020600482015260196024820152600080516020615e91833981519152604482015290519081900360640190fd5b612d4083614687565b92506000806000612d513487614941565b9250925092507f00000000000000000000000000000000000000000000000000000000000000006001600160a01b031663d0e30db0846040518263ffffffff1660e01b81526004016000604051808303818588803b158015612db257600080fd5b505af1158015612dc6573d6000803e3d6000fd5b50505050507f00000000000000000000000000000000000000000000000000000000000000006001600160a01b031663a9059cbb612e288c8b8b6000818110612e0b57fe5b905060200201356001600160a01b03168c8c600181811061170a57fe5b856040518363ffffffff1660e01b815260040180836001600160a01b03166001600160a01b0316815260200182815260200192505050602060405180830381600087803b158015612e7857600080fd5b505af1158015612e8c573d6000803e3d6000fd5b505050506040513d6020811015612ea257600080fd5b5051612eaa57fe5b600088886000198101818110612ebc57fe5b604080516370a0823160e01b81523360048201529051602092830294909401356001600160a01b0316936370a08231935060248083019392829003018186803b158015612f0857600080fd5b505afa158015612f1c573d6000803e3d6000fd5b505050506040513d6020811015612f3257600080fd5b50516040805160208b810282810182019093528b8252929350612f74928e928d918d9182918501908490808284376000920191909152503392506155df915050565b89612f89828b8b6000198101818110611f2457fe5b1015612fc65760405162461bcd60e51b8152600401808060200182810382526027815260200180615da06027913960400191505060405180910390fd5b8215612fe157612fe160008a8a600019810181811061201d57fe5b5050505050505050505050565b60025460408051633444fbf160e21b81526001600160a01b03848116600483015291516000936201000090049092169163d113efc491602480820192602092909190829003018186803b15801561256057600080fd5b61271081565b6060613054611cc8565b15613099576040805162461bcd60e51b815260206004820152601060248201526f14185d5cd8589b194e881c185d5cd95960821b604482015290519081900360640190fd5b6001600160a01b038616600090815260076020526040902054869060ff166130f6576040805162461bcd60e51b815260206004820152601c6024820152600080516020615ef8833981519152604482015290519081900360640190fd5b82336001600160a01b0382161415613143576040805162461bcd60e51b815260206004820152601a6024820152600080516020615dea833981519152604482015290519081900360640190fd5b7f00000000000000000000000000000000000000000000000000000000000000006001600160a01b03168686600081811061317a57fe5b905060200201356001600160a01b03166001600160a01b0316146131d3576040805162461bcd60e51b81526020600482015260196024820152600080516020615e91833981519152604482015290519081900360640190fd5b6131dc84614687565b935060008060006131ed3488614941565b9250925092506132318b848b8b8080602002602001604051908101604052809392919081815260200183836020028082843760009201919091525061535792505050565b9550898660018851038151811061324457fe5b602002602001015110156132895760405162461bcd60e51b8152600401808060200182810382526027815260200180615da06027913960400191505060405180910390fd5b7f00000000000000000000000000000000000000000000000000000000000000006001600160a01b031663d0e30db0876000815181106132c557fe5b60200260200101516040518263ffffffff1660e01b81526004016000604051808303818588803b1580156132f857600080fd5b505af115801561330c573d6000803e3d6000fd5b50505050507f00000000000000000000000000000000000000000000000000000000000000006001600160a01b031663a9059cbb6133518d8c8c6000818110611e2257fe5b8860008151811061335e57fe5b60200260200101516040518363ffffffff1660e01b815260040180836001600160a01b03166001600160a01b0316815260200182815260200192505050602060405180830381600087803b1580156133b557600080fd5b505af11580156133c9573d6000803e3d6000fd5b505050506040513d60208110156133df57600080fd5b50516133e757fe5b6134278b878b8b80806020026020016040519081016040528093929190818152602001838360200280828437600092019190915250339250614ea3915050565b81156134425761344260008a8a600019810181811061183357fe5b505050505095945050505050565b606061345a611cc8565b1561349f576040805162461bcd60e51b815260206004820152601060248201526f14185d5cd8589b194e881c185d5cd95960821b604482015290519081900360640190fd5b6001600160a01b038616600090815260076020526040902054869060ff166134fc576040805162461bcd60e51b815260206004820152601c6024820152600080516020615ef8833981519152604482015290519081900360640190fd5b82336001600160a01b0382161415613549576040805162461bcd60e51b815260206004820152601a6024820152600080516020615dea833981519152604482015290519081900360640190fd5b7f00000000000000000000000000000000000000000000000000000000000000006001600160a01b03168686600081811061358057fe5b905060200201356001600160a01b03166001600160a01b0316146135d9576040805162461bcd60e51b81526020600482015260196024820152600080516020615e91833981519152604482015290519081900360640190fd5b6135e284614687565b93506136228888888880806020026020016040519081016040528093929190818152602001838360200280828437600092019190915250614ac292505050565b92506000806136458560008151811061363757fe5b602002602001015187614941565b925092505034613676826115e3858960008151811061366057fe5b6020026020010151614a6890919063ffffffff16565b11156136b35760405162461bcd60e51b8152600401808060200182810382526023815260200180615dc76023913960400191505060405180910390fd5b7f00000000000000000000000000000000000000000000000000000000000000006001600160a01b031663d0e30db0866000815181106136ef57fe5b60200260200101516040518263ffffffff1660e01b81526004016000604051808303818588803b15801561372257600080fd5b505af1158015613736573d6000803e3d6000fd5b50505050507f00000000000000000000000000000000000000000000000000000000000000006001600160a01b031663a9059cbb61377b8c8b8b6000818110612e0b57fe5b8760008151811061378857fe5b60200260200101516040518363ffffffff1660e01b815260040180836001600160a01b03166001600160a01b0316815260200182815260200192505050602060405180830381600087803b1580156137df57600080fd5b505af11580156137f3573d6000803e3d6000fd5b505050506040513d602081101561380957600080fd5b505161381157fe5b6138518a868a8a80806020026020016040519081016040528093929190818152602001838360200280828437600092019190915250339250614ea3915050565b81156138845761388460008989600019810181811061386c57fe5b905060200201356001600160a01b031688858561519d565b613899816115e3848860008151811061366057fe5b3411156138c0576138c0336138b9836115e3868a60008151811061366057fe5b34036150aa565b5050505095945050505050565b6138d5611cc8565b1561391a576040805162461bcd60e51b815260206004820152601060248201526f14185d5cd8589b194e881c185d5cd95960821b604482015290519081900360640190fd5b6001600160a01b038616600090815260076020526040902054869060ff16613977576040805162461bcd60e51b815260206004820152601c6024820152600080516020615ef8833981519152604482015290519081900360640190fd5b81336001600160a01b03821614156139c4576040805162461bcd60e51b815260206004820152601a6024820152600080516020615dea833981519152604482015290519081900360640190fd5b6001600160a01b037f000000000000000000000000000000000000000000000000000000000000000016858560001981018181106139fe57fe5b905060200201356001600160a01b03166001600160a01b031614613a57576040805162461bcd60e51b81526020600482015260196024820152600080516020615e91833981519152604482015290519081900360640190fd5b613a6083614687565b9250613ab785856000818110613a7257fe5b905060200201356001600160a01b031633613ab18b89896000818110613a9457fe5b905060200201356001600160a01b03168a8a600181811061170a57fe5b8a614d46565b613af6888686808060200260200160405190810160405280939291908181526020018383602002808284376000920191909152503092506155df915050565b604080516370a0823160e01b815230600482015290516000916001600160a01b037f000000000000000000000000000000000000000000000000000000000000000016916370a0823191602480820192602092909190829003018186803b158015613b6057600080fd5b505afa158015613b74573d6000803e3d6000fd5b505050506040513d6020811015613b8a57600080fd5b505160408051632e1a7d4d60e01b81526004810183905290519192506001600160a01b037f00000000000000000000000000000000000000000000000000000000000000001691632e1a7d4d9160248082019260009290919082900301818387803b158015613bf857600080fd5b505af1158015613c0c573d6000803e3d6000fd5b505050506000806000613c1f8488614941565b92509250925089831015613c7a576040805162461bcd60e51b815260206004820152601960248201527f466c6f6f7a526f757465723a204c4f575f534c49505041474500000000000000604482015290519081900360640190fd5b613c8433846150aa565b81156120355761203560008a8a600019810181811061183357fe5b613ca7614683565b6001600160a01b0316613cb86124fb565b6001600160a01b031614613d01576040805162461bcd60e51b81526020600482018190526024820152600080516020615e4e833981519152604482015290519081900360640190fd5b6005805461ffff8316600160a01b810261ffff60a01b199092169190911790915560408051918252517f2e8b87e2b3dff0b7b11ce73a61e3bb94498159c531480d9abf1307014b650af99181900360200190a150565b613d5f614683565b6001600160a01b0316613d706124fb565b6001600160a01b031614613db9576040805162461bcd60e51b81526020600482018190526024820152600080516020615e4e833981519152604482015290519081900360640190fd5b60058054821515600160b01b810260ff60b01b199092169190911790915560408051918252517f13a5d968457cb650b136b77bb4a3ff25f31b92939f2d8df0010911117b7ba9e09181900360200190a150565b613e14614683565b6001600160a01b0316613e256124fb565b6001600160a01b031614613e6e576040805162461bcd60e51b81526020600482018190526024820152600080516020615e4e833981519152604482015290519081900360640190fd5b6001600160a01b038116613eb35760405162461bcd60e51b8152600401808060200182810382526026815260200180615d7a6026913960400191505060405180910390fd5b600080546040516001600160a01b03808516939216917f8be0079c531659141344cd1fd0a4f28419497f9722a3daafe3b4186f6b6457e091a3600080546001600160a01b0319166001600160a01b0392909216919091179055565b60026001541415613f66576040805162461bcd60e51b815260206004820152601f60248201527f5265656e7472616e637947756172643a207265656e7472616e742063616c6c00604482015290519081900360640190fd5b6002600155613f73611cc8565b15613fb8576040805162461bcd60e51b815260206004820152601060248201526f14185d5cd8589b194e881c185d5cd95960821b604482015290519081900360640190fd5b80336001600160a01b0382161415614005576040805162461bcd60e51b815260206004820152601a6024820152600080516020615dea833981519152604482015290519081900360640190fd5b61400e82614687565b9150600061405c600088888080601f016020809104026020016040519081016040528093929190818152602001838380828437600092019190915250929392505063ffffffff61121a169050565b60408051634b97ee9360e11b81526001600160e01b03198316600482015290519192506000916001600160a01b037f0000000000000000000000000000000000000000000000000000000000000000169163972fdd2691602480830192602092919082900301818787803b1580156140d357600080fd5b505af11580156140e7573d6000803e3d6000fd5b505050506040513d60208110156140fd57600080fd5b505190506001600160a01b03811661415c576040805162461bcd60e51b815260206004820152601e60248201527f466c6f6f7a526f757465723a204e4f5f494d504c454d454e544154494f4e0000604482015290519081900360640190fd5b600061416733611190565b90508015614225576000826001600160a01b03168a8a6040518083838082843760405192019450600093509091505080830381855af49150503d80600081146141cc576040519150601f19603f3d011682016040523d82523d6000602084013e6141d1565b606091505b505090508061421f576040805162461bcd60e51b8152602060048201526015602482015274119b1bdbde949bdd5d195c8e881491559154951151605a1b604482015290519081900360640190fd5b506145e6565b341561439657600080600061423a3489614941565b92509250925061424e60008a8a858561519d565b6000856001600160a01b0316848e8e604051808383808284376040519201945060009350909150508083038185875af1925050503d80600081146142ae576040519150601f19603f3d011682016040523d82523d6000602084013e6142b3565b606091505b5050905080614301576040805162461bcd60e51b8152602060048201526015602482015274119b1bdbde949bdd5d195c8e881491559154951151605a1b604482015290519081900360640190fd5b61438d8a338c6001600160a01b03166370a08231306040518263ffffffff1660e01b815260040180826001600160a01b03166001600160a01b0316815260200191505060206040518083038186803b15801561435c57600080fd5b505afa158015614370573d6000803e3d6000fd5b505050506040513d602081101561438657600080fd5b505161547c565b505050506145e6565b604080516370a0823160e01b815233600482015290516000916001600160a01b038a16916370a0823191602480820192602092909190829003018186803b1580156143e057600080fd5b505afa1580156143f4573d6000803e3d6000fd5b505050506040513d602081101561440a57600080fd5b50516040519091506000906001600160a01b038516908c908c908083838082843760405192019450600093509091505080830381855af49150503d8060008114614470576040519150601f19603f3d011682016040523d82523d6000602084013e614475565b606091505b50509050806144c3576040805162461bcd60e51b8152602060048201526015602482015274119b1bdbde949bdd5d195c8e881491559154951151605a1b604482015290519081900360640190fd5b604080516370a0823160e01b815233600482015290516000916001600160a01b038c16916370a0823191602480820192602092909190829003018186803b15801561450d57600080fd5b505afa158015614521573d6000803e3d6000fd5b505050506040513d602081101561453757600080fd5b5051905080831161457f576040805162461bcd60e51b815260206004820152600d60248201526c24a72b20a624a22faa27a5a2a760991b604482015290519081900360640190fd5b60025460009081906145ce906145c8906145a6906127109061ffff1663ffffffff61481d16565b6115b26127106145bc8a8963ffffffff61481d16565b9063ffffffff61487a16565b8b614941565b92509250506145e08c8c8c858561519d565b50505050505b50506001805550505050505050565b600554600160a01b900461ffff1681565b6060632800659560e01b8484846040516024018084600781111561462657fe5b60ff1681526020018381526020018281526020019350505050604051602081830303815290604052906001600160e01b0319166020820180516001600160e01b03838183161783525050505090509392505050565b805160208201fd5b3390565b6002546040805163493f44bd60e11b8152336004820181905291516000936201000090046001600160a01b03169163927e897a916024808301926020929190829003018186803b1580156146da57600080fd5b505afa1580156146ee573d6000803e3d6000fd5b505050506040513d602081101561470457600080fd5b505115801561471b57506001600160a01b03831615155b1561479657600254604080516364e0b15960e01b81526001600160a01b0384811660048301528681166024830152915162010000909304909116916364e0b1599160448082019260009290919082900301818387803b15801561477d57600080fd5b505af1158015614791573d6000803e3d6000fd5b505050505b60025460408051633444fbf160e21b81526001600160a01b0384811660048301529151620100009093049091169163d113efc491602480820192602092909190829003018186803b1580156147ea57600080fd5b505afa1580156147fe573d6000803e3d6000fd5b505050506040513d602081101561481457600080fd5b50519392505050565b600082821115614874576040805162461bcd60e51b815260206004820152601e60248201527f536166654d6174683a207375627472616374696f6e206f766572666c6f770000604482015290519081900360640190fd5b50900390565b60008261488957506000611257565b8282028284828161489657fe5b04146148d35760405162461bcd60e51b8152600401808060200182810382526021815260200180615e2d6021913960400191505060405180910390fd5b9392505050565b6000808211614930576040805162461bcd60e51b815260206004820152601a60248201527f536166654d6174683a206469766973696f6e206279207a65726f000000000000604482015290519081900360640190fd5b81838161493957fe5b049392505050565b600080600061494f33611190565b1561496257508391506000905080614a61565b60025460009061498590612710906115b290899061ffff1663ffffffff61487a16565b9050614997868263ffffffff61481d16565b93506001600160a01b038516158015906149ba5750600554600160b01b900460ff165b15614a57576001600160a01b03851660009081526006602052604081205461ffff166149f357600554600160a01b900461ffff16614a11565b6001600160a01b03861660009081526006602052604090205461ffff165b9050614a2d6127106115b28461ffff851663ffffffff61487a16565b9250614a4f83614a43898863ffffffff61481d16565b9063ffffffff61481d16565b935050614a5f565b600091508092505b505b9250925092565b6000828201838110156148d3576040805162461bcd60e51b815260206004820152601b60248201527f536166654d6174683a206164646974696f6e206f766572666c6f770000000000604482015290519081900360640190fd5b6060600282511015614b09576040805162461bcd60e51b81526020600482015260196024820152600080516020615e91833981519152604482015290519081900360640190fd5b815167ffffffffffffffff81118015614b2157600080fd5b50604051908082528060200260200182016040528015614b4b578160200160208202803683370190505b5090508281600183510381518110614b5f57fe5b60209081029190910101528151600019015b8015614bf557600080614bae87866001860381518110614b8d57fe5b6020026020010151878681518110614ba157fe5b6020026020010151615939565b91509150614bd0848481518110614bc157fe5b60200260200101518383615a00565b846001850381518110614bdf57fe5b6020908102919091010152505060001901614b71565b509392505050565b6000806000614c0c8585615aee565b9150915085828260405160200180836001600160a01b03166001600160a01b031660601b8152601401826001600160a01b03166001600160a01b031660601b8152601401925050506040516020818303038152906040528051906020012060086000896001600160a01b03166001600160a01b0316815260200190815260200160002060405160200180806001600160f81b0319815250600101846001600160a01b03166001600160a01b031660601b815260140183815260200182805460018160011615610100020316600290048015614d1e5780601f10614cfc576101008083540402835291820191614d1e565b820191906000526020600020905b815481529060010190602001808311614d0a575b505060408051601f1981840301815291905280516020909101209a9950505050505050505050565b604080516001600160a01b0385811660248301528481166044830152606480830185905283518084039091018152608490920183526020820180516001600160e01b03166323b872dd60e01b17815292518251600094606094938a169392918291908083835b60208310614dcb5780518252601f199092019160209182019101614dac565b6001836020036101000a0380198251168184511680821785525050505050509050019150506000604051808303816000865af19150503d8060008114614e2d576040519150601f19603f3d011682016040523d82523d6000602084013e614e32565b606091505b5091509150818015614e60575080511580614e605750808060200190516020811015614e5d57600080fd5b50515b614e9b5760405162461bcd60e51b8152600401808060200182810382526024815260200180615f186024913960400191505060405180910390fd5b505050505050565b60005b60018351038110156150a357600080848381518110614ec157fe5b6020026020010151858460010181518110614ed857fe5b6020026020010151915091506000614ef08383615aee565b5090506000878560010181518110614f0457fe5b60200260200101519050600080836001600160a01b0316866001600160a01b031614614f3257826000614f36565b6000835b91509150600060028a51038810614f4d5788614f6e565b614f6e8c878c8b60020181518110614f6157fe5b6020026020010151614bfd565b9050614f7b8c8888614bfd565b6001600160a01b031663022c0d9f84848460006040519080825280601f01601f191660200182016040528015614fb8576020820181803683370190505b506040518563ffffffff1660e01b815260040180858152602001848152602001836001600160a01b03166001600160a01b0316815260200180602001828103825283818151815260200191508051906020019080838360005b83811015615029578181015183820152602001615011565b50505050905090810190601f1680156150565780820380516001836020036101000a031916815260200191505b5095505050505050600060405180830381600087803b15801561507857600080fd5b505af115801561508c573d6000803e3d6000fd5b505060019099019850614ea6975050505050505050565b5050505050565b604080516000808252602082019092526001600160a01b0384169083906040518082805190602001908083835b602083106150f65780518252601f1990920191602091820191016150d7565b6001836020036101000a03801982511681845116808217855250505050505090500191505060006040518083038185875af1925050503d8060008114615158576040519150601f19603f3d011682016040523d82523d6000602084013e61515d565b606091505b5050905080611cc35760405162461bcd60e51b8152600401808060200182810382526023815260200180615ed56023913960400191505060405180910390fd5b6001600160a01b03851661522c576005546151c1906001600160a01b0316836150aa565b8015615227576151d183826150aa565b604080513381526001600160a01b03868116602083015287811682840152606082018490529151918516917f84ff16114f882a54c4748006b5e4b0b7ac76bd911d135145a6d063fd76a38a409181900360800190a25b6150a3565b60055461524690869033906001600160a01b031685614d46565b80156150a35761525885338584614d46565b604080513381526001600160a01b03868116602083015287811682840152606082018490529151918516917f84ff16114f882a54c4748006b5e4b0b7ac76bd911d135145a6d063fd76a38a409181900360800190a25050505050565b6152bc611cc8565b615304576040805162461bcd60e51b815260206004820152601460248201527314185d5cd8589b194e881b9bdd081c185d5cd95960621b604482015290519081900360640190fd5b6000805460ff60a01b191690557f5db9ee0a495bf2e6ff9c91a7834c1ba4fdd244a5e8aa4e537bd38aeae4b073aa61533a614683565b604080516001600160a01b039092168252519081900360200190a1565b606060028251101561539e576040805162461bcd60e51b81526020600482015260196024820152600080516020615e91833981519152604482015290519081900360640190fd5b815167ffffffffffffffff811180156153b657600080fd5b506040519080825280602002602001820160405280156153e0578160200160208202803683370190505b50905082816000815181106153f157fe5b60200260200101818152505060005b6001835103811015614bf5576000806154368786858151811061541f57fe5b6020026020010151878660010181518110614ba157fe5b9150915061545884848151811061544957fe5b60200260200101518383615bcc565b84846001018151811061546757fe5b60209081029190910101525050600101615400565b604080516001600160a01b038481166024830152604480830185905283518084039091018152606490920183526020820180516001600160e01b031663a9059cbb60e01b178152925182516000946060949389169392918291908083835b602083106154f95780518252601f1990920191602091820191016154da565b6001836020036101000a0380198251168184511680821785525050505050509050019150506000604051808303816000865af19150503d806000811461555b576040519150601f19603f3d011682016040523d82523d6000602084013e615560565b606091505b509150915081801561558e57508051158061558e575080806020019051602081101561558b57600080fd5b50515b6150a3576040805162461bcd60e51b815260206004820152601f60248201527f5472616e7366657248656c7065723a205452414e534645525f4641494c454400604482015290519081900360640190fd5b60005b60018351038110156158aa576000808483815181106155fd57fe5b602002602001015185846001018151811061561457fe5b602002602001015191509150600061562c8383615aee565b509050600061563c888585614bfd565b9050600080600080846001600160a01b0316630902f1ac6040518163ffffffff1660e01b815260040160606040518083038186803b15801561567d57600080fd5b505afa158015615691573d6000803e3d6000fd5b505050506040513d60608110156156a757600080fd5b5080516020909101516001600160701b0391821693501690506000806001600160a01b038a8116908916146156dd5782846156e0565b83835b9150915061573e828b6001600160a01b03166370a082318a6040518263ffffffff1660e01b815260040180826001600160a01b03166001600160a01b0316815260200191505060206040518083038186803b158015611f7057600080fd5b955061574b868383615bcc565b945050505050600080856001600160a01b0316886001600160a01b03161461577557826000615779565b6000835b91509150600060028c51038a10615790578a6157a4565b6157a48d898e8d60020181518110614f6157fe5b604080516000808252602082019283905263022c0d9f60e01b835260248201878152604483018790526001600160a01b038086166064850152608060848501908152845160a48601819052969750908c169563022c0d9f958a958a958a9591949193919260c486019290918190849084905b8381101561582e578181015183820152602001615816565b50505050905090810190601f16801561585b5780820380516001836020036101000a031916815260200191505b5095505050505050600060405180830381600087803b15801561587d57600080fd5b505af1158015615891573d6000803e3d6000fd5b50506001909b019a506155e29950505050505050505050565b50505050565b6158b8611cc8565b156158fd576040805162461bcd60e51b815260206004820152601060248201526f14185d5cd8589b194e881c185d5cd95960821b604482015290519081900360640190fd5b6000805460ff60a01b1916600160a01b1790557f62e78cea01bee320cd4e420270b5ea74000d11b0c9f74754ebdbfc544b05a25861533a614683565b60008060006159488585615aee565b509050600080615959888888614bfd565b6001600160a01b0316630902f1ac6040518163ffffffff1660e01b815260040160606040518083038186803b15801561599157600080fd5b505afa1580156159a5573d6000803e3d6000fd5b505050506040513d60608110156159bb57600080fd5b5080516020909101516001600160701b0391821693501690506001600160a01b03878116908416146159ee5780826159f1565b81815b90999098509650505050505050565b6000808411615a405760405162461bcd60e51b8152600401808060200182810382526027815260200180615da06027913960400191505060405180910390fd5b600083118015615a505750600082115b615a8b5760405162461bcd60e51b8152600401808060200182810382526023815260200180615e6e6023913960400191505060405180910390fd5b6000615aa36127106145bc868863ffffffff61487a16565b90506000615ac7615ab33361125d565b6126f7036145bc868963ffffffff61481d16565b9050615ae46001828481615ad757fe5b049063ffffffff614a6816565b9695505050505050565b600080826001600160a01b0316846001600160a01b03161415615b425760405162461bcd60e51b8152600401808060200182810382526023815260200180615e0a6023913960400191505060405180910390fd5b826001600160a01b0316846001600160a01b031610615b62578284615b65565b83835b90925090506001600160a01b038216615bc5576040805162461bcd60e51b815260206004820152601c60248201527f50616e63616b654c6962726172793a205a45524f5f4144445245535300000000604482015290519081900360640190fd5b9250929050565b6000808411615c0c5760405162461bcd60e51b8152600401808060200182810382526026815260200180615d546026913960400191505060405180910390fd5b600083118015615c1c5750600082115b615c575760405162461bcd60e51b8152600401808060200182810382526023815260200180615e6e6023913960400191505060405180910390fd5b6000615c76615c653361125d565b86906126f70363ffffffff61487a16565b90506000615c8a828563ffffffff61487a16565b90506000615ca4836115e38861271063ffffffff61487a16565b9050808281615caf57fe5b04979650505050505050565b828054600181600116156101000203166002900490600052602060002090601f016020900481019282601f10615cfc5782800160ff19823516178555615d29565b82800160010185558215615d29579182015b82811115615d29578235825591602001919060010190615d0e565b50615d35929150615d39565b5090565b611cd691905b80821115615d355760008155600101615d3f56fe466c6f6f7a526f757465723a20494e53554646494349454e545f494e5055545f414d4f554e544f776e61626c653a206e6577206f776e657220697320746865207a65726f2061646472657373466c6f6f7a526f757465723a20494e53554646494349454e545f4f55545055545f414d4f554e54466c6f6f7a526f757465723a204558434553534956455f494e5055545f414d4f554e54466c6f6f7a526f757465723a2053454c465f524546455252414c00000000000050616e63616b654c6962726172793a204944454e544943414c5f414444524553534553536166654d6174683a206d756c7469706c69636174696f6e206f766572666c6f774f776e61626c653a2063616c6c6572206973206e6f7420746865206f776e6572466c6f6f7a526f757465723a20494e53554646494349454e545f4c4951554944495459466c6f6f7a526f757465723a20494e56414c49445f5041544800000000000000466c6f6f7a526f757465723a20494e56414c49445f57495448445241575f414d4f554e545472616e7366657248656c7065723a204554485f5452414e534645525f4641494c4544466c6f6f7a526f757465723a20494e56414c49445f464143544f5259000000005472616e7366657248656c7065723a205452414e534645525f46524f4d5f4641494c4544a26469706673582212204f0d0a2673c448f344eb3d9862e1cf35fa030d6d9464271b0ccf4443d9cf96a564736f6c63430006060033",
  "devdoc": {
    "methods": {
      "constructor": {
        "details": "construct this contract",
        "params": {
          "_WETH": "address of WETH.",
          "_balanceThreshold": "balance threshold of SYA tokens which actives feeless swapping",
          "_feeReceiver": "address that receives protocol fees",
          "_referralRegistry": "address of referral registry that stores referral anchors",
          "_referralRewardRate": "percentage of swapFee that are paid out as rewards",
          "_saveYourAssetsToken": "address of SYA token",
          "_swapFee": "nominator for swapFee. Denominator = 10000",
          "_zeroEx": "address of zeroX proxy contract to forward swaps"
        }
      },
      "executeZeroExSwap(bytes,address,address,address)": {
        "details": "Executes a swap on 0x API",
        "params": {
          "data": "calldata expected by data field on 0x API (https://0x.org/docs/api#response-1)",
          "referee": "address of referee for msg.sender, 0x adress if none",
          "tokenIn": "the address of currency to buy  0x address for ETH",
          "tokenOut": "the address of currency to sell  0x address for ETH"
        }
      },
      "getUserFee(address)": {
        "details": "returns the fee nominator for a given user"
      },
      "getUserReferee(address)": {
        "details": "returns the referee for a given user 0x address if none"
      },
      "hasUserReferee(address)": {
        "details": "returns if the given user has been referred or not"
      },
      "owner()": {
        "details": "Returns the address of the current owner."
      },
      "pause()": {
        "details": "lets the admin pause this contract"
      },
      "paused()": {
        "details": "Returns true if the contract is paused, and false otherwise."
      },
      "registerFork(address,bytes)": {
        "details": "lets the admin register an Uniswap style fork"
      },
      "renounceOwnership()": {
        "details": "Leaves the contract without owner. It will not be possible to call `onlyOwner` functions anymore. Can only be called by the current owner.     * NOTE: Renouncing ownership will leave the contract without an owner, thereby removing any functionality that is only available to the owner."
      },
      "swapETHForExactTokens(address,uint256,address[],address)": {
        "details": "execute swap directly on Uniswap/Pancake/...",
        "params": {
          "amountOut": "expected amount of tokens out",
          "fork": "fork used to execute swap",
          "path": "Sell path.",
          "referee": "address of referee for msg.sender, 0x adress if none"
        },
        "returns": {
          "amounts": "amounts"
        }
      },
      "swapExactETHForTokens(address,uint256,address[],address)": {
        "details": "execute swap directly on Uniswap/Pancake & simular forks",
        "params": {
          "amountOutMin": "minimum tokens to receive",
          "fork": "fork used to execute swap",
          "path": "Sell path.",
          "referee": "address of referee for msg.sender, 0x adress if none"
        },
        "returns": {
          "amounts": "amounts"
        }
      },
      "swapExactETHForTokensSupportingFeeOnTransferTokens(address,uint256,address[],address)": {
        "details": "execute swap directly on Uniswap/Pancake/...",
        "params": {
          "amountOutMin": "minimum expected tokens to receive",
          "fork": "fork used to execute swap",
          "path": "Sell path.",
          "referee": "address of referee for msg.sender, 0x adress if none"
        }
      },
      "swapExactTokensForETH(address,uint256,uint256,address[],address)": {
        "details": "execute swap directly on Uniswap/Pancake/...",
        "params": {
          "amountIn": "amount if tokens In",
          "amountOutMin": "minimum tokens to receive",
          "fork": "fork used to execute swap",
          "path": "Sell path.",
          "referee": "address of referee for msg.sender, 0x adress if none"
        },
        "returns": {
          "amounts": "amounts"
        }
      },
      "swapExactTokensForETHSupportingFeeOnTransferTokens(address,uint256,uint256,address[],address)": {
        "details": "execute swap directly on Uniswap/Pancake/...",
        "params": {
          "amountIn": "amount of tokensIn",
          "amountOutMin": "minimum tokens to receive",
          "fork": "fork used to execute swap",
          "path": "Sell path.",
          "referee": "address of referee for msg.sender, 0x adress if none"
        }
      },
      "swapExactTokensForTokens(address,uint256,uint256,address[],address)": {
        "details": "execute swap directly on Uniswap/Pancake/...",
        "params": {
          "amountIn": "amount if tokens In",
          "amountOutMin": "minimum tokens to receive",
          "fork": "fork used to execute swap",
          "path": "Sell path.",
          "referee": "address of referee for msg.sender, 0x adress if none"
        },
        "returns": {
          "amounts": "amounts"
        }
      },
      "swapExactTokensForTokensSupportingFeeOnTransferTokens(address,uint256,uint256,address[],address)": {
        "details": "execute swap directly on Uniswap/Pancake/...",
        "params": {
          "amountIn": "amount if tokens In",
          "amountOutMin": "minimum tokens to receive",
          "fork": "fork used to execute swap",
          "path": "Sell path.",
          "referee": "address of referee for msg.sender, 0x adress if none"
        }
      },
      "swapTokensForExactETH(address,uint256,uint256,address[],address)": {
        "details": "execute swap directly on Uniswap/Pancake/...",
        "params": {
          "amountInMax": "maximum tokens to send",
          "amountOut": "expected tokens to receive",
          "fork": "fork used to execute swap",
          "path": "Sell path.",
          "referee": "address of referee for msg.sender, 0x adress if none"
        },
        "returns": {
          "amounts": "amounts"
        }
      },
      "swapTokensForExactTokens(address,uint256,uint256,address[],address)": {
        "details": "execute swap directly on Uniswap/Pancake/...",
        "params": {
          "amountInMax": "maximum tokens to send",
          "amountOut": "expected tokens to receive",
          "fork": "fork used to execute swap",
          "path": "Sell path.",
          "referee": "address of referee for msg.sender, 0x adress if none"
        },
        "returns": {
          "amounts": "amounts"
        }
      },
      "transferOwnership(address)": {
        "details": "Transfers ownership of the contract to a new account (`newOwner`). Can only be called by the current owner."
      },
      "unpause()": {
        "details": "lets the admin unpause this contract"
      },
      "updateBalanceThreshold(uint256)": {
        "details": "lets the admin update the SYA balance threshold, which activates feeless trading for users"
      },
      "updateCustomReferralRewardRate(address,uint16)": {
        "details": "lets the admin set a custom referral rate"
      },
      "updateFeeReceiver(address)": {
        "details": "lets the admin update which address receives the protocol fees"
      },
      "updateFork(address,bytes,bool)": {
        "details": "lets the admin update an Uniswap style fork"
      },
      "updateReferralRegistry(address)": {
        "details": "lets the admin set a new referral registry"
      },
      "updateReferralRewardRate(uint16)": {
        "details": "lets the admin update the referral reward rate"
      },
      "updateReferralsActivated(bool)": {
        "details": "lets the admin update the status of the referral system"
      },
      "updateSwapFee(uint16)": {
        "details": "lets the admin update the swapFee nominator"
      },
      "userAboveBalanceThreshold(address)": {
        "details": "returns if a users is above the SYA threshold and can swap without fees"
      },
      "withdrawERC20Token(address,address,uint256)": {
        "details": "lets the admin withdraw ERC20s from the contract."
      },
      "withdrawETH(address,uint256)": {
        "details": "lets the admin withdraw ETH from the contract."
      }
    }
  },
  "userdoc": {
    "methods": {}
  },
  "storageLayout": {
    "storage": [
      {
        "astId": 592,
        "contract": "contracts/FloozRouter.sol:TestRouter",
        "label": "_owner",
        "offset": 0,
        "slot": "0",
        "type": "t_address"
      },
      {
        "astId": 1168,
        "contract": "contracts/FloozRouter.sol:TestRouter",
        "label": "_paused",
        "offset": 20,
        "slot": "0",
        "type": "t_bool"
      },
      {
        "astId": 1253,
        "contract": "contracts/FloozRouter.sol:TestRouter",
        "label": "_status",
        "offset": 0,
        "slot": "1",
        "type": "t_uint256"
      },
      {
        "astId": 1817,
        "contract": "contracts/FloozRouter.sol:TestRouter",
        "label": "swapFee",
        "offset": 0,
        "slot": "2",
        "type": "t_uint16"
      },
      {
        "astId": 1823,
        "contract": "contracts/FloozRouter.sol:TestRouter",
        "label": "referralRegistry",
        "offset": 2,
        "slot": "2",
        "type": "t_contract(IReferralRegistry)5249"
      },
      {
        "astId": 1825,
        "contract": "contracts/FloozRouter.sol:TestRouter",
        "label": "saveYourAssetsToken",
        "offset": 0,
        "slot": "3",
        "type": "t_contract(IERC20)1127"
      },
      {
        "astId": 1827,
        "contract": "contracts/FloozRouter.sol:TestRouter",
        "label": "balanceThreshold",
        "offset": 0,
        "slot": "4",
        "type": "t_uint256"
      },
      {
        "astId": 1829,
        "contract": "contracts/FloozRouter.sol:TestRouter",
        "label": "feeReceiver",
        "offset": 0,
        "slot": "5",
        "type": "t_address_payable"
      },
      {
        "astId": 1831,
        "contract": "contracts/FloozRouter.sol:TestRouter",
        "label": "referralRewardRate",
        "offset": 20,
        "slot": "5",
        "type": "t_uint16"
      },
      {
        "astId": 1833,
        "contract": "contracts/FloozRouter.sol:TestRouter",
        "label": "referralsActivated",
        "offset": 22,
        "slot": "5",
        "type": "t_bool"
      },
      {
        "astId": 1837,
        "contract": "contracts/FloozRouter.sol:TestRouter",
        "label": "customReferralRewardRate",
        "offset": 0,
        "slot": "6",
        "type": "t_mapping(t_address,t_uint16)"
      },
      {
        "astId": 1841,
        "contract": "contracts/FloozRouter.sol:TestRouter",
        "label": "forkActivated",
        "offset": 0,
        "slot": "7",
        "type": "t_mapping(t_address,t_bool)"
      },
      {
        "astId": 1845,
        "contract": "contracts/FloozRouter.sol:TestRouter",
        "label": "forkInitCode",
        "offset": 0,
        "slot": "8",
        "type": "t_mapping(t_address,t_bytes_storage)"
      }
    ],
    "types": {
      "t_address": {
        "encoding": "inplace",
        "label": "address",
        "numberOfBytes": "20"
      },
      "t_address_payable": {
        "encoding": "inplace",
        "label": "address payable",
        "numberOfBytes": "20"
      },
      "t_bool": {
        "encoding": "inplace",
        "label": "bool",
        "numberOfBytes": "1"
      },
      "t_bytes_storage": {
        "encoding": "bytes",
        "label": "bytes",
        "numberOfBytes": "32"
      },
      "t_contract(IERC20)1127": {
        "encoding": "inplace",
        "label": "contract IERC20",
        "numberOfBytes": "20"
      },
      "t_contract(IReferralRegistry)5249": {
        "encoding": "inplace",
        "label": "contract IReferralRegistry",
        "numberOfBytes": "20"
      },
      "t_mapping(t_address,t_bool)": {
        "encoding": "mapping",
        "key": "t_address",
        "label": "mapping(address => bool)",
        "numberOfBytes": "32",
        "value": "t_bool"
      },
      "t_mapping(t_address,t_bytes_storage)": {
        "encoding": "mapping",
        "key": "t_address",
        "label": "mapping(address => bytes)",
        "numberOfBytes": "32",
        "value": "t_bytes_storage"
      },
      "t_mapping(t_address,t_uint16)": {
        "encoding": "mapping",
        "key": "t_address",
        "label": "mapping(address => uint16)",
        "numberOfBytes": "32",
        "value": "t_uint16"
      },
      "t_uint16": {
        "encoding": "inplace",
        "label": "uint16",
        "numberOfBytes": "2"
      },
      "t_uint256": {
        "encoding": "inplace",
        "label": "uint256",
        "numberOfBytes": "32"
      }
    }
  }
}