{
  "address": "0xd86eE701540fAF5423982900F5321dF6b7330979",
  "abi": [
    {
      "inputs": [],
      "stateMutability": "nonpayable",
      "type": "constructor"
    },
    {
      "anonymous": false,
      "inputs": [
        {
          "indexed": false,
          "internalType": "address",
          "name": "token",
          "type": "address"
        },
        {
          "indexed": false,
          "internalType": "uint256",
          "name": "amount",
          "type": "uint256"
        }
      ],
      "name": "FeePaid",
      "type": "event"
    },
    {
      "anonymous": false,
      "inputs": [
        {
          "indexed": true,
          "internalType": "address",
          "name": "previousOwner",
          "type": "address"
        },
        {
          "indexed": true,
          "internalType": "address",
          "name": "newOwner",
          "type": "address"
        }
      ],
      "name": "OwnershipTransferred",
      "type": "event"
    },
    {
      "anonymous": false,
      "inputs": [
        {
          "indexed": false,
          "internalType": "address",
          "name": "account",
          "type": "address"
        }
      ],
      "name": "Paused",
      "type": "event"
    },
    {
      "anonymous": false,
      "inputs": [
        {
          "indexed": false,
          "internalType": "uint256",
          "name": "buyAmount",
          "type": "uint256"
        }
      ],
      "name": "ReturnValues",
      "type": "event"
    },
    {
      "anonymous": false,
      "inputs": [
        {
          "indexed": false,
          "internalType": "address",
          "name": "account",
          "type": "address"
        }
      ],
      "name": "Unpaused",
      "type": "event"
    },
    {
      "stateMutability": "payable",
      "type": "fallback"
    },
    {
      "inputs": [
        {
          "internalType": "address",
          "name": "_token",
          "type": "address"
        },
        {
          "internalType": "bytes",
          "name": "_data",
          "type": "bytes"
        }
      ],
      "name": "approveToken",
      "outputs": [],
      "stateMutability": "nonpayable",
      "type": "function"
    },
    {
      "inputs": [
        {
          "internalType": "address payable",
          "name": "_to",
          "type": "address"
        },
        {
          "internalType": "bytes",
          "name": "_data",
          "type": "bytes"
        }
      ],
      "name": "executeTo",
      "outputs": [],
      "stateMutability": "payable",
      "type": "function"
    },
    {
      "inputs": [
        {
          "internalType": "address payable",
          "name": "_to",
          "type": "address"
        },
        {
          "internalType": "bytes",
          "name": "_data",
          "type": "bytes"
        },
        {
          "internalType": "address",
          "name": "_token",
          "type": "address"
        },
        {
          "internalType": "uint256",
          "name": "_feeAmount",
          "type": "uint256"
        }
      ],
      "name": "executeToWithFee",
      "outputs": [],
      "stateMutability": "payable",
      "type": "function"
    },
    {
      "inputs": [
        {
          "internalType": "bytes",
          "name": "_data",
          "type": "bytes"
        }
      ],
      "name": "executeTrade",
      "outputs": [],
      "stateMutability": "payable",
      "type": "function"
    },
    {
      "inputs": [
        {
          "internalType": "bytes",
          "name": "_data",
          "type": "bytes"
        }
      ],
      "name": "executeTrade2",
      "outputs": [],
      "stateMutability": "payable",
      "type": "function"
    },
    {
      "inputs": [],
      "name": "feeReceiver",
      "outputs": [
        {
          "internalType": "address payable",
          "name": "",
          "type": "address"
        }
      ],
      "stateMutability": "view",
      "type": "function"
    },
    {
      "inputs": [],
      "name": "owner",
      "outputs": [
        {
          "internalType": "address",
          "name": "",
          "type": "address"
        }
      ],
      "stateMutability": "view",
      "type": "function"
    },
    {
      "inputs": [],
      "name": "pause",
      "outputs": [],
      "stateMutability": "nonpayable",
      "type": "function"
    },
    {
      "inputs": [],
      "name": "paused",
      "outputs": [
        {
          "internalType": "bool",
          "name": "",
          "type": "bool"
        }
      ],
      "stateMutability": "view",
      "type": "function"
    },
    {
      "inputs": [],
      "name": "renounceOwnership",
      "outputs": [],
      "stateMutability": "nonpayable",
      "type": "function"
    },
    {
      "inputs": [
        {
          "internalType": "address",
          "name": "newOwner",
          "type": "address"
        }
      ],
      "name": "transferOwnership",
      "outputs": [],
      "stateMutability": "nonpayable",
      "type": "function"
    },
    {
      "inputs": [],
      "name": "unpause",
      "outputs": [],
      "stateMutability": "nonpayable",
      "type": "function"
    },
    {
      "inputs": [],
      "name": "zerox",
      "outputs": [
        {
          "internalType": "address payable",
          "name": "",
          "type": "address"
        }
      ],
      "stateMutability": "view",
      "type": "function"
    },
    {
      "stateMutability": "payable",
      "type": "receive"
    }
  ],
  "transactionHash": "0x59291f9da2111a4dbbd4529e05fc514dd78cc2439e15b4033a27854a67953dd7",
  "args": [],
  "solcInputHash": "ae9fe51cea62e0b876617c8578875aed",
  "bytecode": "0x60c060405234801561001057600080fd5b5060006100246001600160e01b036100c816565b600080546001600160a01b0319166001600160a01b0383169081178255604051929350917f8be0079c531659141344cd1fd0a4f28419497f9722a3daafe3b4186f6b6457e0908290a3506000805460ff60a01b191690557fdef1c0ded9bec7f1a1670819833240f027b25eff0000000000000000000000006080527f629c551f3d0140f256e6b6ee4cfd81a25f5e4c5900000000000000000000000060a0526100cc565b3390565b60805160601c60a05160601c61153761010e600039806109af5280610c4c52806110895250806101495280610e795280610fc452806110ad52506115376000f3fe6080604052600436106100c65760003560e01c80638456cb591161007f578063b279aeda11610059578063b279aeda1461053c578063b3f00674146105e0578063f0ca6b15146105f5578063f2fde38b1461060a576100cd565b80638456cb5914610452578063885ab48c146104675780638da5cb5b1461050b576100cd565b80630ba8c8c7146102645780631f7ea8811461031a5780633f4ba83a1461033d5780635c975abb14610352578063676bdea81461037b578063715018a61461043d576100cd565b366100cd57005b6000610119600080368080601f016020809104026020016040519081016040528093929190818152602001838380828437600092019190915250929392505063ffffffff61063d169050565b60408051634b97ee9360e11b81526001600160e01b03198316600482015290519192506000916001600160a01b037f0000000000000000000000000000000000000000000000000000000000000000169163972fdd2691602480830192602092919082900301818787803b15801561019057600080fd5b505af11580156101a4573d6000803e3d6000fd5b505050506040513d60208110156101ba57600080fd5b505190506001600160a01b0381166101dd576101dd6101d88361067b565b6106f3565b60006060826001600160a01b03166000366040518083838082843760405192019450600093509091505080830381855af49150503d806000811461023d576040519150601f19603f3d011682016040523d82523d6000602084013e610242565b606091505b50915091508161025557610255816106f3565b61025e816106fb565b50505050005b6103186004803603604081101561027a57600080fd5b6001600160a01b038235169190810190604081016020820135600160201b8111156102a457600080fd5b8201836020820111156102b657600080fd5b803590602001918460018302840111600160201b831117156102d757600080fd5b91908080601f016020809104026020016040519081016040528093929190818152602001838380828437600092019190915250929550610703945050505050565b005b34801561032657600080fd5b506103186004803603604081101561027a57600080fd5b34801561034957600080fd5b506103186107a9565b34801561035e57600080fd5b50610367610815565b604080519115158252519081900360200190f35b6103186004803603608081101561039157600080fd5b6001600160a01b038235169190810190604081016020820135600160201b8111156103bb57600080fd5b8201836020820111156103cd57600080fd5b803590602001918460018302840111600160201b831117156103ee57600080fd5b91908080601f016020809104026020016040519081016040528093929190818152602001838380828437600092019190915250929550506001600160a01b038335169350505060200135610825565b34801561044957600080fd5b50610318610d21565b34801561045e57600080fd5b50610318610dcd565b6103186004803603602081101561047d57600080fd5b810190602081018135600160201b81111561049757600080fd5b8201836020820111156104a957600080fd5b803590602001918460018302840111600160201b831117156104ca57600080fd5b91908080601f016020809104026020016040519081016040528093929190818152602001838380828437600092019190915250929550610e37945050505050565b34801561051757600080fd5b50610520610fb3565b604080516001600160a01b039092168252519081900360200190f35b6103186004803603602081101561055257600080fd5b810190602081018135600160201b81111561056c57600080fd5b82018360208201111561057e57600080fd5b803590602001918460018302840111600160201b8311171561059f57600080fd5b91908080601f016020809104026020016040519081016040528093929190818152602001838380828437600092019190915250929550610fc2945050505050565b3480156105ec57600080fd5b50610520611087565b34801561060157600080fd5b506105206110ab565b34801561061657600080fd5b506103186004803603602081101561062d57600080fd5b50356001600160a01b03166110cf565b6000816004018351101561065e5761065e6101d860038551856004016111d1565b5060208183018101519101906001600160e01b0319165b92915050565b604080517f4e6f74496d706c656d656e7465644572726f72286279746573342900000000008152815190819003601b0181206001600160e01b03198085166024808501919091528451808503909101815260449093019093526020820180516001600160e01b03169390911692909217909152919050565b805160208201fd5b805160208201f35b816001600160a01b0316816040518082805190602001908083835b6020831061073d5780518252601f19909201916020918201910161071e565b6001836020036101000a038019825116818451168082178552505050505050905001915050600060405180830381855af49150503d806000811461079d576040519150601f19603f3d011682016040523d82523d6000602084013e6107a2565b606091505b5050505050565b6107b1611246565b6001600160a01b03166107c2610fb3565b6001600160a01b03161461080b576040805162461bcd60e51b815260206004820181905260248201526000805160206114e2833981519152604482015290519081900360640190fd5b61081361124a565b565b600054600160a01b900460ff1690565b6000806001600160a01b0384166109ff57336001600160a01b03163191506000866001600160a01b0316866040518082805190602001908083835b6020831061087f5780518252601f199092019160209182019101610860565b6001836020036101000a038019825116818451168082178552505050505050905001915050600060405180830381855af49150503d80600081146108df576040519150601f19603f3d011682016040523d82523d6000602084013e6108e4565b606091505b5050905080610929576040805162461bcd60e51b815260206004820152600c60248201526b151490511157d1905253115160a21b604482015290519081900360640190fd5b333191506109606127106109546032610948878763ffffffff6112ed16565b9063ffffffff61134a16565b9063ffffffff6113aa16565b8411156109a2576040805162461bcd60e51b815260206004820152600b60248201526a494e56414c49445f46454560a81b604482015290519081900360640190fd5b6040516001600160a01b037f0000000000000000000000000000000000000000000000000000000000000000169085156108fc029086906000818181858888f193505050501580156109f8573d6000803e3d6000fd5b5050610cd5565b604080516370a0823160e01b815233600482015290516001600160a01b038616916370a08231916024808301926020929190829003018186803b158015610a4557600080fd5b505afa158015610a59573d6000803e3d6000fd5b505050506040513d6020811015610a6f57600080fd5b505160405186519193506000916001600160a01b038916918891819060208401908083835b60208310610ab35780518252601f199092019160209182019101610a94565b6001836020036101000a038019825116818451168082178552505050505050905001915050600060405180830381855af49150503d8060008114610b13576040519150601f19603f3d011682016040523d82523d6000602084013e610b18565b606091505b5050905080610b5d576040805162461bcd60e51b815260206004820152600c60248201526b151490511157d1905253115160a21b604482015290519081900360640190fd5b604080516370a0823160e01b815233600482015290516001600160a01b038716916370a08231916024808301926020929190829003018186803b158015610ba357600080fd5b505afa158015610bb7573d6000803e3d6000fd5b505050506040513d6020811015610bcd57600080fd5b50519150610bec6127106109546032610948878763ffffffff6112ed16565b841115610c2e576040805162461bcd60e51b815260206004820152600b60248201526a494e56414c49445f46454560a81b604482015290519081900360640190fd5b604080516323b872dd60e01b81523360048201526001600160a01b037f000000000000000000000000000000000000000000000000000000000000000081166024830152604482018790529151918716916323b872dd916064808201926020929091908290030181600087803b158015610ca757600080fd5b505af1158015610cbb573d6000803e3d6000fd5b505050506040513d6020811015610cd157600080fd5b5050505b604080516001600160a01b03861681526020810185905281517f075a2720282fdf622141dae0b048ef90a21a7e57c134c76912d19d006b3b3f6f929181900390910190a1505050505050565b610d29611246565b6001600160a01b0316610d3a610fb3565b6001600160a01b031614610d83576040805162461bcd60e51b815260206004820181905260248201526000805160206114e2833981519152604482015290519081900360640190fd5b600080546040516001600160a01b03909116907f8be0079c531659141344cd1fd0a4f28419497f9722a3daafe3b4186f6b6457e0908390a3600080546001600160a01b0319169055565b610dd5611246565b6001600160a01b0316610de6610fb3565b6001600160a01b031614610e2f576040805162461bcd60e51b815260206004820181905260248201526000805160206114e2833981519152604482015290519081900360640190fd5b610813611411565b6000610e49828263ffffffff61063d16565b60408051634b97ee9360e11b81526001600160e01b03198316600482015290519192506000916001600160a01b037f0000000000000000000000000000000000000000000000000000000000000000169163972fdd2691602480830192602092919082900301818787803b158015610ec057600080fd5b505af1158015610ed4573d6000803e3d6000fd5b505050506040513d6020811015610eea57600080fd5b505160405184519192506000916060916001600160a01b03851691879190819060208401908083835b60208310610f325780518252601f199092019160209182019101610f13565b6001836020036101000a038019825116818451168082178552505050505050905001915050600060405180830381855af49150503d8060008114610f92576040519150601f19603f3d011682016040523d82523d6000602084013e610f97565b606091505b509150915081610faa57610faa816106f3565b6107a2816106fb565b6000546001600160a01b031690565b7f00000000000000000000000000000000000000000000000000000000000000006001600160a01b0316816040518082805190602001908083835b6020831061101c5780518252601f199092019160209182019101610ffd565b6001836020036101000a038019825116818451168082178552505050505050905001915050600060405180830381855af49150503d806000811461107c576040519150601f19603f3d011682016040523d82523d6000602084013e611081565b606091505b50505050565b7f000000000000000000000000000000000000000000000000000000000000000081565b7f000000000000000000000000000000000000000000000000000000000000000081565b6110d7611246565b6001600160a01b03166110e8610fb3565b6001600160a01b031614611131576040805162461bcd60e51b815260206004820181905260248201526000805160206114e2833981519152604482015290519081900360640190fd5b6001600160a01b0381166111765760405162461bcd60e51b815260040180806020018281038252602681526020018061149b6026913960400191505060405180910390fd5b600080546040516001600160a01b03808516939216917f8be0079c531659141344cd1fd0a4f28419497f9722a3daafe3b4186f6b6457e091a3600080546001600160a01b0319166001600160a01b0392909216919091179055565b6060632800659560e01b848484604051602401808460078111156111f157fe5b60ff1681526020018381526020018281526020019350505050604051602081830303815290604052906001600160e01b0319166020820180516001600160e01b03838183161783525050505090509392505050565b3390565b611252610815565b61129a576040805162461bcd60e51b815260206004820152601460248201527314185d5cd8589b194e881b9bdd081c185d5cd95960621b604482015290519081900360640190fd5b6000805460ff60a01b191690557f5db9ee0a495bf2e6ff9c91a7834c1ba4fdd244a5e8aa4e537bd38aeae4b073aa6112d0611246565b604080516001600160a01b039092168252519081900360200190a1565b600082821115611344576040805162461bcd60e51b815260206004820152601e60248201527f536166654d6174683a207375627472616374696f6e206f766572666c6f770000604482015290519081900360640190fd5b50900390565b60008261135957506000610675565b8282028284828161136657fe5b04146113a35760405162461bcd60e51b81526004018080602001828103825260218152602001806114c16021913960400191505060405180910390fd5b9392505050565b6000808211611400576040805162461bcd60e51b815260206004820152601a60248201527f536166654d6174683a206469766973696f6e206279207a65726f000000000000604482015290519081900360640190fd5b81838161140957fe5b049392505050565b611419610815565b1561145e576040805162461bcd60e51b815260206004820152601060248201526f14185d5cd8589b194e881c185d5cd95960821b604482015290519081900360640190fd5b6000805460ff60a01b1916600160a01b1790557f62e78cea01bee320cd4e420270b5ea74000d11b0c9f74754ebdbfc544b05a2586112d061124656fe4f776e61626c653a206e6577206f776e657220697320746865207a65726f2061646472657373536166654d6174683a206d756c7469706c69636174696f6e206f766572666c6f774f776e61626c653a2063616c6c6572206973206e6f7420746865206f776e6572a26469706673582212205751294f1c9d10e480595183287bef557b5cb09a1c275293203d4ef4eaecd5fe64736f6c63430006060033",
  "devdoc": {
    "methods": {
      "owner()": {
        "details": "Returns the address of the current owner."
      },
      "paused()": {
        "details": "Returns true if the contract is paused, and false otherwise."
      },
      "renounceOwnership()": {
        "details": "Leaves the contract without owner. It will not be possible to call `onlyOwner` functions anymore. Can only be called by the current owner.     * NOTE: Renouncing ownership will leave the contract without an owner, thereby removing any functionality that is only available to the owner."
      },
      "transferOwnership(address)": {
        "details": "Transfers ownership of the contract to a new account (`newOwner`). Can only be called by the current owner."
      }
    }
  },
  "userdoc": {
    "methods": {}
  },
  "storageLayout": {
    "storage": [
      {
        "astId": 592,
        "contract": "contracts/TestRouter.sol:TestRouter",
        "label": "_owner",
        "offset": 0,
        "slot": "0",
        "type": "t_address"
      },
      {
        "astId": 1168,
        "contract": "contracts/TestRouter.sol:TestRouter",
        "label": "_paused",
        "offset": 20,
        "slot": "0",
        "type": "t_bool"
      }
    ],
    "types": {
      "t_address": {
        "encoding": "inplace",
        "label": "address",
        "numberOfBytes": "20"
      },
      "t_bool": {
        "encoding": "inplace",
        "label": "bool",
        "numberOfBytes": "1"
      }
    }
  }
}