{
  "address": "0x5ecBDDA52a2f8fF630aFe69E0E414021C8331960",
  "abi": [
    {
      "inputs": [
        {
          "internalType": "address",
          "name": "_factory",
          "type": "address"
        },
        {
          "internalType": "address",
          "name": "_WETH",
          "type": "address"
        },
        {
          "internalType": "uint8",
          "name": "_swapFee",
          "type": "uint8"
        },
        {
          "internalType": "address",
          "name": "_feeReceiver",
          "type": "address"
        },
        {
          "internalType": "uint256",
          "name": "_balanceThreshold",
          "type": "uint256"
        },
        {
          "internalType": "contract IERC20",
          "name": "_saveYourAssetsToken",
          "type": "address"
        }
      ],
      "stateMutability": "nonpayable",
      "type": "constructor"
    },
    {
      "anonymous": false,
      "inputs": [
        {
          "indexed": false,
          "internalType": "address",
          "name": "feeReceiver",
          "type": "address"
        }
      ],
      "name": "FeeReceiverUpdated",
      "type": "event"
    },
    {
      "anonymous": false,
      "inputs": [
        {
          "indexed": true,
          "internalType": "address",
          "name": "previousOwner",
          "type": "address"
        },
        {
          "indexed": true,
          "internalType": "address",
          "name": "newOwner",
          "type": "address"
        }
      ],
      "name": "OwnershipTransferred",
      "type": "event"
    },
    {
      "anonymous": false,
      "inputs": [
        {
          "indexed": false,
          "internalType": "uint8",
          "name": "swapFee",
          "type": "uint8"
        }
      ],
      "name": "SwapFeeUpdated",
      "type": "event"
    },
    {
      "inputs": [],
      "name": "FEE_DENOMINATOR",
      "outputs": [
        {
          "internalType": "uint256",
          "name": "",
          "type": "uint256"
        }
      ],
      "stateMutability": "view",
      "type": "function"
    },
    {
      "inputs": [],
      "name": "WETH",
      "outputs": [
        {
          "internalType": "address",
          "name": "",
          "type": "address"
        }
      ],
      "stateMutability": "view",
      "type": "function"
    },
    {
      "inputs": [],
      "name": "balanceThreshold",
      "outputs": [
        {
          "internalType": "uint256",
          "name": "",
          "type": "uint256"
        }
      ],
      "stateMutability": "view",
      "type": "function"
    },
    {
      "inputs": [],
      "name": "factory",
      "outputs": [
        {
          "internalType": "address",
          "name": "",
          "type": "address"
        }
      ],
      "stateMutability": "view",
      "type": "function"
    },
    {
      "inputs": [],
      "name": "feeReceiver",
      "outputs": [
        {
          "internalType": "address",
          "name": "",
          "type": "address"
        }
      ],
      "stateMutability": "view",
      "type": "function"
    },
    {
      "inputs": [],
      "name": "owner",
      "outputs": [
        {
          "internalType": "address",
          "name": "",
          "type": "address"
        }
      ],
      "stateMutability": "view",
      "type": "function"
    },
    {
      "inputs": [],
      "name": "renounceOwnership",
      "outputs": [],
      "stateMutability": "nonpayable",
      "type": "function"
    },
    {
      "inputs": [],
      "name": "saveYourAssetsToken",
      "outputs": [
        {
          "internalType": "contract IERC20",
          "name": "",
          "type": "address"
        }
      ],
      "stateMutability": "view",
      "type": "function"
    },
    {
      "inputs": [
        {
          "internalType": "uint256",
          "name": "amountOutMin",
          "type": "uint256"
        },
        {
          "internalType": "address[]",
          "name": "path",
          "type": "address[]"
        },
        {
          "internalType": "address",
          "name": "to",
          "type": "address"
        },
        {
          "internalType": "uint256",
          "name": "deadline",
          "type": "uint256"
        }
      ],
      "name": "swapExactETHForTokens",
      "outputs": [
        {
          "internalType": "uint256[]",
          "name": "amounts",
          "type": "uint256[]"
        }
      ],
      "stateMutability": "payable",
      "type": "function"
    },
    {
      "inputs": [
        {
          "internalType": "uint256",
          "name": "amountIn",
          "type": "uint256"
        },
        {
          "internalType": "uint256",
          "name": "amountOutMin",
          "type": "uint256"
        },
        {
          "internalType": "address[]",
          "name": "path",
          "type": "address[]"
        },
        {
          "internalType": "address",
          "name": "to",
          "type": "address"
        },
        {
          "internalType": "uint256",
          "name": "deadline",
          "type": "uint256"
        }
      ],
      "name": "swapExactTokensForETHSupportingFeeOnTransferTokens",
      "outputs": [],
      "stateMutability": "nonpayable",
      "type": "function"
    },
    {
      "inputs": [
        {
          "internalType": "uint256",
          "name": "amountIn",
          "type": "uint256"
        },
        {
          "internalType": "uint256",
          "name": "amountOutMin",
          "type": "uint256"
        },
        {
          "internalType": "address[]",
          "name": "path",
          "type": "address[]"
        },
        {
          "internalType": "address",
          "name": "to",
          "type": "address"
        },
        {
          "internalType": "uint256",
          "name": "deadline",
          "type": "uint256"
        }
      ],
      "name": "swapExactTokensForTokens",
      "outputs": [
        {
          "internalType": "uint256[]",
          "name": "amounts",
          "type": "uint256[]"
        }
      ],
      "stateMutability": "nonpayable",
      "type": "function"
    },
    {
      "inputs": [],
      "name": "swapFee",
      "outputs": [
        {
          "internalType": "uint8",
          "name": "",
          "type": "uint8"
        }
      ],
      "stateMutability": "view",
      "type": "function"
    },
    {
      "inputs": [
        {
          "internalType": "address",
          "name": "newOwner",
          "type": "address"
        }
      ],
      "name": "transferOwnership",
      "outputs": [],
      "stateMutability": "nonpayable",
      "type": "function"
    },
    {
      "inputs": [
        {
          "internalType": "address",
          "name": "newFeeReceiver",
          "type": "address"
        }
      ],
      "name": "updateFeeReceiver",
      "outputs": [],
      "stateMutability": "nonpayable",
      "type": "function"
    },
    {
      "inputs": [
        {
          "internalType": "uint8",
          "name": "newSwapFee",
          "type": "uint8"
        }
      ],
      "name": "updateSwapFee",
      "outputs": [],
      "stateMutability": "nonpayable",
      "type": "function"
    },
    {
      "stateMutability": "payable",
      "type": "receive"
    }
  ],
  "transactionHash": "0x5147865e8b596d43d9f91ea68fdac187e0c8902481602fb6d9eee622dec99229",
  "args": [
    "0x6725F303b657a9451d8BA641348b6761A6CC7a17",
    "0xae13d989dac2f0debff460ac112a837c89baa7cd",
    100,
    "0xB282ba7E94589DC3bc980B7E5759Dcb791231393",
    "10000000000000",
    "0x8884ccE491A4a1b5E7A73CB850c28ec6C6394944"
  ],
  "solcInputHash": "d0af9cf5640f9ec26bf81e92b266bd38",
  "bytecode": "0x60c06040523480156200001157600080fd5b506040516200349d3803806200349d833981810160405260c08110156200003757600080fd5b8101908080519060200190929190805190602001909291908051906020019092919080519060200190929190805190602001909291908051906020019092919050505060006200008c6200024860201b60201c565b9050806000806101000a81548173ffffffffffffffffffffffffffffffffffffffff021916908373ffffffffffffffffffffffffffffffffffffffff1602179055508073ffffffffffffffffffffffffffffffffffffffff16600073ffffffffffffffffffffffffffffffffffffffff167f8be0079c531659141344cd1fd0a4f28419497f9722a3daafe3b4186f6b6457e060405160405180910390a3508573ffffffffffffffffffffffffffffffffffffffff1660808173ffffffffffffffffffffffffffffffffffffffff1660601b815250508473ffffffffffffffffffffffffffffffffffffffff1660a08173ffffffffffffffffffffffffffffffffffffffff1660601b8152505083600360146101000a81548160ff021916908360ff16021790555082600360006101000a81548173ffffffffffffffffffffffffffffffffffffffff021916908373ffffffffffffffffffffffffffffffffffffffff16021790555080600160006101000a81548173ffffffffffffffffffffffffffffffffffffffff021916908373ffffffffffffffffffffffffffffffffffffffff1602179055508160028190555050505050505062000250565b600033905090565b60805160601c60a05160601c6131cf620002ce6000398060f35280610d035280610ed35280611006528061113f52806112fa528061138f528061150752806117195250806108d852806109e45280610e06528061121f52806113ce528061176952806121e9528061222d5280612422528061268952506131cf6000f3fe6080604052600436106100ec5760003560e01c806393228dda1161008a578063c45a015511610059578063c45a015514610639578063c69bebe414610690578063d73792a9146106e1578063f2fde38b1461070c57610148565b806393228dda14610509578063ad5c464814610560578063b3f00674146105b7578063c31737741461060e57610148565b8063715018a6116100c6578063715018a6146102d5578063791ac947146102ec5780637ff36ab5146103b05780638da5cb5b146104b257610148565b80631e6f71671461014d57806338ed17391461018b57806354cf2aeb146102a457610148565b36610148577f000000000000000000000000000000000000000000000000000000000000000073ffffffffffffffffffffffffffffffffffffffff163373ffffffffffffffffffffffffffffffffffffffff161461014657fe5b005b600080fd5b34801561015957600080fd5b506101896004803603602081101561017057600080fd5b81019080803560ff16906020019092919050505061075d565b005b34801561019757600080fd5b5061024d600480360360a08110156101ae57600080fd5b810190808035906020019092919080359060200190929190803590602001906401000000008111156101df57600080fd5b8201836020820111156101f157600080fd5b8035906020019184602083028401116401000000008311171561021357600080fd5b9091929391929390803573ffffffffffffffffffffffffffffffffffffffff16906020019092919080359060200190929190505050610867565b6040518080602001828103825283818151815260200191508051906020019060200280838360005b83811015610290578082015181840152602081019050610275565b505050509050019250505060405180910390f35b3480156102b057600080fd5b506102b9610b26565b604051808260ff1660ff16815260200191505060405180910390f35b3480156102e157600080fd5b506102ea610b39565b005b3480156102f857600080fd5b506103ae600480360360a081101561030f57600080fd5b8101908080359060200190929190803590602001909291908035906020019064010000000081111561034057600080fd5b82018360208201111561035257600080fd5b8035906020019184602083028401116401000000008311171561037457600080fd5b9091929391929390803573ffffffffffffffffffffffffffffffffffffffff16906020019092919080359060200190929190505050610ca7565b005b61045b600480360360808110156103c657600080fd5b8101908080359060200190929190803590602001906401000000008111156103ed57600080fd5b8201836020820111156103ff57600080fd5b8035906020019184602083028401116401000000008311171561042157600080fd5b9091929391929390803573ffffffffffffffffffffffffffffffffffffffff169060200190929190803590602001909291905050506110e1565b6040518080602001828103825283818151815260200191508051906020019060200280838360005b8381101561049e578082015181840152602081019050610483565b505050509050019250505060405180910390f35b3480156104be57600080fd5b506104c76116c8565b604051808273ffffffffffffffffffffffffffffffffffffffff1673ffffffffffffffffffffffffffffffffffffffff16815260200191505060405180910390f35b34801561051557600080fd5b5061051e6116f1565b604051808273ffffffffffffffffffffffffffffffffffffffff1673ffffffffffffffffffffffffffffffffffffffff16815260200191505060405180910390f35b34801561056c57600080fd5b50610575611717565b604051808273ffffffffffffffffffffffffffffffffffffffff1673ffffffffffffffffffffffffffffffffffffffff16815260200191505060405180910390f35b3480156105c357600080fd5b506105cc61173b565b604051808273ffffffffffffffffffffffffffffffffffffffff1673ffffffffffffffffffffffffffffffffffffffff16815260200191505060405180910390f35b34801561061a57600080fd5b50610623611761565b6040518082815260200191505060405180910390f35b34801561064557600080fd5b5061064e611767565b604051808273ffffffffffffffffffffffffffffffffffffffff1673ffffffffffffffffffffffffffffffffffffffff16815260200191505060405180910390f35b34801561069c57600080fd5b506106df600480360360208110156106b357600080fd5b81019080803573ffffffffffffffffffffffffffffffffffffffff16906020019092919050505061178b565b005b3480156106ed57600080fd5b506106f66118e1565b6040518082815260200191505060405180910390f35b34801561071857600080fd5b5061075b6004803603602081101561072f57600080fd5b81019080803573ffffffffffffffffffffffffffffffffffffffff1690602001909291905050506118e7565b005b610765611ada565b73ffffffffffffffffffffffffffffffffffffffff166107836116c8565b73ffffffffffffffffffffffffffffffffffffffff161461080c576040517f08c379a00000000000000000000000000000000000000000000000000000000081526004018080602001828103825260208152602001807f4f776e61626c653a2063616c6c6572206973206e6f7420746865206f776e657281525060200191505060405180910390fd5b80600360146101000a81548160ff021916908360ff1602179055507fefece48cd3978027fdce60b535886c9d514101455104cbb209ad1dba24a97ffc81604051808260ff1660ff16815260200191505060405180910390a150565b606081428110156108c3576040517f08c379a000000000000000000000000000000000000000000000000000000000815260040180806020018281038252602a815260200180613012602a913960400191505060405180910390fd5b6000806108cf8a611ae2565b9150915061093f7f0000000000000000000000000000000000000000000000000000000000000000838a8a80806020026020016040519081016040528093929190818152602001838360200280828437600081840152601f19601f82011690508083019250505050505050611c3c565b9350888460018651038151811061095257fe5b602002602001015110156109b1576040517f08c379a000000000000000000000000000000000000000000000000000000000815260040180806020018281038252602b815260200180612fe7602b913960400191505060405180910390fd5b610a76888860008181106109c157fe5b9050602002013573ffffffffffffffffffffffffffffffffffffffff1633610a5c7f00000000000000000000000000000000000000000000000000000000000000008c8c6000818110610a1057fe5b9050602002013573ffffffffffffffffffffffffffffffffffffffff168d8d6001818110610a3a57fe5b9050602002013573ffffffffffffffffffffffffffffffffffffffff16611db4565b87600081518110610a6957fe5b6020026020010151611f0f565b610acd88886000818110610a8657fe5b9050602002013573ffffffffffffffffffffffffffffffffffffffff1633600360009054906101000a900473ffffffffffffffffffffffffffffffffffffffff1684611f0f565b610b1984898980806020026020016040519081016040528093929190818152602001838360200280828437600081840152601f19601f8201169050808301925050505050505088612120565b5050509695505050505050565b600360149054906101000a900460ff1681565b610b41611ada565b73ffffffffffffffffffffffffffffffffffffffff16610b5f6116c8565b73ffffffffffffffffffffffffffffffffffffffff1614610be8576040517f08c379a00000000000000000000000000000000000000000000000000000000081526004018080602001828103825260208152602001807f4f776e61626c653a2063616c6c6572206973206e6f7420746865206f776e657281525060200191505060405180910390fd5b600073ffffffffffffffffffffffffffffffffffffffff166000809054906101000a900473ffffffffffffffffffffffffffffffffffffffff1673ffffffffffffffffffffffffffffffffffffffff167f8be0079c531659141344cd1fd0a4f28419497f9722a3daafe3b4186f6b6457e060405160405180910390a360008060006101000a81548173ffffffffffffffffffffffffffffffffffffffff021916908373ffffffffffffffffffffffffffffffffffffffff160217905550565b8042811015610d01576040517f08c379a000000000000000000000000000000000000000000000000000000000815260040180806020018281038252602a815260200180613012602a913960400191505060405180910390fd5b7f000000000000000000000000000000000000000000000000000000000000000073ffffffffffffffffffffffffffffffffffffffff16858560018888905003818110610d4a57fe5b9050602002013573ffffffffffffffffffffffffffffffffffffffff1673ffffffffffffffffffffffffffffffffffffffff1614610dd3576040517f08c379a00000000000000000000000000000000000000000000000000000000081526004018080602001828103825260318152602001806130fc6031913960400191505060405180910390fd5b610e8485856000818110610de357fe5b9050602002013573ffffffffffffffffffffffffffffffffffffffff1633610e7e7f000000000000000000000000000000000000000000000000000000000000000089896000818110610e3257fe5b9050602002013573ffffffffffffffffffffffffffffffffffffffff168a8a6001818110610e5c57fe5b9050602002013573ffffffffffffffffffffffffffffffffffffffff16611db4565b8a611f0f565b610ecf858580806020026020016040519081016040528093929190818152602001838360200280828437600081840152601f19601f82011690508083019250505050505050306123cb565b60007f000000000000000000000000000000000000000000000000000000000000000073ffffffffffffffffffffffffffffffffffffffff166370a08231306040518263ffffffff1660e01b8152600401808273ffffffffffffffffffffffffffffffffffffffff1673ffffffffffffffffffffffffffffffffffffffff16815260200191505060206040518083038186803b158015610f6e57600080fd5b505afa158015610f82573d6000803e3d6000fd5b505050506040513d6020811015610f9857600080fd5b8101908080519060200190929190505050905086811015611004576040517f08c379a00000000000000000000000000000000000000000000000000000000081526004018080602001828103825260288152602001806130b36028913960400191505060405180910390fd5b7f000000000000000000000000000000000000000000000000000000000000000073ffffffffffffffffffffffffffffffffffffffff16632e1a7d4d826040518263ffffffff1660e01b815260040180828152602001915050600060405180830381600087803b15801561107757600080fd5b505af115801561108b573d6000803e3d6000fd5b5050505060008061109b83611ae2565b915091506110a98683612842565b6110d5600360009054906101000a900473ffffffffffffffffffffffffffffffffffffffff1682612842565b50505050505050505050565b6060814281101561113d576040517f08c379a000000000000000000000000000000000000000000000000000000000815260040180806020018281038252602a815260200180613012602a913960400191505060405180910390fd5b7f000000000000000000000000000000000000000000000000000000000000000073ffffffffffffffffffffffffffffffffffffffff168686600081811061118157fe5b9050602002013573ffffffffffffffffffffffffffffffffffffffff1673ffffffffffffffffffffffffffffffffffffffff161461120a576040517f08c379a000000000000000000000000000000000000000000000000000000000815260040180806020018281038252602381526020018061303c6023913960400191505060405180910390fd5b60008061121634611ae2565b915091506112867f0000000000000000000000000000000000000000000000000000000000000000838a8a80806020026020016040519081016040528093929190818152602001838360200280828437600081840152601f19601f82011690508083019250505050505050611c3c565b9350888460018651038151811061129957fe5b602002602001015110156112f8576040517f08c379a000000000000000000000000000000000000000000000000000000000815260040180806020018281038252603181526020018061305f6031913960400191505060405180910390fd5b7f000000000000000000000000000000000000000000000000000000000000000073ffffffffffffffffffffffffffffffffffffffff1663d0e30db08560008151811061134157fe5b60200260200101516040518263ffffffff1660e01b81526004016000604051808303818588803b15801561137457600080fd5b505af1158015611388573d6000803e3d6000fd5b50505050507f000000000000000000000000000000000000000000000000000000000000000073ffffffffffffffffffffffffffffffffffffffff1663a9059cbb6114467f00000000000000000000000000000000000000000000000000000000000000008b8b60008181106113fa57fe5b9050602002013573ffffffffffffffffffffffffffffffffffffffff168c8c600181811061142457fe5b9050602002013573ffffffffffffffffffffffffffffffffffffffff16611db4565b8660008151811061145357fe5b60200260200101516040518363ffffffff1660e01b8152600401808373ffffffffffffffffffffffffffffffffffffffff1673ffffffffffffffffffffffffffffffffffffffff16815260200182815260200192505050602060405180830381600087803b1580156114c457600080fd5b505af11580156114d8573d6000803e3d6000fd5b505050506040513d60208110156114ee57600080fd5b810190808051906020019092919050505061150557fe5b7f000000000000000000000000000000000000000000000000000000000000000073ffffffffffffffffffffffffffffffffffffffff1663a9059cbb600360009054906101000a900473ffffffffffffffffffffffffffffffffffffffff16836040518363ffffffff1660e01b8152600401808373ffffffffffffffffffffffffffffffffffffffff1673ffffffffffffffffffffffffffffffffffffffff16815260200182815260200192505050602060405180830381600087803b1580156115ce57600080fd5b505af11580156115e2573d6000803e3d6000fd5b505050506040513d60208110156115f857600080fd5b810190808051906020019092919050505061160f57fe5b61165b84898980806020026020016040519081016040528093929190818152602001838360200280828437600081840152601f19601f8201169050808301925050505050505088612120565b611682818560008151811061166c57fe5b60200260200101516129a190919063ffffffff16565b3411156116bc576116bb336116b4838760008151811061169e57fe5b60200260200101516129a190919063ffffffff16565b3403612842565b5b50505095945050505050565b60008060009054906101000a900473ffffffffffffffffffffffffffffffffffffffff16905090565b600160009054906101000a900473ffffffffffffffffffffffffffffffffffffffff1681565b7f000000000000000000000000000000000000000000000000000000000000000081565b600360009054906101000a900473ffffffffffffffffffffffffffffffffffffffff1681565b60025481565b7f000000000000000000000000000000000000000000000000000000000000000081565b611793611ada565b73ffffffffffffffffffffffffffffffffffffffff166117b16116c8565b73ffffffffffffffffffffffffffffffffffffffff161461183a576040517f08c379a00000000000000000000000000000000000000000000000000000000081526004018080602001828103825260208152602001807f4f776e61626c653a2063616c6c6572206973206e6f7420746865206f776e657281525060200191505060405180910390fd5b80600360006101000a81548173ffffffffffffffffffffffffffffffffffffffff021916908373ffffffffffffffffffffffffffffffffffffffff1602179055507f27aae5db36d94179909d019ae0b1ac7c16d96d953148f63c0f6a0a9c8ead79ee81604051808273ffffffffffffffffffffffffffffffffffffffff1673ffffffffffffffffffffffffffffffffffffffff16815260200191505060405180910390a150565b61271081565b6118ef611ada565b73ffffffffffffffffffffffffffffffffffffffff1661190d6116c8565b73ffffffffffffffffffffffffffffffffffffffff1614611996576040517f08c379a00000000000000000000000000000000000000000000000000000000081526004018080602001828103825260208152602001807f4f776e61626c653a2063616c6c6572206973206e6f7420746865206f776e657281525060200191505060405180910390fd5b600073ffffffffffffffffffffffffffffffffffffffff168173ffffffffffffffffffffffffffffffffffffffff161415611a1c576040517f08c379a0000000000000000000000000000000000000000000000000000000008152600401808060200182810382526026815260200180612fc16026913960400191505060405180910390fd5b8073ffffffffffffffffffffffffffffffffffffffff166000809054906101000a900473ffffffffffffffffffffffffffffffffffffffff1673ffffffffffffffffffffffffffffffffffffffff167f8be0079c531659141344cd1fd0a4f28419497f9722a3daafe3b4186f6b6457e060405160405180910390a3806000806101000a81548173ffffffffffffffffffffffffffffffffffffffff021916908373ffffffffffffffffffffffffffffffffffffffff16021790555050565b600033905090565b600080600254600160009054906101000a900473ffffffffffffffffffffffffffffffffffffffff1673ffffffffffffffffffffffffffffffffffffffff166370a08231336040518263ffffffff1660e01b8152600401808273ffffffffffffffffffffffffffffffffffffffff1673ffffffffffffffffffffffffffffffffffffffff16815260200191505060206040518083038186803b158015611b8757600080fd5b505afa158015611b9b573d6000803e3d6000fd5b505050506040513d6020811015611bb157600080fd5b81019080805190602001909291905050501115611bd45760009050829150611c37565b611c1f611c10612710611c02600360149054906101000a900460ff1660ff1687612a2990919063ffffffff16565b612aaf90919063ffffffff16565b84612b3890919063ffffffff16565b9050611c348184612b3890919063ffffffff16565b91505b915091565b6060600282511015611cb6576040517f08c379a000000000000000000000000000000000000000000000000000000000815260040180806020018281038252601c8152602001807f50616e63616b654c6962726172793a20494e56414c49445f504154480000000081525060200191505060405180910390fd5b815167ffffffffffffffff81118015611cce57600080fd5b50604051908082528060200260200182016040528015611cfd5781602001602082028036833780820191505090505b5090508281600081518110611d0e57fe5b60200260200101818152505060005b6001835103811015611dac57600080611d6087868581518110611d3c57fe5b6020026020010151876001870181518110611d5357fe5b6020026020010151612bbb565b91509150611d82848481518110611d7357fe5b60200260200101518383612cf0565b846001850181518110611d9157fe5b60200260200101818152505050508080600101915050611d1d565b509392505050565b6000806000611dc38585612e20565b91509150858282604051602001808373ffffffffffffffffffffffffffffffffffffffff1673ffffffffffffffffffffffffffffffffffffffff1660601b81526014018273ffffffffffffffffffffffffffffffffffffffff1673ffffffffffffffffffffffffffffffffffffffff1660601b8152601401925050506040516020818303038152906040528051906020012060405160200180807fff000000000000000000000000000000000000000000000000000000000000008152506001018373ffffffffffffffffffffffffffffffffffffffff1673ffffffffffffffffffffffffffffffffffffffff1660601b8152601401828152602001807fdfb16c502e2e68949725faed42b1be62932d7bfcd083ae0a5eb103a2cef581ab815250602001925050506040516020818303038152906040528051906020012060001c925050509392505050565b600060608573ffffffffffffffffffffffffffffffffffffffff166323b872dd868686604051602401808473ffffffffffffffffffffffffffffffffffffffff1673ffffffffffffffffffffffffffffffffffffffff1681526020018373ffffffffffffffffffffffffffffffffffffffff1673ffffffffffffffffffffffffffffffffffffffff16815260200182815260200193505050506040516020818303038152906040529060e01b6020820180517bffffffffffffffffffffffffffffffffffffffffffffffffffffffff83818316178352505050506040518082805190602001908083835b6020831061201c5780518252602082019150602081019050602083039250611ff9565b6001836020036101000a0380198251168184511680821785525050505050509050019150506000604051808303816000865af19150503d806000811461207e576040519150601f19603f3d011682016040523d82523d6000602084013e612083565b606091505b50915091508180156120c357506000815114806120c257508080602001905160208110156120b057600080fd5b81019080805190602001909291905050505b5b612118576040517f08c379a00000000000000000000000000000000000000000000000000000000081526004018080602001828103825260248152602001806131766024913960400191505060405180910390fd5b505050505050565b60005b60018351038110156123c55760008084838151811061213e57fe5b602002602001015185600185018151811061215557fe5b602002602001015191509150600061216d8383612e20565b509050600087600186018151811061218157fe5b602002602001015190506000808373ffffffffffffffffffffffffffffffffffffffff168673ffffffffffffffffffffffffffffffffffffffff16146121c9578260006121cd565b6000835b91509150600060028a510388106121e45788612226565b6122257f0000000000000000000000000000000000000000000000000000000000000000878c60028c018151811061221857fe5b6020026020010151611db4565b5b90506122537f00000000000000000000000000000000000000000000000000000000000000008888611db4565b73ffffffffffffffffffffffffffffffffffffffff1663022c0d9f848484600067ffffffffffffffff8111801561228957600080fd5b506040519080825280601f01601f1916602001820160405280156122bc5781602001600182028036833780820191505090505b506040518563ffffffff1660e01b8152600401808581526020018481526020018373ffffffffffffffffffffffffffffffffffffffff1673ffffffffffffffffffffffffffffffffffffffff16815260200180602001828103825283818151815260200191508051906020019080838360005b8381101561234a57808201518184015260208101905061232f565b50505050905090810190601f1680156123775780820380516001836020036101000a031916815260200191505b5095505050505050600060405180830381600087803b15801561239957600080fd5b505af11580156123ad573d6000803e3d6000fd5b50505050505050505050508080600101915050612123565b50505050565b60005b600183510381101561283d576000808483815181106123e957fe5b602002602001015185600185018151811061240057fe5b60200260200101519150915060006124188383612e20565b50905060006124487f00000000000000000000000000000000000000000000000000000000000000008585611db4565b90506000806000808473ffffffffffffffffffffffffffffffffffffffff16630902f1ac6040518163ffffffff1660e01b815260040160606040518083038186803b15801561249657600080fd5b505afa1580156124aa573d6000803e3d6000fd5b505050506040513d60608110156124c057600080fd5b81019080805190602001909291908051906020019092919080519060200190929190505050506dffffffffffffffffffffffffffff1691506dffffffffffffffffffffffffffff1691506000808773ffffffffffffffffffffffffffffffffffffffff168a73ffffffffffffffffffffffffffffffffffffffff161461254757828461254a565b83835b91509150612618828b73ffffffffffffffffffffffffffffffffffffffff166370a082318a6040518263ffffffff1660e01b8152600401808273ffffffffffffffffffffffffffffffffffffffff1673ffffffffffffffffffffffffffffffffffffffff16815260200191505060206040518083038186803b1580156125cf57600080fd5b505afa1580156125e3573d6000803e3d6000fd5b505050506040513d60208110156125f957600080fd5b8101908080519060200190929190505050612b3890919063ffffffff16565b9550612625868383612cf0565b9450505050506000808573ffffffffffffffffffffffffffffffffffffffff168873ffffffffffffffffffffffffffffffffffffffff16146126695782600061266d565b6000835b91509150600060028c51038a10612684578a6126c6565b6126c57f0000000000000000000000000000000000000000000000000000000000000000898e60028e01815181106126b857fe5b6020026020010151611db4565b5b90508573ffffffffffffffffffffffffffffffffffffffff1663022c0d9f848484600067ffffffffffffffff811180156126ff57600080fd5b506040519080825280601f01601f1916602001820160405280156127325781602001600182028036833780820191505090505b506040518563ffffffff1660e01b8152600401808581526020018481526020018373ffffffffffffffffffffffffffffffffffffffff1673ffffffffffffffffffffffffffffffffffffffff16815260200180602001828103825283818151815260200191508051906020019080838360005b838110156127c05780820151818401526020810190506127a5565b50505050905090810190601f1680156127ed5780820380516001836020036101000a031916815260200191505b5095505050505050600060405180830381600087803b15801561280f57600080fd5b505af1158015612823573d6000803e3d6000fd5b5050505050505050505050505080806001019150506123ce565b505050565b60008273ffffffffffffffffffffffffffffffffffffffff1682600067ffffffffffffffff8111801561287457600080fd5b506040519080825280601f01601f1916602001820160405280156128a75781602001600182028036833780820191505090505b506040518082805190602001908083835b602083106128db57805182526020820191506020810190506020830392506128b8565b6001836020036101000a03801982511681845116808217855250505050505090500191505060006040518083038185875af1925050503d806000811461293d576040519150601f19603f3d011682016040523d82523d6000602084013e612942565b606091505b505090508061299c576040517f08c379a000000000000000000000000000000000000000000000000000000000815260040180806020018281038252602381526020018061312d6023913960400191505060405180910390fd5b505050565b600080828401905083811015612a1f576040517f08c379a000000000000000000000000000000000000000000000000000000000815260040180806020018281038252601b8152602001807f536166654d6174683a206164646974696f6e206f766572666c6f77000000000081525060200191505060405180910390fd5b8091505092915050565b600080831415612a3c5760009050612aa9565b6000828402905082848281612a4d57fe5b0414612aa4576040517f08c379a00000000000000000000000000000000000000000000000000000000081526004018080602001828103825260218152602001806130db6021913960400191505060405180910390fd5b809150505b92915050565b6000808211612b26576040517f08c379a000000000000000000000000000000000000000000000000000000000815260040180806020018281038252601a8152602001807f536166654d6174683a206469766973696f6e206279207a65726f00000000000081525060200191505060405180910390fd5b818381612b2f57fe5b04905092915050565b600082821115612bb0576040517f08c379a000000000000000000000000000000000000000000000000000000000815260040180806020018281038252601e8152602001807f536166654d6174683a207375627472616374696f6e206f766572666c6f77000081525060200191505060405180910390fd5b818303905092915050565b6000806000612bca8585612e20565b509050612bd8868686611db4565b50600080612be7888888611db4565b73ffffffffffffffffffffffffffffffffffffffff16630902f1ac6040518163ffffffff1660e01b815260040160606040518083038186803b158015612c2c57600080fd5b505afa158015612c40573d6000803e3d6000fd5b505050506040513d6060811015612c5657600080fd5b81019080805190602001909291908051906020019092919080519060200190929190505050506dffffffffffffffffffffffffffff1691506dffffffffffffffffffffffffffff1691508273ffffffffffffffffffffffffffffffffffffffff168773ffffffffffffffffffffffffffffffffffffffff1614612cda578082612cdd565b81815b8095508196505050505050935093915050565b6000808411612d4a576040517f08c379a0000000000000000000000000000000000000000000000000000000008152600401808060200182810382526029815260200180612f986029913960400191505060405180910390fd5b600083118015612d5a5750600082115b612daf576040517f08c379a00000000000000000000000000000000000000000000000000000000081526004018080602001828103825260268152602001806131506026913960400191505060405180910390fd5b6000612dc66103e686612a2990919063ffffffff16565b90506000612ddd8483612a2990919063ffffffff16565b90506000612e0883612dfa6103e889612a2990919063ffffffff16565b6129a190919063ffffffff16565b9050808281612e1357fe5b0493505050509392505050565b6000808273ffffffffffffffffffffffffffffffffffffffff168473ffffffffffffffffffffffffffffffffffffffff161415612ea8576040517f08c379a00000000000000000000000000000000000000000000000000000000081526004018080602001828103825260238152602001806130906023913960400191505060405180910390fd5b8273ffffffffffffffffffffffffffffffffffffffff168473ffffffffffffffffffffffffffffffffffffffff1610612ee2578284612ee5565b83835b8092508193505050600073ffffffffffffffffffffffffffffffffffffffff168273ffffffffffffffffffffffffffffffffffffffff161415612f90576040517f08c379a000000000000000000000000000000000000000000000000000000000815260040180806020018281038252601c8152602001807f50616e63616b654c6962726172793a205a45524f5f414444524553530000000081525060200191505060405180910390fd5b925092905056fe50616e63616b654c6962726172793a20494e53554646494349454e545f494e5055545f414d4f554e544f776e61626c653a206e6577206f776e657220697320746865207a65726f206164647265737353617665596f757250616e63616b653a20494e53554646494349454e545f4f55545055545f414d4f554e5453617665596f757250616e63616b653a20646561646c696e6520666f722074726164652070617373656453617665596f757250616e63616b65526f757465723a20494e56414c49445f5041544853617665596f757250616e63616b65526f757465723a20494e53554646494349454e545f4f55545055545f414d4f554e5450616e63616b654c6962726172793a204944454e544943414c5f41444452455353455353617665596f757250616e63616b653a20736c6970706167652073657474696e6720746f206c6f77536166654d6174683a206d756c7469706c69636174696f6e206f766572666c6f7753617665596f757250616e63616b653a20424e422068617320746f20626520746865206c6173742070617468206974656d5472616e7366657248656c7065723a204554485f5452414e534645525f4641494c454450616e63616b654c6962726172793a20494e53554646494349454e545f4c49515549444954595472616e7366657248656c7065723a205452414e534645525f46524f4d5f4641494c4544a264697066735822122079c5d56399c26853face9d0ffda386cf950b76e6103f15f2df2d29bfc3c85c8464736f6c63430006060033",
  "devdoc": {
    "methods": {
      "owner()": {
        "details": "Returns the address of the current owner."
      },
      "renounceOwnership()": {
        "details": "Leaves the contract without owner. It will not be possible to call `onlyOwner` functions anymore. Can only be called by the current owner.     * NOTE: Renouncing ownership will leave the contract without an owner, thereby removing any functionality that is only available to the owner."
      },
      "transferOwnership(address)": {
        "details": "Transfers ownership of the contract to a new account (`newOwner`). Can only be called by the current owner."
      }
    }
  },
  "userdoc": {
    "methods": {}
  },
  "storageLayout": {
    "storage": [
      {
        "astId": 7,
        "contract": "contracts/SaveYourPancakeRouter.sol:TestingRouter",
        "label": "_owner",
        "offset": 0,
        "slot": "0",
        "type": "t_address"
      },
      {
        "astId": 591,
        "contract": "contracts/SaveYourPancakeRouter.sol:TestingRouter",
        "label": "saveYourAssetsToken",
        "offset": 0,
        "slot": "1",
        "type": "t_contract(IERC20)542"
      },
      {
        "astId": 597,
        "contract": "contracts/SaveYourPancakeRouter.sol:TestingRouter",
        "label": "balanceThreshold",
        "offset": 0,
        "slot": "2",
        "type": "t_uint256"
      },
      {
        "astId": 599,
        "contract": "contracts/SaveYourPancakeRouter.sol:TestingRouter",
        "label": "feeReceiver",
        "offset": 0,
        "slot": "3",
        "type": "t_address"
      },
      {
        "astId": 601,
        "contract": "contracts/SaveYourPancakeRouter.sol:TestingRouter",
        "label": "swapFee",
        "offset": 20,
        "slot": "3",
        "type": "t_uint8"
      }
    ],
    "types": {
      "t_address": {
        "encoding": "inplace",
        "label": "address",
        "numberOfBytes": "20"
      },
      "t_contract(IERC20)542": {
        "encoding": "inplace",
        "label": "contract IERC20",
        "numberOfBytes": "20"
      },
      "t_uint256": {
        "encoding": "inplace",
        "label": "uint256",
        "numberOfBytes": "32"
      },
      "t_uint8": {
        "encoding": "inplace",
        "label": "uint8",
        "numberOfBytes": "1"
      }
    }
  }
}